:020000040800F2
:10000000702000203D020008B10B00085F030008CB
:10001000AD0B00080F0A0008E712000800000000FE
:10002000000000000000000000000000910D00082A
:10003000130A000800000000AB020008990E000837
:10004000570200085702000857020008570200082C
:10005000570200085702000857020008570200081C
:10006000570200085702000857020008570200080C
:1000700057020008570200085702000857020008FC
:1000800057020008570200085702000857020008EC
:10009000570200085702000857020008150A000816
:1000A00057020008570200085702000857020008CC
:1000B00057020008570200085702000857020008BC
:1000C00057020008570200085702000857020008AC
:1000D000570200085702000857020008570200089C
:1000E000570200085702000857020008570200088C
:1000F000570200085702000857020008570200087C
:10010000570200085702000857020008570200086B
:100110005702000857020008C90F000857020008DC
:10012000570200085702000857020008570200084B
:10013000570200085702000857020008570200083B
:10014000570200085702000857020008570200082B
:100150005702000857020008570200089D100008C7
:10016000570200085702000857020008570200080B
:1001700057020008570200085702000857020008FB
:10018000570200085702000800F002F800F047F894
:100190000AA090E8000C82448344AAF10107DA45E2
:1001A00001D100F03CF8AFF2090EBAE80F0013F0ED
:1001B000010F18BFFB1A43F001031847AC4E0000B3
:1001C000CC4E0000103A24BF78C878C1FAD8520744
:1001D00024BF30C830C144BF04680C6070470000C1
:1001E0000023002400250026103A28BF78C1FBD840
:1001F000520728BF30C148BF0B60704700207047CE
:100200001FB504F0D0FC00F029FB04000020002101
:1002100004F076F9401C60601FBD10B510BD00F001
:1002200074FB1146FFF7ECFF00F0ECFB00F0A0FBC5
:1002300003B4FFF7F2FF03BC01F059F90948804706
:1002400009480047FEE7FEE7FEE7FEE7FEE7FEE7B8
:10025000FEE7FEE7FEE7FEE704480549054A064BD0
:1002600070470000610F000889010008701A002023
:1002700070200020701C0020701C0020EFF3108004
:1002800072B6704780F310887047434A1368012B99
:1002900004D04FF001031360404A1060404A1160DF
:1002A00040484FF0805101607047EFF3108272B602
:1002B0003948016851B34FF00001016037480168C7
:1002C00091B1EFF309811EF0100F08BF21ED108BE3
:1002D00021E9F00F4FF000041EF0100F08BF0124B9
:1002E00041F8044D006801602D490968096808C992
:1002F000B1E8F00F002B18BFB1EC108B81F3098827
:100300004EF0100E002B18BF2EF0100E82F3108846
:100310004EF0040E704722490860EFF3148222F079
:10032000040282F314881D494FF0000008601A4946
:100330004FF0010008601C484FF47F01D0F8002006
:1003400041EA0201016017484FF0805101601748EF
:100350000068006880F3088861B662B670471EF0D6
:10036000040F0CBFEFF30880EFF3098020E9F00FD2
:1003700040F804ED40F804ED1EF0040F0CBF80F3CC
:10038000088880F3098800B502F0A6FC5DF804EB4C
:100390004EF0040E70470000340000202C000020B6
:1003A0003000002004ED00E020ED00E008ED00E06A
:1003B0000FB4044910B503AA029800F0F9F910BC73
:1003C0005DF814FB000000202DE9F0474FF0000A13
:1003D00089460446C0F820A02046E16888470028E6
:1003E00076D0252806D0D4E901219047206A401C08
:1003F0002062F1E7E168204600258847C4F81CA088
:1004000006460027C4F818A02A2E09D0304600F06E
:10041000C1FF38B304EB8708303EC8F8186019E014
:1004200059F8041B204604EB87029161E168884774
:10043000012F064618D1E069002820DA25F02005B2
:100440001DE0D8F8180000EB800006EB40003038C3
:10045000C8F818002046E1688847064600F09AFF71
:100460000028EED1012F0AD02E2E08D12046E168B7
:1004700088477F1C0646022F45F02005C4DBA06993
:10048000002803DA404245F00105A061E80701D0E9
:1004900025F01005B6B1A6F14100192802D8203682
:1004A00045F400654A463146204625604D46FFF733
:1004B000A5FE58B1012806D0ED1D25F0070000F17A
:1004C000080989E704E005F1040985E730468AE771
:1004D000206ABDE8F08770B5064600F04DF9046863
:1004E000054630460A22002100F074F92C6070BDE8
:1004F00040EA0103024630B59B0710D14FF00134AA
:1005000000E008C208C91D1B9D4315EAC41FF8D0AE
:1005100013F0FF0102F8011B0DD01B0AF8E711F8D8
:10052000013B002B02F8013B05D011F8013B002BE9
:1005300002F8013BF3D130BD10B5431C02E010F8C6
:10054000011B71B18107FAD14FF0013202C88C1A38
:100550008C4314EAC211F9D0C01A0A0603D0C01E97
:1005600010BDC01A10BD0A0401D0801E10BD0902C2
:10057000FCD0401E10BD40EA010370B59B072ED190
:100580004FF00136042A2AD308C810C99D1B9D4389
:10059000121F15EAC61517D0D8B2E1B2401A50EAB8
:1005A000056110D198B2A1B2401A50EA05410AD1B2
:1005B00023F07F4024F07F41401A50EA052102D108
:1005C000180EA0EB146070BDA342DBD018BA21BA9C
:1005D000884201D9012070BD4FF0FF3070BD0AB9CB
:1005E000002070BD10F8013B11F8014B63B1A3422C
:1005F0000AD1521E08D010F8013B11F8014B1BB173
:10060000A34201D1521EEDD1181B70BD421E12F83B
:10061000013F002BFBD111F8013B002B02F8013BFD
:10062000F9D1704710B5203AC0F00B80B1E81850EE
:10063000203AA0E81850B1E81850A0E81850BFF4CC
:10064000F5AF5FEA027C24BFB1E81850A0E818506B
:1006500044BF18C918C0BDE810405FEA827C24BFBF
:1006600051F8043B40F8043B08BF7047D20728BF4D
:1006700031F8023B48BF11F8012B28BF20F8023B9C
:1006800048BF00F8012B70474FF000020429C0F06A
:10069000128010F0030C00F01B80CCF1040CBCF1B4
:1006A000020F18BF00F8012BA8BF20F8022BA1EB06
:1006B0000C0100F00DB85FEAC17C24BF00F8012BEB
:1006C00000F8012B48BF00F8012B70474FF00002E3
:1006D00000B5134694469646203922BFA0E80C5038
:1006E000A0E80C50B1F12001BFF4F7AF090728BF13
:1006F000A0E80C5048BF0CC05DF804EB890028BF8F
:1007000040F8042B08BF704748BF20F8022B11F0B7
:10071000804F18BF00F8012B704710B5044610F049
:10072000030F08BF11F0030F40F015804FF0013E9A
:10073000121FC0F20E8051F8043BA3EB0E0C2CEA02
:10074000030C1CEACE1C08BF40F8043BF0D0A1F11A
:10075000040102F10402521E08DB11F8013B002BD8
:1007600000F8013BF7D11146FFF78EFF204610BD80
:10077000704770477047000000487047101A00200B
:1007800001694A1C02610878704700B58FB0CDE955
:1007900001310021059105497944CDE90310114645
:1007A0006846FFF711FE0FB000BD0000E5FFFFFF38
:1007B000074B70B50D467B44FFF7E7FF044628461C
:1007C00000F09FF810B14FF0FF3070BD204670BDB3
:1007D000671400002DE9F04791460F468046044615
:1007E000002614F8015B2DB100F030F80068405D80
:1007F000C007F6D12B2D02D02D2D18D0641E4A46ED
:100800003946204600F02EF827B13968A14201D1BF
:10081000C7F800804FF0020471050BD54042002854
:1008200003DDFFF7A9FF0460A007BDE8F08746F4E9
:100830008066E4E70028F8DAFFF79EFF04606FF0B7
:100840000040F2E700487047101A002010B500F091
:1008500005F8001D10BD00BFA93C0000004870470E
:10086000301A00202DE9F05F824615468B4600279E
:100870000AF10104B9460078302801D09DB113E097
:1008800014F8010B0127782803D0582801D045B16E
:100890000AE00DB1102D07D1002714F8010B102527
:1008A00002E0082500E00A250026B0460EE005FB20
:1008B000080005FB06F101271FFA80F801EB10463E
:1008C000B6F5803F00D3B94614F8010B294600F075
:1008D00041F80028EBDABBF1000F05D00FB1641E20
:1008E00000E05446CBF80040B9F1000F06D0FFF706
:1008F00043FF02210160C81EBDE8F09F48EA0640A0
:10090000FAE7007B00F0800070477546FFF79AFF1A
:10091000AE4605006946534620F00700854618B0EC
:1009200020B5FFF799FCBDE820404FF000064FF0DE
:1009300000074FF000084FF0000B21F00701AC4614
:10094000ACE8C009ACE8C009ACE8C009ACE8C00933
:100950008D4670473A2800D2303820F02002412AD4
:1009600001D3A2F13700884201D34FF0FF30704726
:1009700010B50446AFF300802046BDE81040FFF7F5
:1009800057BC00004FF0013C50F8042B51F8043BD9
:100990009A4221D1A2EB0C03934313EACC1317D153
:1009A00050F8042B51F8043B9A4215D1A2EB0C03EA
:1009B000934313EACC130BD150F8042B51F8043BAA
:1009C0009A4209D1A2EB0C03934313EACC13DBD078
:1009D0004FF00000704700BFD01A01BAB1FA81F1A0
:1009E00001F0180122FA01F0CB40C1F12001DBB285
:1009F000C0B2C01A2CFA01F3D11A914311EAC31103
:100A0000E6D1704710B503F01BFC002010BD00BFFD
:100A1000FEE7704710B54FF4007000F021F848B1C0
:100A200005A0FFF7C5FC0A4802F0B9FD4FF40070BD
:100A300000F010F810BD000045585449395F355F8B
:100A400049525148616E646C65720D0A00000000E5
:100A5000D40000200149086070470000143C0140A8
:100A600001460020034A12680A400AB1012000E052
:100A700000207047143C0140F0B50A4600210023D5
:100A8000002400BF3DE0012505FA01F3156805EAE1
:100A900003049C4234D105684F000326BE40B54391
:100AA000056015794E00B540066835430560157937
:100AB000012D02D01579022D16D185684F0003262D
:100AC000BE40B543856055794E00B54086683543D4
:100AD0008560456801268E40B54345604568967936
:100AE0008E40B6B235434560C5684F000326BE4010
:100AF000B543C560D5794E00B540C6683543C5607D
:100B0000491C1029BFD3F0BDF0B5002300244D07C8
:100B1000ED0E02FA05F3CE1000F1200555F826502F
:100B20004E07F70E0F26BE40B543CF1000F120064A
:100B300046F82750CE1000F1200555F8265045EA1A
:100B40000304CE1000F1200545F82640F0BD4FF417
:100B5000C06000F06BF800F005F802E0642002F0DD
:100B600087FFFBE710B5104800684FF47A71B0FBBF
:100B7000F1F4601EB0F1807F00D30FE0601E4FF0F3
:100B8000E02148610F214FF0FF3000F059F80020BC
:100B90004FF0E02188610720086100BF0021481E56
:100BA00000F04EF810BD00001400002000BFFEE76A
:100BB0007047000070B5002100230F22C4781CB3D9
:100BC000174C246804F4E064C4F5E064C4F307211E
:100BD000C1F10404E3B20A4144789C40E1B2847854
:100BE000144021430C07210E0E4C05786155047802
:100BF00004F01F050124AC4005786D11AD0005F12E
:100C0000E025C5F8004109E0047804F01F0501243F
:100C1000AC40054D0678761145F8264070BD0000C1
:100C20000CED00E000E400E080E100E00249014357
:100C3000024A1160704700000000FA050CED00E068
:100C400010B5002807DA0A07140E054A00F00F0352
:100C50001B1FD45403E00A07130E024A135410BD9D
:100C600018ED00E000E400E029B1064A12680243F2
:100C7000044B1A6004E0034A12688243014B1A6075
:100C8000704700003038024029B1064A126802431A
:100C9000044B1A6004E0034A12688243014B1A6055
:100CA0007047000044380240F0B5002100220024C3
:100CB000022500260223324F3F6807F00C0121B1C4
:100CC000042905D0082937D105E02E4F076036E00A
:100CD0002D4F076033E02A4F3F1F3F68C7F3805610
:100CE000274F3F1F3F6807F03F036EB1264FB7FB0A
:100CF000F3F7DFF88CC0ACF1040CDCF800C0CCF3E7
:100D0000881C07FB0CF40CE01E4FB7FBF3F7DFF871
:100D100070C0ACF1040CDCF800C0CCF3881C07FBFD
:100D20000CF4174F3F1F3F68C7F301477F1C7D003E
:100D3000B4FBF5F7076002E0124F076000BF00BF89
:100D40000F4F3F6807F0F0010909104F7A5C076800
:100D5000D74047600A4F3F6807F4E051890A0B4FBC
:100D60007A5C4768D7408760054F3F6807F4604169
:100D7000490B064F7A5C4768D740C760F0BD00005A
:100D8000083802400024F40000127A000400002019
:100D9000704700000CB500200190009034480068B6
:100DA00040F480303249086000BF3148006800F4E8
:100DB000003000900198401C0190009818B90198EB
:100DC000B0F5A04FF1D12A48006800F4003010B10E
:100DD0000120009001E0002000900098012846D1F9
:100DE00023484030006840F080502149403108607D
:100DF0002048006840F440401E4908601C48083004
:100E000000681B49083108600846006840F400404B
:100E100008600846006840F4A05008601648091FA2
:100E20000860081F006840F08070091F086000BF5C
:100E30000F48006800F000700028F9D040F20570FB
:100E40000E4908600A480830006820F0030008498D
:100E5000083108600846006840F00200086000BFE2
:100E600003480830006800F00C000828F8D10CBDD9
:100E7000003802400070004008544007003C024027
:100E800010B52DED028BB0EE408AB0EE480A00F0AE
:100E9000B1F8BDEC028B10BD10B502F0D1FA10BD57
:100EA00070B500200022022300240221274D2D6866
:100EB00005F00C0020B1042806D0082834D107E042
:100EC000234D244E356033E0234D224E35602FE014
:100ED0001E4D2D1F2D68C5F380541C4D2D1F2D68F0
:100EE00005F03F0154B11C4DB5FBF1F5174E361F0F
:100EF0003668C6F3881605FB06F209E0144DB5FB0B
:100F0000F1F5124E361F3668C6F3881605FB06F259
:100F10000E4D2D1F2D68C5F301456D1C6B00B2FBF6
:100F2000F3F50C4E356003E0094D0A4E356000BF05
:100F300000BF064D2D68C5F30315084E705D054DC5
:100F40002D68C540034E356070BD00000838024072
:100F50000024F4001400002000127A001800002081
:100F600010B51548006840F4700013490860134834
:100F7000006840F001001149086000200F49083165
:100F800008600E4800680E4908400C4908600D488A
:100F9000091D0860081F006820F48020091F0860F0
:100FA000002006490C310860FFF7F4FE4FF00060A6
:100FB00001498039086010BD88ED00E0003802402A
:100FC000FFFFF6FE1030002410B50748008A00F03D
:100FD000010040B1054802F0E2FA0348008A20F01F
:100FE00001000149088210BD0010004024010020CA
:100FF000C163704770B52DED0C8BB0EE408A0020B8
:1010000008EE900A9FED200AB0EE409A9FED1F0A6D
:10101000B0EE409AB5EEC09AF1EE10FA03D8B7EEF2
:10102000000AB0EE409A1A4808EE900AF8EE680AF4
:1010300080EE890AF7EE000A30EE600A10EE105AD0
:10104000284603F03FFD41EC1B0B18EE100A03F09D
:1010500039FD41EC1D0B9FED0F0B53EC102B03F0F2
:1010600097FA41EC1C0B53EC1B2B03F02DFC41ECCD
:101070001A0B03F0E5FB044621464FF08040FFF7D2
:10108000B7FFBDEC0C8B70BD000000000050C346E4
:1010900000BD0105000000000000594070B50025AA
:1010A000174C40F22551174800F05FF8D0B11548B1
:1010B00000F014F9C5B240F22551124800F02DF8A5
:1010C000D4E90001401AFF2806D8217804F1100065
:1010D00045542068401C206020782179401AC0B215
:1010E000E0600BE040F22441064800F03EF828B1F1
:1010F0001021044800F011F80120207270BD00009A
:101100004C0100200010014001F40072B2F5007F94
:1011100000D100BFCA430280704710B500220023EF
:1011200040F66A14A14200D100BF0A120124944083
:10113000A3B2DC43048010BD21B1828942F4005285
:10114000828104E082894DF6FF731A4082817047E4
:1011500002460020B1F5007F00D100BF13880B408C
:101160000BB1012000E00020704770B5024600245A
:1011700000230025002040F66A16B14200D100BFCE
:10118000C1F3421501F01F03012606FA03F3012DF6
:1011900002D19689334006E0022D02D1168A3340EF
:1011A00001E0968A33400C12012606FA04F41688F0
:1011B000344013B10CB1012000E0002070BDF0B547
:1011C0000346002400260025002040F66A17B94295
:1011D00000D100BF1846C1F3421401F01F060127D9
:1011E00007FA06F5012C01D10C3004E0022C01D1E4
:1011F000103000E014301AB107682F43076002E096
:101200000768AF430760F0BD2DE9FF4705460E466E
:101210000024A14600BFA046B08900B100BF2C8ABF
:1012200024F44054F08804432C82AC8941F20C60D1
:101230008443B08831890843718908430443AC81F1
:10124000AC8A24F44074B0890443AC826846FFF74A
:101250002BFD2048854202D01F48854202D1DDF88F
:101260000C9001E0DDF80890A88900F4004040B13E
:1012700009EBC90000EB091031684900B0FBF1F738
:1012800007E009EBC90000EB091031688900B0FBE9
:10129000F1F76420B7FBF0F004012009642101FBA1
:1012A0001078A88900F4004040B1322000EBC8005B
:1012B000B0FBF1F000F00700044308E0322000EB3F
:1012C00008106421B0FBF1F000F00F0004432C8102
:1012D000BDE8FF87001001400014014001468888E6
:1012E000C0F30800704700BFFEE7000030B50146BC
:1012F000481EB0F1807F01D3012030BD481E4FF061
:10130000E022506150170F22002807DA13071D0E44
:101310000B4B00F00F04241F1D5503E013071C0E98
:10132000084B1C5400BFFF20054A0B3210700020F0
:101330004FF0E0229061072010610020DDE70000FF
:1013400018ED00E000E400E0014609B90020704714
:10135000C8B220B1C8B20E4A105C401CF7E701F4D5
:101360007F4028B10A48C1F30722805C0930EEE7CC
:1013700001F47F0028B10648C1F30742805C1130B8
:10138000E5E7034800EB116000781930DFE7000063
:10139000BA4B000830380A2801D2012070470020DB
:1013A00070472DE9F04389B00646884691460024EF
:1013B00000E0641C305D202804D0305D092801D095
:1013C0004445F6D324B94FF0FF3009B0BDE8F083AF
:1013D0002146304601F03CF9054615B94FF0FF3083
:1013E000F3E7202101A8FFF771F901AA4146304631
:1013F00001F09EF9074617B94FF0FF30E5E701A964
:101400003846A847C9F800000020DEE72DE9FC5F58
:1014100004468B4615461E46DDE90C9ADDE90E783A
:1014200004F11C004060006000BF24346560A660C9
:10143000C4F80C90C4F810A02321D4E9030201F0F1
:1014400048FFD4E9033C63441A1F0F4BD4E9010160
:1014500001F058FD2060A77667760020E061C4F8AF
:101460002080C4F8248060612076E0652066243CFA
:1014700000902346054A2146019004F14C0002F0F9
:1014800092FC0020BDE8FC9F41390008813B000828
:101490002DE9F04704460E4617469846DDF82090A1
:1014A00084F81190607C20F0010060746662A7628D
:1014B00000202063C4F82C80002506E004F11C0104
:1014C00001EBC50001F0D2FD6D1C012DF6DBBDE87E
:1014D000F08770B50546002406E005F11C0101EB1C
:1014E000C40001F016FE641C012CF6DB70BD00BFC9
:1014F000704770B50446FEF7C1FE0546D4F880007B
:1015000018B12046D4F8801088472846FEF7BAFE66
:1015100070BD000010B520A001F086FD21480178C3
:1015200021A001F081FD1F48007800F0010010B1FA
:1015300023A001F079FD1B48007800F0020010B1F3
:1015400022A001F071FD1748007800F0040010B1EE
:1015500021A001F069FD1348007800F0080010B1E7
:1015600021A001F061FD0F48007800F0100010B1DB
:1015700020A001F059FD0B48007800F0800030B148
:1015800008480F3001681DA001F04EFD02E01FA0C9
:1015900001F04AFD10BD0000627573206661756C34
:1015A000743A0A0029ED00E05343425F4346535228
:1015B0005F424653523A30782530325820000000BE
:1015C00049425553455252200000000050524543B5
:1015D0004953455252200000494D5052454349530A
:1015E0004552522000000000554E53544B45525274
:1015F0002000000053544B45525220005343422DCB
:101600003E424641523A253038580A000A0000004E
:1016100070B504460D4600F09DFC002070BD70B50D
:1016200004460D4600F06EFD002070BD00B587B089
:1016300001210846FFF718FB01211020FFF724FBCA
:10164000072209212448FFF75FFA07220A212248CE
:10165000FFF75AFA4FF4C060059002208DF8180089
:1016600003208DF8190000208DF81A0001208DF854
:101670001B0005A91848FFF7FFF94FF4E13001906E
:101680000020ADF80800ADF80A00ADF80C00ADF888
:1016900010000C20ADF80E0001A91048FFF7B4FDB2
:1016A00001210E48FFF748FD012240F225510B4869
:1016B000FFF785FD47208DF8000001208DF801001F
:1016C00003208DF8020001208DF803006846FFF723
:1016D00071FA07B000BD0000000002400010014098
:1016E00010B5024600200BE0135C074CA38000BF3E
:1016F000054B1B8803F04003002BF9D0431CD8B2E4
:101700008842F1DB10BD00000010014010B5154803
:10171000006890F82900C0F3400020B90020124969
:101720000870084610BD1148006840B14FF40072BF
:101730000E4801680C48FEF7F0FF0B48F2E700F096
:10174000F5FF20B10AA10848FEF7D2FE03E00AA186
:101750000548FEF7CDFE0AA10348FEF757FF0248F1
:10176000E0E70000CC0000200C180020D000002092
:101770006D7368200000000066696E7368200000C9
:101780003E00000010B501F06DFA10BD0549096872
:1017900091F8291060F34101024A126882F8291079
:1017A00070470000CC000020024A1060024A11601D
:1017B00070470000BC000020C00000207CB5002560
:1017C00017491848FFF7F0FF8021012001F056F972
:1017D000154908600846006820B914A001F024FCEF
:1017E000681E7CBD0A2015214FF480630022CDE9DC
:1017F0000010144914A002F07AF8044600231A4697
:1018000013A10948006801F0B7FE0120FFF7BEFFF1
:101810001CB115B9204602F07BF90020E1E7000079
:10182000685000089C4F0008CC0000206E6F206DAF
:10183000656D6F727920666F72207368656C6C0AD3
:101840000000000059180008747368656C6C000093
:101850007368727800000000E948006890F8290079
:1018600020F00100401CE649096881F82900FFF7D3
:101870004DFF054601F0D8FBC1E1FFF783FF0446A9
:10188000002C00DABBE11B2C05D10120DC490968E2
:1018900081F82800B3E1DA48006890F828000128B0
:1018A0000DD15B2C05D10220D549096881F82800AB
:1018B000A5E10020D249096881F8280045E0D04818
:1018C000006890F8280002283FD10020CC49096820
:1018D00081F82800412C00D191E1422C00D18EE109
:1018E000442C11D1C6480068B0F87C0058B1C5A09E
:1018F00001F09AFBC2480068B0F87C00401EC04965
:101900000968A1F87C007AE1432C1ED1BC4800682C
:10191000B0F87C00BA490968B1F87A10884213DA45
:10192000B7480068B0F87C20B54800682A30815C70
:10193000B5A001F079FBB2480068B0F87C00401C0B
:10194000AF490968A1F87C0059E10CB1FF2C00D126
:1019500055E1092C1FD1002503E0AAA001F064FB8A
:101960006D1CA7480068B0F87C00A842F5DCA448CC
:1019700000682A3002F0EEFCA14800682A30FEF729
:10198000DBFD80B29E490968A1F87A009C4909688C
:10199000A1F87C0033E17F2C01D0082C6ED198484F
:1019A0000068B0F87C0000B929E195480068B0F8FB
:1019B0007A00401E92490968A1F87A0090480068B0
:1019C000B0F87C00401E8E490968A1F87C008C4864
:1019D0000068B0F87A008A490968B1F87C1088423A
:1019E0003FDD874B1B68B3F87A30854E3668B6F812
:1019F0007C609A1B824B1B68B3F87C305B1C804E6A
:101A000036682A3699197E4B1B68B3F87C607C4B8C
:101A10001B682A33F01801F03BFC0022784800686C
:101A2000B0F87A10764800682A304254744800684A
:101A3000B0F87C20724800682A30111873A001F0B9
:101A4000F3FA6F480068B0F87C5003E06DA001F035
:101A5000EBFA6D1C6A480068B0F87A00A842F5DA23
:101A60000BE06CA001F0E0FA002165480068B0F8D6
:101A70007A20634800682A308154C0E00D2C01D0E0
:101A80000A2C2BD100F052FE012812D15C480068CC
:101A900090F8290000F0010010B15FA001F0C4FA35
:101AA00057480068B0F87A10554800682A3000F0AE
:101AB00099FDFFF72BFE054601F0B6FA502150487C
:101AC00000682A30FEF7E0FD00204D490968A1F8C2
:101AD0007A004B490968A1F87C0090E0484800680A
:101AE000B0F87A00502804DB002045490968A1F8C5
:101AF0007A0043480068B0F87C0041490968B1F8B1
:101B00007A10884245DA3E4B1B68B3F87A303C4E77
:101B10003668B6F87C609A1B394B1B68B3F87C605A
:101B2000374B1B682A33F118354B1B68B3F87C30F0
:101B30005B1C334E36682A36981901F0A9FB3048F1
:101B40000068B0F87C202E4800682A3084542C4865
:101B5000006890F8290000F0010050B128480068A2
:101B6000B0F87C20264800682A3011182BA001F01C
:101B70005BFA23480068B0F87C5003E021A001F034
:101B800053FA6D1C1E480068B0F87A00A842F5DCD4
:101B900012E01B480068B0F87A20194800682A3023
:101BA00084541748006890F8290000F0010018B12B
:101BB000214615A001F038FA002411480068B0F859
:101BC0007A00401C0E490968A1F87A000C480068A8
:101BD000B0F87C00401C0A490968A1F87C0008485C
:101BE0000068B0F87A00502808DB00200449096832
:101BF000A1F87A0002490968A1F87C0000BF3CE620
:101C0000CC00002008000000256300000825732098
:101C100020080000082008000A00000025730000CA
:101C200000BF054A128802F04002002AF9D0C2B271
:101C3000014B9A80704700000010014010B5144815
:101C4000006800F0020010B112A001F0EDF9104898
:101C5000006800F0804088B10D48C01E007808B1CF
:101C6000FFF758FC0A48001F007808B100F0F6FBA7
:101C70000748801E008808B102F0C8FB04480068CD
:101C800000F0004010B109A001F0CEF910BD000035
:101C90002CED00E06661696C656420766563746FA5
:101CA000722066657463680A0000000064656275EE
:101CB00067206576656E740A0000000010B502A00A
:101CC00001F0B2F9002010BD48656C6C6F205254D1
:101CD0002D546872656164210A00000010B50DA0E2
:101CE00001F0A2F9104804680DE002220FA120685B
:101CF000FEF741FC00B905E00DA0D4E9001201F0A7
:101D000093F900BF0C340E4800688442EDD30020E4
:101D100010BD00002D2D46756E6374696F6E204CEA
:101D20006973743A0A000000BC0000205F5F000085
:101D3000252D313673202D2D2025730A000000003B
:101D4000C00000202DE9F04704460D4616461F4608
:101D5000284601F02DFB814609F10408C4F80080F3
:101D600025726660E76000202061BDE8F0872DE9FC
:101D7000F84F07460C464FF0000A00202061E0684B
:101D800008B1207A10B90020BDE8F88FD4F800809F
:101D90001FB945464FF0010A00E03D46FEF76EFAD6
:101DA0000090BAF1000F0ED1A5F1140B9BF81000B2
:101DB00020F08000217A884204D00098FEF762FA71
:101DC0000020E1E700BF0026D4F804900BE02D6866
:101DD000454501D1002507E0761C49F8045BE06821
:101DE000B04200D100E0F2E700BF0098FEF74AFAE7
:101DF00026612846C8E700002DE9F04F91B0002782
:101E00000FF2D409082304AA05210CA8FFF79AFFB2
:101E10004FF010084A46414631A001F005F940460E
:101E200000F0FEFC37A001F0FFF800BF0CA9384617
:101E3000FFF79DFF0746002545E004A850F8250060
:101E4000A0F11406FEF71AFA8346307C20F08000D9
:101E50009DF83810884203D05846FEF713FA31E057
:101E60005846FEF70FFA344604F11C0001F02DF934
:101E7000B8B904F11C0001F030F98246208D618D63
:101E800023461022CDE9010A0091414624A001F029
:101E9000CBF804F11C0002F079FA27A001F0C4F895
:101EA0000FE004F11C0001F018F98246208D618DCD
:101EB00023461022CDE9010A009141461FA001F0FE
:101EC000B3F800BF6D1C1098A842B6DC002FADD14E
:101ED000002011B0BDE8F08F6D61696C626F780011
:101EE000252D2A2E7320656E7472792073697A65A8
:101EF0002073757370656E64207468726561640A1E
:101F000000000000202D2D2D2D20202D2D2D2D20E9
:101F10002D2D2D2D2D2D2D2D2D2D2D2D2D2D0A0041
:101F2000252D2A2E2A732025303464202025303494
:101F3000642025643A0000000A000000252D2A2EA6
:101F40002A73202530346420202530346420256411
:101F50000A00000010B50848016808A001F064F804
:101F60000B4801680BA001F05FF80F4801680FA053
:101F700001F05AF810BD00004C000020746F74612D
:101F80006C206D656D6F72793A2025640A0000003F
:101F90005000002075736564206D656D6F72792047
:101FA0003A2025640A000000540000206D61786921
:101FB0006D756D20616C6C6F6361746564206D6517
:101FC0006D6F72793A2025640A0000002DE9F04F08
:101FD0008FB000270FF2CC09082302AA02210AA819
:101FE000FFF7B0FE4FF010084A46414630A001F01E
:101FF0001BF8404600F014FC34A001F015F800BFB7
:102000000AA93846FFF7B3FE0746002541E002A8BB
:1020100050F82500A0F11406FEF730F98346307C15
:1020200020F080009DF83010884203D05846FEF71B
:1020300029F92DE05846FEF725F9344604F11C0035
:1020400001F043F8A8B904F11C0001F046F88246FB
:10205000A08C234610224146CDE9000A21A000F0C1
:10206000E3FF04F11C0002F091F917A000F0DCFF7F
:102070000DE004F11C0001F030F88246A08C2346EC
:1020800010224146CDE9000A1AA000F0CDFF00BFA2
:102090006D1C0E98A842BADC002FB1D100200FB001
:1020A000BDE8F08F73656D6170686F726500000048
:1020B000252D2A2E73207620202073757370656E6F
:1020C00064207468726561640A000000202D2D2D63
:1020D000202D2D2D2D2D2D2D2D2D2D2D2D2D2D0A60
:1020E00000000000252D2A2E2A732025303364207D
:1020F00025643A00252D2A2E2A73202530336420AA
:1021000025640A002DE9F04FB3B04FF000090FF23B
:102110001C1B082325AA01212DA8FFF713FE4FF051
:10212000100A5A465146434800F07EFF504600F0E0
:1021300077FB41A000F078FF00BF2DA94846FFF7CC
:1021400016FE81464FF0000865E025A850F82800EB
:10215000A0F11405FEF792F83290287C20F0800060
:102160009DF8BC10884203D03298FEF78BF850E0FF
:102170008822294603A8FEF755FA3298FEF782F81E
:102180002C4694F83D0023461022514600903AA078
:1021900000F04AFF94F83C0000F00F06012E03D136
:1021A00038A000F041FF15E0022E03D138A000F066
:1021B0003BFF0FE01EB939A000F036FF0AE0042E05
:1021C00003D139A000F030FF04E0032E02D139A082
:1021D00000F02AFF276B00E07F1C38782328FBD013
:1021E000D4E90C10791A401A64214843616BB0FBA2
:1021F000F1F00290A16BA06CCDE90001636A206B45
:10220000C01A636BC1181A462DA0029B00F00CFF88
:1022100000BF08F101083198404596DCB9F1000F84
:102220008BD1002033B0BDE8F08F00007468726578
:1022300061640000DC4C0008202D2D2D20202D2D68
:102240002D2D2D2D2D202D2D2D2D2D2D2D2D2D2DCB
:10225000202D2D2D2D2D2D2D2D2D2D20202D2D2DD5
:102260002D2D2D20202D2D2D2D2D2D2D2D2D2D20C5
:102270002D2D2D0A00000000252D2A2E2A73202541
:102280003364200020726561647920200000000022
:102290002073757370656E640000000020696E69BC
:1022A000742020200000000020636C6F73652020E4
:1022B000000000002072756E6E696E6700000000FD
:1022C0002030782530387820307825303878202034
:1022D00020202530326425252020203078253038F4
:1022E0007820253033640A002DE9F04790B00027AC
:1022F0000FF2B409082303AA0A210BA8FFF722FD55
:102300004FF010084A46414629A000F08DFE404695
:1023100000F086FA30A000F087FE00BF0BA9384617
:10232000FFF725FD074600262DE003A850F82600FC
:10233000A0F11404FDF7A2FF8246207C20F080006B
:102340009DF83410884203D05046FDF79BFF19E0FA
:102350005046FDF797FF2546D5E90B012B46102285
:10236000CDE90001414625A000F05EFE687C00F04A
:10237000010018B127A000F057FE02E028A000F0ED
:1023800053FE00BF761C0F98B042CEDC002FC5D1A3
:1023900001F054FC0446214625A000F045FE002033
:1023A00010B0BDE8F087000074696D657200000030
:1023B000252D2A2E732020706572696F6469632051
:1023C000202074696D656F757420202020202020E6
:1023D000666C61670A000000202D2D2D2D2D2D2DFE
:1023E0002D2D2D202D2D2D2D2D2D2D2D2D2D202D37
:1023F0002D2D2D2D2D2D2D2D2D2D0A00252D2A2E67
:102400002A73203078253038782030782530387895
:10241000200000006163746976617465640A0000DD
:1024200064656163746976617465640A0000000024
:1024300063757272656E74207469636B3A307825C7
:102440003038780A0000000000BFFEF780FB10B5AE
:10245000044600F033FBFFF7F7FF10BD10B51CA0DA
:1024600000F0E2FD1F4801781FA000F0DDFD1D48CF
:10247000007800F0010010B121A000F0D5FD19484E
:10248000007800F0020010B120A000F0CDFD15484A
:10249000007800F0080010B11FA000F0C5FD114841
:1024A000007800F0100010B11EA000F0BDFD0D4836
:1024B000007800F0800030B10A480C3001681CA0A0
:1024C00000F0B2FD02E01EA000F0AEFD10BD000065
:1024D0006D656D206D616E616765206661756C74F8
:1024E0003A0A000028ED00E05343425F434653524E
:1024F0005F4D4653523A3078253032582000000064
:102500004941434356494F4C200000004441434356
:1025100056494F4C200000004D554E53544B4552E8
:10252000522000004D53544B4552522000000000F1
:102530005343422D3E4D4D41523A253038580A0002
:102540000A0000002DE9F04781460026002799F88F
:10255000000028B90021084600F0A8F8BDE8F0877F
:102560001B48046827E006221AA12068FEF703F83A
:1025700000B11FE0206800F106084846FDF7DCFFC7
:102580008246524641464846FDF7F5FF88B926B9CE
:1025900047463846FDF7D0FF06464146384601F02B
:1025A00020FF0546B54200DA2E4641460BA000F05A
:1025B0003BFD00BF0C340A4800688442D3D327B1E6
:1025C00032463946484601F0AEF800BFC6E7000083
:1025D000BC0000205F5F636D645F000025730A002C
:1025E000C000002038B504460D4601E0641C6D1E95
:1025F0002DB120782028F9D020780928F6D00DB9FF
:10260000002038BD6A4629462046FEF7CAFE08B9B2
:102610000098F6E7204600E0401C0178202902D00F
:1026200001780029F8D100210170214602A000F0B4
:10263000FBFC4FF0FF30E4E725733A20636F6D6DCC
:10264000616E64206E6F7420666F756E642E0A0072
:102650002DE9F04106460D4600271048046815E0B4
:1026600006220FA12068FDF786FF00B10DE021686A
:10267000881D2A463146FDF77EFF28B9A81D21682E
:10268000085C08B9A76805E000BF0C34064800687C
:102690008442E5D300BF3846BDE8F081BC0000208D
:1026A0005F5F636D645F0000C000002070B5054689
:1026B0000E460FA000F0B8FC144804680EE0062295
:1026C00013A12068FDF757FF00B106E0D4E900022E
:1026D000811D11A000F0A8FC00BF0C341148006857
:1026E0008442ECD310A000F09FFC002070BD0000DD
:1026F00052542D546872656164207368656C6C2057
:10270000636F6D6D616E64733A0A0000BC00002057
:102710005F5F636D645F0000252D313673202D20CF
:1027200025730A00C00000200A0000000120704745
:102730002DE9F04782460E46904654460025002774
:1027400055E003E000202070641C6D1C20782028D8
:1027500002D02078092801D1B542F3D3082F12D333
:1027600026A000F061FC4FF0000906E058F829109F
:102770002AA000F059FC09F10109B945F6D326A0B9
:1027800000F052FC35E0B54200D332E02078222838
:102790001CD1641C6D1C48F827407F1C09E0207880
:1027A0005C2804D16078222801D1641C6D1C641C53
:1027B0006D1C2078222801D0B542F0D3B54200D359
:1027C00017E000202070641C6D1C10E048F82740C2
:1027D0007F1C01E0641C6D1C2078202804D0207828
:1027E000092801D0B542F5D3B54200D301E0B54286
:1027F000A7D300BF3846BDE8F0870000546F6F20B4
:102800006D616E7920617267732021205765206F9A
:102810006E6C79205573653A0A000000257320001C
:1028200010B5044602E004A000F0FEFB201EA4F157
:102830000104F8D110BD00002D00000030B51A4C85
:10284000436824681919884215D04B889BB9174BE7
:102850001B6899420FD0164B1B688B4201D1144B59
:1028600018604B684360104B1B68C31A0E4D4C68D0
:102870002D682C44A3600C4C836824681A1982428A
:1028800011D053887BB90A4B1B68834201D1084B96
:102890001A6043685360044B1B68D31A024D4468A6
:1028A0002D682C44A36030BD40000020440000206F
:1028B000480000202DE9F04F86B00D469C46DDE92A
:1028C000106401960F9B04F04008B8F1000F02D08D
:1028D000DFF8708101E0DFF87081CDF8008004F04E
:1028E0001008B8F1000F01D024F0010404F0010831
:1028F000B8F1000F02D04FF0300801E04FF020088F
:10290000C246002704F00208B8F1000F11D0002AD7
:1029100002DA2D2752420CE004F00408B8F1000F4F
:1029200001D02B2705E004F00808B8F1000F00D013
:102930002027002142B94FF0300B8846491C0DF189
:10294000080909F808B01DE01AE0E146B9F10A0FDC
:1029500008D14FF00A0BB2FBFBFE0BFB1E28B2FBAB
:10296000FBF202E002F00F08120900BFDDF8009050
:1029700019F808B08846491C0DF1080909F808B093
:10298000002AE2D1B14200DD0E469B1B04F0110883
:10299000B8F1000F10D117B1002B00DD5B1E06E06F
:1029A000A84203D24FF0200880F80080401CB3F109
:1029B0000008A3F10103F3DC27B1A84200D207709D
:1029C0005B1E401C04F01008B8F1000F0AD104E0AF
:1029D000A84201D280F800A0401CB3F10008A3F186
:1029E0000103F5DC06E0A84203D24FF0300880F87E
:1029F0000080401CB046761E8845F4DC08E0A84202
:102A000005D20DF1080818F8018080F80080401CFC
:102A1000B1F10008A1F1010104DDDDF80480B8F195
:102A2000000FECD106E0A84203D24FF0200880F856
:102A30000080401CB3F10008A3F10103F3DC06B0F1
:102A4000BDE8F08FCB4C0008BA4C00081CB5142030
:102A50000A214FF400630022CDE90010044905A0CB
:102A600000F045FF0446204601F052F81CBD00006E
:102A70004F2400086D61696E0000000070B50446C7
:102A80000D4604FB05F000F04DFB06462EB104FB9D
:102A900005F20021304600F01CFC304670BD0000FD
:102AA00010B5044C02E020688047241D024884428F
:102AB000F9D310BD884F0008904F000810B5044CA2
:102AC00002E020688047241D02488442F9D310BDEB
:102AD000904F0008984F000810B5FDF7CFFB044653
:102AE00004480088401C00B2024908802046FDF7D7
:102AF000C9FB10BD9C00002010B5FDF7BFFB0446CC
:102B00000C480088401E00B20A4908800846B0F907
:102B1000000000280ADC002008802046FDF7B2FBF8
:102B20000548006828B100F093FC02E02046FDF75C
:102B3000A9FB10BD9C000020A000002070B5054638
:102B400005B970BD1D480068854203D31C48006864
:102B5000854200D3F5E7A5F10C044FF0FF31194889
:102B600000F046FD608818B12088B0F5F55F08D008
:102B700015A000F059FA23886288214619A000F0B8
:102B800053FA002060804FF4F550208021480068FF
:102B9000844201D21F480460084960680968611ACC
:102BA000401A1D490968081A1B4908602046FFF7AA
:102BB00045FE044800F0F3FC00BFC2E740000020DF
:102BC00044000020E4160020746F206672656520C2
:102BD0006120626164206461746120626C6F636B68
:102BE0003A0A00006D656D3A203078253038782C2F
:102BF000207573656420666C61673A2025642C201B
:102C00006D6167696320636F64653A2030782530B1
:102C100034780A0048000020500000200048704727
:102C20005C030020004870475C13002070B5FEF77D
:102C300037F90B4800684FF47A71B0FBF1F4204685
:102C4000FEF754FBFFF72CFFFFF7ECFF0446FFF7FE
:102C5000E5FF0546214600F081FD01F0D2FB70BD85
:102C60001400002010B54FF0FF3440F225510B48FE
:102C7000FEF77BFA20B10948FEF730FB04460BE073
:102C800008210648FEF764FA18B108210348FEF748
:102C90003BFA052000F0ECFEE0B210BD0010014050
:102CA000F8B50546002400260D200090284600F0C7
:102CB00031FD064600BF0BE0285D0A2803D1012143
:102CC0006846FEF70DFD28190121FEF709FD641C79
:102CD000B442F1D3F8BD00002DE9F041054605F1FD
:102CE00028062C1D3348006840B130463149096838
:102CF000884707460FB9BDE8F08100BF2EA0216CC0
:102D000000F092F930A0616A00F08EF932A0A16A59
:102D100000F08AF934A0E16A00F086F936A0216B50
:102D200000F082F938A0616800F07EF93AA0A1684D
:102D300000F07AF93CA0E16800F076F93EA0216944
:102D400000F072F940A0616900F06EF942A0A1693B
:102D500000F06AF944A0E16900F066F946A0216A32
:102D600000F062F948A0616B00F05EF94AA0A16B27
:102D700000F05AF94CA0E16B00F056F9287800F009
:102D8000040048B100F09CFE074639464AA000F016
:102D90004BF9FFF7B7F902E04FA000F045F92878AA
:102DA00000F0100010B953A000F03EF9FEF746FF06
:102DB00000BFFEE7380000207073723A203078259B
:102DC0003038780A000000007230303A2030782520
:102DD0003038780A000000007230313A203078250F
:102DE0003038780A000000007230323A20307825FE
:102DF0003038780A000000007230333A20307825ED
:102E00003038780A000000007230343A20307825DB
:102E10003038780A000000007230353A20307825CA
:102E20003038780A000000007230363A20307825B9
:102E30003038780A000000007230373A20307825A8
:102E40003038780A000000007230383A2030782597
:102E50003038780A000000007230393A2030782586
:102E60003038780A000000007231303A203078257E
:102E70003038780A000000007231313A203078256D
:102E80003038780A000000007231323A203078255C
:102E90003038780A00000000206C723A2030782523
:102EA0003038780A000000002070633A203078251E
:102EB0003038780A0000000068617264206661752D
:102EC0006C74206F6E207468726561643A2025739B
:102ED0000D0A0D0A000000006861726420666175C9
:102EE0006C74206F6E2068616E646C65720D0A0DE3
:102EF0000A00000046505520616374697665210D13
:102F00000A000000F0B504460D461646301D20F0BC
:102F1000070044380146002203E00D4F41F82270BB
:102F2000521C112AF9D34D624FF0000CC1F828C091
:102F3000C1F82CC0C1F830C0C1F834C08B63CC6379
:102F40004FF0807CC1F840C000270F60F0BD00004A
:102F5000EFBEADDE10B5FDF791F9044604480078E8
:102F6000401C034908702046FDF78CF910BD000095
:102F70003C00002010B5FDF781F9044604480078B4
:102F8000401E034908702046FDF77CF910BD000083
:102F90003C00002070B504462068A0F11C052846BE
:102FA00000F070FD002070BD2DE9F04105460C4693
:102FB0009046204600F0C2FDB8F1000F03D0B8F1F2
:102FC000010F23D105E004F11C01284600F066F84A
:102FD0001DE02E680FE0A6F11C0794F83D0097F85D
:102FE0003D10884206DA04F11C0107F11C0000F0D4
:102FF00055F802E03668AE42EDD100BFAE4204D1D2
:1030000004F11C01284600F049F800E000BF00BFB1
:103010000020BDE8F08110B5044604F11C0000F06A
:103020001FF8002010BD00000FB438B505A80090AF
:1030300040F2FF110948009B049A00F059FF044632
:10304000B4F5007F01D340F2FF140448FFF728FED7
:103050000020009038BC5DF814FB0000E414002050
:1030600040600060704740600060704740600060F2
:1030700070470268516002680A60016048607047EA
:103080000268516002680A60016048607047026827
:10309000516002680A6001604860704742681160D0
:1030A00042684A604160086070470146086888428B
:1030B00001D1012070470020FCE7014608688842E2
:1030C00001D1012070470020FCE7014608688842D2
:1030D00001D1012070470020FCE7014600200A468C
:1030E00001E01268401C13688B42FAD17047D0E9A6
:1030F00000215160D0E9001211604060006070470B
:10310000D0E900215160D0E90012116040600060F8
:103110007047D0E900215160D0E900121160406091
:10312000006070472DE9F041054615B90020BDE863
:10313000F081E81C20F003054E480068854201D963
:103140000020F4E70C2D00D20C254FF0FF314A4847
:1031500000F04EFA4948006849490968461A7EE07D
:103160004748006884196088002874D106F10C0073
:103170006168081AA8426ED306F10C006168091A4A
:1031800005F11800814230D306F10C0000EB050870
:103190003B48006800EB08074FF4F55038800020EA
:1031A000788060687860BE60C4F804800120608028
:1031B0003048796800680C30814205D03049786821
:1031C00009680844C0F808802E48016805F10C0021
:1031D00008442C4908602C4800680968884219D2C4
:1031E000284800682849086014E0012060802449CC
:1031F00060680968611A401A22490968084421492F
:103200000860214800680968884203D21D480068A8
:103210001D4908604FF4F55020801848006884422A
:1032200012D107E01548006840681549096808444C
:103230001249086011480068408828B10F480068AA
:10324000124909688842EDD10B4800F0A8F904F151
:103250000C006CE7FFE70A48006830444668054800
:103260000068401BB0423FF67BAF034800F097F97F
:1032700000205CE74C000020E416002048000020FD
:103280004000002050000020540000204400002096
:1032900070B50C46014623468B4210D29D188D42D4
:1032A0000DD91144134405E05D1E2B462E784D1EAA
:1032B00029462E70151EA2F10102F5D108E003E0A7
:1032C00013F8015B01F8015B151EA2F10102F7D1B1
:1032D00070BDF0B50C460546E6B2042A15D300F0E1
:1032E000030797B9014646EA062343EA034304E08D
:1032F00008C108C108C108C1103A102AF8D201E07B
:1033000008C1121F042AFBD20D4601E005F8016B2B
:10331000171EA2F10102F9D1F0BD2DE9F0410646D8
:103320000F46304600F044F80546E868FFF7FAFE1D
:10333000044614B90020BDE8F08100212046EA6867
:10334000FFF7C7FF2674002060741022394620461C
:1033500000F0E9F9FCF792FF804604F11401281D02
:10336000FFF787FE4046FCF78DFF2046E3E770B588
:10337000044600202074FCF781FF054604F1140088
:10338000FFF7B5FE2846FCF77DFF2046FFF7D6FB8A
:1033900070BD70B5044600202074FCF76FFF054631
:1033A00004F11400FFF7A3FE2846FCF76BFF70BD85
:1033B000024600210AE0074800EB01100078904225
:1033C00003D1044800EB01107047491C0429F2DBCB
:1033D0000020F9E7580000202DE9F04704460D468B
:1033E000904600262846FFF7E3FF0746FFF774FBE9
:1033F0007E6802E0A6F114003668381D8642F9D1D5
:10340000FFF77AFB45F080002074102241462046E9
:1034100000F089F9FCF732FF814604F11401381DF0
:10342000FFF727FE4846FCF72DFFBDE8F087014671
:10343000087C00F0800008B1012070470020FCE704
:1034400010B5FFF787FD00F0FFFBFFF793FD10BD00
:103450002DE9F041FCF712FF07461848008838BBF9
:1034600017480068FDF770FF461E164850F83600F2
:10347000A0F11C0414480068844218D013490E704F
:103480001148056804601248007850B904F124011D
:1034900005F12400FCF7F9FE3846FCF7F3FEBDE821
:1034A000F08104F1240105F12400FCF7EEFE00BFD9
:1034B0003846FCF7E7FE00BFF1E700009C00002063
:1034C000980000200C170020A0000020A40000207D
:1034D0003C00002070B50446FCF7D0FE054614F809
:1034E0003C0F20F00F0040F00100207062783C3C5F
:1034F0000A4B03EBC20004F11C01426811604268F0
:103500004A604160086000BF0549206C09680843B3
:10351000034908602846FCF7B5FE70BD0C17002073
:103520009800002070B50446FCF7A8FE054604F19B
:103530001C00D0E900215160D0E900121160406008
:10354000006000BF94F83D10094A02EBC100016819
:10355000814201D1012100E0002129B10548216CFF
:1035600000688843034908602846FCF78BFE70BD5D
:103570000C170020980000202DE9F04104460D466C
:1035800016461F462A4602212046FFF725FF204601
:10359000FFF741FDA68467740020BDE8F08170B597
:1035A00004460025FCF76AFE064604F11C00FFF7FE
:1035B0007CFD28B904F11C00FFF7ECFC01250EE0AE
:1035C000A08C4FF6FF71884203DAA08C401CA084C7
:1035D00005E03046FCF756FE6FF0020070BD304645
:1035E000FCF750FE012D01D1FFF732FF0020F5E777
:1035F00073B50546FCF742FE0646A88C002806DD9A
:10360000A88C401EA8843046FCF73CFE28E00198B8
:1036100028B93046FCF736FE6FF001007CBD00F0A3
:103620004FFA04460020A0636A7C214605F11C0085
:10363000FFF7BAFC0198002809DD01AA002104F176
:103640004C0000F06BFB04F14C0000F0C3FB304673
:10365000FCF718FEFFF7FCFEA06B08B1A06BDDE7DE
:103660000020DBE708B509A0FFF7DEFC0AA0FFF7A2
:10367000DBFC12A0052301220321009012A0FFF71A
:10368000D3FC19A0FFF7D0FC08BD00000A205C2085
:103690007C202F0A000000002D205254202D2020D5
:1036A000202020546872656164204F7065726174D7
:1036B000696E672053797374656D0A0044656320F1
:1036C0002039203230323200202F207C205C202014
:1036D00020202025642E25642E2564206275696CC7
:1036E000642025730A0000002032303036202D205F
:1036F0003230323020436F707972696768742062AB
:10370000792072742D746872656164207465616DCE
:103710000A00000001460A4600E0521C107800280A
:10372000FBD1501A704770B50346A2B118460C463B
:1037300000BF14F8016B00F8016B3EB902E00025F0
:1037400000F8015B551E2A1EF9D102E0551E2A1E03
:10375000EFD100BF00BF184670BD00002DE9F04159
:1037600005460E46E81C20F0030726F00308B8F1D2
:10377000180F09D9A8F11800B84205D3A8EB070023
:1037800018381E49086006E0324629461CA0FFF79B
:103790004BFCBDE8F0812948076004684FF4F55000
:1037A0002080164800680C3060600020A0606080B7
:1037B0002249606809680844214908604FF4F550BF
:1037C0000968088001201E49096848800B48006884
:1037D0000C301B4909684860084800680C301849DB
:1037E000096888600023012216A11848FFF7C4FE6B
:1037F000124800681649086000BFCAE74C00002064
:103800006D656D20696E69742C206572726F72200F
:10381000626567696E2061646472657373203078D5
:1038200025782C20616E6420656E6420616464726A
:1038300065737320307825780A000000400000206E
:10384000440000206865617000000000E41600205C
:103850004800002010B500200B490880002405E036
:103860000A4901EBC400FFF7FEFB641C202CF7DBC8
:103870001F200749087000200649086006490860B3
:103880000648FFF7F0FB10BD9C0000200C1700203D
:10389000A4000020A000002098000020A800002024
:1038A00070B508480068FDF74FFD451E064850F802
:1038B0003500A0F11C040548046004F12400FCF765
:1038C0002AFD70BD980000200C170020A0000020E9
:1038D00010B5002405E0044901EBC400FFF7C6FB66
:1038E000641C002CF7D010BDB000002070472DE9FB
:1038F000FF5F06460F4690461D46DDE90EAB31469A
:103900000120FFF70AFD8146B9F1000F03D1002025
:1039100004B0BDE8F09F2846FFF704FC044624B934
:103920004846FFF724FD0020F2E743463A46314679
:1039300048468DE8300CFDF769FD4846E8E7000091
:1039400070B513480468FCF799FC05462046FDF75E
:10395000D0FD2046FFF7E6FD042084F83C0004F18A
:103960004C0000F00CFA2046FFF761FD012803D15E
:103970002046FFF70EFD04E004F11C010548FFF7A7
:103980007FFBFFF765FD2846FCF77CFC70BD00005F
:10399000A0000020A800002001E000F001F8FCE7F2
:1039A00070B528E0FCF76AFC054600BF13480168C3
:1039B000814201D0012100E0002119B92846FCF71D
:1039C00061FC19E00D480068A0F11C0404F11C0022
:1039D000D0E900215160D0E9001211604060006020
:1039E00000BF206BFFF7AAF82046FFF7C0FC28466F
:1039F000FCF748FC00BFD5E700BF70BDA800002061
:103A00001FB520201F21C200074BCDE90032CDE9B0
:103A100002100023054A06A1074800F00FF80648E7
:103A200000F076F81FBD0000E4130020993900086B
:103A30007469646C650000005C1300202DE9FF5F71
:103A400005460C4616461F46DDE910ABDDE90E893A
:103A5000224601212846FFF7BFFC3B46324621465D
:103A600028468DE8000FFDF7D1FC04B0BDE8F09FBB
:103A700070B50446204600F0C5F80546284600F01B
:103A800025F870BD70B5044694F83C0000F00F00B6
:103A9000022802D04FF0FF3070BDFCF7EFFB054667
:103AA00004F11C00FFF72CFB04F14C0000F008FAB5
:103AB0002846FCF7E7FB2046FFF70CFD0020EBE76C
:103AC0000148006870470000A000002031B5FCF7F5
:103AD000D5FB05460D480468204600F02FF86A46DD
:103AE000002104F14C0000F019F904F14C0000F041
:103AF00071F92846FCF7C6FBFFF7AAFCA06B801CF7
:103B000008B90020A063002038BD0000A0000020FC
:103B100010B504463C34A07860706178012088407C
:103B20006060022004F83C092046FFF7ABFFFFF776
:103B3000C7FF08B1FFF78CFC002010BD70B504462C
:103B400094F83C0000F00F00012802D04FF0FF3045
:103B500070BDFCF793FB05462046FFF7E3FC94F8A5
:103B60003C0020F00F0040F0020084F83C0004F11B
:103B70004C0000F0A5F92846FCF784FB0020E7E79D
:103B800070B5044625466FF00100A86305F11C00DE
:103B9000FFF7B6FA2846FFF79DFCFFF759FC70BD0A
:103BA00070B5FCF76BFB05461448046894F83C00BC
:103BB00000F00F0001281CD1D4E90710814218D071
:103BC00004F11C00FFF79CFA94F83D200C4B03EB2A
:103BD000C20004F11C014268116042684A60416001
:103BE000086000BF2846FCF74DFBFFF731FC0020C2
:103BF00070BD2846FCF746FB0020F9E7A000002036
:103C00000C1700200146002902DA4FF0FF3014E0C3
:103C10004FF47A7291FBF2F24FF47A7302FB03F0E5
:103C20001A4691FBF2F302FB13124FF47A735A43D4
:103C300002F2E73292FBF3F2104470470148006849
:103C4000704700002800002010B50A480068401C9A
:103C500008490860FFF734FF0446A06C401EA064CA
:103C6000A06C18B9606CA064FFF79AFF00F004F82C
:103C700010BD0000280000207CB56846FFF7F6F96B
:103C8000FFF7DCFF0546FCF7F9FA06463AE0224862
:103C90000068A0F11C04206B281A6FF000418842D4
:103CA0002ED22046FDF715FC607C00F0020018B90A
:103CB000607C20F00100607404F11C016846FFF78D
:103CC000E6F9D4E909108847FFF7B8FF05466846CA
:103CD000FFF7F3F900B115E004F11C00FFF719FA42
:103CE000607C00F0020060B1607C00F0010040B137
:103CF000607C20F001006074204600F06BF800E06A
:103D000005E000BF0448FFF7D8F90028BFD000BF86
:103D10003046FCF7B7FA7CBDB00000202DE9F04139
:103D200004460E461546FCF7A9FA0746052E1ED294
:103D3000DFE806F00603090E1300E06A286017E0CA
:103D40002868E06214E0607C20F0020060740FE0FC
:103D5000607C40F0020060740AE0607C00F00100CA
:103D600010B10120286001E00020286000E000BFC1
:103D700000BF3846FCF786FA0020BDE8F08170B538
:103D80000446FCF77BFA05462046FDF7A2FB607C63
:103D900020F0010060742846FCF774FA2046FFF713
:103DA000F8FA002070BD2DE9F84307460C46154689
:103DB0001E46DDE9088922460A213846FFF70CFB3A
:103DC0004346324629463846CDF80090FDF760FB61
:103DD000BDE8F8832DE9F8430546FCF74FFA804625
:103DE0002846FDF776FB687C20F001006874FFF739
:103DF00025FFE96A084428632F4F009700242AE032
:103E000019E05DF8242011681C2202EBC402881A14
:103E1000026B2B6BD21A00D108E0026B2B6BD21A0B
:103E20006FF000439A4200D20CE000BF5DF824001E
:103E300000684DF824005DF8240007EBC4014968D0
:103E40008842DED100BF2CB15DF824000830611C2F
:103E50004DF82100641C002CD2D018480068401C8A
:103E6000164908600846066805F11C010098FFF72E
:103E70000EF9022412E006F0030060B9C4F1010358
:103E800005F11C0202EBC301C4F101025DF822003E
:103E9000FFF7FDF800E003E0B608641C012CEAD946
:103EA00000BF687C40F0010068744046FCF7EAF906
:103EB0000020BDE8F8830000B0000020B80000201A
:103EC00070B50446607C00F0010010B94FF0FF307F
:103ED00070BDFCF7D3F905462046FDF7FAFA607C81
:103EE00020F0010060742846FCF7CCF90020EFE7D1
:103EF0002DE9FF4F89B081464C460A9809EB000630
:103F00004E4504D24FF0FF36A6EB09000A9077E148
:103F10000B980078252806D0B44202D20B9800787E
:103F20002070641C69E1002526E00B98401C0B9072
:103F30000B9800782D2802D145F010051CE00B9855
:103F400000782B2802D145F0040515E00B98007885
:103F5000202802D145F008050EE00B9800782328B0
:103F600002D145F0200507E00B980078302802D1F7
:103F700045F0010500E000E0D7E700BF4FF0FF3754
:103F80000B98007830380A2804D20BA800F016FAF3
:103F900007460EE00B9800782A280AD10B98401C9F
:103FA0000B900C9880C80C90002F02DA7F4245F0ED
:103FB00010054FF0FF3A0B9800782E281CD10B9873
:103FC000401C0B900B98007830380A2804D20BA8BC
:103FD00000F0F4F982460AE00B9800782A2806D10E
:103FE0000B98401C0B900C9850F804AB0C90BAF155
:103FF000000F01DA4FF0000A002004900B980078BF
:10400000682803D00B9800786C2805D10B980078AD
:1040100004900B98401C0B900A2005900B98007898
:104020006F2873D00CDC632813D004DC25286ED0F5
:1040300058286DD195E064286BD06928F9D197E0B4
:10404000702873D0732825D075286ED07828F0D1C9
:104050008AE005F0100040B904E0B44201D220200B
:104060002070641C781E071EF7DC0C9810F8041BE7
:104070000C90C8B20790B44201D207982070641C1B
:1040800004E0B44201D220202070641C781E071E78
:10409000F7DCB2E00C98006806900C98001D0C90BC
:1040A000069808B960A006904FF0000801E008F1FA
:1040B0000108B84504D0069810F808000028F6D189
:1040C000BAF1000F02DDD04500DDD04605F010004A
:1040D00048B904E0B44201D220202070641C384664
:1040E0007F1E4045F6DC002008900BE0B44202D26F
:1040F000069800782070641C0698401C069008986A
:10410000401C089008984045F0DB09E026E01FE0DD
:1041100032E02CE00AE0B44201D220202070641C7E
:1041200038467F1E4045F6DC67E024E0781C10B975
:10413000082745F00105CDE9007A02950C9804C8DE
:10414000102331460C902046FEF7B4FB044654E0A1
:10415000B44201D225202070641C4EE00820059056
:104160001DE045F0400500BF1020059017E000BF9E
:1041700045F0020500BF12E0B44201D225202070B4
:10418000641C0B98007830B1B44202D20B980078CE
:104190002070641C02E00B98401E0B902DE000BFC5
:1041A00004986C2807D10C9850F804BB0C9005F0CB
:1041B0000200B8B116E0049868280BD10C9830F8CA
:1041C000041B1FFA81FB0C9005F0020050B10FFA9E
:1041D0008BFB07E00C9850F804BB0C9005F0020034
:1041E00000B100BFCDE9007A02955A46314620461B
:1041F000059BFEF75FFB044600BF0B98401C0B902D
:104200000B98007800287FF483AE0A9838B1B44246
:1042100002D20020207002E0002006F8010CA4EB7E
:1042200009000DB0BDE8F08F284E554C4C29000018
:104230000020704700207047002070470020704722
:1042400010B5FCF71BF8FEF7F1FCFFF70BFAFFF7D0
:104250003FFBFFF7FFFAFEF7F9FBFFF747FBFFF71E
:10426000CFFBFFF71DFB002010BD0000F0B52DEDCA
:10427000088B89B004460D46202101A8FCF726FAD8
:1042800000269FED200AB0EE408A0027022C03DAB8
:104290001DA0FEF7C9FE31E0202C03DD20A0FEF7B3
:1042A000C3FE2BE001A86968FCF722F901A8FCF71E
:1042B00012F90646304600F0F0FA41EC1B0B9FED78
:1042C0001E0B53EC102B00F0FFFA41EC1A0B9FED84
:1042D0001C0B53EC102B00F05BF941EC190B00F0B8
:1042E00025F908EE100ABDEEC80A10EE101A16A045
:1042F000FEF79AFEB0EE480AFCF7C2FD09B0BDEC2D
:10430000088BF0BD000000004D697373696E672073
:10431000706172616D65746572730D0A0000000052
:10432000546F6F206D616E7920706172616D65747C
:104330006572730D0A000000000000000000F03FED
:10434000000000000000244076616C3A25640D0AEC
:104350000000000070B5044609A0FEF765FEFEF7F8
:10436000E5F9012802D12046FEF7ECF8FDF7CEF979
:1043700005462246294603A0FEF756FE70BD000002
:104380000A000000257325730000000070B5044684
:1043900025680CE0A5F11C06314606A0FEF744FE98
:1043A0002868A04202D004A0FEF73EFE2D68A54278
:1043B000F0D170BD257300002F00000001460020E1
:1043C00009E00B685A1C0A601A7800EB800302EBC4
:1043D0004302A2F130000A681278303A0A2AF0D378
:1043E000704710B503461A4601E0521C491C10786C
:1043F00028B1087818B110780C78A042F5D0D01AFE
:1044000010BD10B5FDF712F9002010BD10B51EA0AB
:10441000FEF70AFE2048018820A0FEF705FE1E4890
:10442000008800F0010010B122A0FEF7FDFD1A483F
:10443000008800F0020010B121A0FEF7F5FD16483B
:10444000008800F0040010B120A0FEF7EDFD124836
:10445000008800F0080010B11EA0FEF7E5FD0E4830
:10446000008800F4807010B11CA0FEF7DDFD0A4842
:10447000008800F4007010B11BA0FEF7D5FD05A068
:10448000FEF7D2FD10BD000075736167652066619F
:10449000756C743A0A0000002AED00E05343425F55
:1044A000434653525F554653523A3078253032587E
:1044B00020000000554E444546494E5354522000BA
:1044C000494E56535441544520000000494E565021
:1044D000432000004E4F435020000000554E414CF9
:1044E00049474E454420000044495642595A4552D6
:1044F0004F20000010B5FFF7B5F8002010BD0000F8
:1045000010B500290AD00878002807D0054878445B
:10451000FCF738FA002801D0002010BD024878448A
:1045200010BD00007A0B0000720B000021F0004269
:10453000A2F16052B2F5801F01F0004328BFD2F112
:104540007F6C0BD95FEA001C43EAC20242EB507059
:1045500018BF704728BF20F001007047B2F5801FD8
:10456000BCBF184670474FEA410C1CF5001F02D231
:10457000084600F01DBB70B500F050FA000000893D
:10458000FFF7F6BF4FF00040A0F580007047000035
:104590002DE9C04130B4DFF8A0C23CEA111418BFC5
:1045A0003CEA131400F0EC8081EA03051CEA1114C4
:1045B00044EAD57418BF1CEA131500F0C780A4EBB9
:1045C00005044FF0004545EAC12145EAC32341EA0D
:1045D000505143EA525304F17F74994204F5003478
:1045E0004FEAC0204FEAC22208BF904200F09C80F0
:1045F0004FEA13650FF24016765D4FEA134506FB4E
:1046000005F7C7F1807706FB07F74FEAD737A7FB17
:1046100003687642C8F58038A7FB06CE38BFA8F1FC
:10462000010807FB08E64FF0000EA6FB028CE6FB34
:1046300003CEDCF1000CCEF1004E38BFAEF1010E1E
:10464000A6FB0C584FF000074FF00005E6FB0E8765
:10465000A1FB08C6A0FB07CE16EB0E0645F1000530
:10466000E1FB076515F1E04E7EBFA4F580345FEAFB
:1046700046066D4116F1800745F100054FEA172700
:104680004FEA066647EA0567A6F1DE46B6F1805FA7
:104690004FEA15251FD9384624F0010C05EBC471EB
:1046A000BCF1FE6F01EB0C1102D8F0BCBDE800813B
:1046B00024425CBF01F5801E9EEAC47F02D4F0BC98
:1046C000BDE80081244238D4F0BCA1F1C041BDE86E
:1046D000004100F0F1B94FEAD22242EA43524FEAD8
:1046E000D323A7FB02864FEAD02040EA415007FBC4
:1046F00003661EEA0E0F4FEAD12105FB026658BF82
:10470000A6EB0056B6EB00564FEA520E4EEAC37EB9
:1047100018EB0E0E56EB530EBDD518EB02085E419A
:104720007F1C55F10005B6E74FF480154FF00007E8
:104730004FF000064FF00008ADE7F0BC4FF000006E
:1047400001F1C04101F00041BDE8008111EA0C1FF8
:104750000CEA131500D00CE013EA0C1F00F02580C2
:104760004FF00000F0BC81EA030101F00041BDE818
:104770000081F0BCBDE8004181EA030100F09CB972
:10478000F0BCBDE8004170B500F048F9097EFC3E80
:1047900000F007B881EA03014FF0000001F000418A
:1047A000704781EA030100F087B9F0BCBDE8004121
:1047B0004FF0000021497047FFFDFBF9F7F5F4F2D7
:1047C000F0EEEDEBE9E8E6E4E3E1E0DEDDDBDAD8AC
:1047D000D7D5D4D3D1D0CFCDCCCBCAC8C7C6C5C40A
:1047E000C2C1C0BFBEBDBCBBBAB9B8B7B6B5B4B321
:1047F000B2B1B0AFAEADACABAAA9A8A8A7A6A5A40C
:10480000A3A3A2A1A09F9F9E9D9C9C9B9A999998CF
:104810009797969595949393929191908F8F8E8E72
:104820008D8C8C8B8B8A89898888878786858584FF
:1048300084838382828181800000FF070000F87FEB
:104840004FEA1153A3F58063D3F11E03A8BFD3F140
:10485000200C08DB4FF0004242EAC12252EA5052DB
:1048600032FA03F0704709420BD4102BC4BF00206A
:10487000704703F5787CBCF1FF3F05D04FF0FF3067
:1048800070474FF00000704770B500F0C7F800BFE8
:104890004992248000207047F0E710F0004248BFA2
:1048A0004042B0FA80F310FA03F10AD0C3F11D03BD
:1048B00003F580634FEA415002EB035202EBD12132
:1048C00070474FF000007047DFF848C170B51CEA30
:1048D000111E1EBF1CEA13159EEA0C0F95EA0C0F61
:1048E00000F06F8081EA030423EA4C134EEAD47E81
:1048F00021EA4C1141F4801143F48013AE44A1FB32
:10490000024CA0FB0365AEF17F7E361955EB0C051A
:10491000A1FB034C4CF10003A0FB021C16EB0C06A0
:10492000654153F10003094218BF46F0010613F434
:10493000007F0BD14FEA03314FEA0530340341EADF
:10494000155140EA16506FF003020AE04FEAC32106
:104950004FEAC520F40241EA555140EA56506FF043
:10496000020202EB2E4201EB025585EACE710AD01B
:104970005FEA440C18BF24F0004450F1000041F1FC
:10498000000120EAD47040F2FE7C624500D270BD86
:10499000A84214BF4FF080444FF04044002E08BF9F
:1049A0000024BEF1806FA8BFA1F1C041BDE87040F6
:1049B00080F282804FF0000001F1C04101F000411F
:1049C00070479EEA0C0F0CEA131518BF95EA0C0FFE
:1049D00006D04FF0000081EA030E0EF0004170BDDA
:1049E00000F01CF88900013E00F007B800F009B89B
:1049F0004FEA430C5FEA5C5C08D081EA030100F0F7
:104A00005BB84FEA410C5FEA5C5CF6D14FF0000006
:104A1000014970470000FF070000F87F0EF1020E09
:104A20002EF0030E5EF8046B364205D4012A43EBE8
:104A3000030515F5001F12D8012841EB010C1CF5E8
:104A4000001F0CD80ED14FEAD17C15F5001F0CEBDE
:104A50004C0C0CF1020C08BF4CEBD37C04E04FF083
:104A6000080C01E04FEAD37C0CEB4C0526FA05F666
:104A700006F00706B6F1040C06D20EEB860CBDE874
:104A800070404CF0010C6047DFE80CF0090B0202AB
:104A90004FF000414FF00000A1F5002170BD194614
:104AA0001046012851EB010418BFD4F5001484BF4F
:104AB000002001F0004170BD0808A0F500114FEA88
:104AC0003101704743004FEAD30C4FEA3C0C43409E
:104AD0001FBF40070CF1605113F0FE4F70471CF0F0
:104AE000006F03D100200CF0004170470CF0004330
:104AF00043EA507010B540EACC0000F00EF800BF59
:104B0000000000924FEA0001FFF7D6BF4FF00041CE
:104B10004FF00000A1F5002170470EF1020E2EF0BB
:104B2000030E5EF8044B244204D44FEA4102B2F172
:104B30007F4F11D84FEA4003B3F17F4F0CD80ED10D
:104B40004FEAD07CB2F17F4F0CEB4C0C0CF1020C15
:104B500008BF4CEBD17C04E04FF0080C01E04FEAB9
:104B6000D17C0CEB4C0324FA03F404F00704B4F1F9
:104B7000040C06D20EEB840CBDE810404CF0010C86
:104B80006047DFE80CF0070802024FF00040A0F594
:104B9000800010BD0846420018BFD2F1807288BF65
:104BA00000F0004010BD4FF04070E1EE100A704779
:104BB000FF2141EAD050C00570470000010002000B
:104BC00001000300010002000100040001000200D6
:104BD00001000300010002000100050001000200C5
:104BE00001000300010002000100040001000200B6
:104BF00001000300010002000100060001000200A4
:104C00000100030001000200010004000100020095
:104C10000100030001000200010005000100020084
:104C20000100030001000200010004000100020075
:104C30000100030001000200010007000100020062
:104C40000100030001000200010004000100020055
:104C50000100030001000200010005000100020044
:104C60000100030001000200010004000100020035
:104C70000100030001000200010006000100020023
:104C80000100030001000200010004000100020015
:104C90000100030001000200010005000100020004
:104CA00001000300010002000100040001000200F5
:104CB00001000300010002000100303132333435BD
:104CC00036373839616263646566003031323334B7
:104CD000353637383941424344454600252D2A2E82
:104CE00073207072692020737461747573202020A2
:104CF00020202073702020202020737461636B209B
:104D000073697A65206D61782075736564206C65C0
:104D10006674207469636B20206572726F720A007A
:104D20005F5F636D645F7365745F6C6564310073AE
:104D300065745F6C6564312044757479006C6973C7
:104D4000745F6D656D006C697374206D656D6F7255
:104D50007920757361676520696E666F726D617425
:104D6000696F6E0068656C6C6F00736179206865AF
:104D70006C6C6F20776F726C640076657273696F0C
:104D80006E0073686F772052542D546872656164A9
:104D90002076657273696F6E20696E666F726D61E1
:104DA00074696F6E005F5F636D645F7665727369CF
:104DB0006F6E0073686F772052542D54687265616E
:104DC000642076657273696F6E20696E666F726DAE
:104DD0006174696F6E006C6973745F746872656189
:104DE00064006C69737420746872656164005F5F4D
:104DF000636D645F6C6973745F746872656164008D
:104E00006C69737420746872656164006C69737492
:104E10005F73656D006C6973742073656D61706894
:104E20006F726520696E2073797374656D005F5FC2
:104E3000636D645F6C6973745F73656D006C697337
:104E4000742073656D6170686F726520696E207380
:104E5000797374656D006C6973745F6D61696C6200
:104E60006F78006C697374206D61696C20626F7873
:104E700020696E2073797374656D005F5F636D6484
:104E80005F6C6973745F6D61696C626F78006C69E7
:104E90007374206D61696C20626F7820696E207375
:104EA000797374656D006C6973745F74696D657294
:104EB000006C6973742074696D657220696E20736B
:104EC000797374656D005F5F636D645F6C697374A3
:104ED0005F74696D6572006C6973742074696D65C7
:104EE0007220696E2073797374656D006C697374D8
:104EF000006C69737420616C6C2073796D626F6CE7
:104F000020696E2073797374656D005F5F636D64F3
:104F10005F68656C700052542D546872656164203E
:104F20007368656C6C2068656C702E005F5F636DE4
:104F3000645F7073004C6973742074687265616497
:104F40007320696E207468652073797374656D2EA3
:104F5000005F5F636D645F667265650053686F77BD
:104F600020746865206D656D6F7279207573616757
:104F70006520696E207468652073797374656D2E81
:104F8000000000003D4200083542000803440008CC
:104F900031420008BD17000839420008204D0008C2
:104FA0002F4D00086D4200083D4D0008464D000899
:104FB000551F0008644D00086A4D0008BD1C00081C
:104FC0007A4D0008824D0008F5440008A54D000800
:104FD000B34D0008F5440008D64D0008E24D000826
:104FE00005210008EE4D0008004E000805210008CC
:104FF0000C4E0008154E0008CD1F00082E4E00086C
:105000003D4E0008CD1F0008564E0008634E0008B4
:10501000F91D00087B4E00088E4E0008F91D00089F
:10502000A64E0008B14E0008E9220008C64E00084E
:10503000D74E0008E9220008EC4E0008F14E0008A7
:10504000DD1C00080B4F0008164F0008AD260008B5
:105050002C4F0008354F00081F160008514F00085C
:105060005C4F00081116000898510008000000204D
:10507000D4000000C40100086C520008D4000020D5
:105080009C1F0000E0010008100100004300000028
:10509000F8FFFFFF00404040404040404040414159
:1050A00041414140404040404040404040404040FD
:1050B0004040404040050202020202020202020297
:1050C0000202020202202020202020202020200294
:1050D0000202020202029090909090901010101024
:1050E00010101010101010101010101010101010C0
:1050F0000202020202028888888888880808080854
:10510000080808080808080808080808080808081F
:105110000202020240000000000000000000000047
:10512000000000000000000000000000000000007F
:10513000000000000000000000000000000000006F
:10514000000000000000000000000000000000005F
:10515000000000000000000000000000000000004F
:10516000000000000000000000000000000000003F
:10517000000000000000000000000000000000002F
:10518000000000000000000000000000000000001F
:10519000000000000000000000000000000000000F
:1051A000010203040102030406070809007A030A46
:1051B00000000000000000000102030406070809C7
:1051C00000000000000000000000000000000000DF
:1051D00000000000000000000000000000000000CF
:1051E00000000000000000000000000000000000BF
:1051F000010000005C0000205C000020880000002E
:10520000020000006C0000206C000020280000005C
:10521000050000007C0000207C0000203800000019
:105220000A0000008C0000208C00002034000000E8
:10523000000000000000000000000000000000006E
:10524000000000000000000000000000000000005E
:10525000000000000000000000000000000000004E
:0C52600000000000000000000000000042
:040000050800018965
:00000001FF
