:020000040800F2
:10000000C8490020A101000839130008A702000810
:1000100035130008990D0008932600080000000021
:10002000000000000000000000000000CF1A0008DF
:10003000310E000800000000F30100088D1C0008CC
:10004000BB010008BB010008BB010008BB010008A0
:10005000BB010008BB010008BB010008BB01000890
:10006000E90E0008BB010008BB010008BB01000845
:10007000BB010008BB010008BB010008BB01000870
:10008000BB010008BB010008BB010008BB01000860
:10009000BB010008BB010008BB010008BB01000850
:1000A000BB010008BB010008BB010008BB01000840
:1000B000BB010008BB010008BB010008BB01000830
:1000C000BB010008BB010008BB010008BB01000820
:1000D000BB010008BB010008BB010008BB01000810
:1000E000BB010008BB010008BB010008BB01000800
:1000F000BB010008BB010008BB010008BB010008F0
:10010000BB010008BB010008BB010008BB010008DF
:10011000BB010008BB010008BD1D0008BB010008B1
:10012000BB010008BB010008BB010008BB010008BF
:10013000BB010008BB010008BB010008BB010008AF
:10014000BB010008BB010008BB010008BB0100089F
:10015000BB010008BB010008BB0100089124000896
:10016000BB010008BB010008BB010008BB0100087F
:10017000BB010008BB010008BB010008BB0100086F
:10018000BB010008BB010008DFF810D000F096FCAE
:1001900000480047F90B0008AFF30080C849002071
:1001A0000648804706480047FEE7FEE7FEE7FEE711
:1001B000FEE7FEE7FEE7FEE7FEE7FEE7551D000867
:1001C00089010008EFF3108072B6704780F3108841
:1001D0007047434A1368012B04D04FF001031360AA
:1001E000404A1060404A116040484FF08051016021
:1001F0007047EFF3108272B63948016851B34FF07F
:10020000000101603748016891B1EFF309811EF0E8
:10021000100F08BF21ED108B21E9F00F4FF0000403
:100220001EF0100F08BF012441F8044D0068016062
:100230002D490968096808C9B1E8F00F002B18BFFB
:10024000B1EC108B81F309884EF0100E002B18BF13
:100250002EF0100E82F310884EF0040E70472249E3
:100260000860EFF3148222F0040282F314881D491F
:100270004FF0000008601A494FF0010008601C4868
:100280004FF47F01D0F8002041EA020101601748D5
:100290004FF08051016017480068006880F30888BB
:1002A00061B662B670471EF0040F0CBFEFF3088012
:1002B000EFF3098020E9F00F40F804ED40F804ED79
:1002C0001EF0040F0CBF80F3088880F3098800B586
:1002D00005F0CCFA5DF804EB4EF0040E7047000018
:1002E000C4030020BC030020C003002004ED00E094
:1002F00020ED00E008ED00E040EA01039B0703D099
:1003000009E008C9121F08C0042AFAD203E011F854
:10031000013B00F8013B521EF9D27047D2B201E016
:1003200000F8012B491EFBD270470022F6E710B5FA
:1003300013460A4604461946FFF7F0FF204610BD53
:10034000421E12F8013F002BFBD111F8013B02F8CD
:10035000013B002BF9D1704710B5044604E00B783F
:1003600000F8013B03B1491C521EF8D2204610BDD3
:10037000421C10F8011B0029FBD1801A704703466C
:1003800011F8012B00F8012B002AF9D1184670470B
:1003900030B505460020034600E05B1C934205D2C1
:1003A000EC5CC85C201A01D1002CF6D130BD70B5D0
:1003B000064602F0C3F9046805460A2200213046C9
:1003C00000F098FA2C6070BD2DE9FE4F804681EA5E
:1003D0000300C00F0C46009021F0004123F00045BF
:1003E000B8EB0200A94105D24046214690461C4682
:1003F0000B46024623F00040104347D0270DC7F3B9
:100400000A00C3F30A510290401A019040286BDAA7
:10041000C3F3130040F4801B0098924620B10023E0
:10042000D2EB030A63EB0B0B01985946C0F1400273
:10043000504600F02EFA06460D4650465946019A9F
:1004400000F046FA10EB08006141002487EA1152DF
:1004500084EAE7731A4340D0009A62B3019A012AF2
:100460004FEA075215DC001B61EB02014FF000421E
:1004700002EA0752CDE90042001C41F580113246E4
:100480002B4600F0B5FA03B0BDE8F08F4046214698
:10049000F9E7001B61EB0201001C41F58013001815
:1004A0005B412018A2F5001747EB030140EAD57025
:1004B000B6196D4111E06D084FEA360645EAC07580
:1004C0004FEA0752001B61EB0201001C41F580114D
:1004D00049084FEA30000019514132462B4603B01B
:1004E000BDE8F04F00F075BA0098012240000023EB
:1004F000D0EB020263EBE073009821464FEAE07410
:10050000B8EB000061EB0401E9E783F000435BE72F
:1005100081F0004158E72DE9FE4F81EA030404F021
:10052000004421F0004100944FF0000B23F0004301
:1005300050EA01045ED052EA03045BD0C3F30A54CC
:10054000C1F30A552C44A4F2F3340194A0FB0254E5
:10055000C1F3130141F48011C3F3130343F4801377
:1005600001FB024400FB034E840A970A44EA8154CB
:1005700047EA8357A4FB076802958D0A05FB0785A8
:100580004FEA932C04FB0C542705029D4FEA0658B2
:1005900047EA1637B5EB08056EEB070C870E920E8F
:1005A00047EA811742EA8312A7FB0201B6EB0B016F
:1005B00064EB00042B0D43EA0C335E1844EB1C5033
:1005C000DA465146E7FB0201C5F313044FEA0B3349
:1005D00043EA14534FEA0432019C43EA0603A4F1B0
:1005E0000C040294009CCDE900B400F001FA03B0C1
:1005F000BDE8F08F00200146F9E72DE9F04D81EAD2
:10060000030404F0004B21F0004514464FF0000AAB
:1006100023F0004150EA050220D054EA01021DD027
:10062000C5F30A570246C5F31303C1F31300C1F320
:100630000A5640F4801543F48013A7EB0608101BFC
:10064000D64608F2FD3873EB050002D308F1010825
:1006500001E092185B41B8F1000F03DA0020014677
:10066000BDE8F08D00204FF48011064684460EE070
:10067000171B73EB050705D3121B63EB050306433A
:100680004CEA010C49084FEA300092185B4150EAED
:100690000107EDD152EA030012D082EA040083EA96
:1006A0000501084305D0101BAB4106D201220023EF
:1006B00006E000224FF0004302E06FF00102531009
:1006C0001AEB06004CEB085110EB0A0041EB0B0152
:1006D000BDE8F04D00F07DB90EB5C10F80EAE070C5
:1006E0000844CA07002140F233438DE80E000A4651
:1006F0000B4600F07DF903B000BD0EB540F233416A
:1007000002910021CDE900110A460B4600F070F974
:1007100003B000BDC1F30A5210B5C1F3130140F29A
:10072000FF3341F480119A4201DA002010BD40F2FB
:1007300033439A42A2F2334203DC524200F0B8F84B
:1007400010BD904010BD00F0004230F000400AD0D3
:10075000C10D01F56071C0F3160042EA0151C208F3
:1007600040071143704700200146704730B5041E12
:1007700071F1000404DB4FF00044404264EB0101DE
:10078000141E73F1000405DB1C464FF00043524277
:1007900063EB04038B4208BF824230BD30B5041EB8
:1007A00071F1000404DB4FF00044404264EB0101AE
:1007B000141E73F1000405DB1C464FF00043524247
:1007C00063EB0403994208BF904230BD01F000433F
:1007D00030B421F0004150EA010206D00A0DA2F522
:1007E0006072C1F31301002A02DC30BC00207047A4
:1007F000440F44EAC104C100E01830BC00EBC25011
:1008000000F0B0B830B50B4601460020202201248C
:1008100009E021FA02F59D4205D303FA02F5491BCE
:1008200004FA02F52844151EA2F10102F1DC30BDE4
:100830002DE9F05F0546002092469B468846064615
:10084000814640241BE0284641464746224600F0A8
:100850002FF853465A46C01A914110D311461846F4
:10086000224600F016F82D1A67EB01084F46224683
:100870000120002100F00DF817EB00094E41201E69
:10088000A4F10104DFDC484631462A464346BDE870
:10089000F09F202A04DB203A00FA02F10020704782
:1008A0009140C2F1200320FA03F3194390407047AE
:1008B000202A04DB203A21FA02F00021704721FAB5
:1008C00002F3D040C2F1200291400843194670471C
:1008D000202A06DBCB17203A41FA02F043EAE07304
:1008E00006E041FA02F3D040C2F1200291400843F1
:1008F000194670472DE9F04791460F468046044659
:10090000002614F8015B2DB100F0EAF80068405DA4
:10091000C007F6D12B2D02D02D2D18D0641E4A46CB
:100920003946204600F0E0F827B13968A14201D1EC
:10093000C7F8008071054FF002040BD54042002833
:1009400003DD01F0FBFE0460A007BDE8F08746F47C
:100950008066E4E70028F8DA01F0F0FE04606FF04A
:100960000040F2E70029A8BF7047401C490008BFBB
:1009700020F00100704710B4B0FA80FC00FA0CF0CF
:1009800050EA010404BF10BC704749B1CCF1200407
:1009900021FA04F411FA0CF118BF01212143084394
:1009A000A3EB0C01CB1D4FEA00614FEA102042BFC0
:1009B000002010BC704700EBC35010440029A4BFB6
:1009C00010BC7047401C490008BF20F0010010BC5B
:1009D000704710B5141E73F1000408DA401C41F191
:1009E000000192185B411A4301D120F0010010BDB3
:1009F0002DE9F04D92469B4611B1B1FA81F202E029
:100A0000B0FA80F220329046FFF743FF04460F46CB
:100A100040EA0A0041EA0B0153465A46084313D004
:100A2000114653EA010019D0C8F140025046FFF7C1
:100A30003FFF05460E46504659464246FFF729FFFE
:100A4000084305D0012004E020463946BDE8F08D7A
:100A50000020054346EAE0762C4337430A986305B5
:100A6000E40AA0EB08000022FD0A44EA47540A30D9
:100A700002D500200146E9E7010510196941DDE9C9
:100A8000084500196941BDE8F04DA2E7C1F30A52DB
:100A9000C1F3130140F2FF3341F480119A4202DAAC
:100AA00000200146704740F233439A42A2F233429B
:100AB00002DC5242FFF7FCBEFFF7EBBE064C074DCF
:100AC00006E0E06840F0010394E80700984710341E
:100AD000AC42F6D3FFF75CFB948C0008B48C0008A2
:100AE00000487047048900082DE9F05F82460078CD
:100AF000002715468B460AF10104B946302801D07B
:100B00009DB113E014F8010B0127782803D0582871
:100B100001D045B10AE00DB1102D07D100271025F5
:100B200014F8010B02E0082500E00A250026B04673
:100B30000EE005FB080005FB06F1012701EB10465E
:100B40001FFA80F8B6F5803F00D3B94614F8010BC0
:100B5000294600F018F80028EBDABBF1000F05D0A9
:100B60000FB1641E00E05446CBF80040B9F1000F0D
:100B700006D001F0E3FD02210160C81EBDE8F09F30
:100B800048EA0640FAE73A2800D2303820F020023E
:100B9000412A01D3A2F13700884201D34FF0FF3040
:100BA000704770B58C1810F8015B15F0070301D180
:100BB00010F8013B2A1106D110F8012B03E010F8C0
:100BC000016B01F8016B5B1EF9D12B0705D40023E3
:100BD000521E0DD401F8013BFAE710F8013BCB1A85
:100BE000921C03E013F8015B01F8015B521EF9D57A
:100BF000A142D8D3002070BD10B506F01FF9002027
:100C000010BD000010B54FF400610C4800F026FB49
:100C1000642005F02BFD4FF48051084800F020FBC4
:100C2000642005F023FD4FF40061044800F016FB3A
:100C30004FF48051014800F011FB10BD001002403C
:100C40001CB50121022000F06DFE0121082000F0FA
:100C500069FE0121102000F065FE4FF478400090FD
:100C600001208DF8040000208DF8060003208DF887
:100C7000050001208DF807006946184800F07AFA4F
:100C80004FF48050009001208DF8040000208DF872
:100C9000060003208DF8050001208DF80700694645
:100CA0000F4800F067FA4FF6FF70009000208DF8B3
:100CB000040001208DF8070069460A4800F05AFA3E
:100CC0004FF40050009000208DF8040001208DF8B2
:100CD00007006946024800F04DFA1CBD00100240B2
:100CE00000040240000C024030B50B4614460021BF
:100CF0000022DFED280AB0EE600A00BF47E04A1C80
:100D000042E0FCB900EB8105D5ED000A00EB82055D
:100D100095ED001AF4EEC10AF1EE10FA33DD00EBA6
:100D20008105D5ED000AB0EE600A00EB8205D5ED35
:100D3000000A00EB8105C5ED000A00EB820585ED98
:100D4000000A20E0012C1ED100EB8105D5ED000A40
:100D500000EB820595ED001AF4EEC10AF1EE10FAEF
:100D600011D200EB8105D5ED000AB0EE600A00EB70
:100D70008205D5ED000A00EB8105C5ED000A00EB08
:100D8000820585ED000A521C9A42BAD3491C994249
:100D9000B5D330BD0000000000BFFEE700B585B050
:100DA0000121880300F0DEFD0121102000F0BAFDD2
:100DB0000420039000208DF8100001208DF813000E
:100DC00003A91A4800F0D6F90820039000208DF8F6
:100DD000100001208DF8130003A9144800F0CAF98F
:100DE0000221042000F074FE0420009000208DF801
:100DF000040010208DF8050001208DF806006846DB
:100E000000F0A0F808208DF8080001208DF80900F6
:100E100002208DF80A0001208DF80B0002A800F0D6
:100E20008DFA042000F07CF805B000BD00100240EF
:100E300070472DE9F04105460E4614460027B84696
:100E400014B90120BDE8F08104F010FC03F054FA5D
:100E5000A02003F01FFA03F07BFA280A03F01AFA25
:100E600003F076FAE8B203F015FA03F071FA03F032
:100E700043FAA12003F00EFA03F06AFA0BE003F044
:100E8000E5F93070761C601E84B214B103F070F97D
:100E900001E003F0C3F9002CF1D103F047FA04F0AC
:100EA000F5FB0020CEE770B504460D4604F0DEFBEE
:100EB00003F022FAA02003F0EDF903F049FA200A2A
:100EC00003F0E8F903F044FAE0B203F0E3F903F0C9
:100ED0003FFA284603F0DEF903F03AFA03F026FA67
:100EE00004F0D4FB70BD000010B5042000F01EF823
:100EF00040B105A001F0FEFB084805F04DF90420C3
:100F000000F00EF810BD000045585449325F4952B8
:100F10005148616E646C65720D0A000070280020F3
:100F20000149086070470000143C01400146002060
:100F3000034A12680A400AB1012000E0002070470D
:100F4000143C0140002123498279002A3AD00A4604
:100F5000126803689A430B461A600A1D12680368F8
:100F60009A430B1D1A60027911440A6803681A43F8
:100F70000A60184A0832126803689A43154B08330E
:100F80001A601A1D126803689A43124B0C331A60D8
:100F90004279102A0ED11A1F126803681A430D4BAA
:100FA00008331A601A1D126803681A43094B0C3380
:100FB0001A600DE00749427911440A6803681A4330
:100FC0000A6005E0027911440A6803689A430A60DE
:100FD00070470000003C01401CB50121084600F0AC
:100FE000A1FC0121022000F09DFC0121042000F061
:100FF00099FC0121082000F095FC0121102000F04F
:1010000091FC4FF40060009001208DF80400002056
:101010008DF8060003208DF8050001208DF80700EB
:101020006946514800F0A6F84FF480500090012026
:101030008DF8040000208DF8060003208DF80500CF
:1010400001208DF807006946474800F093F8012019
:1010500000908DF8040000208DF8060003208DF824
:10106000050001208DF807006946404800F082F82D
:101070004FF48070009001208DF8040000208DF85E
:10108000060003208DF8050001208DF80700694651
:10109000374800F06FF84FF40070009001208DF891
:1010A000040000208DF8060003208DF805000120C3
:1010B0008DF8070069462E4800F05CF80220009089
:1010C00001208DF8040000208DF8060003208DF823
:1010D000050001208DF807006946244800F04AF811
:1010E0008020009001208DF8040000208DF806007B
:1010F00003208DF8050001208DF8070069461B4884
:1011000000F038F80120009000208DF80400012044
:101110008DF807006946164800F02CF84FF400706F
:10112000009000208DF8040001208DF8070069462A
:101130000E4800F01FF82020009000208DF80400D9
:1011400001208DF807006946074800F013F80220D7
:10115000009000208DF8040001208DF807006946FA
:10116000034800F007F81CBD0000024000080240E0
:1011700000040240F0B50A4600210023002400BF0D
:101180003DE0012505FA01F3156805EA03049C42D8
:1011900034D105684F000326BE40B543056015797C
:1011A0004E00B5400668354305601579012D02D023
:1011B0001579022D16D185684F000326BE40B54330
:1011C000856055794E00B540866835438560456831
:1011D00001268E40B5434560456896798E40B6B28B
:1011E00035434560C5684F000326BE40B543C56022
:1011F000D5794E00B540C6683543C560491C1029F5
:10120000BFD3F0BDF0B5002300244D07ED0E02FA68
:1012100005F3CE1000F1200555F826504E07F70EC5
:101220000F26BE40B543CF1000F1200646F82750E8
:10123000CE1000F1200555F8265045EA0304CE10E3
:1012400000F1200545F82640F0BD02460020136954
:101250000B400BB1012000E0002070474183704734
:101260000183704742694A404261704770B52DED75
:10127000068B054600249FED120AB0EE408A00213D
:10128000902000F0F3FB04462046E11704EB516187
:10129000CC112046FFF720FA41EC1A0B9FED090B09
:1012A00053EC102BFFF737F941EC190BFFF78EFACF
:1012B00008EE100AB0EE480ABDEC068B70BD0000C7
:1012C00000000000000000000000E03F10B54FF4F7
:1012D000C06000F06FF800F009F802F061FEFFF75F
:1012E0007BFEFFF7ADFC02F067FF10BD10B51048A4
:1012F00000684FF47A71B0FBF1F4601EB0F1807FAA
:1013000000D30FE0601E4FF0E02148610F214FF045
:10131000FF3000F059F800204FF0E02188610720ED
:10132000086100BF0021481E00F04EF810BD00000B
:10133000A403002000BFFEE77047000070B5002145
:1013400000230F22C4781CB3174C246804F4E06413
:10135000C4F5E064C4F30721C1F10404E3B20A4117
:1013600044789C40E1B28478144021430C07210E5C
:101370000E4C05786155047804F01F050124AC403B
:1013800005786D11AD0005F1E025C5F8004109E0D3
:10139000047804F01F050124AC40054D0678761151
:1013A00045F8264070BD00000CED00E000E400E0D0
:1013B00080E100E002490143024A116070470000E9
:1013C0000000FA050CED00E010B5002807DA0A0766
:1013D000140E054A00F00F031B1FD45403E00A0744
:1013E000130E024A135410BD18ED00E000E400E0B3
:1013F00070B5002418E004F1B000002100F086F977
:101400000021084600F082F90021102000F07EF94A
:10141000002505E00121002000F078F9681CC5B224
:10142000802DF7DB601CC4B2082CE4DB70BD10B566
:1014300003F0FEFEC82005F019F90021AE2000F0EF
:1014400065F90021084600F061F90021102000F044
:101450005DF90021402000F059F90021B02000F092
:1014600055F90021812000F051F90021FF2000F002
:101470004DF90021A12000F049F90021A62000F03B
:1014800045F90021A82000F041F900213F2000F09B
:101490003DF90021C82000F039F90021D32000F0E7
:1014A00035F90021084600F031F90021D52000F07F
:1014B0002DF90021802000F029F90021D82000F02A
:1014C00025F90021052000F021F90021D92000F0A4
:1014D0001DF90021F12000F019F90021DA2000F0B7
:1014E00015F90021122000F011F90021DB2000F095
:1014F0000DF90021302000F009F900218D2000F0C5
:1015000005F90021142000F001F90021AF2000F0BE
:10151000FDF8FFF76DFFFFF76BFF10BD70B50446D8
:101520000D4605F1B000002100F0F0F8102141EA6D
:101530001410002100F0EAF804F00F00002100F080
:10154000E5F870BD2DE9F047824688461546994674
:10155000002600240027A5F12000C6B2BAF17F0FB3
:1015600004DDA24608F1020000F0FF08B9F1100FF7
:1015700025D141465046FFF7D1FF002408E004EB97
:1015800006114D4A505C012100F0C0F8601CC4B245
:10159000082CF4DB08F10100C1B25046FFF7BEFF92
:1015A000002409E004EB06110831434A505C012194
:1015B00000F0ACF8601CC4B2082CF3DB79E0B9F1A0
:1015C0000C0F13D141465046FFF7A8FF00240AE054
:1015D00006EB4601394A02EB4101085D012100F0AA
:1015E00095F8601CC4B2062CF2DB62E0B9F1300F52
:1015F0002DD1302D05DB392D03DCA5F13000C6B22D
:1016000006E02E2D01D10A2602E0412D00D10B2645
:10161000002419E008EB0400C1B25046FFF77EFF3A
:1016200000270DE006EBC601254A02EB0111182246
:1016300002FB0472885C012100F068F8781CC7B2D4
:10164000182FEFDB601CC4B2062CE3DB31E0B9F1EC
:10165000240F2ED1302D05DB392D03DCA5F1300010
:10166000C6B206E02E2D01D10A2602E0412D00D19E
:101670000B2600241BE008EB0400C1B25046FFF724
:101680004DFF00270FE0C6EB061101EB41010D4AAB
:1016900002EB4101122202FB0472885C012100F07E
:1016A00035F8781CC7B2122FEDDB601CC4B2052CD4
:1016B000E1DBBDE8F0870000767600084E74000894
:1016C000667C0008268300082DE9F0410446884620
:1016D00015461E46002714E0EA5D33464146204683
:1016E000FFF730FF304606EBD07104EB6101CCB25E
:1016F000782C04DD002408F1020000F0FF08781CBB
:10170000C7B2E85D0028E7D1BDE8F08170B50446B6
:101710000D461DB1E0B200F06BF802E0E0B200F05F
:1017200051F870BD00B52DED068B83B000200190FF
:1017300002901B48B0F90000FEF7CEFF41EC1A0BF7
:101740009FED180B53EC102BFEF7E5FE41EC190B47
:101750009FED160B53EC102BFEF74FFF41EC180BCF
:1017600053EC182B13A101A800F0D4FF242301AAE5
:1017700002210A20FFF7A8FF242310A202216420DF
:10178000FFF7A2FF0E48007830B90021AF20FFF725
:10179000BDFF01200A49087003B0BDEC068B00BDF7
:1017A00004000020000000000000F03F00000000E6
:1017B0000000594025312E32660000004100000033
:1017C0009003002010B5044603F090FD782003F04C
:1017D0005FFD03F0B3FD002003F05AFD03F0AEFD02
:1017E000204603F055FD03F0A9FD03F097FD10BD61
:1017F00010B5044603F07AFD782003F049FD03F0AC
:101800009DFD402003F044FD03F098FD204603F0C9
:101810003FFD03F093FD03F081FD10BDB0EE401AD3
:1018200031EE600A294880ED000A90ED000AD0ED03
:10183000011A30EE610AD0ED031A20EE210AD0ED34
:10184000041A90ED002A01EE820AD0ED001A90ED04
:10185000012AF0EE002A42EEC21A90ED022A71EE41
:10186000821A90ED052A02EE210A80ED060A90ED1B
:10187000070AD0ED061A30EE210A80ED070A90ED36
:10188000010A80ED020A90ED000A80ED010A90ED58
:10189000070AB5EEC00AF1EE10FA04D29FED0C0A69
:1018A00080ED070A0DE0094890ED070ADFED091AFF
:1018B000B4EEE10AF1EE10FA03DD9FED060A80EDC9
:1018C000070A024890ED070A70470000B028002080
:1018D000000000000000C8429FED100A104880ED93
:1018E000000A9FED0E0A80ED010A9FED0C0A80EDC3
:1018F000020AB3EE0E0A80ED030AB0EE000A80ED94
:10190000040AB7EE000A80ED050A9FED040A80ED97
:10191000060A9FED020A80ED070A704700000000EA
:10192000B028002029B1064A12680243044B1A600D
:1019300004E0034A12688243014B1A6070470000BA
:101940003038024029B1064A12680243044B1A603B
:1019500004E0034A12688243014B1A60704700009A
:101960004038024029B1064A12680243044B1A600B
:1019700004E0034A12688243014B1A60704700007A
:1019800044380240F0B50021002200240225002640
:101990000223324F3F6807F00C0121B1042905D022
:1019A000082937D105E02E4F076036E02D4F07603C
:1019B00033E02A4F3F1F3F68C7F38056274F3F1F32
:1019C0003F6807F03F036EB1264FB7FBF3F7DFF830
:1019D0008CC0ACF1040CDCF800C0CCF3881C07FB15
:1019E0000CF40CE01E4FB7FBF3F7DFF870C0ACF15E
:1019F000040CDCF800C0CCF3881C07FB0CF4174F78
:101A00003F1F3F68C7F301477F1C7D00B4FBF5F71C
:101A1000076002E0124F076000BF00BF0F4F3F6832
:101A200007F0F0010909104F7A5C0768D74047605A
:101A30000A4F3F6807F4E051890A0B4F7A5C476808
:101A4000D7408760054F3F6807F46041490B064F58
:101A50007A5C4768D740C760F0BD00000838024094
:101A60000024F40040787D01910300202DE9F0412D
:101A700004460D4600260027B04603F0F7FD02F0AD
:101A80003BFC204602F006FC02F062FC284602F015
:101A900001FC02F05DFC02F02FFC44F0010002F0BA
:101AA000F9FB02F055FC02F0D1FB064602F050FCB7
:101AB00002F0CCFB074602F04BFC02F037FC03F0CF
:101AC000E5FD47EA06280FFA88F0BDE8F081704787
:101AD00030B500228B071C0F0F2303FA04F20B4BC7
:101AE0008C1053F824309343084C8D1044F8253063
:101AF00023468C1053F824308C07240F00FA04F48A
:101B00002343024C8D1044F8253030BD0838014085
:101B10000CB50020019000903448006840F48030FB
:101B20003249086000BF3148006800F4003000907E
:101B30000198401C0190009818B90198B0F5A04F89
:101B4000F1D12A48006800F4003010B10120009063
:101B500001E0002000900098012846D12348403041
:101B6000006840F0805021494031086020480068FA
:101B700040F440401E4908601C48083000681B497A
:101B8000083108600846006840F4004008600846D4
:101B9000006840F4A05008601648091F0860081F3C
:101BA000006840F08070091F086000BF0F4800689F
:101BB00000F000700028F9D040F205700E4908606E
:101BC0000A480830006820F003000849083108601E
:101BD0000846006840F00200086000BF0348083073
:101BE000006800F00C000828F8D10CBD0038024055
:101BF0000070004019544007003C024010B52DED24
:101C0000028BB0EE408AB0EE480A00F0E5FABDEC77
:101C1000028B10BD10B50446012C0BD141031A48AC
:101C2000FFF71CFB00BF00BF4FF400511648FFF741
:101C300017FB28E0022C0BD161031348FFF70EFBC2
:101C400000BF00BF4FF480410F48FFF709FB1AE0C7
:101C5000032C0CD14FF400410B48FFF7FFFA00BFF3
:101C600000BF4FF400410848FFF7FAFA0BE0042CDC
:101C700009D14FF460400449488300BF00BF4FF4CE
:101C800060400149088310BD0010024010B504F007
:101C9000B9F910BD70B500200022022300240221F2
:101CA000274D2D6805F00C0020B1042806D0082827
:101CB00034D107E0234D244E356033E0234D224ECE
:101CC00035602FE01E4D2D1F2D68C5F380541C4D2F
:101CD0002D1F2D6805F03F0154B11C4DB5FBF1F5EA
:101CE000174E361F3668C6F3881605FB06F209E064
:101CF000144DB5FBF1F5124E361F3668C6F3881643
:101D000005FB06F20E4D2D1F2D68C5F301456D1C18
:101D10006B00B2FBF3F50C4E356003E0094D0A4E43
:101D2000356000BF00BF064D2D68C5F30315084E92
:101D3000705D054D2D68C540034E356070BD0000D7
:101D4000083802400024F400A403002040787D01FC
:101D5000A803002010B51548006840F4700013492E
:101D600008601348006840F0010011490860002035
:101D70000F49083108600E4800680E4908400C49B8
:101D800008600D48091D0860081F006820F48020C5
:101D9000091F0860002006490C310860FFF7B8FEF3
:101DA0004FF0006001498039086010BD88ED00E007
:101DB00000380240FFFFF6FE1030002410B507483F
:101DC000008A00F0010040B1054804F0E5F903483D
:101DD000008A20F001000149088210BD0010004077
:101DE000D828002021B1028842F08002028004E05D
:101DF00002884FF67F731A400280704721B1028833
:101E000042F00102028004E002884FF6FE731A409D
:101E1000028070471AB183890B43838102E0838972
:101E20008B4383817047000070B50024002200239B
:101E3000058C4FF6EF7635400584028C8388048B41
:101E400048F6FF752C404FF6FF452C400D884FF6A5
:101E5000FF7606EA05252C434FF6DF752A408D896B
:101E600006EA05152A434D8806EA05152A43154D4D
:101E7000A84202D0144DA8421DD14FF67F752A40CA
:101E8000CD894FF6FF7606EA05152A434FF6BF7552
:101E90002A408D8806EA05152A434FF6FF352B4068
:101EA0004FF2FF752B400D8A06EA85052B434D8ABC
:101EB00006EA85052B43838004838D68856302844D
:101EC00070BD000000000140000401400A460021EE
:101ED000018B4FF2FF7319404FF6FF7303EA0223A1
:101EE000194301837047000070B5002400220023CD
:101EF000058C4FF6FF6635400584028C8388848B01
:101F00004FF68F752C404FF6FC752C400D882C43F6
:101F10004FF6FF552A408D894FF6FF7606EA0525D4
:101F20002A434D8806EA05252A43154DA84202D0CA
:101F3000144DA8421DD14FF2FF752A40CD894FF6AE
:101F4000FF7606EA05252A434FF6FF352A408D889D
:101F500006EA05252A434EF6FF752B404DF6FF7520
:101F60002B400D8A06EA05152B434D8A06EA051516
:101F70002B43838084838D68C563028470BD000019
:101F800000000140000401400A460021818B4FF609
:101F9000F7731940114381837047C1637047000094
:101FA00000220288184B98420ED0184B98420BD052
:101FB000B0F1804F08D0164B984205D0154B98428F
:101FC00002D0154B984204D14FF68F731A404B88BC
:101FD0001A43124B984207D0114B984204D04FF647
:101FE000FF431A400B891A4302804B68C3620B8877
:101FF0000385054B984202D0044B984201D18B7A5D
:1020000003860123838270470000014000040140E1
:102010000004004000080040000C00400010004098
:102020000014004010B52DED0C8B8AB0B0EE408A44
:10203000002008EE900A9FED4D0AB0EE409A012173
:102040000846FFF76FFC01210846FFF77BFC0122E1
:1020500002214748FFF7D6F80420089002208DF8A7
:10206000240000208DF8260003208DF82500012093
:102070008DF8270008A93E48FFF77CF804213C486A
:10208000FFF7ECF89FED3B0AB0EE409AB5EEC09A30
:10209000F1EE10FA03D8B7EE000AB0EE409AB5EEB2
:1020A000C08AF1EE10FA03D29FED300AB0EE408AFA
:1020B0009FED310AB4EEC08AF1EE10FA03DD9FED18
:1020C0002B0AB0EE408A2D4808EE900AF8EE680A16
:1020D00080EE890AF7EE000A30EE600ABCEEC00A14
:1020E0008DED060A0020ADF81400ADF81600ADF82D
:1020F0001C0005A94FF08040FFF752FF6020ADF8AB
:1021000000000120ADF80200F8EE680A80EE890AAE
:10211000F7EE000A30EE600A10EE104A2046FEF795
:1021200012FB41EC1B0B18EE100AFEF70CFB41EC06
:102130001D0B9FED130B53EC102BFEF75EFA41ECD9
:102140001C0B53EC1B2BFEF7E6F941EC1A0BFEF7C8
:10215000E1FA02900020ADF80C0069464FF0804093
:10216000FFF7C2FE0AB0BDEC0C8B10BD00000000F2
:10217000000002400050C3460000C84200BD0105F7
:1021800000000000000059401CB50420009002200F
:102190008DF8040000208DF8060001208DF807005E
:1021A00003208DF8050069460A48FEF7E3FF012287
:1021B00002210848FFF726F80821C806FFF7E4FEC9
:1021C00001218807FFF70EFE01218807FFF716FEA1
:1021D0001CBD00000000024070B52DED0C8BB0EE70
:1021E000408A002008EE900A9FED200AB0EE409A47
:1021F0009FED1F0AB0EE409AB5EEC09AF1EE10FACC
:1022000003D8B7EE000AB0EE409A1A4808EE900ADA
:10221000F8EE680A80EE890AF7EE000A30EE600AEE
:1022200010EE105A2846FEF78EFA41EC1B0B18EE02
:10223000100AFEF788FA41EC1D0B9FED0F0B53ECD3
:10224000102BFEF7DAF941EC1C0B53EC1B2BFEF7BD
:1022500062F941EC1A0BFEF75DFA044621464FF095
:102260008040FFF79AFEBDEC0C8B70BD00000000B3
:102270000050C34600BD01050000000000005940A9
:1022800010B52DED0C8B8AB0B0EE408A002008EE20
:10229000900A9FED4C0AB0EE409A01210846FFF7E4
:1022A00041FB01210820FFF74DFB02220121464896
:1022B000FEF7A8FF022008908DF8240000208DF87A
:1022C000260003208DF8250001208DF8270008A99D
:1022D0003D48FEF74FFF02213B48FEF7BFFF9FED51
:1022E0003B0AB0EE409AB5EEC09AF1EE10FA03D870
:1022F000B7EE000AB0EE409AB5EEC08AF1EE10FAE1
:1023000003D29FED300AB0EE408A9FED310AB4EE61
:10231000C08AF1EE10FA03DD9FED2A0AB0EE408A82
:102320002C4808EE900AF8EE680A80EE890AF7EE6B
:10233000000A30EE600ABCEEC00A8DED060A0020ED
:10234000ADF81400ADF81600ADF81C0005A9224840
:10235000FFF726FE6020ADF800000120ADF8020076
:10236000F8EE680A80EE890AF7EE000A30EE600A9D
:1023700010EE104A2046FEF7E6F941EC1B0B18EE72
:10238000100AFEF7E0F941EC1D0B9FED140B53EC26
:10239000102BFEF732F941EC1C0B53EC1B2BFEF714
:1023A000BAF841EC1A0BFEF7B5F902900020ADF82F
:1023B0000C0069460848FFF737FD0AB0BDEC0C8BEE
:1023C00010BD000000000000000002400050C346A5
:1023D0000000C84200BD0105000C004000000000E4
:1023E000000059401CB5022000908DF80400002028
:1023F0008DF8060001208DF8070003208DF80500F8
:1024000069460A48FEF7B6FE022201210748FEF798
:10241000F9FE08210648FFF759FD01210448FFF79E
:10242000E1FC01210248FFF7E9FC1CBD000002406D
:10243000000C00407FB505460C4601211020FFF737
:1024400081FA36208DF8000001208DF8010002206D
:102450008DF8020001208DF803006846FEF76EFF3C
:102460000295ADF804400020ADF80600ADF80C0070
:1024700001A90648FFF794FD012211460348FFF722
:10248000C9FC01210148FFF7B9FC7FBD00100040E5
:1024900070B50025174C40F22551174800F05FF841
:1024A000D0B1154800F0F0F8C5B240F225511248FD
:1024B00000F02DF8D4E90001401AFF2806D8217851
:1024C00004F1100045542068401C206020782179D8
:1024D000401AC0B2E0600BE040F22441064800F030
:1024E0003EF828B11021044800F011F801202072B4
:1024F00070BD0000002900200014014001F40072AA
:10250000B2F5007F00D100BFCA430280704710B50A
:102510000022002340F66A14A14200D100BF0A1233
:1025200001249440A3B2DC43048010BD21B1828910
:1025300042F40052828104E082894DF6FF731A4012
:102540008281704702460020B1F5007F00D100BFB4
:1025500013880B400BB1012000E00020704770B5DC
:102560000246002400230025002040F66A16B142EE
:1025700000D100BFC1F3421501F01F03012606FA86
:1025800003F3012D02D19689334006E0022D02D1DA
:10259000168A334001E0968A33400C12012606FA6F
:1025A00004F41688344013B10CB1012000E000207F
:1025B00070BD00002DE9FF4705460E460024A146E8
:1025C00000BFA046B08900B100BF2C8A24F440545B
:1025D000F08804432C82AC8941F20C608443B088BB
:1025E00031890843718908430443AC81AC8A24F4DF
:1025F0004074B0890443AC826846FFF7C3F92048B1
:10260000854202D01F48854202D1DDF80C9001E0DE
:10261000DDF80890A88900F4004040B109EBC9003A
:1026200000EB091031684900B0FBF1F707E009EB56
:10263000C90000EB091031688900B0FBF1F7642094
:10264000B7FBF0F004012009642101FB1078A88990
:1026500000F4004040B1322000EBC800B0FBF1F0C4
:1026600000F00700044308E0322000EB081064216A
:10267000B0FBF1F000F00F0004432C81BDE8FF87B0
:10268000001001400014014001468888C0F3080092
:10269000704700BFFEE7000030B50146481EB0F1AC
:1026A000807F01D3012030BD481E4FF0E0225061F1
:1026B00050170F22002807DA13071D0E0B4B00F0EE
:1026C0000F04241F1D5503E013071C0E084B1C5458
:1026D00000BFFF20054A0B32107000204FF0E022AF
:1026E0009061072010610020DDE7000018ED00E098
:1026F00000E400E00FB4054B10B503A9044A0298AA
:1027000000F04EF910BC5DF814FB0000893B000896
:102710000C0000200FB4084B10B504A902AA0398BE
:1027200000F03EF9044602A9002000F02EFD2046EC
:1027300010BC5DF814FB00008B31000800487047A6
:1027400064040020014609B900207047C8B220B1D6
:10275000C8B20E4A105C401CF7E701F47F4028B174
:102760000A48C1F30722805C0930EEE701F47F00DC
:1027700028B10648C1F30742805C1130E5E7034801
:1027800000EB116000781930DFE700005E87000879
:1027900002E008C8121F08C1002AFAD1704770472A
:1027A000002001E001C1121F002AFBD17047000088
:1027B0002DE9FF5F82B00021DDE90430020DDDF874
:1027C00040B0034318D044F61050A2F2FF32424307
:1027D0001514119801281FD0A5EB0B00401C5FEACF
:1027E000000A4FF000064E4FDFF83891B0465046D1
:1027F00015D5CAF1000413E0119801244AA3012859
:1028000001D16FEA0B010298119AC0E90031C0E9C9
:10281000024206B0BDE8F09FCBF10000DFE70446BE
:102820000021404A491842EB0450CDE9001012E063
:10283000E00707D032463B4640464946FDF76BFE6F
:102840008046894632463B4610461946FDF763FEF0
:1028500006460F466410002CEAD1DDE90401DDE9EB
:102860000023BAF1000F06DAFDF755FE42464B464B
:10287000FDF751FE05E0FDF7C0FE42464B46FDF771
:10288000BCFE04460E460022284BFDF787FF03D806
:102890004FF0FF30014607E00022254B204631462D
:1028A000FDF792FDFEF7F2F8102409E0002C0ADB98
:1028B0000A220023FDF7BCFF039B30321A55641E29
:1028C00050EA0102F2D1641C039AC4F111031444CA
:1028D000119A012A03D0012208430DD10AE00843CE
:1028E00004D000204FF0110B119072E7A3EB0B0501
:1028F0006D1E0DE05B4504DD4FF0000205F10105A2
:1029000004E003DA4FF00002A5F10105002AECD043
:1029100002981199C0E90231C0E9004579E7000049
:10292000000014400000F03F300000000000F043C1
:102930000000E03F2DE9F04389B006468846914605
:10294000002400E0641C305D202804D0305D09289C
:1029500001D04445F6D324B94FF0FF3009B0BDE8AB
:10296000F0832146304602F06DFB054615B94FF065
:10297000FF30F3E7202101A8FDF7D7FC01AA41466B
:10298000304602F0CFFB074617B94FF0FF30E5E7BE
:1029900001A93846A847C9F800000020DEE700007A
:1029A0002DE9FF4F95B09A46884606460025EEE190
:1029B000252877D100242746F94A0121039400E015
:1029C000044316F8013F203B01FA03F01042F7D10F
:1029D00030782A2811D06FF02F033078A0F1300220
:1029E000092A16D8039A44F0020402EB820203EB90
:1029F00042021044761C0390EFE758F8042B039230
:102A0000002A03DA504244F40054039044F00204D4
:102A1000761C30782E2816D116F8010F44F00404E5
:102A20002A280DD06FF02F023078A0F13003092B47
:102A300009D807EB870302EB4303C718761CF3E7BB
:102A400058F8047B761C30786C280FD006DC4C28B4
:102A500017D068280DD06A2814D104E0742810D04B
:102A60007A280FD10DE044F400140AE044F48014F5
:102A700001E044F440147278824202D104F58014DB
:102A8000761C761C307866280BD013DC582877D05B
:102A900009DC002875D04528F6D04628F4D0472810
:102AA0001AD193E118E0632835D0642879D06528DD
:102AB00012D18BE1702873D008DC6728F1D0692827
:102AC0006FD06E280DD06F2806D1ACE073282CD0C3
:102AD000752874D0782853D05246179990476D1CAA
:102AE00054E1C4F30250022809D003280DD0D8F8CD
:102AF000001004280DD00D6008F1040846E1D8F854
:102B00000010EA17C1E90052F6E7D8F800100D806E
:102B1000F2E70D70F0E718F8041B8DF800100020A4
:102B20008DF80100EB46012003E058F804BB4FF09C
:102B3000FF3061074FF0000102D40DE009F10101FF
:102B40008946B9420FDA8145F8DB1BF809100029E4
:102B5000F4D108E009F1010189468142FADB1BF852
:102B600009100029F6D103985346A0EB0907214626
:102B70003846179A00F080FA284400EB090507E070
:102B800044E008E10DE01BF8010B5246179990470D
:102B9000B9F10109F7D2534621463846179AF2E0B7
:102BA00039E00A21C4F302524FF0000B0091022ACF
:102BB00006D058F8040BC117032A09D00AE023E015
:102BC00008F1070020F00702F2E80201904605E054
:102BD00000B2C117042A01D140B2C117002906DA98
:102BE0000A460021404261EB02012D2202E022054B
:102BF00004D52B228DF80420012203E0E20701D046
:102C00002022F7E7914657E00A2100E010214FF01B
:102C1000000B00910BE010214FF0000B44F0040476
:102C20000827009103E008204FF0000B0090C4F348
:102C30000252022A05D058F8040B0021032A08D0BA
:102C400008E008F1070020F00702F2E802019046D0
:102C500003E080B2042A00D1C0B24FF0000922077D
:102C60002AD53278702A07D0DDF800C08CF0100C1D
:102C70005CEA0B0C05D00EE040228DF80420012206
:102C800008E050EA010306D030238DF804308DF8B7
:102C9000052002229146009B83F0080353EA0B03B0
:102CA0000AD150EA010201D1620705D530228DF820
:102CB00004204FF001097F1E3278582A04D039A22F
:102CC0000C920CAA02920BE03BA2F9E75B46009A39
:102CD000FDF7AEFD0C9B9B5C029A521E0292137094
:102CE00050EA0102F2D1029804A9081A00F1200B5F
:102CF000600702D524F4803400E001275F4502DD3F
:102D0000A7EB0B0000E0002000EB0B010090039804
:102D10004944401A0390E00306D453462146179ACB
:102D2000039800F0A9F90544002706E001A85246DF
:102D3000C05D179990476D1C7F1C4F45F6DBE00383
:102D40000CD553462146179A039800F095F905448F
:102D500004E030205246179990476D1C0099481E98
:102D600000900029F5DC08E00298029952460078AC
:102D7000491C0291179990476D1CBBF10001ABF102
:102D8000010BF1DC5BE100F065F90544761C30785D
:102D900000287FF40DAE19B02846BDE8F08F000082
:102DA0000928010030313233343536373839616221
:102DB00063646566000000003031323334353637E5
:102DC000383941424344454600000000600700D4C2
:102DD000062708F1070020F00700F0E802238046EC
:102DE00003F0004C5FEA0C0001D097A009E0200539
:102DF00001D596A005E0E00701D095A001E0AFF273
:102E00004C001390307823F0004365280CD006DC8A
:102E1000452809D046281DD047287FD13BE06628A9
:102E200018D067287AD136E00021112F01DB11205C
:102E300000E0781CCDE9000104A90CA8FFF7B8FC5C
:102E4000DDE90D010C9A4FF0000B07F1010910921A
:102E500000914EE04FF000400097CDE9011004A929
:102E60000CA8FFF7A5FCDDE90D020C9B0F994FF0B4
:102E7000000B91461093009211B9791C00EB0109E7
:102E8000B7EB090003D4C0F1FF3B07F10109A9EB3F
:102E90000700019042E0012F00DA01270021112FE5
:102EA00001DD112000E03846CDE9000104A90CA89D
:102EB000FFF77EFCDDE90D010C9A00914FF0000B4D
:102EC000B946109221070FD4009A4A4503DA914679
:102ED00001E0A9F10109B9F1010F05DD109AA9F18D
:102EE0000101515C3029F4D0B84202DA10F1040F2C
:102EF00003DA0121CDE9011010E0002803DC83444E
:102F0000A9EB000102E0411C494500DD8946A0EB28
:102F10000B00401C01904FF000400290200705D4A8
:102F20000198484502DB4FF0FF30019000208DF8FA
:102F30004B0002980DF14B07B0F1004F25D0022055
:102F40000C902B200D90029800280CDA4042029041
:102F50002D200D9007E00A210298FDF753FC303137
:102F6000029007F8011D0C99481E0C900029F2DC14
:102F700002980028EFD1791E0D980870307800F083
:102F8000200040F0450007F8020D11A8C01BC01D2D
:102F900002901398007800B1012000EB090101981C
:102FA00001EBE071029801440398401A401E03901F
:102FB000E00306D453462146179A039800F05CF8C4
:102FC00005441398007818B15246179990476D1C24
:102FD000E00323D553462146179A039800F04CF896
:102FE00005441BE0BBF1000F07DB0098584504DDEA
:102FF0001098179910F80B0001E0179930205246ED
:10300000904701980BF1010B401E05F1010501905D
:1030100004D12E205246179990476D1CB9F100013A
:10302000A9F10109DEDC05E017F8010B52461799FA
:1030300090476D1C0299481E02900029F4DC53460B
:103040002146179A03989EE62D0000002B000000F1
:10305000200000002DE9F041044600251E461746D9
:10306000880404D405E039462020B0476D1C641E56
:10307000F9D52846BDE8F0812DE9F0410446002548
:103080001E469046C80301D5302700E0202788045B
:1030900004D505E041463846B0476D1C641EF9D59D
:1030A0002846BDE8F08100002DE9FC5F04468B4610
:1030B00015461E46DDE90C9ADDE90E7804F11C0088
:1030C0004060006000BF24346560A660C4F80C90C6
:1030D000C4F810A02321D4E9030202F0DCFED4E9F5
:1030E000033C63441A1F0F4BD4E9010102F0D4FCE6
:1030F0002060A77667760020E061C4F82080C4F8DD
:10310000248060612076E0652066243C00902346A0
:10311000054A2146019004F14C0003F042FC0020D6
:10312000BDE8FC9F3D6500087D6700082DE9F0477C
:1031300004460E4617469846DDF8209084F8119014
:10314000607C20F0010060746662A762002020634A
:10315000C4F82C80002506E004F11C0101EBC50039
:1031600002F066FD6D1C012DF6DBBDE8F08770B541
:103170000546002406E005F11C0101EBC40002F045
:10318000AAFD641C012CF6DB70BD0A68531C0B60A1
:103190001070704770B50446FDF714F80546D4F872
:1031A000800018B12046D4F8801088472846FDF7E3
:1031B0000DF870BDFDF726FD642003F057FA00F00E
:1031C0004DFE0A2003F052FA00F048FE0A2003F0F8
:1031D0004DFA03E04FF4FA6003F048FAFAE7000012
:1031E0002DED048B82B09FED210A10EE104A9FED69
:1031F0001F0A10EE105A642003F038FA35E09020D0
:10320000FEF734F810EE104A9220FEF72FF810EE79
:10321000105A2846FDF797FA41EC180B2046FDF7A7
:1032200092FA41EC190B8DED008B53EC192B10A089
:10323000FFF760FA174804600068FDF784FA41EC74
:10324000180B9FED150B53EC102BFDF7A7FA04D2CA
:1032500080211348FEF704F803E080211048FDF7B1
:10326000FDFF40F2EE2003F001FAC8E70000000085
:10327000626F6172645F74656D70413A25662020EB
:1032800020626F6172645F74656D70423A25660DED
:103290000A000000080000200000000000804640F6
:1032A0000008024010B520A002F0A0FC21480178DF
:1032B00021A002F09BFC1F48007800F0010010B133
:1032C00023A002F093FC1B48007800F0020010B12C
:1032D00022A002F08BFC1748007800F0040010B127
:1032E00021A002F083FC1348007800F0080010B120
:1032F00021A002F07BFC0F48007800F0100010B114
:1033000020A002F073FC0B48007800F0800030B180
:1033100008480F3001681DA002F068FC02E01FA001
:1033200002F064FC10BD0000627573206661756C6C
:10333000743A0A0029ED00E05343425F434653527A
:103340005F424653523A3078253032582000000010
:103350004942555345525220000000005052454307
:103360004953455252200000494D5052454349535C
:103370004552522000000000554E53544B455252C6
:103380002000000053544B45525220005343422D1D
:103390003E424641523A253038580A000A000000A1
:1033A00010B52DED048B394841680846FDF7CBF97F
:1033B00041EC190B9FED360B53EC102BFDF71DF96B
:1033C00041EC180BFDF702FA3049486008460169E4
:1033D0000846FDF7B8F941EC190B9FED2D0B53ECA6
:1033E000102BFDF70AF941EC180BFDF7EFF927490F
:1033F0000861DFED292AB0EE621ADFED272AB0EE70
:10340000620ADFED262AF0EE621ADFED252A12EEBF
:10341000900ADFED232AF0EE620AF0EE042AB0EE05
:10342000622A71EE002A80EE223A896802EE901A32
:10343000C2EE823A73EE632AF0EE620A60EEA12ACF
:10344000B7EE003A33EE603AC2EE833A13EE900ADA
:103450000E49886071EE002A80EE223A496902EE38
:10346000901AC2EE823A73EE632AF0EE620A60EEC0
:10347000A12AB7EE003A33EE603AC2EE833A13EE79
:10348000900A02494861BDEC048B10BD680400201D
:103490000AD7A3703D0AA73F00401C4600409C4647
:1034A0000000000070B504460D4601F0C7F800208A
:1034B00070BD70B504460D4601F098F9002070BD4E
:1034C0000024002500231A4629A12C4802F051FEB1
:1034D000FDF764FC4AE000220121284802F02EFE9C
:1034E0004FF0FF31254802F080FE012003F0BEF8C6
:1034F00004212348FDF7A9FE044608212048FDF7D2
:10350000A4FE05461FA0FFF7F5F8AC4215D01F48F2
:103510000088401D00B21D4908800846B0F900002F
:10352000B0F5FA7F02DD4FF4FA700880184802F017
:1035300033FE18A0FFF7DEF812E014480088401FA1
:1035400000B2124908800846B0F90000002801DAEC
:10355000002008800E4802F01FFE10A0FFF7CAF8F6
:103560000A48B0F900100FA0FFF7C4F8B3E7000055
:10357000636F6465635F73656D00000070280020F1
:1035800000100240526F746174653A00040000201C
:10359000482800202B2B0D0A000000002D2D0D0ABD
:1035A000000000004C45445F63757272656E743AAA
:1035B00025640D0A0000000000B587B001214020FD
:1035C000FEF7B0F901212020FEF7CCF908220921ED
:1035D0001B48FDF717FE08220E211948FDF712FEC1
:1035E0004FF48440059002208DF8180003208DF8D8
:1035F000190000208DF81A0001208DF81B0005A984
:103600000F48FDF7B7FD4FF4E13001900020ADF811
:103610000800ADF80A00ADF80C00ADF810000C2061
:10362000ADF80E0001A90748FEF7C4FF01210548C7
:10363000FEF77CFF40210348FEF769FF07B000BD9D
:10364000001802400014014010B5024600200CE0B2
:10365000135C074C238000BF054B1B1F1B8803F026
:103660004003002BF8D0431CD8B28842F0DB10BDD9
:103670000414014010B51548006890F82900C0F303
:10368000400020B9002012490870084610BD1148BA
:10369000006840B14FF400720E4801680C48FCF716
:1036A0005BFE0B48F2E701F03BFD20B10AA10848A0
:1036B000FCF765FE03E00AA10548FCF760FE0AA1DD
:1036C0000348FCF73DFE0248E0E700005C040020F0
:1036D000C03F0020600400206D73682000000000DF
:1036E00066696E73682000003E00000010B502F0AD
:1036F00083F810BD0549096891F8291060F341016C
:10370000024A126882F82910704700005C04002009
:10371000024A1060024A1160704700004C04002009
:10372000500400207CB5002517491848FFF7F0FF2A
:103730008021012001F06CFF1549086008460068EF
:1037400020B914A002F052FA681E7CBD0A2015218F
:103750004FF480630022CDE90010144914A002F058
:10376000C4FE044600231A4613A10948006802F06B
:1037700000FD0120FFF7BEFF1CB115B9204602F085
:10378000C5FF0020E1E70000948C0008C88B00080A
:103790005C0400206E6F206D656D6F727920666F1E
:1037A00072207368656C6C0A00000000C137000865
:1037B000747368656C6C00007368727800000000B8
:1037C000E948006890F8290020F00100401CE64913
:1037D000096881F82900FFF74DFF054602F006FA57
:1037E000C1E1FFF783FF0446002C00DABBE11B2C8C
:1037F00005D10120DC49096881F82800B3E1DA48E5
:10380000006890F8280001280DD15B2C05D102201A
:10381000D549096881F82800A5E10020D249096846
:1038200081F8280045E0D048006890F82800022878
:103830003FD10020CC49096881F82800412C00D1F3
:1038400091E1422C00D18EE1442C11D1C648006890
:10385000B0F87C0058B1C5A002F0C8F9C2480068B1
:10386000B0F87C00401EC0490968A1F87C007AE1EC
:10387000432C1ED1BC480068B0F87C00BA490968E6
:10388000B1F87A10884213DAB7480068B0F87C20A3
:10389000B54800682A30815CB5A002F0A7F9B248AB
:1038A0000068B0F87C00401CAF490968A1F87C00B2
:1038B00059E10CB1FF2C00D155E1092C1FD1002595
:1038C00003E0AAA002F092F96D1CA7480068B0F8C6
:1038D0007C00A842F5DCA44800682A3003F014FC00
:1038E000A14800682A30FCF743FD80B29E49096870
:1038F000A1F87A009C490968A1F87C0033E17F2C8B
:1039000001D0082C6ED198480068B0F87C0000B94E
:1039100029E195480068B0F87A00401E924909688C
:10392000A1F87A0090480068B0F87C00401E8E49EB
:103930000968A1F87C008C480068B0F87A008A49D0
:103940000968B1F87C1088423FDD874B1B68B3F8EB
:103950007A30854E3668B6F87C609A1B824B1B68BD
:10396000B3F87C305B1C804E36682A3699197E4B42
:103970001B68B3F87C607C4B1B682A33F01802F09C
:1039800069FA002278480068B0F87A107648006832
:103990002A30425474480068B0F87C2072480068AD
:1039A0002A30111873A002F021F96F480068B0F8AE
:1039B0007C5003E06DA002F019F96D1C6A480068A4
:1039C000B0F87A00A842F5DA0BE06CA002F00EF92C
:1039D000002165480068B0F87A20634800682A3002
:1039E0008154C0E00D2C01D00A2C2BD101F098FBA2
:1039F000012812D15C48006890F8290000F001000D
:103A000010B15FA002F0F2F857480068B0F87A10E1
:103A1000554800682A3001F0DFFAFFF72BFE054613
:103A200002F0E4F85021504800682A30FCF77DFC91
:103A300000204D490968A1F87A004B490968A1F8AE
:103A40007C0090E048480068B0F87A00502804DB19
:103A5000002045490968A1F87A0043480068B0F899
:103A60007C0041490968B1F87A10884245DA3E4B3A
:103A70001B68B3F87A303C4E3668B6F87C609A1B07
:103A8000394B1B68B3F87C60374B1B682A33F1183D
:103A9000354B1B68B3F87C305B1C334E36682A36D6
:103AA000981902F0D7F930480068B0F87C202E4809
:103AB00000682A3084542C48006890F8290000F0EF
:103AC000010050B128480068B0F87C202648006802
:103AD0002A3011182BA002F089F823480068B0F8AA
:103AE0007C5003E021A002F081F86D1C1E480068A4
:103AF000B0F87A00A842F5DC12E01B480068B0F884
:103B00007A20194800682A3084541748006890F8D1
:103B1000290000F0010018B1214615A002F066F856
:103B2000002411480068B0F87A00401C0E4909686A
:103B3000A1F87A000C480068B0F87C00401C0A49E3
:103B40000968A1F87C0008480068B0F87A0050289D
:103B500008DB002004490968A1F87A0002490968D5
:103B6000A1F87C0000BF3CE65C04002008000000D7
:103B700025630000082573202008000008200800A5
:103B80000A0000002573000000BF054A128802F0F9
:103B90004002002AF9D0C2B2014B1B1D1A807047A7
:103BA0000014014010B52DED048BC2B0F02106A821
:103BB000FCF7BBFB18216846FCF7B7FB002400BFED
:103BC00033E000F04BF99D4890ED000A06A800EBA9
:103BD000840080ED000A994890ED010A10A800EBDE
:103BE000840080ED000A954890ED020A1AA800EBC7
:103BF000840080ED000A914890ED030A24A800EBB0
:103C0000840080ED000A8D4890ED040A2EA800EB98
:103C1000840080ED000A894890ED050A38A800EB81
:103C2000840080ED000A601CC4B20A2CC9DB0024A9
:103C30000AE004EB840106AA02EBC10000220A217B
:103C4000FDF752F8601CC4B2062CF2DB002445E0FC
:103C50009DED000A06A9A01C01EB8000D0ED000A32
:103C600030EE200A8DED000A9DED010A10A8A11C7E
:103C700000EB8100D0ED000A30EE200A8DED010A44
:103C80009DED020A1AA800EB8100D0ED000A30EE8B
:103C9000200A8DED020A9DED030A24A800EB8100A5
:103CA000D0ED000A30EE200A8DED030A9DED040AE6
:103CB0002EA800EB8100D0ED000A30EE200A8DED39
:103CC000040A9DED050A38A800EB8100D0ED000A3A
:103CD00030EE200A8DED050A601CC4B2062CB7DB5D
:103CE000DDED050AB1EE081A80EE810A10EE100A29
:103CF00053490860DDED000AB1EE081A80EE810A32
:103D000010EE100A4860DDED020AB1EE081A80EEEE
:103D1000810A10EE100A8860DDED040AB1EE081A7F
:103D200080EE810A10EE100AC860DDED010AB1EEE6
:103D3000081A80EE810A10EE100A0861DDED030A10
:103D4000B1EE081A80EE810A10EE100A48610846AA
:103D500001680846FCF7F7FC41EC190B9FED390BA5
:103D600053EC102BFCF749FC41EC180BFCF72EFD33
:103D700033490860084641680846FCF7E4FC41EC1A
:103D8000190B9FED320B53EC102BFCF736FC41EC7A
:103D9000180BFCF71BFD2A49486008468168084655
:103DA000FCF7D1FC41EC190B9FED280B53EC102BC9
:103DB000FCF723FC41EC180BFCF708FD2049886058
:103DC0000846C1680846FCF7BEFC41EC190B9FEDA4
:103DD000210B53EC102BFCF710FC41EC180BFCF7FB
:103DE000F5FC1749C860084601690846FCF7ABFCBA
:103DF00041EC190B9FED150B53EC102BFCF7FDFB61
:103E000041EC180BFCF7E2FC0D49086108464169DA
:103E10000846FCF798FC41EC190B9FED0C0B53EC9A
:103E2000102BFCF7EAFB41EC180BFCF7CFFC044924
:103E3000486142B0BDEC048B10BD00009828002002
:103E400068040020000000000000F03FAAAAAAAA0F
:103E5000AAAA204098746A1EE4AEFF3F10B52DED6B
:103E6000088B84B0002400200190029003904FF44E
:103E700080514248FDF7F4F90420FDF7CBFE00BF66
:103E80004FF400513D48FDF7E0F90028F8D1002437
:103E90006EE04FF480513948FDF7E2F900BF00BFF2
:103EA0004FF480513548FDF7D9F900BF00BF3448C1
:103EB000006801A921F8140001A830F8140000F4EA
:103EC0000040B0F5004F23D001A830F8140000EEF8
:103ED000100AB8EE400A10EE101A0846FCF733FC40
:103EE00041EC1A0B9FED270B53EC102BFCF713FB47
:103EF00041EC190B9FED250B53EC102BFCF77DFBD0
:103F000041EC180BFCF762FC224941F824002DE03B
:103F100001A830F814004FF6FF72101A00EE100AD4
:103F2000B8EEC00A10EE101A0846FCF70CFC41EC83
:103F30001B0B9FED140B53EC102BFCF7ECFA41EC30
:103F40001A0B9FED120B53EC102BFCF756FB41ECB8
:103F5000190B9FED110B53EC102BFCF7D9FA41EC28
:103F6000180BFCF733FC0B4941F82400601CC4B269
:103F7000062C8EDB04B0BDEC088B10BD00040240A3
:103F8000100C02400000000000002440000000006F
:103F9000C0FFDF4098280020000000000000000063
:103FA00000B52DED048B85B001A8FDF7EBFC019861
:103FB000FCF7A3FB41EC190B9FED230B53EC102BEB
:103FC000FCF71BFB41EC180B53EC182B20A0FEF761
:103FD00091FB0298FCF791FB41EC190B9FED1A0B3A
:103FE00053EC102BFCF709FB41EC180B53EC182B8E
:103FF0001EA0FEF77FFB0398FCF77FFB41EC190B3B
:104000009FED110B53EC102BFCF7F7FA41EC180B5A
:1040100053EC182B1CA0FEF76DFB0498FCF76DFB0E
:1040200041EC190B9FED080B53EC102BFCF7E5FA54
:1040300041EC180B53EC182B1AA0FEF75BFB05B0F4
:10404000BDEC048B00BD00000000000080842E4108
:10405000535953434C4B5F4672657175656E637976
:104060003A252E33664D487A0D0A000048434C4BE2
:104070005F4672657175656E63793A252E33664DBC
:10408000487A0D0A0000000050434C4B315F4672E5
:10409000657175656E63793A252E33664D487A0DE4
:1040A0000A00000050434C4B325F467265717565E3
:1040B0006E63793A252E33664D487A0D0A0000006A
:1040C00010B51448006800F0020010B112A001F011
:1040D0008DFD1048006800F0804088B10D48C01E7A
:1040E000007808B1FFF7DEF80A48001F007808B131
:1040F00000F0C6FD0748801E008808B103F02EF9C5
:104100000448006800F0004010B109A001F06EFD05
:1041100010BD00002CED00E06661696C65642076DE
:104120006563746F722066657463680A000000003E
:104130006465627567206576656E740A000000002C
:1041400010B502A001F052FD002010BD48656C6C56
:104150006F2052542D546872656164210A0000007A
:10416000002001E0411C88B21C28FBDB70470000E6
:1041700010B54FF400600B49088000F015F84FF4BB
:1041800080600849891E088000F00EF84FF48060B6
:104190000449088000F008F84FF400600149891EC6
:1041A000088010BD1A040240002001E0411C88B2C2
:1041B0001C28FBDB704700001CB501210220FDF725
:1041C000B1FB01210220FDF7ADFB4FF480600090B0
:1041D00001208DF804008DF8060003208DF80500FD
:1041E00001208DF8070069460B48FCF7C3FF4FF428
:1041F0000060009001208DF804008DF80600032077
:104200008DF8050001208DF8070069460248FCF78B
:10421000B1FF00F08BF81CBD0004024010B54FF454
:10422000006009490880FFF7BFFF4FF4806006492E
:104230000880FFF7B9FF4FF480600349891C0880AC
:10424000FFF7B2FF10BD00001804024070B5002552
:10425000002400BF18E04FF480600D490880FFF78C
:10426000A3FF6006040E0A480838006800F40060E6
:1042700008B1601CC4B24FF480600549891C0880F5
:10428000FFF792FF681CC5B2082DE4DB204670BD25
:104290001804024070B504464FF480601549088048
:1042A00000251FE004F0800028B14FF400601149A0
:1042B000891E088003E04FF400600E490880600604
:1042C000040EFFF771FF4FF480600A49891E0880D1
:1042D000FFF76AFF4FF4806006490880FFF764FF2C
:1042E000681CC5B2082DDDDB40200249891E08800C
:1042F00070BD00001A04024010B54FF400600A4976
:10430000088040100880FFF74FFF4FF40060064917
:10431000891C0880FFF748FF4FF480600249891C20
:104320000880FFF741FF10BD1804024010B54FF49C
:104330000060064908804010891E0880FFF734FF9E
:104340004FF400600149891E088010BD1A04024024
:1043500070B5002400254FF400600E490880FFF777
:1043600023FF4FF480600B490880FFF71DFF0948C9
:104370000838006800F4006008B1012400E000245F
:104380004FF480600349891C0880FFF70DFF204629
:1043900070BD00001804024000BF0FE0C82002F00A
:1043A00065F94FF480710648FCF758FFC82002F009
:1043B0005DF94FF480710248FCF752FFEEE7000010
:1043C0000004024010B50DA001F010FC1048046874
:1043D0000DE002220FA12068FBF7DAFF00B905E02B
:1043E0000DA0D4E9001201F001FC00BF0C340E480E
:1043F00000688442EDD3002010BD00002D2D4675CD
:104400006E6374696F6E204C6973743A0A00000021
:104410004C0400205F5F0000252D313673202D2DC8
:104420002025730A00000000500400202DE9F04709
:1044300004460D4616461F46284601F09BFD814660
:1044400009F10408C4F8008025726660E760002066
:104450002061BDE8F0872DE9F84F07460C464FF084
:10446000000A00202061E06808B1207A10B900201D
:10447000BDE8F88FD4F800801FB945464FF0010A17
:1044800000E03D46FBF79EFE0090BAF1000F0ED112
:10449000A5F1140B9BF8100020F08000217A8842CF
:1044A00004D00098FBF792FE0020E1E700BF002651
:1044B000D4F804900BE02D68454501D1002507E0B4
:1044C000761C49F8045BE068B04200D100E0F2E7F6
:1044D00000BF0098FBF77AFE26612846C8E7000077
:1044E0002DE9F04F91B000270FF2D409082304AA58
:1044F00005210CA8FFF79AFF4FF010084A464146E5
:1045000031A001F073FB404600F084FE37A001F0BB
:104510006DFB00BF0CA93846FFF79DFF074600253D
:1045200045E004A850F82500A0F11406FBF74AFE68
:104530008346307C20F080009DF83810884203D0FC
:104540005846FBF743FE31E05846FBF73FFE344642
:1045500004F11C0001F09BFBB8B904F11C0001F050
:104560009EFB8246208D618D23461022CDE9010AF3
:104570000091414624A001F039FB04F11C0002F037
:10458000DFFD27A001F032FB0FE004F11C0001F079
:1045900086FB8246208D618D23461022CDE9010ADB
:1045A000009141461FA001F021FB00BF6D1C109837
:1045B000A842B6DC002FADD1002011B0BDE8F08FCD
:1045C0006D61696C626F7800252D2A2E7320656EEF
:1045D0007472792073697A652073757370656E647F
:1045E000207468726561640A00000000202D2D2D82
:1045F0002D20202D2D2D2D202D2D2D2D2D2D2D2D12
:104600002D2D2D2D2D2D0A00252D2A2E2A73202506
:104610003034642020253034642025643A000000C2
:104620000A000000252D2A2E2A732025303464200C
:1046300020253034642025640A00000010B50848A5
:10464000016808A001F0D2FA0B4801680BA001F044
:10465000CDFA0F4801680FA001F0C8FA10BD0000A4
:10466000DC030020746F74616C206D656D6F72796E
:104670003A2025640A000000E00300207573656499
:10468000206D656D6F7279203A2025640A00000064
:10469000E40300206D6178696D756D20616C6C6F4D
:1046A0006361746564206D656D6F72793A2025646D
:1046B0000A0000002DE9F04F8FB000270FF2CC095F
:1046C000082302AA02210AA8FFF7B0FE4FF0100843
:1046D0004A46414630A001F089FA404600F09AFD72
:1046E00034A001F083FA00BF0AA93846FFF7B3FEF1
:1046F0000746002541E002A850F82500A0F1140665
:10470000FBF760FD8346307C20F080009DF8301080
:10471000884203D05846FBF759FD2DE05846FBF779
:1047200055FD344604F11C0001F0B1FAA8B904F1BA
:104730001C0001F0B4FA8246A08C234610224146A8
:10474000CDE9000A21A001F051FA04F11C0002F0A9
:10475000F7FC17A001F04AFA0DE004F11C0001F08B
:104760009EFA8246A08C234610224146CDE9000ADB
:104770001AA001F03BFA00BF6D1C0E98A842BADCEB
:10478000002FB1D100200FB0BDE8F08F73656D61CF
:1047900070686F7265000000252D2A2E7320762028
:1047A000202073757370656E64207468726561642F
:1047B0000A000000202D2D2D202D2D2D2D2D2D2DED
:1047C0002D2D2D2D2D2D2D0A00000000252D2A2EFA
:1047D0002A7320253033642025643A00252D2A2EA3
:1047E0002A7320253033642025640A002DE9F04F18
:1047F000B3B04FF000090FF21C1B082325AA0121BA
:104800002DA8FFF713FE4FF0100A5A4651464348B1
:1048100001F0ECF9504600F0FDFC41A001F0E6F992
:1048200000BF2DA94846FFF716FE81464FF000084D
:1048300065E025A850F82800A0F11405FBF7C2FC9C
:104840003290287C20F080009DF8BC10884203D074
:104850003298FBF7BBFC50E08822294603A8FBF7FF
:104860004BFD3298FBF7B2FC2C4694F83D002346F2
:104870001022514600903AA001F0B8F994F83C009B
:1048800000F00F06012E03D138A001F0AFF915E0BA
:10489000022E03D138A001F0A9F90FE01EB939A00A
:1048A00001F0A4F90AE0042E03D139A001F09EF929
:1048B00004E0032E02D139A001F098F9276B00E043
:1048C0007F1C38782328FBD0D4E90C10791A401AC1
:1048D00064214843616BB0FBF1F00290A16BA06CC6
:1048E000CDE90001636A206BC01A636BC1181A46D8
:1048F0002DA0029B01F07AF900BF08F10108319860
:10490000404596DCB9F1000F8BD1002033B0BDE8F3
:10491000F08F000074687265616400000889000807
:10492000202D2D2D20202D2D2D2D2D2D2D202D2DEB
:104930002D2D2D2D2D2D2D2D202D2D2D2D2D2D2DB4
:104940002D2D2D20202D2D2D2D2D2D20202D2D2DCB
:104950002D2D2D2D2D2D2D202D2D2D0A000000006B
:10496000252D2A2E2A7320253364200020726561AC
:1049700064792020000000002073757370656E64F8
:104980000000000020696E697420202000000000F3
:1049900020636C6F73652020000000002072756E2C
:1049A0006E696E670000000020307825303878206E
:1049B0003078253038782020202025303264252595
:1049C00020202030782530387820253033640A00C4
:1049D0002DE9F04790B000270FF2B409082303AA8D
:1049E0000A210BA8FFF722FD4FF010084A46414666
:1049F00029A001F0FBF8404600F00CFC30A001F0CB
:104A0000F5F800BF0BA93846FFF725FD074600263D
:104A10002DE003A850F82600A0F11404FBF7D2FB08
:104A20008246207C20F080009DF83410884203D01C
:104A30005046FBF7CBFB19E05046FBF7C7FB25467A
:104A4000D5E90B012B461022CDE90001414625A0F6
:104A500001F0CCF8687C00F0010018B127A001F04B
:104A6000C5F802E028A001F0C1F800BF761C0F983D
:104A7000B042CEDC002FC5D101F0DEFE0446214657
:104A800025A001F0B3F8002010B0BDE8F0870000C9
:104A900074696D6572000000252D2A2E7320207028
:104AA0006572696F64696320202074696D656F7534
:104AB0007420202020202020666C61670A000000FE
:104AC000202D2D2D2D2D2D2D2D2D2D202D2D2D2D30
:104AD0002D2D2D2D2D2D202D2D2D2D2D2D2D2D2D13
:104AE0002D2D0A00252D2A2E2A73203078253038C6
:104AF00078203078253038782000000061637469B0
:104B000076617465640A0000646561637469766146
:104B10007465640A0000000063757272656E74202B
:104B20007469636B3A3078253038780A00000000E9
:104B30002DED028B84B000BF002001900290039005
:104B40000024FCF7C3FB02F08FF9642001F08EFD16
:104B50009FED3D0AB0EE408AB0EE000AB0EE408A0A
:104B6000B0EE480AFDF75EFAB0EE480AFDF788FBA2
:104B7000FDF70AFBFDF736FC64E001213348FCF742
:104B800071FB4FF400613248FCF768FB4FF4805131
:104B90002F48FCF763FB642001F068FD4FF40061CF
:104BA0002B48FCF75DFB4FF480512948FCF758FB7C
:104BB000642001F05BFD0A2201A90020FCF739F90D
:104BC00024A0FDF797FD002406E001A8015D24A0C4
:104BD000FDF790FD601CC4B20A2CF6DB22A0FDF7A5
:104BE00089FDC82001F042FD00240AE004F15500CF
:104BF00001A9085501AA115D2046FCF754F9601C73
:104C0000C4B20A2CF2DBC82001F030FD0020019074
:104C1000029003900A2201A9FCF70BF90DA0FDF701
:104C200069FD002406E001A8015D0DA0FDF762FD0D
:104C3000601CC4B20A2CF6DB0BA0FDF75BFDC8209C
:104C400001F014FD99E70000000000000008024098
:104C50000000024074657374205265616420000096
:104C600030782578200000000D0A0D0A00000000B1
:104C700010B5044600F0ECFCFFF75AFF10BD000031
:104C800010B51CA000F0B2FF1F4801781FA000F073
:104C9000ADFF1D48007800F0010010B121A000F028
:104CA000A5FF1948007800F0020010B120A000F024
:104CB0009DFF1548007800F0080010B11FA000F01B
:104CC00095FF1148007800F0100010B11EA000F010
:104CD0008DFF0D48007800F0800030B10A480C309C
:104CE00001681CA000F082FF02E01EA000F07EFF21
:104CF00010BD00006D656D206D616E616765206699
:104D000061756C743A0A000028ED00E05343425F7D
:104D1000434653525F4D4653523A3078253032580D
:104D2000200000004941434356494F4C20000000F9
:104D30004441434356494F4C200000004D554E53CB
:104D4000544B4552522000004D53544B4552522073
:104D5000000000005343422D3E4D4D41523A253054
:104D600038580A000A0000002DED088B9FED610AFB
:104D7000F0EE408A00BF9FED5F0AB0EE408A9FEDE3
:104D80005D0AB0EE409AFCF7A7FD00231A465AA12F
:104D90005D4801F0EEF9142140F69F70FDF74AFBE3
:104DA000A7E000220121584801F0C8F94FF0FF3177
:104DB000554801F01AFAFEF7F5FEFEF7F1FA5348EE
:104DC000007800287DD15248007810BB5148B0F9D6
:104DD0000000FBF781FC41EC1B0B9FED4F0B53ECEC
:104DE000102BFBF70AFC41EC1A0BFBF7EFFC08EE6B
:104DF000900A4848B0F90000FBF76EFC41EC1A0B32
:104E00009FED450B53EC102BFBF7F7FB41EC1B0B15
:104E100009E04048B0F9000000EE100AB8EEC00A00
:104E2000F0EE408A00BF3E48007801283ED118EEDF
:104E3000900AFBF788FC41EC1A0B9FED3A0B53EC00
:104E4000102BFBF7ABFC31D83848006900EE900A14
:104E5000B0EE680AFCF7E2FCB0EE408A38EE490A90
:104E600010EE101A0846FBF76EFC41EC1A0B9FED92
:104E7000300B53EC102BFBF791FC0FD339EE480AA3
:104E800010EE101A0846FBF75EFC41EC1A0B9FED82
:104E9000280B53EC102BFBF781FC2AD2B0EE489A7A
:104EA000B0EE480AFCF7AAFE23E00AE0FCF714FD86
:104EB0009FED100AB0EE409A9FED0E0AFCF79EFEA1
:104EC00017E01A4801680846FBF73DFC41EC1A0B55
:104ED0009FED140B53EC102BFBF748FC04D29FED15
:104EE000050AF0EE408A04E01048006808EE900AD7
:104EF00000BF56E70000000063616C5F616463708F
:104F000069645F73656D0000D828002000000020F0
:104F100002000020040000200000000000005940B2
:104F2000010000207B14AE47E17A843F6804002032
:104F3000000000000000D03F2DE9F0478146002628
:104F4000002799F8000028B90021084600F0A8F8C9
:104F5000BDE8F0871B48046827E006221AA12068F4
:104F6000FBF716FA00B11FE0206800F1060848467A
:104F7000FBF7FEF98246524641464846FBF708FADF
:104F800088B926B947463846FBF7F2F90646414646
:104F9000384602F000F90546B54200DA2E46414691
:104FA0000BA000F023FE00BF0C340A4800688442C6
:104FB000D3D327B132463946484601F0B2F900BF93
:104FC000C6E700004C0400205F5F636D645F000073
:104FD00025730A005004002038B504460D4601E050
:104FE000641C6D1E2DB120782028F9D02078092866
:104FF000F6D00DB9002038BD6A4629462046FDF797
:1050000099FC08B90098F6E7204600E0401C0178BA
:10501000202902D001780029F8D100210170214611
:1050200002A000F0E3FD4FF0FF30E4E725733A20E3
:10503000636F6D6D616E64206E6F7420666F756E48
:10504000642E0A002DE9F04106460D46002710485F
:10505000046815E006220FA12068FBF799F900B15A
:105060000DE02168881D2A463146FBF791F928B9E1
:10507000A81D2168085C08B9A76805E000BF0C34CA
:10508000064800688442E5D300BF3846BDE8F08199
:105090004C0400205F5F636D645F000050040020DB
:1050A00070B505460E460FA000F0A0FD1448046838
:1050B0000EE0062213A12068FBF76AF900B106E0B2
:1050C000D4E90002811D11A000F090FD00BF0C3456
:1050D000114800688442ECD310A000F087FD002046
:1050E00070BD000052542D5468726561642073686D
:1050F000656C6C20636F6D6D616E64733A0A0000BD
:105100004C0400205F5F636D645F0000252D313625
:1051100073202D2025730A00500400200A0000008F
:10512000012070472DE9F04782460E4690465446CE
:105130000025002755E003E000202070641C6D1C52
:105140002078202802D02078092801D1B542F3D355
:10515000082F12D326A000F049FD4FF0000906E009
:1051600058F829102AA000F041FD09F10109B945BC
:10517000F6D326A000F03AFD35E0B54200D332E088
:10518000207822281CD1641C6D1C48F827407F1C05
:1051900009E020785C2804D16078222801D1641CC1
:1051A0006D1C641C6D1C2078222801D0B542F0D300
:1051B000B54200D317E000202070641C6D1C10E085
:1051C00048F827407F1C01E0641C6D1C20782028D3
:1051D00004D02078092801D0B542F5D3B54200D3D8
:1051E00001E0B542A7D300BF3846BDE8F087000014
:1051F000546F6F206D616E7920617267732021207A
:105200005765206F6E6C79205573653A0A0000006F
:105210002573200010B5044602E004A000F0E6FC6F
:10522000201EA4F10104F8D110BD00002D000000E3
:105230001CB501210220FCF775FB01210220FCF7BF
:1052400071FB8020009001208DF804008DF806008D
:1052500003208DF8050001208DF8070069460B48F2
:10526000FBF788FF4020009001208DF804008DF8A6
:10527000060003208DF8050001208DF8070069461F
:105280000248FBF777FF00F049F81CBD000402401C
:1052900070B50446002520E004F0800018B14020DD
:1052A0001149088003E040200F49891C0880FEF75F
:1052B00057FF80200C490880FEF752FF80200A49E2
:1052C000891C0880072D02D10001891E0880600614
:1052D000040EFEF745FF681CC5B2082DDCDB40203C
:1052E0000149088070BD00001804024010B540203C
:1052F0000949088080200880FEF732FF40200649D7
:10530000891C0880FEF72CFF80200349891C088037
:10531000FEF726FF10BD00001804024010B5402023
:10532000054908808020891E0880FEF719FF40206B
:105330000149891E088010BD1A04024010B54020A2
:105340000B490880FEF70CFF802009490880FEF712
:1053500007FF07480838006800F0400008B1012442
:1053600000E0002480200249891C0880204610BDEE
:10537000180402400024FCF75AF8FCF7D3F9002384
:105380001A460DA1114800F0F4FE14E0002201219C
:105390000E4800F0D3FE4FF0FF310C4800F025FF1F
:1053A000002406E0FCF7BEF9322001F05FF9601C32
:1053B00084B20A2CF6DBE9E76F6C65645F726566A0
:1053C000726573685F73656D0000000048280020F7
:1053D00030B51A4C436824681919884215D04B8897
:1053E0009BB9174B1B6899420FD0164B1B688B4219
:1053F00001D1144B18604B684360104B1B68C31AF3
:105400000E4D4C682D682C44A3600C4C83682468B6
:105410001A19824211D053887BB90A4B1B68834208
:1054200001D1084B1A6043685360044B1B68D31AC0
:10543000024D44682D682C44A36030BDD003002089
:10544000D4030020D80300202DE9F04F86B00D468C
:105450009C46DDE9106401960F9B04F04008B8F10A
:10546000000F02D0DFF8708101E0DFF87081CDF825
:10547000008004F01008B8F1000F01D024F00104FE
:1054800004F00108B8F1000F02D04FF0300801E03D
:105490004FF02008C246002704F00208B8F1000FC0
:1054A00011D0002A02DA2D2752420CE004F0040841
:1054B000B8F1000F01D02B2705E004F00808B8F17F
:1054C000000F00D02027002142B94FF0300B884652
:1054D000491C0DF1080909F808B01DE01AE0E14681
:1054E000B9F10A0F08D14FF00A0BB2FBFBFE0BFB20
:1054F0001E28B2FBFBF202E002F00F08120900BF07
:10550000DDF8009019F808B08846491C0DF108092B
:1055100009F808B0002AE2D1B14200DD0E469B1B1B
:1055200004F01108B8F1000F10D117B1002B00DD05
:105530005B1E06E0A84203D24FF0200880F80080EE
:10554000401CB3F10008A3F10103F3DC27B1A8422A
:1055500000D207705B1E401C04F01008B8F1000F69
:105560000AD104E0A84201D280F800A0401CB3F1A7
:105570000008A3F10103F5DC06E0A84203D24FF0D6
:10558000300880F80080401CB046761E8845F4DC68
:1055900008E0A84205D20DF1080818F8018080F84B
:1055A0000080401CB1F10008A1F1010104DDDDF82B
:1055B0000480B8F1000FECD106E0A84203D24FF00E
:1055C000200880F80080401CB3F10008A3F101031B
:1055D000F3DC06B0BDE8F08F6F8800085E88000835
:1055E0001CB514200A214FF400630022CDE90010FD
:1055F000044905A000F079FF0446204601F086F832
:105600001CBD0000714C00086D61696E0000000057
:1056100070B504460D4604FB05F000F065FB064638
:105620002EB104FB05F20021304600F034FC304678
:1056300070BD000010B5044C02E020688047241DB6
:1056400002488442F9D310BDB48B0008BC8B00081B
:1056500010B5044C02E020688047241D02488442B3
:10566000F9D310BDBC8B0008C48B000810B5FAF745
:10567000A9FD044604480088401C00B20249088085
:105680002046FAF7A3FD10BD2C04002010B5FAF750
:1056900099FD04460C480088401E00B20A49088063
:1056A0000846B0F9000000280ADC002008802046E7
:1056B000FAF78CFD0548006828B100F0ABFC02E069
:1056C0002046FAF783FD10BD2C0400203004002092
:1056D00070B5054605B970BD1D480068854203D305
:1056E0001C480068854200D3F5E7A5F10C044FF093
:1056F000FF31194800F079FD608818B12088B0F5B5
:10570000F55F08D015A000F071FA23886288214661
:1057100019A000F06BFA002060804FF4F550208053
:1057200021480068844201D21F480460084960682B
:105730000968611A401A1D490968081A1B4908605E
:105740002046FFF745FE044800F026FD00BFC2E7F3
:10575000D0030020D4030020983E0020746F206600
:1057600072656520612062616420646174612062F9
:105770006C6F636B3A0A00006D656D3A20307825D6
:105780003038782C207573656420666C61673A2028
:1057900025642C206D6167696320636F64653A201E
:1057A0003078253034780A00D8030020E003002048
:1057B00000487047102B002000487047103B002025
:1057C00070B5FCF767FA0B4800684FF47A71B0FBCC
:1057D000F1F42046FCF760FFFFF72CFFFFF7ECFF2A
:1057E0000446FFF7E5FF0546214600F0B5FD01F050
:1057F000AFFD70BDA403002010B54FF0FF3440F2A0
:1058000025510B48FCF7ABFE20B10948FCF73CFFE3
:1058100004460BE008210648FCF794FE18B1082165
:105820000348FCF76BFE052000F020FFE0B210BD3E
:1058300000140140F8B50546002400260D20009014
:10584000284600F065FD064600BF0BE0285D0A28EB
:1058500003D101216846FDF7F7FE28190121FDF764
:10586000F3FE641CB442F1D3F8BD00002DE9F04111
:10587000054605F128062C1D3348006840B1304626
:1058800031490968884707460FB9BDE8F08100BF74
:105890002EA0216C00F0AAF930A0616A00F0A6F9F0
:1058A00032A0A16A00F0A2F934A0E16A00F09EF9EA
:1058B00036A0216B00F09AF938A0616800F096F9E3
:1058C0003AA0A16800F092F93CA0E16800F08EF9DE
:1058D0003EA0216900F08AF940A0616900F086F9D4
:1058E00042A0A16900F082F944A0E16900F07EF9CC
:1058F00046A0216A00F07AF948A0616B00F076F9C1
:105900004AA0A16B00F072F94CA0E16B00F06EF9B7
:10591000287800F0040048B100F0D0FE0746394670
:105920004AA000F063F9FEF761FF02E04FA000F02B
:105930005DF9287800F0100010B953A000F056F976
:10594000FEF7BEFB00BFFEE7C80300207073723A8B
:10595000203078253038780A000000007230303A64
:10596000203078253038780A000000007230313A53
:10597000203078253038780A000000007230323A42
:10598000203078253038780A000000007230333A31
:10599000203078253038780A000000007230343A20
:1059A000203078253038780A000000007230353A0F
:1059B000203078253038780A000000007230363AFE
:1059C000203078253038780A000000007230373AED
:1059D000203078253038780A000000007230383ADC
:1059E000203078253038780A000000007230393ACB
:1059F000203078253038780A000000007231303AC3
:105A0000203078253038780A000000007231313AB1
:105A1000203078253038780A000000007231323AA0
:105A2000203078253038780A00000000206C723A67
:105A3000203078253038780A000000002070633A62
:105A4000203078253038780A0000000068617264E0
:105A5000206661756C74206F6E2074687265616475
:105A60003A2025730D0A0D0A000000006861726477
:105A7000206661756C74206F6E2068616E646C6561
:105A8000720D0A0D0A0000004650552061637469CA
:105A90007665210D0A000000F0B504460D46164655
:105AA000301D20F0070044380146002203E00D4F6E
:105AB00041F82270521C112AF9D34D624FF0000CAC
:105AC000C1F828C0C1F82CC0C1F830C0C1F834C03A
:105AD0008B63CC634FF0807CC1F840C000270F601F
