:020000040800F2
:10000000686D0020A1010008D1130008A7020008B4
:10001000CD130008110E0008D72A000800000000C8
:10002000000000000000000000000000C11E0008E9
:10003000250F000800000000F3010008212000083F
:10004000BB010008BB010008BB010008BB010008A0
:10005000BB010008BB010008BB010008290F000814
:100060005D0F0008BB010008BB010008BB010008D0
:10007000BB010008BB010008BB010008BB01000870
:10008000BB010008BB010008BB010008BB01000860
:10009000BB010008BB010008BB010008BB01000850
:1000A000BB010008BB010008BB010008BB01000840
:1000B000BB010008BB010008BB010008BB01000830
:1000C000BB010008BB010008BB010008BB01000820
:1000D000BB010008BB010008BB010008BB01000810
:1000E000BB010008BB010008BB010008BB01000800
:1000F000BB010008BB010008BB010008BB010008F0
:10010000BB010008BB010008BB010008BB010008DF
:10011000BB010008BB01000851210008BB01000819
:10012000BB010008BB010008BB010008BB010008BF
:10013000BB010008BB010008BB010008BB010008AF
:10014000BB010008BB010008BB010008BB0100089F
:10015000BB010008BB010008BB010008D52800084E
:10016000BB010008BB010008BB010008BB0100087F
:10017000BB010008BB010008BB010008BB0100086F
:10018000BB010008BB010008DFF810D000F080FCC4
:1001900000480047CD0B0008AFF30080686D0020D9
:1001A0000648804706480047FEE7FEE7FEE7FEE711
:1001B000FEE7FEE7FEE7FEE7FEE7FEE7E9200008D0
:1001C00089010008EFF3108072B6704780F3108841
:1001D0007047434A1368012B04D04FF001031360AA
:1001E000404A1060404A116040484FF08051016021
:1001F0007047EFF3108272B63948016851B34FF07F
:10020000000101603748016891B1EFF309811EF0E8
:10021000100F08BF21ED108B21E9F00F4FF0000403
:100220001EF0100F08BF012441F8044D0068016062
:100230002D490968096808C9B1E8F00F002B18BFFB
:10024000B1EC108B81F309884EF0100E002B18BF13
:100250002EF0100E82F310884EF0040E70472249E3
:100260000860EFF3148222F0040282F314881D491F
:100270004FF0000008601A494FF0010008601C4868
:100280004FF47F01D0F8002041EA020101601748D5
:100290004FF08051016017480068006880F30888BB
:1002A00061B662B670471EF0040F0CBFEFF3088012
:1002B000EFF3098020E9F00F40F804ED40F804ED79
:1002C0001EF0040F0CBF80F3088880F3098800B586
:1002D00006F018FE5DF804EB4EF0040E70470000C7
:1002E000F0030020E8030020EC03002004ED00E010
:1002F00020ED00E008ED00E040EA01039B0703D099
:1003000009E008C9121F08C0042AFAD203E011F854
:10031000013B00F8013B521EF9D27047D2B201E016
:1003200000F8012B491EFBD270470022F6E710B5FA
:1003300013460A4604461946FFF7F0FF204610BD53
:10034000421E12F8013F002BFBD111F8013B02F8CD
:10035000013B002BF9D1704710B5044604E00B783F
:1003600000F8013B03B1491C521EF8D2204610BDD3
:10037000421C10F8011B0029FBD1801A704703466C
:1003800011F8012B00F8012B002AF9D1184670470B
:1003900030B505460020034600E05B1C934205D2C1
:1003A000EC5CC85C201A01D1002CF6D130BD70B5D0
:1003B000064602F0F9FB046805460A220021304691
:1003C00000F080FA2C6070BD2DE9FE4F804681EA76
:1003D0000300C00F0C46009021F0004123F00045BF
:1003E000B8EB0200A94105D24046214690461C4682
:1003F0000B46024623F00040104347D0270DC7F3B9
:100400000A00C3F30A510290401A019040286BDAA7
:10041000C3F3130040F4801B0098924620B10023E0
:10042000D2EB030A63EB0B0B01985946C0F1400273
:10043000504600F016FA06460D4650465946019AB7
:1004400000F02EFA10EB08006141002487EA1152F7
:1004500084EAE7731A4340D0009A62B3019A012AF2
:100460004FEA075215DC001B61EB02014FF000421E
:1004700002EA0752CDE90042001C41F580113246E4
:100480002B4600F09DFA03B0BDE8F08F40462146B0
:10049000F9E7001B61EB0201001C41F58013001815
:1004A0005B412018A2F5001747EB030140EAD57025
:1004B000B6196D4111E06D084FEA360645EAC07580
:1004C0004FEA0752001B61EB0201001C41F580114D
:1004D00049084FEA30000019514132462B4603B01B
:1004E000BDE8F04F00F05DBA009801224000002303
:1004F000D0EB020263EBE073009821464FEAE07410
:10050000B8EB000061EB0401E9E783F000435BE72F
:1005100081F0004158E72DE9FE4F81EA030404F021
:10052000004421F0004100944FF0000B23F0004301
:1005300050EA01045ED052EA03045BD0C3F30A54CC
:10054000C1F30A552C44A4F2F3340194A0FB0254E5
:10055000C1F3130141F48011C3F3130343F4801377
:1005600001FB024400FB034E840A970A44EA8154CB
:1005700047EA8357A4FB076802958D0A05FB0785A8
:100580004FEA932C04FB0C542705029D4FEA0658B2
:1005900047EA1637B5EB08056EEB070C870E920E8F
:1005A00047EA811742EA8312A7FB0201B6EB0B016F
:1005B00064EB00042B0D43EA0C335E1844EB1C5033
:1005C000DA465146E7FB0201C5F313044FEA0B3349
:1005D00043EA14534FEA0432019C43EA0603A4F1B0
:1005E0000C040294009CCDE900B400F0E9F903B0DA
:1005F000BDE8F08F00200146F9E72DE9F04D81EAD2
:10060000030404F0004B21F0004514464FF0000AAB
:1006100023F0004150EA050220D054EA01021DD027
:10062000C5F30A570246C5F31303C1F31300C1F320
:100630000A5640F4801543F48013A7EB0608101BFC
:10064000D64608F2FD3873EB050002D308F1010825
:1006500001E092185B41B8F1000F03DA0020014677
:10066000BDE8F08D00204FF48011064684460EE070
:10067000171B73EB050705D3121B63EB050306433A
:100680004CEA010C49084FEA300092185B4150EAED
:100690000107EDD152EA030012D082EA040083EA96
:1006A0000501084305D0101BAB4106D201220023EF
:1006B00006E000224FF0004302E06FF00102531009
:1006C0001AEB06004CEB085110EB0A0041EB0B0152
:1006D000BDE8F04D00F065B90EB5C10F80EAE070DD
:1006E0000844CA07002140F233438DE80E000A4651
:1006F0000B4600F065F903B000BD0EB540F2334182
:1007000002910021CDE900110A460B4600F058F98C
:1007100003B000BDC1F30A5210B5C1F3130140F29A
:10072000FF3341F480119A4201DA002010BD40F2FB
:1007300033439A42A2F2334203DC524200F0A0F863
:1007400010BD904010BD00F0004230F000400AD0D3
:10075000C10D01F56071C0F3160042EA0151C208F3
:1007600040071143704700200146704730B5041E12
:1007700071F1000404DB4FF00044404264EB0101DE
:10078000141E73F1000405DB1C464FF00043524277
:1007900063EB0403994208BF904230BD01F000436F
:1007A00030B421F0004150EA010206D00A0DA2F552
:1007B0006072C1F31301002A02DC30BC00207047D4
:1007C000440F44EAC104C100E01830BC00EBC25041
:1007D00000F0B0B830B50B460146002020220124BD
:1007E00009E021FA02F59D4205D303FA02F5491BFF
:1007F00004FA02F52844151EA2F10102F1DC30BD15
:100800002DE9F05F0546002092469B468846064645
:10081000814640241BE0284641464746224600F0D8
:100820002FF853465A46C01A914110D31146184624
:10083000224600F016F82D1A67EB01084F462246B3
:100840000120002100F00DF817EB00094E41201E99
:10085000A4F10104DFDC484631462A464346BDE8A0
:10086000F09F202A04DB203A00FA02F100207047B2
:100870009140C2F1200320FA03F3194390407047DE
:10088000202A04DB203A21FA02F00021704721FAE5
:1008900002F3D040C2F1200291400843194670474C
:1008A000202A06DBCB17203A41FA02F043EAE07334
:1008B00006E041FA02F3D040C2F120029140084321
:1008C000194670472DE9F04791460F468046044689
:1008D000002614F8015B2DB100F0ECF80068405DD3
:1008E000C007F6D12B2D02D02D2D18D0641E4A46FC
:1008F0003946204600F0E2F827B13968A14201D11B
:10090000C7F8008071054FF002040BD54042002863
:1009100003DD02F049F90460A007BDE8F08746F462
:100920008066E4E70028F8DA02F03EF904606FF030
:100930000040F2E70029A8BF7047401C490008BFEB
:1009400020F00100704710B4B0FA80FC00FA0CF0FF
:1009500050EA010404BF10BC704749B1CCF1200437
:1009600021FA04F411FA0CF118BF012121430843C4
:10097000A3EB0C01CB1D4FEA00614FEA102042BFF0
:10098000002010BC704700EBC35010440029A4BFE6
:1009900010BC7047401C490008BF20F0010010BC8B
:1009A000704710B5141E73F1000408DA401C41F1C1
:1009B000000192185B411A4301D120F0010010BDE3
:1009C0002DE9F04D92469B4611B1B1FA81F202E059
:1009D000B0FA80F220329046FFF743FF04460F46FC
:1009E00040EA0A0041EA0B0153465A46084313D035
:1009F000114653EA010019D0C8F140025046FFF7F2
:100A00003FFF05460E46504659464246FFF729FF2E
:100A1000084305D0012004E020463946BDE8F08DAA
:100A20000020054346EAE0762C4337430A986305E5
:100A3000E40AA0EB08000022FD0A44EA47540A3009
:100A400002D500200146E9E7010510196941DDE9F9
:100A5000084500196941BDE8F04DA2E7C1F30A520B
:100A6000C1F3130140F2FF3341F480119A4202DADC
:100A700000200146704740F233439A42A2F23342CB
:100A800002DC5242FFF7FCBEFFF7EBBE00207047CE
:100A9000064C074D06E0E06840F0010394E80700CB
:100AA00098471034AC42F6D3FFF772FBBCA600089F
:100AB000DCA60008004870472CA300082DE9F05F71
:100AC00082460078002715468B460AF10104B94694
:100AD000302801D09DB113E014F8010B01277828CC
:100AE00003D0582801D045B10AE00DB1102D07D12F
:100AF0000027102514F8010B02E0082500E00A2564
:100B00000026B0460EE005FB080005FB06F10127B4
:100B100001EB10461FFA80F8B6F5803F00D3B946C6
:100B200014F8010B294600F018F80028EBDABBF1A5
:100B3000000F05D00FB1641E00E05446CBF8004012
:100B4000B9F1000F06D002F02FF802210160C81E93
:100B5000BDE8F09F48EA0640FAE73A2800D230386C
:100B600020F02002412A01D3A2F13700884201D3AC
:100B70004FF0FF30704770B58C1810F8015B15F01E
:100B8000070301D110F8013B2A1106D110F8012BFF
:100B900003E010F8016B01F8016B5B1EF9D12B0724
:100BA00005D40023521E0DD401F8013BFAE710F8DA
:100BB000013BCB1A921C03E013F8015B01F8015BC7
:100BC000521EF9D5A142D8D3002070BD10B507F050
:100BD00065FD002010BD000010B52DED088BB0EEB6
:100BE000408A9FED1A0AB4EEC08AF1EE10FA03DDD6
:100BF0009FED160AB0EE408A18EE100AFFF7A3FD2B
:100C000041EC1B0B9FED120B53EC102BFFF783FCF9
:100C100041EC1A0B9FED100B53EC102BFFF7EDFC82
:100C200041EC190BFFF776FD84B201210C4800F06E
:100C300045FB201201F08EF8E0B201F08BF80121A3
:100C4000074800F03DFBBDEC088B10BD00C09E4482
:100C500000000000E0FFEF40000000000088A3401B
:100C60000014024010B52DED088BB0EE408A9FEDC8
:100C70001A0AB4EEC08AF1EE10FA03DD9FED160AEF
:100C8000B0EE408A18EE100AFFF75DFD41EC1B0B39
:100C90009FED120B53EC102BFFF73DFC41EC1A0BB0
:100CA0009FED100B53EC102BFFF7A7FC41EC190B39
:100CB000FFF730FD84B202210C4800F0FFFA201249
:100CC00001F048F8E0B201F045F80221074800F0D1
:100CD000F7FABDEC088B10BD00C09E440000000078
:100CE000E0FFEF40000000000088A3400014024035
:100CF00010B54FF400511B4800F0E2FA0A2007F04B
:100D00008DF84FF40061174800F0DAFA642007F01C
:100D100085F84FF40061134800F0D0FA642007F022
:100D20007DF84FF480510F4800F0C8FA0A2007F010
:100D300075F84FF400510B4800F0C0FA0A2007F094
:100D40006DF84FF40051074800F0BAFA0A2007F096
:100D500065F84FF40051034800F0B0FA0A2007F09C
:100D60005DF810BD001002401CB50121022000F00A
:100D700085FE0121082000F081FE0121102000F0F5
:100D80007DFE4FF46050009001208DF8040000209B
:100D90008DF8060003208DF8050001208DF807006E
:100DA0006946184800F016FA4FF480500090012070
:100DB0008DF8040000208DF8060003208DF8050052
:100DC00001208DF8070069460F4800F003FA4FF63E
:100DD000FF70009000208DF8040001208DF80700BE
:100DE00069460A4800F0F6F94FF4005000900020E0
:100DF0008DF8040001208DF807006946024800F0D4
:100E0000E9F91CBD0010024000040240000C024041
:100E100000BFFEE700B585B00121880300F05EFE4B
:100E20000121102000F02AFE0420039000208DF8FC
:100E3000100001208DF8130003A91A4800F0CAF928
:100E40000820039000208DF8100001208DF8130079
:100E500003A9144800F0BEF90221042001F032F881
:100E60000420009000208DF8040010208DF805006B
:100E700001208DF80600684600F09EF808208DF8E5
:100E8000080001208DF8090002208DF80A000120D9
:100E90008DF80B0002A800F09DFA042000F07AF80B
:100EA00005B000BD0010024000B585B001218803E7
:100EB00000F014FE0121022000F0E0FD022003906A
:100EC00000208DF8100001208DF8130003A91448AC
:100ED00000F080F90121084600F0F4FF02200090A4
:100EE00000208DF8040010208DF8050001208DF8F9
:100EF0000600684600F060F807208DF80800012021
:100F00008DF8090002208DF80A0001208DF80B00F1
:100F100002A800F05FFA022000F03CF805B000BD26
:100F2000000402407047000010B5022000F038F8BD
:100F300070B10221074800F0B8F918B10120064944
:100F4000087002E0002004490870022000F022F836
:100F500010BD0000000402400300002010B5042072
:100F600000F01EF840B105A001F0E6FD084806F0CB
:100F70005FFC042000F00EF810BD000045585449F5
:100F8000325F49525148616E646C65720D0A00000F
:100F9000644900200149086070470000143C01408A
:100FA00001460020034A12680A400AB1012000E00D
:100FB00000207047143C0140002123498279002A17
:100FC0003AD00A46126803689A430B461A600A1D13
:100FD000126803689A430B1D1A60027911440A686B
:100FE00003681A430A60184A0832126803689A4371
:100FF000154B08331A601A1D126803689A43124B86
:101000000C331A604279102A0ED11A1F1268036835
:101010001A430D4B08331A601A1D126803681A43ED
:10102000094B0C331A600DE00749427911440A68F4
:1010300003681A430A6005E0027911440A680368EC
:101040009A430A6070470000003C01401CB5012132
:10105000084600F013FD0121022000F00FFD0121E0
:10106000042000F00BFD0121082000F007FD012104
:10107000102000F003FD4FF40060009001208DF877
:10108000040000208DF8060003208DF805000120E3
:101090008DF8070069464C4800F09CF84FF48050EA
:1010A000009001208DF8040000208DF80600032038
:1010B0008DF8050001208DF807006946424800F0D0
:1010C00089F8012000908DF8040000208DF80600BA
:1010D00003208DF8050001208DF8070069463B4884
:1010E00000F078F84FF48070009001208DF8040033
:1010F00000208DF8060003208DF8050001208DF8F2
:1011000007006946324800F065F84FF4007000901F
:1011100001208DF8040000208DF8060003208DF8D2
:10112000050001208DF807006946294800F052F8B3
:101130004FF48070009001208DF8040000208DF89D
:10114000060003208DF8050001208DF80700694690
:101150001E4800F03FF88020009001208DF8040028
:1011600000208DF8060003208DF8050001208DF881
:1011700007006946154800F02DF801200090002076
:101180008DF8040001208DF807006946104800F032
:1011900021F84FF40070009000208DF80400012029
:1011A0008DF807006946094800F014F88020009087
:1011B00000208DF8040001208DF8070069460248E0
:1011C00000F008F81CBD00000000024000080240CA
:1011D00000040240F0B50A4600210023002400BFAD
:1011E0003DE0012505FA01F3156805EA03049C4278
:1011F00034D105684F000326BE40B543056015791C
:101200004E00B5400668354305601579012D02D0C2
:101210001579022D16D185684F000326BE40B543CF
:10122000856055794E00B5408668354385604568D0
:1012300001268E40B5434560456896798E40B6B22A
:1012400035434560C5684F000326BE40B543C560C1
:10125000D5794E00B540C6683543C560491C102994
:10126000BFD3F0BDF0B5002300244D07ED0E02FA08
:1012700005F3CE1000F1200555F826504E07F70E65
:101280000F26BE40B543CF1000F1200646F8275088
:10129000CE1000F1200555F8265045EA0304CE1083
:1012A00000F1200545F82640F0BD024600201369F4
:1012B0000B400BB1012000E00020704741837047D4
:1012C0000183704742694A404261704770B52DED15
:1012D000088B054600249FED1E0AB0EE408A0021CF
:1012E000284600F08FFC0446B4F5004F11DA204682
:1012F000FFF703FA41EC1A0B9FED160B53EC102B82
:10130000FFF709F941EC190BFFF748FA08EE100A4C
:1013100019E0E043401CFFF7DFF941EC1B0B9FEDA8
:101320000D0B53EC102BFFF7F6F841EC1A0B9FED69
:101330000B0B53EC102BFFF7EBF841EC190BFFF7FD
:101340002DFA08EE100AB0EE480ABDEC088B70BD0D
:1013500000000000000000000000803F00000000CE
:101360000000000010B54FF4C06000F06FF800F00E
:1013700009F803F013FCFFF769FEFFF7F5FC03F033
:10138000BBFD10BD10B5104800684FF47A71B0FB7A
:10139000F1F4601EB0F1807F00D30FE0601E4FF0CB
:1013A000E02148610F214FF0FF3000F059F8002094
:1013B0004FF0E02188610720086100BF0021481E2E
:1013C00000F04EF810BD0000D003002000BFFEE783
:1013D0007047000070B5002100230F22C4781CB3B1
:1013E000174C246804F4E064C4F5E064C4F30721F6
:1013F000C1F10404E3B20A4144789C40E1B284782C
:10140000144021430C07210E0E4C057861550478D9
:1014100004F01F050124AC4005786D11AD0005F105
:10142000E025C5F8004109E0047804F01F05012417
:10143000AC40054D0678761145F8264070BD000099
:101440000CED00E000E400E080E100E0024901432F
:10145000024A1160704700000000FA050CED00E040
:1014600010B5002807DA0A07140E054A00F00F032A
:101470001B1FD45403E00A07130E024A135410BD75
:1014800018ED00E000E400E070B5002418E004F17D
:10149000B000002100F086F90021084600F082F932
:1014A0000021102000F07EF9002505E00121002038
:1014B00000F078F9681CC5B2802DF7DB601CC4B25F
:1014C000082CE4DB70BD10B503F050FCC82006F01A
:1014D000A5FC0021AE2000F065F90021084600F0CF
:1014E00061F90021102000F05DF90021402000F09A
:1014F00059F90021B02000F055F90021812000F0B9
:1015000051F90021FF2000F04DF90021A12000F049
:1015100049F90021A62000F045F90021A82000F09B
:1015200041F900213F2000F03DF90021C82000F0E2
:1015300039F90021D32000F035F90021084600F0E8
:1015400031F90021D52000F02DF90021802000F094
:1015500029F90021D82000F025F90021052000F00C
:1015600021F90021D92000F01DF90021F12000F01F
:1015700019F90021DA2000F015F90021122000F0FD
:1015800011F90021DB2000F00DF90021302000F0DE
:1015900009F900218D2000F005F90021142000F048
:1015A00001F90021AF2000F0FDF8FFF76DFFFFF714
:1015B0006BFF10BD70B504460D4605F1B00000216B
:1015C00000F0F0F8102141EA1410002100F0EAF8D0
:1015D00004F00F00002100F0E5F870BD2DE9F047A0
:1015E0008246884615469946002600240027A5F124
:1015F0002000C6B2BAF17F0F04DDA24608F1020056
:1016000000F0FF08B9F1100F25D141465046FFF711
:10161000D1FF002408E004EB06114D4A505C012183
:1016200000F0C0F8601CC4B2082CF4DB08F1010023
:10163000C1B25046FFF7BEFF002409E004EB0611DB
:101640000831434A505C012100F0ACF8601CC4B280
:10165000082CF3DB79E0B9F10C0F13D14146504669
:10166000FFF7A8FF00240AE006EB4601394A02EB27
:101670004101085D012100F095F8601CC4B2062C00
:10168000F2DB62E0B9F1300F2DD1302D05DB392DC1
:1016900003DCA5F13000C6B206E02E2D01D10A26EA
:1016A00002E0412D00D10B26002419E008EB0400D4
:1016B000C1B25046FFF77EFF00270DE006EBC601E2
:1016C000254A02EB0111182202FB0472885C0121F9
:1016D00000F068F8781CC7B2182FEFDB601CC4B2AA
:1016E000062CE3DB31E0B9F1240F2ED1302D05DBE0
:1016F000392D03DCA5F13000C6B206E02E2D01D154
:101700000A2602E0412D00D10B2600241BE008EB45
:101710000400C1B25046FFF74DFF00270FE0C6EBB3
:10172000061101EB41010D4A02EB4101122202FBBD
:101730000472885C012100F035F8781CC7B2122FC2
:10174000EDDB601CC4B2052CE1DBBDE8F0870000D6
:101750005E8F0008368D00084E9500080E9C00082C
:101760002DE9F0410446884615461E46002714E040
:10177000EA5D334641462046FFF730FF304606EB30
:10178000D07104EB6101CCB2782C04DD002408F1A7
:10179000020000F0FF08781CC7B2E85D0028E7D11E
:1017A000BDE8F08170B504460D461DB1E0B200F011
:1017B0006BF802E0E0B200F051F870BD00B52DED1D
:1017C000068B83B00020019002901B48B0F9000006
:1017D000FEF782FF41EC1A0B9FED180B53EC102B18
:1017E000FEF799FE41EC190B9FED160B53EC102BF5
:1017F000FEF703FF41EC180B53EC182B13A101A8C3
:1018000001F0AAF9242301AA02210A20FFF7A8FF68
:10181000242310A202216420FFF7A2FF0E480078C3
:1018200030B90021AF20FFF7BDFF01200A49087041
:1018300003B0BDEC068B00BD0400002000000000DA
:101840000000F03F000000000000594025312E321A
:101850006600000041000000BC03002010B50446F3
:1018600003F0E2FA782003F0B1FA03F005FB002060
:1018700003F0ACFA03F000FB204603F0A7FA03F0F4
:10188000FBFA03F0E9FA10BD10B5044603F0CCFAF8
:10189000782003F09BFA03F0EFFA402003F096FA69
:1018A00003F0EAFA204603F091FA03F0E5FA03F0B8
:1018B000D3FA10BDB0EE401A31EE600A214880ED37
:1018C000000A90ED000AD0ED011A30EE610AD0ED69
:1018D000031A20EE210AD0ED041A90ED002A01EE41
:1018E000820AD0ED001A90ED012AF0EE002A42EEB5
:1018F000C21A90ED022A71EE821A90ED052A02EECC
:10190000210A80ED060A90ED070AD0ED061A30EEA6
:10191000210A80ED070A90ED010A80ED020A90EDA0
:10192000000A80ED010A90ED070AB5EEC00AF1EE5B
:1019300010FA03D29FED040A80ED070A014890EDEA
:10194000070A7047A449002000000000B0EE401ACA
:1019500031EE600A214880ED000A90ED000AD0EDDA
:10196000011A30EE610AD0ED031A20EE210AD0ED03
:10197000041A90ED002A01EE820AD0ED001A90EDD3
:10198000012AF0EE002A42EEC21A90ED022A71EE10
:10199000821A90ED052A02EE210A80ED060A90EDEA
:1019A000070AD0ED061A30EE210A80ED070A90ED05
:1019B000010A80ED020A90ED000A80ED010A90ED27
:1019C000070AB5EEC00AF1EE10FA03D29FED040A41
:1019D00080ED070A014890ED070A7047CC490020C6
:1019E000000000009FED210A214880ED000A9FEDD4
:1019F0001F0A80ED010A9FED1D0A80ED020A9FED8E
:101A00001D0A80ED030AB3EE040A80ED040AB0EE6D
:101A1000000A80ED050A9FED150A80ED060A9FED8C
:101A2000130A80ED070A9FED110A134880ED000AA2
:101A30009FED0E0A80ED010A9FED0C0A80ED020A6F
:101A40009FED0C0A80ED030AB3EE040A80ED040A50
:101A5000B0EE000A80ED050A9FED040A80ED060A4B
:101A60009FED020A80ED070A7047000000000000A9
:101A7000A449002000004843CC49002029B1064A6F
:101A800012680243044B1A6004E0034A126882435E
:101A9000014B1A60704700003038024029B1064AF5
:101AA00012680243044B1A6004E0034A126882433E
:101AB000014B1A60704700004038024029B1064AC5
:101AC00012680243044B1A6004E0034A126882431E
:101AD000014B1A60704700002038024029B1064AC5
:101AE00012680243044B1A6004E0034A12688243FE
:101AF000014B1A60704700004438024029B1064A81
:101B000012680243044B1A6004E0034A12688243DD
:101B1000014B1A607047000024380240F0B50021E4
:101B200000220024022500260223324F3F6807F0DE
:101B30000C0121B1042905D0082937D105E02E4F29
:101B4000076036E02D4F076033E02A4F3F1F3F68A4
:101B5000C7F38056274F3F1F3F6807F03F036EB122
:101B6000264FB7FBF3F7DFF88CC0ACF1040CDCF8C0
:101B700000C0CCF3881C07FB0CF40CE01E4FB7FB35
:101B8000F3F7DFF870C0ACF1040CDCF800C0CCF364
:101B9000881C07FB0CF4174F3F1F3F68C7F3014732
:101BA0007F1C7D00B4FBF5F7076002E0124F076071
:101BB00000BF00BF0F4F3F6807F0F0010909104F49
:101BC0007A5C0768D74047600A4F3F6807F4E051E6
:101BD000890A0B4F7A5C4768D7408760054F3F689A
:101BE00007F46041490B064F7A5C4768D740C760ED
:101BF000F0BD0000083802400024F40040787D0168
:101C0000BD0300202DE9F04104460D4600260027C3
:101C1000B04605F077F803F00FFA204603F0DAF942
:101C200003F036FA284603F0D5F903F031FA03F051
:101C300003FA44F0010003F0CDF903F029FA03F0B0
:101C4000A5F9064603F034F903F0A0F9074603F0BE
:101C500085F903F00BFA05F065F847EA06284046D7
:101C6000BDE8F08100B587B00121C803FFF716FF7A
:101C700001212420FFF702FF06220A213248FFF744
:101C8000F1FA06220B213048FFF7ECFA06220C216C
:101C90002D48FFF7E7FA01212C48FFF711FB02213D
:101CA0002A48FFF70DFB4FF4A050009002208DF85A
:101CB000040000208DF8060002208DF807000320A4
:101CC0008DF8050069462048FFF784FA032000904C
:101CD00001208DF8040000208DF8060001208DF809
:101CE000070003208DF8050069461848FFF772FACF
:101CF0000021174800F054F8154800F05DF8002066
:101D0000ADF808004FF48270ADF80A000020ADF87D
:101D10000C00ADF80E00ADF810004FF40070ADF8F7
:101D200012001820ADF814000020ADF816000720AE
:101D3000ADF8180002A9064800F0A4F801210448F3
:101D400000F02EF807B000BD000802400014024069
:101D5000003C004070B504464FF6FF7500BF0221FD
:101D60000E4800F081F818B9281EA5F10105F6D13A
:101D700021460A4800F084F84FF6FF7500BF0121A4
:101D8000064800F071F818B9281EA5F10105F6D132
:101D9000024800F072F8C0B270BD0000003C004084
:101DA00021B1028842F04002028004E002884FF62E
:101DB000BF731A400280704710B50446244884421D
:101DC00008D101218014FFF799FE0021A014FFF72C
:101DD00095FE3CE01F48844208D101210014FFF722
:101DE0006DFE00212014FFF769FE30E01A4884429E
:101DF00008D10121C013FFF761FE0021E013FFF7B6
:101E00005DFE24E01548844208D101214014FFF70B
:101E100075FE00216014FFF771FE18E0104884423F
:101E200009D101210805FFF769FE00214FF4801058
:101E3000FFF764FE0BE00B48844208D101214805FE
:101E4000FFF75CFE00214FF40010FFF757FE10BDB6
:101E50000030014000380040003C004000340140A8
:101E600000500140005401400246002013890B40FD
:101E70000BB1012000E000207047014688897047BF
:101E80008181704710B50022028802F441520B880C
:101E90004C8823438C882343CC8823430C892343D9
:101EA0004C8923438C892343CC8923431A430280E2
:101EB000838B4FF2FF74234083830B8A038210BD10
:101EC0007047000030B500228B071C0F0F2303FA68
:101ED00004F20B4B8C1053F824309343084C8D10B4
:101EE00044F8253023468C1053F824308C07240FF7
:101EF00000FA04F42343024C8D1044F8253030BD21
:101F0000083801400CB5002001900090344800686A
:101F100040F480303249086000BF3148006800F466
:101F2000003000900198401C0190009818B9019869
:101F3000B0F5A04FF1D12A48006800F4003010B18C
:101F40000120009001E0002000900098012846D177
:101F500023484030006840F08050214940310860FB
:101F60002048006840F440401E4908601C48083082
:101F700000681B49083108600846006840F40040CA
:101F800008600846006840F4A05008601648091F21
:101F90000860081F006840F08070091F086000BFDB
:101FA0000F48006800F000700028F9D040F205707A
:101FB0000E4908600A480830006820F0030008490C
:101FC000083108600846006840F00200086000BF61
:101FD00003480830006800F00C000828F8D10CBD58
:101FE000003802400070004019544007003C024095
:101FF00010B52DED028BB0EE408AB0EE480A00F02D
:10200000B7FABDEC028B10BD10B52DED028BB0EE12
:10201000408AB0EE480A00F0D9FBBDEC028B10BD3F
:1020200010B505F03BFB10BD70B500200022022367
:1020300000240221274D2D6805F00C0020B1042852
:1020400006D0082834D107E0234D244E356033E014
:10205000234D224E35602FE01E4D2D1F2D68C5F3F8
:1020600080541C4D2D1F2D6805F03F0154B11C4DAF
:10207000B5FBF1F5174E361F3668C6F3881605FB1B
:1020800006F209E0144DB5FBF1F5124E361F366825
:10209000C6F3881605FB06F20E4D2D1F2D68C5F3FD
:1020A00001456D1C6B00B2FBF3F50C4E356003E08F
:1020B000094D0A4E356000BF00BF064D2D68C5F3BF
:1020C0000315084E705D054D2D68C540034E356003
:1020D00070BD0000083802400024F400D003002046
:1020E00040787D01D403002010B51548006840F405
:1020F0007000134908601348006840F0010011495E
:10210000086000200F49083108600E4800680E4939
:1021100008400C4908600D48091D0860081F006848
:1021200020F48020091F0860002006490C31086057
:10213000FFF7E8FE4FF0006001498039086010BDEC
:1021400088ED00E000380240FFFFF6FE103000246A
:1021500010B50748008A00F0010040B1054805F0BD
:1021600067FB0348008A20F001000149088210BD86
:1021700000100040F449002021B1028842F08002A2
:10218000028004E002884FF67F731A400280704795
:1021900021B1028842F00102028004E002884FF679
:1021A000FE731A40028070471AB183890B43838102
:1021B00002E083898B4383817047000070B500245F
:1021C00000220023058C4FF6EF7635400584028C03
:1021D0008388048B48F6FF752C404FF6FF452C4052
:1021E0000D884FF6FF7606EA05252C434FF6DF757E
:1021F0002A408D8906EA05152A434D8806EA051509
:102200002A43154DA84202D0144DA8421DD14FF6C5
:102210007F752A40CD894FF6FF7606EA05152A43D9
:102220004FF6BF752A408D8806EA05152A434FF6FA
:10223000FF352B404FF2FF752B400D8A06EA8505CE
:102240002B434D8A06EA85052B43838004838D68E2
:102250008563028470BD000000000140000401405D
:102260000A460021018B4FF2FF7319404FF6FF73AE
:1022700003EA0223194301837047000070B500246C
:1022800000220023058C4FF6FF6635400584028C42
:102290008388848B4FF68F752C404FF6FC752C404D
:1022A0000D882C434FF6FF552A408D894FF6FF7657
:1022B00006EA05252A434D8806EA05252A43154DD9
:1022C000A84202D0144DA8421DD14FF2FF752A40FA
:1022D000CD894FF6FF7606EA05252A434FF6FF35EE
:1022E0002A408D8806EA05252A434EF6FF752B40C5
:1022F0004DF6FF752B400D8A06EA05152B434D8AD6
:1023000006EA05152B43838084838D68C5630284A8
:1023100070BD000000000140000401400A46002199
:10232000818B4FF6F77319401143818370478163A6
:102330007047C1637047000000220288184B984222
:102340000ED0184B98420BD0B0F1804F08D0164BEE
:10235000984205D0154B984202D0154B984204D1B3
:102360004FF68F731A404B881A43124B984207D08E
:10237000114B984204D04FF6FF431A400B891A4381
:1023800002804B68C3620B880385054B984202D0DC
:10239000044B984201D18B7A0386012383827047D4
:1023A000000001400004014000040040000800401B
:1023B000000C0040001000400014004010B52DED4E
:1023C0000C8B8AB0B0EE408A002008EE900A9FED98
:1023D0004D0AB0EE409A01210846FFF74FFB01215C
:1023E0000846FFF75BFB012202214748FEF73AFF50
:1023F0000420089002208DF8240000208DF826008B
:1024000003208DF8250001208DF8270008A93E48FB
:10241000FEF7E0FE04213C48FEF750FF9FED3B0A2B
:10242000B0EE409AB5EEC09AF1EE10FA03D8B7EECE
:10243000000AB0EE409AB5EEC08AF1EE10FA03D26F
:102440009FED300AB0EE408A9FED310AB4EEC08AAB
:10245000F1EE10FA03DD9FED2B0AB0EE408A2D4815
:1024600008EE900AF8EE680A80EE890AF7EE000A94
:1024700030EE600ABCEEC00A8DED060A0020ADF811
:102480001400ADF81600ADF81C0005A94FF080400F
:10249000FFF752FF6020ADF800000120ADF8020008
:1024A000F8EE680A80EE890AF7EE000A30EE600A5C
:1024B00010EE104A2046FEF746F941EC1B0B18EED1
:1024C000100AFEF740F941EC1D0B9FED130B53EC86
:1024D000102BFEF792F841EC1C0B53EC1B2BFEF774
:1024E0001AF841EC1A0BFEF715F902900020ADF82E
:1024F0000C0069464FF08040FFF7C0FE0AB0BDEC0B
:102500000C8B10BD000000000000024000409C4603
:102510000000C84200BD0105000000000000594055
:102520001CB50420009002208DF8040000208DF8D6
:10253000060001208DF8070003208DF8050069468C
:102540000A48FEF747FE012202210848FEF78AFEEC
:102550000821C806FFF7E2FE01218807FFF70CFEFD
:1025600001218807FFF714FE1CBD00000000024097
:1025700070B52DED0C8BB0EE408A002008EE900A6D
:102580009FED200AB0EE409A9FED1F0AB0EE409AF0
:10259000B5EEC09AF1EE10FA03D8B7EE000AB0EE2D
:1025A000409A1A4808EE900AF8EE680A80EE890A06
:1025B000F7EE000A30EE600A10EE105A2846FEF7D9
:1025C000C2F841EC1B0B18EE100AFEF7BCF841EC08
:1025D0001D0B9FED0F0B53EC102BFEF70EF841EC8B
:1025E0001C0B53EC1B2BFDF796FF41EC1A0BFEF76F
:1025F00091F8044621464FF08040FFF79AFEBDEC6B
:102600000C8B70BD0000000000409C4600BD010521
:10261000000000000000594010B52DED0C8B8AB071
:10262000B0EE408A002008EE900A9FED4C0AB0EE12
:10263000409A01210846FFF721FA01210820FFF7FF
:102640002DFA022201214648FEF70CFE02200890D6
:102650008DF8240000208DF8260003208DF8250039
:1026600001208DF8270008A93D48FEF7B3FD02219F
:102670003B48FEF723FE9FED3B0AB0EE409AB5EED5
:10268000C09AF1EE10FA03D8B7EE000AB0EE409A05
:10269000B5EEC08AF1EE10FA03D29FED300AB0EE2B
:1026A000408A9FED310AB4EEC08AF1EE10FA03DDE4
:1026B0009FED2A0AB0EE408A2C4808EE900AF8EE08
:1026C000680A80EE890AF7EE000A30EE600ABCEE76
:1026D000C00A8DED060A0020ADF81400ADF8160012
:1026E000ADF81C0005A92248FFF726FE6020ADF8D2
:1026F00000000120ADF80200F8EE680A80EE890AB9
:10270000F7EE000A30EE600A10EE104A2046FEF79F
:102710001AF841EC1B0B18EE100AFEF714F841EC06
:102720001D0B9FED140B53EC102BFDF766FF41ECD6
:102730001C0B53EC1B2BFDF7EEFE41EC1A0BFDF7C7
:10274000E9FF02900020ADF80C0069460848FFF749
:1027500035FD0AB0BDEC0C8B10BD00000000000080
:102760000000024000409C460000C84200BD010538
:10277000000C004000000000000059401CB5022081
:1027800000908DF8040000208DF8060001208DF8DF
:10279000070003208DF8050069460A48FEF71AFD78
:1027A000022201210748FEF75DFD08210648FFF7D8
:1027B00057FD01210448FFF7DFFC01210248FFF724
:1027C000E7FC1CBD00000240000C004070B52DED80
:1027D0000C8BB0EE408A002008EE900A9FED200A94
:1027E000B0EE409A9FED1F0AB0EE409AB5EEC09A47
:1027F000F1EE10FA03D8B7EE000AB0EE409A1A488C
:1028000008EE900AF8EE680A80EE890AF7EE000AF0
:1028100030EE600A10EE105A2846FDF794FF41ECA6
:102820001B0B18EE100AFDF78EFF41EC1D0B9FED00
:102830000F0B53EC102BFDF7E0FE41EC1C0B53EC9F
:102840001B2BFDF768FE41EC1A0BFDF763FF0446F6
:1028500021460848FFF76BFDBDEC0C8B70BD0000F6
:102860000000000000409C4600BD01050000000083
:1028700000005940000C00407FB505460C46012180
:102880001020FFF70BF936208DF8000001208DF89D
:10289000010002208DF8020001208DF80300684637
:1028A000FEF798FD0295ADF804400020ADF8060053
:1028B000ADF80C0001A90648FFF73EFD01221146C4
:1028C0000348FFF771FC01210148FFF761FC7FBD60
:1028D0000010004070B50025174C40F225511748F4
:1028E00000F05FF8D0B1154800F0F0F8C5B240F242
:1028F0002551124800F02DF8D4E90001401AFF28B4
:1029000006D8217804F1100045542068401C20604E
:1029100020782179401AC0B2E0600BE040F22441F7
:10292000064800F03EF828B11021044800F011F8E4
:102930000120207270BD00001C4A002000140140DC
:1029400001F40072B2F5007F00D100BFCA430280DB
:10295000704710B50022002340F66A14A14200D14E
:1029600000BF0A1201249440A3B2DC43048010BDCE
:1029700021B1828942F40052828104E082894DF6BD
:10298000FF731A408281704702460020B1F5007F34
:1029900000D100BF13880B400BB1012000E00020E4
:1029A000704770B50246002400230025002040F641
:1029B0006A16B14200D100BFC1F3421501F01F03F6
:1029C000012606FA03F3012D02D19689334006E071
:1029D000022D02D1168A334001E0968A33400C1250
:1029E000012606FA04F41688344013B10CB1012014
:1029F00000E0002070BD00002DE9FF4705460E46AF
:102A00000024A14600BFA046B08900B100BF2C8AB7
:102A100024F44054F08804432C82AC8941F20C60C9
:102A20008443B08831890843718908430443AC81E9
:102A3000AC8A24F44074B0890443AC826846FFF742
:102A40006DF82048854202D01F48854202D1DDF84A
:102A50000C9001E0DDF80890A88900F4004040B136
:102A600009EBC90000EB091031684900B0FBF1F730
:102A700007E009EBC90000EB091031688900B0FBE1
:102A8000F1F76420B7FBF0F004012009642101FB99
:102A90001078A88900F4004040B1322000EBC80053
:102AA000B0FBF1F000F00700044308E0322000EB37
:102AB00008106421B0FBF1F000F00F0004432C81FA
:102AC000BDE8FF87001001400014014001468888DE
:102AD000C0F30800704700BFFEE7000030B50146B4
:102AE000481EB0F1807F01D3012030BD481E4FF059
:102AF000E022506150170F22002807DA13071D0E3D
:102B00000B4B00F00F04241F1D5503E013071C0E90
:102B1000084B1C5400BFFF20054A0B3210700020E8
:102B20004FF0E0229061072010610020DDE70000F7
:102B300018ED00E000E400E00FB4054B10B503A968
:102B4000044A029800F0C0FC10BC5DF814FB0000C1
:102B50006D470008380000200FB4084B10B504A9D9
:102B600002AA039800F0B0FC044602A9002001F07C
:102B7000A0F8204610BC5DF814FB0000B33C000830
:102B80004100080218BF04200A0E18BF40F00100DF
:102B90004FF07F4232EA010108BF40F002000128F5
:102BA00008BF052070470000004870479C040020C3
:102BB00010B510EE100A2DED068BB7EE001A10EED0
:102BC000901AB0EE418A0022A0F5000CDFEDFE9ACB
:102BD0004FF00073BCF1FE4F4FF07F4403EB410C0C
:102BE00080F0B481BCF1804FC0F02082F7490144ED
:102BF0009FEDF73AB1F5005F40F2D48200F58021F5
:102C0000CB0C03F00F0101EE901AC3F307137F3BC7
:102C1000A0EBC350B8EEE12A00EE100A1A44DFED33
:102C2000ED2AF0EE411A42EE221AF0EE613A70EE11
:102C3000232A30EE632A12EE900A00F500606FF34B
:102C40000B0001EE900A73EEE13A33EE804AC1EEDA
:102C5000223A22EE230A10EE100A00F500606FF30C
:102C60000B0000EE100A00EE612A00EE442A62EE2C
:102C7000232A70EE221A21EEA12ADFEDD73A02EEC6
:102C8000233A23EE023A20EE012A22EE811A03EEC5
:102C9000211A32EE010A10EE100A00F500606FF3FF
:102CA0000B0000EE100A72EE401A31EE812A9FED01
:102CB000CB1A60EE011A9FEDCA1A20EE011A9FEDA1
:102CC000C90A02EE001A31EE810A10EE100A00F570
:102CD00000606FF30B0000EE100AC34871EEC01ADB
:102CE00031EE812A784400EBC10090ED003AD0ED3E
:102CF000011A100101EE100AF8EEC12A32EE211A73
:102D000031EE001A31EE031A31EE221A11EE100ADA
:102D100000F500606FF30B0009EE100A39EE621A3D
:102D200031EE431A31EE400A30EE610A32EE40AA2B
:102D300010EE900A002100F500606FF30B0008EE22
:102D4000900A084670EEE8AAFDF7A0FE29EE280AD0
:102D500000F00C01F0EEC00A10EE900AB0F18B4FBB
:102D60000DDD10EE900AB4EB400F08D310EE100A00
:102D70004FF08B4262F31E0008EE900A13E069EEFA
:102D80002A0A38EEAA1A4AEE010A30EE201A11EE8B
:102D9000100A00F500606FF30B0008EE900A30EEA9
:102DA000680A70EE209A0C20FDF770FE38EEA90A32
:102DB000B5EEC00AF1EE10FA34BFFEEE000AF6EEF0
:102DC000000A30EE800ABDEEC00A10EE100A0111B2
:102DD00000EE101AF8EEC00A00EE100AB8EEC00AB3
:102DE00038EEC00A30EE290ADFED801A9FED801A16
:102DF00000EE211ADFED7F1A7F4900F00F0040EE50
:102E0000011A21EE800A794401EB800191ED001A4C
:102E10007A49794401EB8001D1ED001A784901EE3D
:102E2000801A794401EB8000764990ED000A31EE7A
:102E3000001AB0EEE00A10EE100A884215DA10EE21
:102E4000100AB4EB400F10D39FED6F0A30EE800AEA
:102E5000DFED6E0A20EE200A68EE010ABDEC068B5B
:102E6000BCEEC00A20EE200A10BD10EE100A684920
:102E7000884243DA10EE100AB4EB400F3ED3BDEEA9
:102E8000E00A68EE010A10EE100A00EBD072511051
:102E9000C90501F17E5100EE101AA0EB6200C005D9
:102EA00060EE200A00F17E5000EE100A60EE808A8B
:102EB00018EE900AB4EB400F0FD1022000F006FA92
:102EC00000F0BEF910EE101A18EE100ABDEC068BD9
:102ED00061F31E0000EE100A10BD18EE900A4000CB
:102EE00011D018EE900AFFF74BFE042808BF00F03F
:102EF000AFF9B0EE680ABDEC068B10BDF5EEC00A66
:102F0000F1EE10FA0FD2022000F0E0F900F0A0F983
:102F100010EE101A18EE100ABDEC068B61F31E00BD
:102F200000EE100A10BD022000F0D0F900F088F980
:102F300010EE101AB0EE480A10EE100ABDEC068B27
:102F400061F31E0000EE100A10BD00BFBCF1804FFF
:102F50006CD300BF00F1FF43B3F1FE4F24D200BF9A
:102F6000B0EEC00A10EE100AC1F3C7537F2B0DDB81
:102F7000972BBFF63BAEC3F196034FF0010C0CFA52
:102F800003F3A3F1010C1CEA010F08D0012000F0AB
:102F90009DF9BDEC068BBDE8104000F049B90B422D
:102FA00018BFBFEE008A21E643001CBF4FF08073BC
:102FB000B3EB400F34D96FF01A02DFED161A20EE92
:102FC000210A10EE100A27E000000000001080C067
:102FD000ABAAAA3E0000803D7EE24C3E00B03842E3
:102FE000D49AB8BB3BAA384280740000FC596337BE
:102FF000C9FF753A1872313D1E740000527400000A
:10300000C27300000000FC420000FE420000004BC2
:10301000000040430000004D10F0004FA0D1E5E556
:10302000A0F50003B3F1FE4F21D2DFE503EB41032E
:10303000B3F1007F11D3F5EEC00AF1EE10FA05D11D
:10304000430018BFB4EB400F76D883E701F000418E
:1030500041F0FC5100EE901A7CE7B3F1807F06D27C
:1030600010EE903AA3F5000300EE903A72E720F0DC
:1030700000426FF0FF4C604C02EB0C03A34210D3F4
:1030800021F000439C44A4450BD3B0F17E5F18BFF0
:103090005FEA410C50D0B2F1FF4F98BFB3F1FF4F40
:1030A00005D9BDEC068BBDE8104000F0BDB8B0F10D
:1030B000FF4F0FD0C1F3C7527F2A09DB972A11DADD
:1030C000C2F19602012303FA02F2531E0B4205D00D
:1030D000002208E011F0004F55D128E00A4218BF45
:1030E000012200D1022210F5000F13D028B3B0F155
:1030F000004F26D010F1814F4FD04FF0FE42B2EB7F
:10310000400F94BF01200020012202EBE1718842B0
:1031100039D10CE011F0004F02D0012A38D032E052
:10312000012A02BF9FED350ABDEC068B10BD9FED55
:10313000340ABDEC068B10BD2FE011F0004F0CD10E
:1031400021E0B1F1FF4F1ED011F5000F05D011F0B5
:10315000004F15D00AB1012A08D0022000F0B6F8BD
:10316000BDEC068BBDE8104000F054B8022000F022
:10317000ADF800F04FF8BDEC068BB1EE400A10BD83
:103180000AB1012A04D0B0EE690ABDEC068B10BD6D
:10319000BDEC068B9FED1B0A10BDBDEC068BB7EE98
:1031A000000A10BD30EE410AB5EE001A9FED172A55
:1031B00000EE413AB6EE001A60EE001A00EE431A35
:1031C00061EEC11A9FED101A20EE011A20EE020ADC
:1031D0009FED0F2A01EE820A71EE001A11EE900A9D
:1031E00000F500606FF30B0009EE100A31EE491A8A
:1031F00031EE00AA9CE50000FFFF3F00000080FFC9
:103200000000807F0000008000B0B841D49A38BB35
:103210003BAAB841DFED030AB7EE001A81EE200A9F
:10322000704700000000000030EE200A70470000E8
:10323000DFED020A80EEA00A7047000000000000E7
:103240009FED020A20EE000A7047000000000070A7
:103250009FED020A20EE000A7047000000000010F7
:10326000014609B900207047C8B220B1C8B20E4A61
:10327000105C401CF7E701F47F4028B10A48C1F315
:103280000722805C0930EEE701F47F0028B1064890
:10329000C1F30742805C1130E5E7034800EB1160A1
:1032A00000781930DFE7000046A0000802E008C8F7
:1032B000121F08C1002AFAD170477047002001E0B0
:1032C00001C1121F002AFBD17047000001490860AC
:1032D000704700009C0400202DE9FF5F82B00021B0
:1032E000DDE90430020DDDF840B0034318D044F6A8
:1032F0001050A2F2FF3242431514119801281FD03A
:10330000A5EB0B00401C5FEA000A4FF000064E4F91
:10331000DFF83891B046504615D5CAF1000413E0E5
:10332000119801244AA3012801D16FEA0B010298E8
:10333000119AC0E90031C0E9024206B0BDE8F09F31
:10334000CBF10000DFE704460021404A491842EB78
:103350000450CDE9001012E0E00707D032463B46AA
:1033600040464946FDF7D7F88046894632463B46F7
:1033700010461946FDF7CFF806460F466410002C9C
:10338000EAD1DDE90401DDE90023BAF1000F06DA34
:10339000FDF7C1F842464B46FDF7BDF805E0FDF7E5
:1033A0002CF942464B46FDF728F904460E4600220A
:1033B000284BFDF7DBF903D84FF0FF30014607E05B
:1033C0000022254B20463146FCF7FEFFFDF746FB69
:1033D000102409E0002C0ADB0A220023FDF710FA72
:1033E000039B30321A55641E50EA0102F2D1641C6C
:1033F000039AC4F111031444119A012A03D0012243
:1034000008430DD10AE0084304D000204FF0110B0F
:10341000119072E7A3EB0B056D1E0DE05B4504DD1B
:103420004FF0000205F1010504E003DA4FF000025D
:10343000A5F10105002AECD002981199C0E90231EA
:10344000C0E9004579E70000000014400000F03FAB
:10345000300000000000F0430000E03F2DE9F043A1
:1034600089B0064688469146002400E0641C305D21
:10347000202804D0305D092801D04445F6D324B972
:103480004FF0FF3009B0BDE8F0832146304602F02E
:10349000A9FF054615B94FF0FF30F3E7202101A839
:1034A000FCF743FF01AA4146304603F00BF80746FC
:1034B00017B94FF0FF30E5E701A93846A847C9F82A
:1034C00000000020DEE700002DE9FF4F95B09A468E
:1034D000884606460025EEE1252877D100242746B8
:1034E000F94A0121039400E0044316F8013F203B10
:1034F00001FA03F01042F7D130782A2811D06FF08A
:103500002F033078A0F13002092A16D8039A44F02C
:10351000020402EB820203EB42021044761C039089
:10352000EFE758F8042B0392002A03DA504244F4E0
:103530000054039044F00204761C30782E2816D1F3
:1035400016F8010F44F004042A280DD06FF02F0262
:103550003078A0F13003092B09D807EB870302EB81
:103560004303C718761CF3E758F8047B761C3078C1
:103570006C280FD006DC4C2817D068280DD06A289C
:1035800014D104E0742810D07A280FD10DE044F44F
:1035900000140AE044F4801401E044F4401472780A
:1035A000824202D104F58014761C761C307866289D
:1035B0000BD013DC582877D009DC002875D04528BB
:1035C000F6D04628F4D047281AD193E118E06328B2
:1035D00035D0642879D0652812D18BE1702873D05A
:1035E00008DC6728F1D069286FD06E280DD06F28CD
:1035F00006D1ACE073282CD0752874D0782853D02D
:103600005246179990476D1C54E1C4F302500228AA
:1036100009D003280DD0D8F8001004280DD00D6073
:1036200008F1040846E1D8F80010EA17C1E9005291
:10363000F6E7D8F800100D80F2E70D70F0E718F803
:10364000041B8DF8001000208DF80100EB460120CE
:1036500003E058F804BB4FF0FF3061074FF0000162
:1036600002D40DE009F101018946B9420FDA814522
:10367000F8DB1BF809100029F4D108E009F1010179
:1036800089468142FADB1BF809100029F6D103981C
:103690005346A0EB090721463846179A00F080FAF6
:1036A000284400EB090507E044E008E10DE01BF8C1
:1036B000010B524617999047B9F10109F7D25346C9
:1036C00021463846179AF2E039E00A21C4F3025243
:1036D0004FF0000B0091022A06D058F8040BC117D6
:1036E000032A09D00AE023E008F1070020F00702CE
:1036F000F2E80201904605E000B2C117042A01D1A8
:1037000040B2C117002906DA0A460021404261EBA7
:1037100002012D2202E0220504D52B228DF804207F
:10372000012203E0E20701D02022F7E7914657E0AB
:103730000A2100E010214FF0000B00910BE0102156
:103740004FF0000B44F004040827009103E0082028
:103750004FF0000B0090C4F30252022A05D058F833
:10376000040B0021032A08D008E008F1070020F02C
:103770000702F2E80201904603E080B2042A00D179
:10378000C0B24FF0000922072AD53278702A07D03C
:10379000DDF800C08CF0100C5CEA0B0C05D00EE0DC
:1037A00040228DF80420012208E050EA010306D0EF
:1037B00030238DF804308DF8052002229146009BBD
:1037C00083F0080353EA0B030AD150EA010201D146
:1037D000620705D530228DF804204FF001097F1EC5
:1037E0003278582A04D039A20C920CAA02920BE02B
:1037F0003BA2F9E75B46009AFDF702F80C9B9B5C45
:10380000029A521E0292137050EA0102F2D10298FB
:1038100004A9081A00F1200B600702D524F48034B3
:1038200000E001275F4502DDA7EB0B0000E0002070
:1038300000EB0B01009003984944401A0390E00309
:1038400006D453462146179A039800F0A9F9054477
:10385000002706E001A85246C05D179990476D1CED
:103860007F1C4F45F6DBE0030CD553462146179AE3
:10387000039800F095F9054404E03020524617996A
:1038800090476D1C0099481E00900029F5DC08E067
:103890000298029952460078491C02911799904764
:1038A0006D1CBBF10001ABF1010BF1DC5BE100F041
:1038B00065F90544761C307800287FF40DAE19B008
:1038C0002846BDE8F08F000009280100303132336E
:1038D000343536373839616263646566000000004C
:1038E0003031323334353637383941424344454636
:1038F00000000000600700D4062708F1070020F050
:103900000700F0E80223804603F0004C5FEA0C0059
:1039100001D097A009E0200501D596A005E0E007B9
:1039200001D095A001E0AFF24C001390307823F065
:10393000004365280CD006DC452809D046281DD058
:1039400047287FD13BE0662818D067287AD136E037
:103950000021112F01DB112000E0781CCDE90001CE
:1039600004A90CA8FFF7B8FCDDE90D010C9A4FF093
:10397000000B07F10109109200914EE04FF000405A
:103980000097CDE9011004A90CA8FFF7A5FCDDE91B
:103990000D020C9B0F994FF0000B91461093009273
:1039A00011B9791C00EB0109B7EB090003D4C0F190
:1039B000FF3B07F10109A9EB0700019042E0012F4D
:1039C00000DA01270021112F01DD112000E0384627
:1039D000CDE9000104A90CA8FFF77EFCDDE90D018B
:1039E0000C9A00914FF0000BB946109221070FD4AA
:1039F000009A4A4503DA914601E0A9F10109B9F1BB
:103A0000010F05DD109AA9F10101515C3029F4D0B4
:103A1000B84202DA10F1040F03DA0121CDE90110F6
:103A200010E0002803DC8344A9EB000102E0411C04
:103A3000494500DD8946A0EB0B00401C01904FF08A
:103A400000400290200705D40198484502DB4FF062
:103A5000FF30019000208DF84B0002980DF14B07CC
:103A6000B0F1004F25D002200C902B200D90029831
:103A700000280CDA404202902D200D9007E00A2128
:103A80000298FCF7A7FE3031029007F8011D0C994F
:103A9000481E0C900029F2DC02980028EFD1791E14
:103AA0000D980870307800F0200040F0450007F8CD
:103AB000020D11A8C01BC01D02901398007800B120
:103AC000012000EB0901019801EBE071029801442B
:103AD0000398401A401E0390E00306D45346214643
:103AE000179A039800F05CF805441398007818B111
:103AF0005246179990476D1CE00323D55346214643
:103B0000179A039800F04CF805441BE0BBF1000F36
:103B100007DB0098584504DD1098179910F80B0042
:103B200001E0179930205246904701980BF1010BA4
:103B3000401E05F10105019004D12E20524617992F
:103B400090476D1CB9F10001A9F10109DEDC05E027
:103B500017F8010B5246179990476D1C0299481EA1
:103B600002900029F4DC53462146179A03989EE6FA
:103B70002D0000002B000000200000002DE9F04186
:103B8000044600251E461746880404D405E039463D
:103B90002020B0476D1C641EF9D52846BDE8F08191
:103BA0002DE9F041044600251E469046C80301D584
:103BB000302700E02027880404D505E04146384638
:103BC000B0476D1C641EF9D52846BDE8F0810000A1
:103BD0002DE9FC5F04468B4615461E46DDE90C9A2E
:103BE000DDE90E7804F11C004060006000BF243461
:103BF0006560A660C4F80C90C4F810A02321D4E935
:103C0000030203F094FCD4E9033C63441A1F0F4BF6
:103C1000D4E9010103F08CFA2060A77667760020D2
:103C2000E061C4F82080C4F8248060612076E065FB
:103C30002066243C00902346054A2146019004F169
:103C40004C0004F0A8FA0020BDE8FC9FED7C0008C1
:103C50002D7F00082DE9F04704460E46174698468A
:103C6000DDF8209084F81190607C20F001006074F1
:103C70006662A76200202063C4F82C80002506E05D
:103C800004F11C0101EBC50003F01EFB6D1C012DAE
:103C9000F6DBBDE8F08770B50546002406E005F1C7
:103CA0001C0101EBC40003F062FB641C012CF6DB79
:103CB00070BD0A68531C0B601070704770B50446E5
:103CC000FCF780FA0546D4F8800018B12046D4F8F5
:103CD000801088472846FCF779FA70BDFDF744F854
:103CE000322004F09BF8FDF703F8322004F096F838
:103CF000642004F093F800F047FD03E04FF4FA600D
:103D000004F08CF8FAE700002DED068B82B09FEDF1
:103D1000440AB0EE408A9FED420AF0EE408A9FEDE1
:103D2000400A10EE105A00244FF4C87004F076F8E0
:103D30009020FDF7CBFAB0EE408A9220FDF7C6FA4C
:103D4000F0EE408A4FF47A7004F068F89020FDF7A6
:103D5000BDFAB0EE408A9220FDF7B8FAF0EE408A44
:103D60004FF47A7004F05AF859E09020FDF7AEFA5B
:103D7000B0EE408A642004F051F89220FDF7A6FAD4
:103D8000F0EE408A642004F049F8641C0A2C13D336
:103D9000002418EE900AFCF7D6FC41EC190B18EE43
:103DA000100AFCF7D0FC41EC1A0B8DED009B53EC94
:103DB0001A2B1CA0FEF7C0FEB4EEE88AF1EE10FA52
:103DC00002DB18EE105A01E018EE905A2846FCF774
:103DD000BAFC41EC190B9FED1C0B53EC102BFCF7BC
:103DE000C5FC14D280211A48FDF76AFA41F28830E6
:103DF00004F014F841F2883004F010F841F28830F1
:103E000004F00CF841F2883004F008F803E0802157
:103E10000F48FDF753FA4FF4487003F0FFFFA4E793
:103E200000000000626F6172645F74656D70413AFA
:103E30002566202020626F6172645F74656D704238
:103E40003A25660D0A00000000000000000049400D
:103E50000008024010B520A003F014FA21480178B0
:103E600021A003F00FFA1F48007800F0010010B104
:103E700023A003F007FA1B48007800F0020010B1FD
:103E800022A003F0FFF91748007800F0040010B1F9
:103E900021A003F0F7F91348007800F0080010B1F2
:103EA00021A003F0EFF90F48007800F0100010B1E6
:103EB00020A003F0E7F90B48007800F0800030B153
:103EC00008480F3001681DA003F0DCF902E01FA0D4
:103ED00003F0D8F910BD0000627573206661756C3F
:103EE000743A0A0029ED00E05343425F43465352BF
:103EF0005F424653523A3078253032582000000055
:103F0000494255534552522000000000505245434B
:103F10004953455252200000494D505245434953A0
:103F20004552522000000000554E53544B4552520A
:103F30002000000053544B45525220005343422D61
:103F40003E424641523A253038580A000A000000E5
:103F500070B504460D4601F011FA002070BD70B531
:103F600004460D4601F0E2FA002070BD0024002551
:103F700000231A4677A17A4803F047FCFCF74AFF72
:103F8000E6E000220121764803F024FC4FF0FF31E7
:103F9000734803F076FC012003F040FF04217148D0
:103FA000FDF783F9044608216E48FDF77EF90546C2
:103FB0006DA0FEF7C1FDAC4263D06D48B0F90000C2
:103FC000052190FBF1F201FB120030B9684800882E
:103FD000401D00B26649088042E06548B0F9000023
:103FE000052190FBF1F201FB1200012806D1604887
:103FF0000088001D00B25E49088031E05C48B0F9DD
:104000000000052190FBF1F201FB1200022806D10D
:1040100057480088C01C00B25549088020E0544829
:10402000B0F90000052190FBF1F201FB120003281A
:1040300006D14F480088801C00B24D4908800FE02F
:104040004B48B0F90000052190FBF1F201FB120092
:10405000042805D146480088401C00B24449088025
:104060004348B0F90000B0F5FA7F03DD4FF4FA7071
:104070003F4908803F4803F0DBFB3FA0FEF75CFDB3
:1040800060E03B48B0F90000052190FBF1F201FB34
:10409000120030B936480088401F00B23449088009
:1040A00042E03348B0F90000052190FBF1F201FB3A
:1040B0001200012806D12E480088401E00B22C496B
:1040C000088031E02A48B0F90000052190FBF1F2A8
:1040D00001FB1200022806D125480088801E00B28C
:1040E0002349088020E02248B0F90000052190FB18
:1040F000F1F201FB1200032806D11D480088C01E02
:1041000000B21B4908800FE01948B0F900000521F2
:1041100090FBF1F201FB1200042805D1144800883D
:10412000001F00B2124908801148B0F900000028B1
:1041300002DA00200E4908800E4803F079FB10A037
:10414000FEF7FAFC0A48B0F900100FA0FEF7F4FCE5
:1041500017E70000636F6465635F73656D000000BF
:104160006449002000100240526F746174653A0087
:10417000040000203C4900202B2B0D0A0000000009
:104180002D2D0D0A000000004C45445F63757272CE
:10419000656E743A25640D0A0000000000B587B012
:1041A00001214020FDF76AFC01212020FDF796FC4B
:1041B000082209211B48FDF755F808220E2119484D
:1041C000FDF750F84FF48440059002208DF8180058
:1041D00003208DF8190000208DF81A0001208DF8B9
:1041E0001B0005A90F48FCF7F5FF4FF46130019063
:1041F0000020ADF80800ADF80A00ADF80C00ADF8ED
:1042000010000C20ADF80E0001A90748FEF7F4FBE2
:1042100001210548FEF7ACFB40210348FEF799FB5E
:1042200007B000BD001802400014014010B502465E
:1042300000200CE0135C074C238000BF054B1B1FC4
:104240001B8803F04003002BF8D0431CD8B28842EF
:10425000F0DB10BD0414014010B51548006890F85B
:104260002900C0F3400020B9002012490870084618
:1042700010BD1148006840B14FF400720E4801684B
:104280000C48FCF769F80B48F2E702F019F920B185
:104290000AA10848FCF773F803E00AA10548FCF7F7
:1042A0006EF80AA10348FCF74BF80248E0E700006B
:1042B0009404002064630020980400206D7368203B
:1042C0000000000066696E73682000003E00000078
:1042D00010B502F0DDFD10BD0549096891F82910FF
:1042E00060F34101024A126882F829107047000009
:1042F00094040020024A1060024A116070470000D6
:1043000084040020880400207CB500251749184843
:10431000FFF7F0FF8021012002F0C6FC154908607C
:104320000846006820B914A002F0ACFF681E7CBDEE
:104330000A2015214FF480630022CDE900101449B2
:1043400014A003F0A5FC044600231A4613A1094853
:10435000006803F05AFA0120FFF7BEFF1CB115B93F
:10436000204603F0ABFD0020E1E70000BCA60008FA
:10437000F0A50008940400206E6F206D656D6F72CB
:104380007920666F72207368656C6C0A000000000B
:10439000A5430008747368656C6C000073687278DC
:1043A00000000000E948006890F8290020F00100B2
:1043B000401CE649096881F82900FFF74DFF0546D2
:1043C00002F060FFC1E1FFF783FF0446002C00DA32
:1043D000BBE11B2C05D10120DC49096881F82800CC
:1043E000B3E1DA48006890F8280001280DD15B2C71
:1043F00005D10220D549096881F82800A5E10020EF
:10440000D249096881F8280045E0D048006890F852
:10441000280002283FD10020CC49096881F82800F3
:10442000412C00D191E1422C00D18EE1442C11D1DC
:10443000C6480068B0F87C0058B1C5A002F022FF61
:10444000C2480068B0F87C00401EC0490968A1F865
:104450007C007AE1432C1ED1BC480068B0F87C0097
:10446000BA490968B1F87A10884213DAB748006887
:10447000B0F87C20B54800682A30815CB5A002F015
:1044800001FFB2480068B0F87C00401CAF490968E1
:10449000A1F87C0059E10CB1FF2C00D155E1092CA9
:1044A0001FD1002503E0AAA002F0ECFE6D1CA74876
:1044B0000068B0F87C00A842F5DCA44800682A3007
:1044C00004F074FAA14800682A30FBF751FF80B26B
:1044D0009E490968A1F87A009C490968A1F87C0006
:1044E00033E17F2C01D0082C6ED198480068B0F8D9
:1044F0007C0000B929E195480068B0F87A00401EB8
:1045000092490968A1F87A0090480068B0F87C00E8
:10451000401E8E490968A1F87C008C480068B0F8FC
:104520007A008A490968B1F87C1088423FDD874BE0
:104530001B68B3F87A30854E3668B6F87C609A1BF3
:10454000824B1B68B3F87C305B1C804E36682A3681
:1045500099197E4B1B68B3F87C607C4B1B682A332F
:10456000F01802F0C3FF002278480068B0F87A1013
:10457000764800682A30425474480068B0F87C20BD
:10458000724800682A30111873A002F07BFE6F4851
:104590000068B0F87C5003E06DA002F073FE6D1C63
:1045A0006A480068B0F87A00A842F5DA0BE06CA01F
:1045B00002F068FE002165480068B0F87A20634880
:1045C00000682A308154C0E00D2C01D00A2C2BD178
:1045D00001F076FF012812D15C48006890F82900AC
:1045E00000F0010010B15FA002F04CFE57480068D7
:1045F000B0F87A10554800682A3001F0BDFEFFF788
:104600002BFE054602F03EFE5021504800682A303D
:10461000FBF78BFE00204D490968A1F87A004B4951
:104620000968A1F87C0090E048480068B0F87A007A
:10463000502804DB002045490968A1F87A00434866
:104640000068B0F87C0041490968B1F87A108842E6
:1046500045DA3E4B1B68B3F87A303C4E3668B6F804
:104660007C609A1B394B1B68B3F87C60374B1B6826
:104670002A33F118354B1B68B3F87C305B1C334E82
:1046800036682A36981902F031FF30480068B0F8D1
:104690007C202E4800682A3084542C48006890F80A
:1046A000290000F0010050B128480068B0F87C20D3
:1046B000264800682A3011182BA002F0E3FD234899
:1046C0000068B0F87C5003E021A002F0DBFD6D1C17
:1046D0001E480068B0F87A00A842F5DC12E01B48DA
:1046E0000068B0F87A20194800682A3084541748C6
:1046F000006890F8290000F0010018B1214615A0CB
:1047000002F0C0FD002411480068B0F87A00401C97
:104710000E490968A1F87A000C480068B0F87C00DE
:10472000401C0A490968A1F87C0008480068B0F8F4
:104730007A00502808DB002004490968A1F87A00B3
:1047400002490968A1F87C0000BF3CE694040020FF
:1047500008000000256300000825732020080000E1
:10476000082008000A0000002573000000BF054A69
:10477000128802F04002002AF9D0C2B2014B1B1D80
:104780001A8070470014014010B52DED048B00F025
:1047900035F98A4800688A49486088484068086155
:1047A0008648806888608548C06848618348006999
:1047B000C860824840690860084601680846FBF7FF
:1047C000C2FF41EC190B9FED7F0B53EC102BFBF755
:1047D00014FF41EC180BFBF7E1FF7949086008462C
:1047E00041680846FBF7AFFF41EC190B9FED770BD3
:1047F00053EC102BFBF701FF41EC180BFBF7CEFF3E
:104800006F494860084681680846FBF79CFF41EC09
:10481000190B9FED6E0B53EC102BFBF7EEFE41ECEA
:10482000180BFBF7BBFF664988600846C16808465D
:10483000FBF789FF41EC190B9FED660B53EC102B36
:10484000FBF7DBFE41EC180BFBF7A8FF5C49C860E7
:10485000084601690846FBF776FF41EC190B9FED0E
:104860005B0B53EC102BFBF7C8FE41EC180BFBF76E
:1048700095FF53490861084641690846FBF763FF05
:1048800041EC190B9FED510B53EC102BFBF7B5FED0
:1048900041EC180BFBF782FF494948610846416823
:1048A0000846FBF750FF41EC190B9FED4C0B53EC06
:1048B000102BFBF7A2FE41EC180BFBF76FFF4049F2
:1048C0004860084601690846FBF73DFF41EC190BBB
:1048D0009FED420B53EC102BFBF78FFE41EC180BB6
:1048E000FBF75CFF364908610846806800EE100A55
:1048F0003C48D0ED000A80EE201A11EE104A204606
:10490000FBF721FF41EC190B9FED370B53EC102BFC
:10491000FBF7FEFD41EC180BFBF740FF3449086044
:10492000084690ED000A3348D0ED000A20EE200A38
:104930000846D0ED000AB7EE001A71EE600A80EE6C
:10494000201A2D4880ED001A00681D49886008462D
:10495000406900EE100A2348D0ED000A80EE201ACC
:1049600011EE104A2046FBF7EEFE41EC190B9FEDCD
:104970001E0B53EC102BFBF7CBFD41EC180BFBF798
:104980000DFF1B490860084690ED000A1948D0ED5C
:10499000000A20EE200A0846D0ED000AB7EE001A01
:1049A00071EE600A80EE201A134880ED001A00684C
:1049B00003494861BDEC048B10BD00008C49002008
:1049C000A0040020000000000000F03FEA5A7B9F96
:1049D000AAAA204079AC1919E4AEFF3F0AD7A37008
:1049E0003D0AA73F14000020000000000000E03F47
:1049F00010000020080000200C00002030B52DED34
:104A0000088B83B000240020009001900290584D44
:104A10004FF480515748FCF753FC4FF4005156486F
:104A2000FCF74EFC00BF00BF00BF00BF00BF00BFCF
:104A300000BF00BF00BF00BF00BF00BF00BF4FF4FA
:104A400000514C48FCF731FC18B1281EA5F10105B6
:104A5000F5D100247FE04FF480514648FCF72EFC4E
:104A600000BF00BF00BF00BF00BF00BF00BF00BF4E
:104A700000BF00BF00BF00BF4048006880B22DF8F3
:104A800014003DF8140000F40040B0F5004F22D0AF
:104A90003DF8140000EE100AB8EE400A10EE101AAD
:104AA0000846FBF750FE41EC1A0B9FED350B53EC1B
:104AB000102BFBF730FD41EC190B9FED330B53EC42
:104AC000102BFBF79AFD41EC180BFBF767FE304902
:104AD00041F824002CE03DF814004FF6FF72101A44
:104AE00000EE100AB8EEC00A10EE101A0846FBF7E6
:104AF0002AFE41EC1B0B9FED220B53EC102BFBF716
:104B00000AFD41EC1A0B9FED200B53EC102BFBF729
:104B100074FD41EC190B9FED1F0B53EC102BFBF7B1
:104B2000F7FC41EC180BFBF739FE194941F824005A
:104B30004FF480510F48FCF7C3FB00BF00BF00BF1C
:104B400000BF00BF00BF00BF00BF00BF00BF00BF6D
:104B500000BF601CC4B2062CFFF67DAF4FF40051BD
:104B60000548FCF7ABFB03B0BDEC088B30BD000083
:104B7000FFFF02000004024000100240100C02403F
:104B8000000000000000244000000000C0FFDF40E3
:104B90008C490020000000000000000000B52DED51
:104BA000048B85B001A8FCF7B9FF0198FBF7A5FDC0
:104BB00041EC190B9FED230B53EC102BFBF71DFD64
:104BC00041EC180B53EC182B20A0FDF7B5FF029811
:104BD000FBF793FD41EC190B9FED1A0B53EC102BD7
:104BE000FBF70BFD41EC180B53EC182B1EA0FDF747
:104BF000A3FF0398FBF781FD41EC190B9FED110B0F
:104C000053EC102BFBF7F9FC41EC180B53EC182B71
:104C10001CA0FDF791FF0498FBF76FFD41EC190B09
:104C20009FED080B53EC102BFBF7E7FC41EC180B46
:104C300053EC182B1AA0FDF77FFF05B0BDEC048BD9
:104C400000BD00000000000080842E4153595343F2
:104C50004C4B5F4672657175656E63793A252E33EC
:104C6000664D487A0D0A000048434C4B5F4672651A
:104C70007175656E63793A252E33664D487A0D0A53
:104C80000000000050434C4B315F46726571756502
:104C90006E63793A252E33664D487A0D0A0000007E
:104CA00050434C4B325F4672657175656E63793A5D
:104CB000252E33664D487A0D0A00000010B51448C1
:104CC000006800F0020010B112A002F0DBFA1048F8
:104CD000006800F0804088B10D48C01E007808B11F
:104CE000FFF7B8F80A48001F007808B100F0EEFDA1
:104CF0000748801E008808B103F0A4FF044800683C
:104D000000F0004010B109A002F0BCFA10BD000094
:104D10002CED00E06661696C656420766563746FF4
:104D2000722066657463680A00000000646562753D
:104D300067206576656E740A0000000010B502A059
:104D400002F0A0FA002010BD48656C6C6F20525430
:104D50002D546872656164210A000000002001E0A2
:104D6000411C88B21C28FBDB704700001CB50121E8
:104D70000220FCF783FE01210220FCF77FFE402089
:104D8000009001208DF804008DF8060003208DF8B6
:104D9000050001208DF8070069460B48FCF71AFA58
:104DA0008020009001208DF804008DF8060003207B
:104DB0008DF8050001208DF8070069460248FCF7D0
:104DC00009FA00F049F81CBD0004024070B5044621
:104DD000002520E004F0800018B1802011490880EF
:104DE00003E080200F49891C0880FFF7B7FF4020AF
:104DF0000C490880FFF7B2FF40200A49891C08804F
:104E0000072D02D14001891E08806006040EFFF7BD
:104E1000A5FF681CC5B2082DDCDB80200149088095
:104E200070BD00001804024010B5802009490880B8
:104E300040200880FFF792FF80200649891C0880E7
:104E4000FFF78CFF40200349891C0880FFF786FF8D
:104E500010BD00001804024010B5802005490880EC
:104E60004020891E0880FFF779FF80200149891EB4
:104E7000088010BD1A04024010B580200B4908803C
:104E8000FFF76CFF402009490880FFF767FF0748DC
:104E90000838006800F0800008B1012400E0002418
:104EA00040200249891C0880204610BD1804024099
:104EB00010B54FF400600B49088000F015F84FF46E
:104EC00080600849891E088000F00EF84FF4806069
:104ED0000449088000F008F84FF400600149891E79
:104EE000088010BD1A040240002001E0411C88B275
:104EF0002628FBDB704700001CB501210220FCF7CF
:104F0000BDFD01210220FCF7B9FD4FF48060009047
:104F100001208DF804008DF8060003208DF80500AF
:104F200001208DF8070069460B48FCF753F94FF450
:104F30000060009001208DF804008DF80600032029
:104F40008DF8050001208DF8070069460248FCF73E
:104F500041F900F08BF81CBD0004024010B54FF47D
:104F6000006009490880FFF7BFFF4FF480600649E1
:104F70000880FFF7B9FF4FF480600349891C08805F
:104F8000FFF7B2FF10BD00001804024070B5002505
:104F9000002400BF18E04FF480600D490880FFF73F
:104FA000A3FF6006040E0A480838006800F4006099
:104FB00008B1601CC4B24FF480600549891C0880A8
:104FC000FFF792FF681CC5B2082DE4DB204670BDD8
:104FD0001804024070B504464FF4806015490880FB
:104FE00000251FE004F0800028B14FF40060114953
:104FF000891E088003E04FF400600E4908806006B7
:10500000040EFFF771FF4FF480600A49891E088083
:10501000FFF76AFF4FF4806006490880FFF764FFDE
:10502000681CC5B2082DDDDB4FF400600149891E04
:10503000088070BD1A04024010B54FF400600A49A0
:10504000088040100880FFF74FFF4FF400600649CA
:10505000891C0880FFF748FF4FF480600249891CD3
:105060000880FFF741FF10BD1804024010B54FF44F
:105070000060064908804010891E0880FFF734FF51
:105080004FF400600149891E088010BD1A040240D7
:1050900070B5002400254FF400600E490880FFF72A
:1050A00023FF4FF480600B490880FFF71DFF09487C
:1050B0000838006800F4006008B1012400E0002412
:1050C0004FF480600349891C0880FFF70DFF2046DC
:1050D00070BD00001804024000BF10E04FF4807162
:1050E0000748FCF7EDF84B2002F098FE4FF4807172
:1050F0000348FCF7E3F840F21A4002F08FFEEDE7B8
:105100000004024010B50DA002F0BCF8104804687D
:105110000DE002220FA12068FBF73AF900B905E083
:105120000DA0D4E9001202F0ADF800BF0C340E4817
:1051300000688442EDD3002010BD00002D2D46757F
:105140006E6374696F6E204C6973743A0A000000D4
:10515000840400205F5F0000252D313673202D2D43
:105160002025730A00000000880400202DE9F04784
:1051700004460D4616461F46284602F047FA814669
:1051800009F10408C4F8008025726660E760002019
:105190002061BDE8F0872DE9F84F07460C464FF037
:1051A000000A00202061E06808B1207A10B90020D0
:1051B000BDE8F88FD4F800801FB945464FF0010ACA
:1051C00000E03D46FAF7FEFF0090BAF1000F0ED165
:1051D000A5F1140B9BF8100020F08000217A884282
:1051E00004D00098FAF7F2FF0020E1E700BF0026A4
:1051F000D4F804900BE02D68454501D1002507E067
:10520000761C49F8045BE068B04200D100E0F2E7A8
:1052100000BF0098FAF7DAFF26612846C8E70000C9
:105220002DE9F04F91B000270FF2D409082304AA0A
:1052300005210CA8FFF79AFF4FF010084A46414697
:1052400031A002F01FF8404601F0B4F937A002F097
:1052500019F800BF0CA93846FFF79DFF0746002547
:1052600045E004A850F82500A0F11406FAF7AAFFBB
:105270008346307C20F080009DF83810884203D0AF
:105280005846FAF7A3FF31E05846FAF79FFF344635
:1052900004F11C0002F047F8B8B904F11C0002F058
:1052A0004AF88246208D618D23461022CDE9010AFD
:1052B0000091414624A001F0E5FF04F11C0003F039
:1052C00091FB27A001F0DEFF0FE004F11C0002F0CB
:1052D00032F88246208D618D23461022CDE9010AE5
:1052E000009141461FA001F0CDFF00BF6D1C10983A
:1052F000A842B6DC002FADD1002011B0BDE8F08F80
:105300006D61696C626F7800252D2A2E7320656EA1
:105310007472792073697A652073757370656E6431
:10532000207468726561640A00000000202D2D2D34
:105330002D20202D2D2D2D202D2D2D2D2D2D2D2DC4
:105340002D2D2D2D2D2D0A00252D2A2E2A732025B9
:105350003034642020253034642025643A00000075
:105360000A000000252D2A2E2A73202530346420BF
:1053700020253034642025640A00000010B5084858
:10538000016808A001F07EFF0B4801680BA001F046
:1053900079FF0F4801680FA001F074FF10BD0000F5
:1053A00008040020746F74616C206D656D6F7279F4
:1053B0003A2025640A0000000C040020757365641F
:1053C000206D656D6F7279203A2025640A00000017
:1053D000100400206D6178696D756D20616C6C6FD3
:1053E0006361746564206D656D6F72793A20256420
:1053F0000A0000002DE9F04F8FB000270FF2CC0912
:10540000082302AA02210AA8FFF7B0FE4FF01008F5
:105410004A46414630A001F035FF404601F0CAF847
:1054200034A001F02FFF00BF0AA93846FFF7B3FEF2
:105430000746002541E002A850F82500A0F1140617
:10544000FAF7C0FE8346307C20F080009DF83010D3
:10545000884203D05846FAF7B9FE2DE05846FAF7CD
:10546000B5FE344604F11C0001F05DFFA8B904F15B
:105470001C0001F060FF8246A08C234610224146AA
:10548000CDE9000A21A001F0FDFE04F11C0003F0AB
:10549000A9FA17A001F0F6FE0DE004F11C0001F0DE
:1054A0004AFF8246A08C234610224146CDE9000ADD
:1054B0001AA001F0E7FE00BF6D1C0E98A842BADCEE
:1054C000002FB1D100200FB0BDE8F08F73656D6182
:1054D00070686F7265000000252D2A2E73207620DB
:1054E000202073757370656E6420746872656164E2
:1054F0000A000000202D2D2D202D2D2D2D2D2D2DA0
:105500002D2D2D2D2D2D2D0A00000000252D2A2EAC
:105510002A7320253033642025643A00252D2A2E55
:105520002A7320253033642025640A002DE9F04FCA
:10553000B3B04FF000090FF21C1B082325AA01216C
:105540002DA8FFF713FE4FF0100A5A465146434864
:1055500001F098FE504601F02DF841A001F092FEB6
:1055600000BF2DA94846FFF716FE81464FF0000800
:1055700065E025A850F82800A0F11405FAF722FEEE
:105580003290287C20F080009DF8BC10884203D027
:105590003298FAF71BFE50E08822294603A8FAF752
:1055A000ABFE3298FAF712FE2C4694F83D002346E3
:1055B0001022514600903AA001F064FE94F83C009D
:1055C00000F00F06012E03D138A001F05BFE15E0BC
:1055D000022E03D138A001F055FE0FE01EB939A00C
:1055E00001F050FE0AE0042E03D139A001F04AFE7A
:1055F00004E0032E02D139A001F044FE276B00E045
:105600007F1C38782328FBD0D4E90C10791A401A73
:1056100064214843616BB0FBF1F00290A16BA06C78
:10562000CDE90001636A206BC01A636BC1181A468A
:105630002DA0029B01F026FE00BF08F10108319861
:10564000404596DCB9F1000F8BD1002033B0BDE8A6
:10565000F08F0000746872656164000030A3000878
:10566000202D2D2D20202D2D2D2D2D2D2D202D2D9E
:105670002D2D2D2D2D2D2D2D202D2D2D2D2D2D2D67
:105680002D2D2D20202D2D2D2D2D2D20202D2D2D7E
:105690002D2D2D2D2D2D2D202D2D2D0A000000001E
:1056A000252D2A2E2A73202533642000207265615F
:1056B00064792020000000002073757370656E64AB
:1056C0000000000020696E697420202000000000A6
:1056D00020636C6F73652020000000002072756EDF
:1056E0006E696E6700000000203078253038782021
:1056F0003078253038782020202025303264252548
:1057000020202030782530387820253033640A0076
:105710002DE9F04790B000270FF2B409082303AA3F
:105720000A210BA8FFF722FD4FF010084A46414618
:1057300029A001F0A7FD404600F03CFF30A001F099
:10574000A1FD00BF0BA93846FFF725FD074600263F
:105750002DE003A850F82600A0F11404FAF732FD5A
:105760008246207C20F080009DF83410884203D0CF
:105770005046FAF72BFD19E05046FAF727FD25466B
:10578000D5E90B012B461022CDE90001414625A0A9
:1057900001F078FD687C00F0010018B127A001F04D
:1057A00071FD02E028A001F06DFD00BF761C0F988E
:1057B000B042CEDC002FC5D102F038FC04462146B1
:1057C00025A001F05FFD002010B0BDE8F0870000CB
:1057D00074696D6572000000252D2A2E73202070DB
:1057E0006572696F64696320202074696D656F75E7
:1057F0007420202020202020666C61670A000000B1
:10580000202D2D2D2D2D2D2D2D2D2D202D2D2D2DE2
:105810002D2D2D2D2D2D202D2D2D2D2D2D2D2D2DC5
:105820002D2D0A00252D2A2E2A7320307825303878
:105830007820307825303878200000006163746962
:1058400076617465640A00006465616374697661F9
:105850007465640A0000000063757272656E7420DE
:105860007469636B3A3078253038780A000000009C
:1058700090B000BF40216846FAF757FD00BF00BF57
:10588000FBF770FD02F020FF13E001210948FBF750
:1058900019FD4FF400610848FBF710FD642002F089
:1058A000BDFA4FF400610448FBF70AFD642002F0E2
:1058B000B5FAEAE7000802400000024010B50446CD
:1058C00001F012FAFFF7D4FF10BD000010B51CA0C4
:1058D00001F0D8FC1F4801781FA001F0D3FC1D483F
:1058E000007800F0010010B121A001F0CBFC1948B4
:1058F000007800F0020010B120A001F0C3FC1548B0
:10590000007800F0080010B11FA001F0BBFC1148A6
:10591000007800F0100010B11EA001F0B3FC0D489B
:10592000007800F0800030B10A480C3001681CA0FB
:1059300001F0A8FC02E01EA001F0A4FC10BD0000D4
:105940006D656D206D616E616765206661756C7453
:105950003A0A000028ED00E05343425F43465352A9
:105960005F4D4653523A30782530325820000000BF
:105970004941434356494F4C2000000044414343B2
:1059800056494F4C200000004D554E53544B455244
:10599000522000004D53544B45525220000000004D
:1059A0005343422D3E4D4D41523A253038580A005E
:1059B0000A0000002DED0E8B9FEDFE0AB0EE409A1E
:1059C0009FEDFC0AF0EE40AA9FEDFA0AB0EE408A85
:1059D0009FEDF80AF0EE409A9FEDF60AF0EE408A4D
:1059E0009FEDF40AB0EE40AA9FEDF20AB0EE40EA55
:1059F00000BF4FF4967002F011FAFCF733F9B0EEE5
:105A00004E0AFCF7DBFCB0EE4E0AFCF705FEFCF795
:105A100087FDFCF7B3FEFBF7E5FFFBF745FA002334
:105A20001A46E5A1E84801F0F0FE4FF4C87002F014
:105A3000F5F9142140F2E730FCF71EFF0221E3489C
:105A4000FBF733FC10B10120E14908709FEDD90A42
:105A5000FBF7C2F89FEDD70AFCF7CAFAC82002F09C
:105A6000DDF99FEDDC0AFCF7C3FA9FEDDA0AFBF7DC
:105A7000B3F828E100220121D34801F0ABFE4FF03A
:105A8000FF31D14801F0FDFEFEF77EFED2484069AD
:105A900000EE100ADFEDD10AB4EEE00AF1EE10FAE2
:105AA00003D20120CE49087002E00020CC490870E2
:105AB000C948806800EE100ADFEDC80AB4EEE00ABB
:105AC000F1EE10FA03D20120C649087002E000206E
:105AD000C44908700120C2490870C2490870C24810
