:020000040800F2
:100000004848002099020008A1230008BB0300080B
:100010009D230008A51B0008E3360008000000002F
:10002000000000000000000000000000D52A0008C9
:100030009D1F00080000000007030008952C000821
:10004000B3020008B3020008B3020008B3020008BC
:10005000B3020008B3020008B3020008B3020008AC
:10006000B3020008B3020008B3020008B30200089C
:10007000B3020008B3020008B3020008B30200088C
:10008000B3020008B3020008B3020008B30200087C
:10009000B3020008B3020008B3020008652000089C
:1000A000B3020008B3020008B3020008B30200085C
:1000B000B3020008B3020008B3020008B30200084C
:1000C000B3020008B3020008B3020008B30200083C
:1000D000B3020008B3020008B3020008B30200082C
:1000E000B3020008B3020008B3020008B30200081C
:1000F000B3020008B3020008B3020008B30200080C
:10010000B3020008B3020008B3020008B3020008FB
:10011000B3020008B3020008C52D0008B3020008AE
:10012000B3020008B3020008B3020008B3020008DB
:10013000B3020008B3020008B3020008B3020008CB
:10014000B3020008B3020008B3020008B3020008BB
:10015000B3020008B3020008B30200089934000893
:10016000B3020008B3020008B3020008B30200089B
:10017000B3020008B3020008B3020008B30200088B
:10018000B3020008B302000800F002F800F075F8AE
:100190000AA090E8000C82448344AAF10107DA45E2
:1001A00001D100F06AF8AFF2090EBAE80F0013F0BF
:1001B000010F18BFFB1A43F001031847149E0000FB
:1001C000349E00000A444FF0000C10F8013B13F07D
:1001D000070408BF10F8014B1D1108BF10F8015BA0
:1001E000641E05D010F8016B641E01F8016BF9D193
:1001F00013F0080F1EBF10F8014BAD1C0C1B09D1EA
:100200006D1E58BF01F801CBFAD505E014F8016B5B
:1002100001F8016B6D1EF9D59142D6D370470000ED
:100220000023002400250026103A28BF78C1FBD8FF
:10023000520728BF30C148BF0B607047662908F0DD
:100240008882642900F02A81782900F063810020E7
:1002500070471FB508F073FA00F040FE040000205C
:10026000002107F0E9FC401C60600020002107F03D
:10027000CDFCE0601FBD10B510BD00F07FFF114642
:10028000FFF7E7FF01F0BEFB00F0ABFF03B4FFF7A1
:10029000F2FF03BC03F041FB0948804709480047CF
:1002A000FEE7FEE7FEE7FEE7FEE7FEE7FEE7FEE726
:1002B000FEE7FEE704480549054A064B7047000083
:1002C0005D2D0008890100084842002048480020B0
:1002D0004844002048440020EFF3108072B6704775
:1002E00080F310887047434A1368012B04D04FF005
:1002F00001031360404A1060404A116040484FF0CB
:10030000805101607047EFF3108272B6394801687E
:1003100051B34FF0000101603748016891B1EFF32C
:1003200009811EF0100F08BF21ED108B21E9F00F9D
:100330004FF000041EF0100F08BF012441F8044DD7
:10034000006801602D490968096808C9B1E8F00F23
:10035000002B18BFB1EC108B81F309884EF0100E02
:10036000002B18BF2EF0100E82F310884EF0040EF2
:10037000704722490860EFF3148222F0040282F3EE
:1003800014881D494FF0000008601A494FF0010021
:1003900008601C484FF47F01D0F8002041EA0201B8
:1003A000016017484FF080510160174800680068ED
:1003B00080F3088861B662B670471EF0040F0CBF68
:1003C000EFF30880EFF3098020E9F00F40F804ED27
:1003D00040F804ED1EF0040F0CBF80F3088880F392
:1003E000098800B505F026FE5DF804EB4EF0040E1A
:1003F00070470000D0030020C8030020CC03002079
:1004000004ED00E020ED00E008ED00E00FB4044949
:1004100010B503AA029800F00BFD10BC5DF814FBA8
:10042000100000200FB41CB5074B06AA7B44694698
:100430000090059800F0E3FC0020694600F0F2FC13
:100440001CBC5DF814FB0000F509000070B5044603
:1004500085690068C10601D5302600E02026C00766
:1004600007D070BDD4E9012130469047206A401C76
:1004700020626D1EF6D570BD70B5044685690078A2
:10048000C00707D170BDD4E9012120209047206A20
:10049000401C20626D1EF6D570BD00002DE9F041B4
:1004A0000646002410687529314616A510D0AFF312
:1004B0000080002802DA404213A507E031688A076D
:1004C00001D512A502E0490704D511A5012401E0D8
:1004D000AFF3008000210A2206F1240709E0B0FBF7
:1004E000F2FCB0FBF2F302FB1C00303078541846EB
:1004F000491C0028F3D123462A463046BDE8F04186
:1005000000F010BA000000002D0000002B000000D9
:100510002000000070B504460D4621461068AFF378
:1005200000802188090502D50F4A7A4402E00E4A6C
:100530007A440E32002104F1240305E000F00F0696
:100540000009965D5E54491C0028F7D120780023ED
:10055000000704D5702D02D009B1022311322046C4
:10056000BDE8704000F0DEB95A9600002DE9F04772
:100570004FF0000A89460446C0F820A02046E168F2
:100580008847002876D0252806D0D4E90121904755
:10059000206A401C2062F1E7E16820460025884778
:1005A000C4F81CA006460027C4F818A02A2E09D0BB
:1005B000304603F005F938B304EB8708303EC8F83D
:1005C000186019E059F8041B204604EB870291617A
:1005D000E1688847012F064618D1E069002820DA33
:1005E00025F020051DE0D8F8180000EB800006EB90
:1005F00040003038C8F818002046E16888470646B1
:1006000003F0DEF80028EED1012F0AD02E2E08D1FB
:100610002046E16888477F1C0646022F45F02005EA
:10062000C4DBA069002803DA404245F00105A0615F
:10063000E80701D025F01005B6B1A6F14100192850
:1006400002D8203645F400654A46314620462560EA
:100650004D46FFF7F3FD58B1012806D0ED1D25F0FA
:10066000070000F1080989E704E005F1040985E7BE
:1006700030468AE7206ABDE8F08770B5064600F08C
:100680004DF90468054630460A22002100F0E2FBDD
:100690002C6070BD40EA0103024630B59B0710D1C3
:1006A0004FF0013400E008C208C91D1B9D4315EA44
:1006B000C41FF8D013F0FF0102F8011B0DD01B0A74
:1006C000F8E711F8013B002B02F8013B05D011F8C7
:1006D000013B002B02F8013BF3D130BD10B5431CA8
:1006E00002E010F8011B71B18107FAD14FF001321D
:1006F00002C88C1A8C4314EAC211F9D0C01A0A0637
:1007000003D0C01E10BDC01A10BD0A0401D0801E47
:1007100010BD0902FCD0401E10BD40EA010370B5B7
:100720009B072ED14FF00136042A2AD308C810C9DE
:100730009D1B9D43121F15EAC61517D0D8B2E1B212
:10074000401A50EA056110D198B2A1B2401A50EA9D
:1007500005410AD123F07F4024F07F41401A50EA3E
:10076000052102D1180EA0EB146070BDA342DBD0AE
:1007700018BA21BA884201D9012070BD4FF0FF306C
:1007800070BD0AB9002070BD10F8013B11F8014B93
:1007900063B1A3420AD1521E08D010F8013B11F8F0
:1007A000014B1BB1A34201D1521EEDD1181B70BDEC
:1007B000421E12F8013F002BFBD111F8013B002B28
:1007C00002F8013BF9D1704710B5203AC0F00B8018
:1007D000B1E81850203AA0E81850B1E81850A0E845
:1007E0001850BFF4F5AF5FEA027C24BFB1E818509F
:1007F000A0E8185044BF18C918C0BDE810405FEA0F
:10080000827C24BF51F8043B40F8043B08BF70478A
:10081000D20728BF31F8023B48BF11F8012B28BF8F
:1008200020F8023B48BF00F8012B70474FF0000250
:100830000429C0F0128010F0030C00F01B80CCF1F2
:10084000040CBCF1020F18BF00F8012BA8BF20F860
:10085000022BA1EB0C0100F00DB85FEAC17C24BFB4
:1008600000F8012B00F8012B48BF00F8012B70475E
:100870004FF0000200B5134694469646203922BF39
:10088000A0E80C50A0E80C50B1F12001BFF4F7AF84
:10089000090728BFA0E80C5048BF0CC05DF804EB66
:1008A000890028BF40F8042B08BF704748BF20F8D4
:1008B000022B11F0804F18BF00F8012B704710B5C4
:1008C000044610F0030F08BF11F0030F40F015802D
:1008D0004FF0013E121FC0F20E8051F8043BA3EB13
:1008E0000E0C2CEA030C1CEACE1C08BF40F8043B9B
:1008F000F0D0A1F1040102F10402521E08DB11F84C
:10090000013B002B00F8013BF7D11146FFF78EFFAA
:10091000204610BD70477047704700000048704780
:10092000E44100202DE9F0470D46994692460446E1
:1009300000F124080168880604D5E06921F010015F
:10094000216000E00120A84201DD471B00E00027F4
:10095000A1697A1902EB0900081AA0612078C00683
:1009600002D42046FFF772FD002608E0D4E90121F9
:100970001AF806009047206A401C761C20624E45FB
:10098000F4DB2078C0060AD52046FFF75FFD06E0BD
:10099000D4E9012130209047206A401C2062381E93
:1009A000A7F10107F4DC07E0D4E9012118F80500FC
:1009B0009047206A401C2062281EA5F10105F3DC47
:1009C0002046FFF759FD2078000602D50220BDE839
:1009D000F0870120FBE770472DE9FF4F0C461E46CC
:1009E0004FF0FF378BB0D2E90001DDF860800A904C
:1009F0008A46C1F30A5505B93D46002108464FF025
:100A00000000BAF1000F00F4400005DA00EB8000AE
:100A10004FF4400101EA50004FEA9059B9F1010F3B
:100A200000DDB9460A9850EA4A000ED044F610504C
:100A3000A5F2FF3545432F14B8F1000F1ED07542C3
:100A4000291E1EDDC9F100021CE0B8F1010F4FF0B4
:100A5000000001D0302103E0F24305E02154401CA6
:100A6000B042FBDB30460022002121540B99C1F833
:100A70000880C1E900200FB0BDE8F08FBD1B6D1CE0
:100A8000DEE74A4600DA694206A800F001FB06AB41
:100A900093E8070003AB83E8070050460A9900F08B
:100AA000E9FB8DE80700A0F500501F38009003987F
:100AB000002D0ADD42F21F014A460844002303A923
:100AC0000390684600F052FE09E0A0F500504A4647
:100AD0001F38002303A90390684600F05CFE8DE8F0
:100AE00007000004000C03D04FF0FF30410800E085
:100AF0001046B8F1000F03D00022009215461EE008
:100B0000751E05D400F0EEF9303262556D1EF9D530
:100B1000B3460122084302D000227F1C04E0207863
:100B2000302801D100227F1E002A099784D01DE0C1
:100B3000112D07DA00F0D6F9303262556D1C50EAFB
:100B40000102F5D1084302D00098C8B10EE000219F
:100B5000681E05E0235C625C63542254401E491CFD
:100B60008142F7DBAB46A81B401E0990002004F829
:100B70000B000B98099AC0F80880C0E9002B7AE7AF
:100B800011264FF0000857E72DE9F04F884604463C
:100B9000D21D22F0070191B0D1E90001CDE90A018F
:100BA00002F0D0FD02460B98C00F01D02D2007E0C7
:100BB0002068810701D52B2002E0202101EAC00036
:100BC000032A099001D0072A05DB03464146204647
:100BD00000F0CEF90BE12078800601D5E06900E055
:100BE0000620B8F1650F814606D0B8F1660F18D01F
:100BF000B8F1670F70D131E00020B9F1110F00900A
:100C000001DB112301E009F101030AAA01A90CA8E3
:100C1000FFF7E2FEDDE90C70002609F101058346CD
:100C200047E001204B4600904FF000470AAA01A977
:100C30000CA8FFF7D1FEDDE90DB00C995D4600264A
:100C400010B909F101000D18B9EB050003D4C0F18A
:100C5000FF3609F10105A5EB09002BE0B9F1010F01
:100C600001DA4FF001090020B9F1110F0090484658
:100C700001DD112300E003460AAA01A90CA8FFF731
:100C8000ABFEDDE90C704D46002683462078000758
:100C90000AD4AB4500DA5D4601A8012D04DD4119F7
:100CA00011F8011C302907D04F4502DA17F1040F63
:100CB00004DA012082460FE06D1EEEE7002F02DC11
:100CC000ED1B3E4403E0781CA84200DD7D1CB81BF0
:100CD00000F1010A4FF000472078000703D4AA452D
:100CE00001DB4FF0FF3A0021B7F1004F0DF143084F
:100CF0008DF8431024D002202B23002F01DA7F42ED
:100D00002D230A21021EA0F1010000DC5FB197FB38
:100D1000F1FC97FBF1F201FB1C7C17460CF1300C47
:100D200008F801CDEEE7A8F101000370218809055C
:100D300001D5452100E06521A0F1010800F8011C62
:100D400009980FA9A1EB0807FF1D00B10120411967
:100D500001EBEA70A1693844081A401EA0612078AE
:100D6000C00602D42046FFF771FB099828B1D4E9E8
:100D700001219047206A401C20622078C00622D5BD
:100D80002046FFF763FB1EE0002E04DBB34502DDC7
:100D900001A8805D00E03020D4E901219047206A5D
:100DA000401C2062761CAAF101005FEA000A0AD109
:100DB00000F094F8C0680168405CD4E901219047D4
:100DC000206A401C2062281EA5F10105DCDC07E03A
:100DD000D4E9012118F8010B9047206A401C2062D9
:100DE000381EA7F10107F3DC2046FFF745FB03207F
:100DF00011B041E601694A1C02610878704700B5EC
:100E00008FB0CDE901310021059105497944CDE943
:100E1000031011466846FFF7A9FB0FB000BD0000A4
:100E2000E5FFFFFF0A6802F8010B0A607047000047
:100E3000074B70B50D467B44FFF7E1FF044628469B
:100E400000F098F910B14FF0FF3070BD204670BD32
:100E5000FF3400002DE9F04791460F4680460446D6
:100E6000002614F8015B2DB100F030F80068405DF9
:100E7000C007F6D12B2D02D02D2D18D0641E4A4666
:100E80003946204600F0B4F827B13968A14201D1B3
:100E9000C7F800804FF0020471050BD540420028CE
:100EA00003DDFFF73BFD0460A007BDE8F08746F4D3
:100EB0008066E4E70028F8DAFFF730FD04606FF0A1
:100EC0000040F2E700487047E441002010B500F010
:100ED00005F8001D10BD00BF616D0000004870479F
:100EE0000442002030B5B0F10A024FEA900E71F1D1
:100EF00000034EEA817EB0EB0E0061EB91014FEAF8
:100F0000101E4EEA017E10EB0E0041EB11114FEA6C
:100F1000102E4EEA016E10EB0E0041EB11214FEA4C
:100F2000104E4EEA014E10EB0E0041EB11414018FD
:100F300041F100014FEAD00040EA41704FEAD1018F
:100F400010EB80054FEA810444EA907444EB0104FD
:100F50006D1944EB0404521BA3414FF0000348BF3A
:100F60000A3200D530BD401C41F1000130BD000007
:100F70002DE9F0411F46044603260168072A01F4C3
:100F8000006004DB08B116A505E016A503E008B172
:100F900015A500E015A521F010002060A069C01E75
:100FA000A0610FB1401EA0612046FFF74FFA4FB17C
:100FB000D4E9012138469047206A401C2062C01CB9
:100FC000206206E0206AFAE7D4E9012115F8010B56
:100FD0009047761EF8D22046FFF74EFABDE8F08122
:100FE0004E414E006E616E00494E4600696E6600CD
:100FF0002DE9F05F824615468B4600270AF1010471
:10100000B9460078302801D09DB113E014F8010BE7
:101010000127782803D0582801D045B10AE00DB146
:10102000102D07D1002714F8010B102502E0082528
:1010300000E00A250026B0460EE005FB080005FB8F
:1010400006F101271FFA80F801EB1046B6F5803F44
:1010500000D3B94614F8010B294600F0B4F8002873
:10106000EBDABBF1000F05D00FB1641E00E054466F
:10107000CBF80040B9F1000F06D0FFF74FFC02217A
:101080000160C81EBDE8F09F48EA0640FAE700008C
:101090002DE9F047814616468AB0354878440DC898
:1010A0008DE80D0032487844801C03AC0DC884E8FC
:1010B0000D0041F69B300844372190FBF1F290FB84
:1010C000F1F5A5F1800501FB12041B3C02D5644239
:1010D000012000E00020DFF898A080460027FA44B5
:1010E000AAF1BE0A0EE0E0070AD03246684607EBD6
:1010F000470101230AEB810100F04DFB8DE8070059
:1011000064107F1C002CEED1194F7F44AE3F19E0D4
:10111000E80715D007EB04100DF1180A90E80E004F
:101120008AE80E00C068F04201D198190890324652
:10113000012306A903A800F02EFB03AB83E80700F8
:101140006D10641C002DE3D14FF001033246694657
:10115000B8F1000F03A802D000F008FB01E000F096
:101160001AFBC9E90001C9F808200AB0BDE8F087F8
:101170008C8B0000007B00F0800070477546FFF705
:10118000A1FEAE4605006946534620F0070085469D
:1011900018B020B5FFF78EF8BDE820404FF00006EC
:1011A0004FF000074FF000084FF0000B21F007014F
:1011B000AC46ACE8C009ACE8C009ACE8C009ACE892
:1011C000C0098D4670473A2800D2303820F02002FE
:1011D000412A01D3A2F13700884201D34FF0FF30FA
:1011E000704710B50446AFF300802046BDE81040BC
:1011F000FFF74CB84FF0013C50F8042B51F8043B7A
:101200009A4221D1A2EB0C03934313EACC1317D1DA
:1012100050F8042B51F8043B9A4215D1A2EB0C0371
:10122000934313EACC130BD150F8042B51F8043B31
:101230009A4209D1A2EB0C03934313EACC13DBD0FF
:101240004FF00000704700BFD01A01BAB1FA81F127
:1012500001F0180122FA01F0CB40C1F12001DBB20C
:10126000C0B2C01A2CFA01F3D11A914311EAC3118A
:10127000E6D170475FEA400C08BF91F0000F4FEADB
:101280008C234FEAC12243EA51514FEA1C5018BF48
:1012900000F5F0404FEA300018BF41F000415FEA2E
:1012A0006C5C00F02980BCF1FF3F08BF40F080403B
:1012B0007047130C06BF12044FF0100C4FF0000CD7
:1012C000130E04BF12020CF1080C130F04BF12011D
:1012D0000CF1040C930F04BF92000CF1020CD30F1D
:1012E00004BF52000CF1010C11464FF00002A0F1B6
:1012F0001F00A0EB0C00704711F0004F08BF7047B3
:1013000031F000413FF4D5AF0B0C06BF09044FF09C
:10131000100C4FF0000C0B0E04BF09020CF1080C6E
:101320000B0F04BF09010CF1040C8B0F04BF8900E3
:101330000CF1020CCB0F04BF49000CF1010CCCF1F5
:101340002003A0EB0C0022FA03F302FA0CF241EAAC
:10135000030100F10100704720F07F4C80EA030098
:1013600023F07F47ACEB070303F57C5300F000400C
:1013700003F1FF032DE980494FEA154B09B44FEA09
:10138000144325EA0B4E24EA03480FF2042606EB29
:10139000132749083E785FEA320203FB0667C7F568
:1013A000000707FB06F64FEA54374FEAD64606F128
:1013B000020607FB066CCCF1005C4FEA1C472CEAE6
:1013C000074C07FB06F40CFB06F504EB15464FEA49
:1013D000961634BF00204FF000404FEAD13706FB8D
:1013E00007FC4FEA1C4C0CFB0BF7D21B03FB0CF762
:1013F00061EB07010CFB0EF7B0EB074072EB1742F5
:101400000CFB08F734BFA2EB0742B2EB074261EBDB
:1014100017414FEA0C444FEA910706FB07FC4FEADD
:101420001C4C0CFB0BF7B0EBC74072EB573203FBC5
:101430000CF734BFA2EBC742B2EBC74261EB5731A6
:101440000CFB0EF7B0EBC70072EB57720CFB08F702
:1014500034BFA2EBC702B2EBC70261EB5771039F27
:101460004FEA816141EA921104EBCC044FEAD13793
:101470004FEA826206FB07FC42EA90124FEA806064
:101480004FEA1C4C0CFB0BF7D21B03FB0CF761EB78
:1014900007010CFB0EF7B0EB074072EB17420CFB99
:1014A00008F734BFA2EB0742B2EB074261EB1741EA
:1014B0004FEA8C554FEA910704EB9C2406FB07FC8E
:1014C0004FEA1C4C0CFB0BF7B0EBC74072EB5732EA
:1014D00003FB0CF734BFA2EBC742B2EBC74261EB90
:1014E00057310CFB0EF7B0EBC70072EB57720CFBD9
:1014F00008F734BFA2EBC702B2EBC70261EB57712A
:1015000015EB4C254FEA816141EA92114FEA826264
:101510004FEAD13742EA901206FB07FC44F100047F
:101520004FEA80604FEA1C4C0CFB0BF7D21B03FB0D
:101530000CF761EB07010CFB0EF7B0EB074072EB09
:1015400017420CFB08F734BFA2EB0742B2EB07428D
:1015500061EB174115EB1C154FEA813141EA9241CD
:101560004FEA823242EA90424FEA80304FEA0C76EC
:1015700044F1000448EA03434EEA0B484FF0000EE2
:10158000B2EB080C71EB030724BF624639464EEB01
:101590000E0E4FF0000B0018524149414BEB0B0B64
:1015A000B2EB080C71EB03077BF1000B24BF624622
:1015B00039464EEB0E0E4FF0000B001852414941D8
:1015C0004BEB0B0BB2EB080C71EB03077BF1000B41
:1015D00024BF624639464EEB0E0E51EA020718BF91
:1015E00046F0010616EB0E7655F1000254F10001AB
:1015F00003D5BDE88901BDE80088BDE88901BDE8E3
:101600000048B619524141EB0101A3F101037047B3
:1016100080807F7E7D7C7B7A79787776767574732F
:10162000727171706F6E6E6D6C6C6B6A6A696868EE
:10163000676666656464636362616160605F5F5E84
:101640005E5D5D5C5C5B5B5A5A59595858575756FA
:10165000565555555454535352525251515050505F
:101660004F4F4F4E4E4D4D4D4C4C4C4B4B4B4A4AB1
:101670004A494949484848474747474646464545F5
:10168000454444444443434343424242424141412E
:10169000002B9C4630D477002BD01CB54FEA37077F
:1016A00003B44FF010004FF01001BAF1000F06D054
:1016B000BCF1000FDCBF40F0080040F008014FF023
:1016C00000000FBCBDE810400BF1010BBBF1010F96
:1016D00008BF5FEA170722BF12F1010211F10101F1
:1016E0004FF0004143F1000300F0004043EA0000E6
:1016F0007047F9D35708D0E746EA064613F1400F82
:101700004FEA16461FDD13F1200FDFBF16430A46CE
:10171000002120335B42BED0C3F1200746EA0646D3
:1017200002FA07F74FEA164646EA0706C3F1200712
:1017300022FA03F201FA07F721FA03F14FF000034E
:1017400042EA0702A7E746EA020646EA06464FEAE9
:10175000164646EA0106BCBF46EA0646360C4FF07E
:1017600000034FF000024FF0000194E72DE9804C98
:101770009A46934670B491E8380007C831EA400CA5
:1017800048BF34EA430C03D5FFF7E6FDFFF780FFBF
:10179000F0BCBDE8008C2DE9804C9A46934670B4AD
:1017A00091E8380007C810F0804F08BF13F0804F51
:1017B00003D100F005F8FFF76BFFF0BCBDE8008C2B
:1017C00020F07F4780EA030023F07F4C07EB0C03F7
:1017D000A3F57C5300F00040A3F1FE0392F0000F4C
:1017E00000F0B38095F0000F00F077802DE90149FB
:1017F0004FEA11404FEA144621EA004800FB06FC7C
:1018000024EA064708FB06F607FB08F800FB07F783
:1018100018EB06484CEB164C4FEA124B18EB0748F6
:101820004FEA15464CEB174022EA0B4E0BFB06FC29
:1018300025EA06470EFB06F607FB0EFE0BFB07F735
:101840001EEB064E4CEB164C4FF000061EEB074EFF
:101850004CEB174B18EB0B0840F1000018EB0E0B8C
:1018600058EB000840F100008F1A4FF000013CBF18
:10187000C943661B14BFB5EB040C00213CBFC94330
:10188000F61B4FEA17444EEA8E0E27EA04454FEA4C
:101890001C4704FB07622CEA074C05FB07F70CFB0F
:1018A00005F604FB0CFC16EB074642EB174216EB61
:1018B0000C4642EB1C421BEB060658EB0202414170
:1018C00046EA9E0601D5BDE80189B619524141EBB1
:1018D0000101A3F10103BDE801894FEA14454FEA74
:1018E000114724EA054621EA074C05FB07F406FBED
:1018F00007F70CFB06F105FB0CFC11EB074144EB71
:1019000017444FEA124711EB0C4144EB1C4422EA06
:10191000074C05FB07F206FB07F70CFB06F605FB79
:101920000CFC16EB074642EB174216EB0C4642EB5B
:101930001C456A1854F1000148BF7047B61952415E
:1019400041EB0101A3F10103704795F0000F37D07F
:101950004FEA11424FEA144721EA024624EA074CB3
:1019600002FB07F106FB07F70CFB06F402FB0CFC7D
:1019700014EB074441EB17414FEA154714EB0C44B5
:1019800041EB1C4125EA074C02FB07F506FB07F774
:101990000CFB06F602FB0CFC16EB074645EB174565
:1019A00016EB0C4645EB1C42121951F1000148BFE1
:1019B0007047B619524141EB0101A3F10103704791
:1019C0004FEA14454FEA114724EA054621EA074C3D
:1019D00005FB07F106FB07F70CFB06F24FF00006CC
:1019E00005FB0CFC12EB074241EB174112EB0C42DA
:1019F00051EB1C4148BF7047921841EB0101A3F124
:101A00000103704710B505F0FDFD002010BD00007A
:101A100010B54FF400610C4800F080FC642005F024
:101A200009FA4FF48051084800F07AFC642005F070
:101A300001FA4FF40061044800F070FC4FF480514B
:101A4000014800F06BFC10BD001002401CB50121E4
:101A5000022000F09BFF0121082000F097FF0121E8
:101A6000102000F093FF4FF47840009001208DF893
:101A7000040000208DF8060003208DF805000120E9
:101A80008DF807006946184800F0D4FB4FF48050E9
:101A9000009001208DF8040000208DF8060003203E
:101AA0008DF8050001208DF8070069460F4800F009
:101AB000C1FB4FF6FF70009000208DF8040001205C
:101AC0008DF8070069460A4800F0B4FB4FF4005057
:101AD000009000208DF8040001208DF80700694671
:101AE000024800F0A7FB1CBD0010024000040240A9
:101AF000000C024030B50B46144600210022DFEDF9
:101B0000280AB0EE600A00BF47E04A1C42E0FCB978
:101B100000EB8105D5ED000A00EB820595ED001A7A
:101B2000F4EEC10AF1EE10FA33DD00EB8105D5EDDC
:101B3000000AB0EE600A00EB8205D5ED000A00EB6A
:101B40008105C5ED000A00EB820585ED000A20E065
:101B5000012C1ED100EB8105D5ED000A00EB8205BA
:101B600095ED001AF4EEC10AF1EE10FA11D200EB75
:101B70008105D5ED000AB0EE600A00EB8205D5EDD7
:101B8000000A00EB8105C5ED000A00EB820585ED3A
:101B9000000A521C9A42BAD3491C9942B5D330BDAF
:101BA0000000000000BFFEE700B585B001218803FA
:101BB00000F00CFF0121102000F0E8FE4FF4C0609F
:101BC000039000208DF8100001208DF8130003A968
:101BD000154800F02FFB0921042000F07DFF4FF491
:101BE0000070009000208DF8040010208DF8050092
:101BF00001208DF80600684600F066FA17208DF87F
:101C0000080001208DF8090002208DF80A0001204B
:101C10008DF80B0002A800F0C5FB4FF4007000F037
:101C200041FA05B000BD0000001002401CB50121C2
:101C3000102000F0ABFE4020009001208DF8040041
:101C400000208DF8060003208DF8050001208DF896
:101C500007006946014800F0EDFA1CBD0010024083
:101C600010B504F0E7F800F0B1F8332000F044F9C3
:101C7000002405E000F028F80C490855601CC4B2A7
:101C8000082CF7DB04F0E6F809A0FEF7BFFB002400
:101C900006E00648015D09A0FEF7B8FB601CC4B26F
:101CA000082CF6DB07A0FEF7B1FB10BD14000020E6
:101CB000526F6D5F416464723A200000307825787D
:101CC000200000000D0A000070B5002400254DE042
:101CD00064103D48006820F440503B4908600846C5
:101CE000006840F4805008600846406820F04000DA
:101CF00048600846406840F04000486008468068F8
:101D000020F4405088600846806840F44050886065
:101D10000846C06820F44050C8600846C06840F4D7
:101D20008050C86040204883022000F038F92648DF
:101D3000006820F44050244908600846C06820F438
:101D40004050C8600846C06840F48050C860022017
:101D500000F025F91C48006900F0400008B144F08B
:101D60008004422000F01BF9681CC5B2082DAFDBCF
:101D70001548006820F44050134908600846006880
:101D800040F4805008600846406820F040004860F9
:101D90000846406840F0400048600846806820F4EB
:101DA000405088600846806840F44050886008468B
:101DB000C06820F44050C8600846C06840F48050B5
:101DC000C860204670BD00000010024010B53C48BD
:101DD000006820F440503A4908600846006840F422
:101DE000805008600846406820F04000486008467F
:101DF000406840F0400048600846806820F4405049
:101E000088600846806840F4405088600846C06892
:101E100020F44050C8600846C06840F48050C86054
:101E2000402048834FF4FF7000F0B9F84020244967
:101E300008830846006820F4405008600846C068DF
:101E400020F44050C8600846C06840F48050C86024
:101E50003F2000F0A4F81A48006900F04004F02088
:101E600000F09DF81648006820F4405014490860BE
:101E70000846006840F4805008600846406820F03A
:101E8000400048600846406840F04000486008460E
:101E9000806820F4405088600846806840F44050D4
:101EA00088600846C06820F44050C8600846C06892
:101EB00040F48050C86040200883204610BD0000D8
:101EC0000010024010B503F0B5FFFFF77FFF20B10F
:101ED00003F0C0FF9FED060A10BDCC2000F00CF807
:101EE000442000F009F803F0B5FF9FED020AF3E784
:101EF0000000AAC20000000070B504462648006831
:101F000020F44050244908600846006840F480509E
:101F100008600846406820F0400048600846406875
:101F200040F0400048600846806820F440508860D7
:101F30000846806840F4405088600846C06820F435
:101F40004050C8600846C06840F48050C860002512
:101F50001EE004F0010060B140200F4948830220D8
:101F600000F01DF840200C490883452000F017F8C8
:101F70000BE0402008494883452000F010F840203D
:101F800005490883022000F00AF86410681CC5B2F5
:101F9000082DDEDB70BD000000100240704701B567
:101FA0004FF0E02149694FF47A72B1FBF2F1009AE7
:101FB000514300914FF0E021886900BF4FF0E021CC
:101FC0008969411A009A9142F8D308BD10B502F010
:101FD000B7FC10BD70B50446002503F02BFF02F0DE
:101FE00069FDA02002F02AFD02F0B0FD200A02F0F7
:101FF00025FD02F0ABFDE0B202F020FD02F0A6FDEF
:1020000002F058FDA12002F019FD02F09FFD002012
:1020100002F0E0FC054602F073FD03F01BFF2846CA
:1020200070BD70B504460D4603F004FF02F042FD9A
:10203000A02002F003FD02F089FD200A02F0FEFC60
:1020400002F084FDE0B202F0F9FC02F07FFD2846C8
:1020500002F0F4FC02F07AFD02F052FD03F0FAFE09
:1020600070BD000010B54FF4007000F021F848B1C9
:1020700005A0FEF7CBF90A4804F072FC4FF400709B
:1020800000F010F810BD000045585449395F355F25
:1020900049525148616E646C65720D0A000000007F
:1020A000782800200149086070470000143C014076
:1020B00001460020034A12680A400AB1012000E0EC
:1020C00000207047143C0140002123498279002AF6
:1020D0003AD00A46126803689A430B461A600A1DF2
:1020E000126803689A430B1D1A60027911440A684A
:1020F00003681A430A60184A0832126803689A4350
:10210000154B08331A601A1D126803689A43124B64
:102110000C331A604279102A0ED11A1F1268036814
:102120001A430D4B08331A601A1D126803681A43CC
:10213000094B0C331A600DE00749427911440A68D3
:1021400003681A430A6005E0027911440A680368CB
:102150009A430A6070470000003C01401CB5012111
:10216000084600F013FC0121022000F00FFC0121C1
:10217000042000F00BFC0121082000F007FC0121E5
:10218000102000F003FC4FF48450009001208DF8E3
:10219000040000208DF8060003208DF805000120C2
:1021A0008DF807006946204800F044F8112000909F
:1021B00001208DF8040000208DF8060003208DF822
:1021C000050001208DF807006946184800F032F834
:1021D0002020009001208DF8040000208DF80600DA
:1021E00003208DF8050001208DF80700694610488E
:1021F00000F020F84020009000208DF8040001201D
:102200008DF807006946084800F014F81420009083
:1022100000208DF8040001208DF80700694604486D
:1022200000F008F81CBD0000000002400008024059
:1022300000100240F0B50A4600210023002400BF30
:102240003DE0012505FA01F3156805EA03049C4207
:1022500034D105684F000326BE40B54305601579AB
:102260004E00B5400668354305601579012D02D052
:102270001579022D16D185684F000326BE40B5435F
:10228000856055794E00B540866835438560456860
:1022900001268E40B5434560456896798E40B6B2BA
:1022A00035434560C5684F000326BE40B543C56051
:1022B000D5794E00B540C6683543C560491C102924
:1022C000BFD3F0BDF0B5002300244D07ED0E02FA98
:1022D00005F3CE1000F1200555F826504E07F70EF5
:1022E0000F26BE40B543CF1000F1200646F8275018
:1022F000CE1000F1200555F8265045EA0304CE1013
:1023000000F1200545F82640F0BD02460020136983
:102310000B400BB1012000E0002070474183704763
:102320000183704742694A404261704710B54FF4DB
:10233000C06000F073F800F00DF801F003FD02F04A
:10234000F7F9FFF70BFFFFF771FCFFF77FFBFFF7D4
:102350003DFE10BD10B5104800684FF47A71B0FB17
:10236000F1F4601EB0F1807F00D30FE0601E4FF0EB
:10237000E02148610F214FF0FF3000F059F80020B4
:102380004FF0E02188610720086100BF0021481E4E
:1023900000F04EF810BD0000B003002000BFFEE7C3
:1023A0007047000070B5002100230F22C4781CB3D1
:1023B000174C246804F4E064C4F5E064C4F3072116
:1023C000C1F10404E3B20A4144789C40E1B284784C
:1023D000144021430C07210E0E4C057861550478FA
:1023E00004F01F050124AC4005786D11AD0005F126
:1023F000E025C5F8004109E0047804F01F05012438
:10240000AC40054D0678761145F8264070BD0000B9
:102410000CED00E000E400E080E100E0024901434F
:10242000024A1160704700000000FA050CED00E060
:1024300010B5002807DA0A07140E054A00F00F034A
:102440001B1FD45403E00A07130E024A135410BD95
:1024500018ED00E000E400E070B5002418E004F19D
:10246000B000002100F086F90021084600F082F952
:102470000021102000F07EF9002505E00121002058
:1024800000F078F9681CC5B2802DF7DB601CC4B27F
:10249000082CE4DB70BD10B503F08AFAC82004F004
:1024A000C9FC0021AE2000F065F90021084600F0CB
:1024B00061F90021102000F05DF90021402000F0BA
:1024C00059F90021B02000F055F90021812000F0D9
:1024D00051F90021FF2000F04DF90021A12000F06A
:1024E00049F90021A62000F045F90021A82000F0BC
:1024F00041F900213F2000F03DF90021C82000F003
:1025000039F90021D32000F035F90021084600F008
:1025100031F90021D52000F02DF90021802000F0B4
:1025200029F90021D82000F025F90021052000F02C
:1025300021F90021D92000F01DF90021F12000F03F
:1025400019F90021DA2000F015F90021122000F01D
:1025500011F90021DB2000F00DF90021302000F0FE
:1025600009F900218D2000F005F90021142000F068
:1025700001F90021AF2000F0FDF8FFF76DFFFFF734
:102580006BFF10BD70B504460D4605F1B00000218B
:1025900000F0F0F8102141EA1410002100F0EAF8F0
:1025A00004F00F00002100F0E5F870BD2DE9F047C0
:1025B0008246884615469946002600240027A5F144
:1025C0002000C6B2BAF17F0F04DDA24608F1020076
:1025D00000F0FF08B9F1100F25D141465046FFF732
:1025E000D1FF002408E004EB06114D4A505C0121A4
:1025F00000F0C0F8601CC4B2082CF4DB08F1010044
:10260000C1B25046FFF7BEFF002409E004EB0611FB
:102610000831434A505C012100F0ACF8601CC4B2A0
:10262000082CF3DB79E0B9F10C0F13D14146504689
:10263000FFF7A8FF00240AE006EB4601394A02EB47
:102640004101085D012100F095F8601CC4B2062C20
:10265000F2DB62E0B9F1300F2DD1302D05DB392DE1
:1026600003DCA5F13000C6B206E02E2D01D10A260A
:1026700002E0412D00D10B26002419E008EB0400F4
:10268000C1B25046FFF77EFF00270DE006EBC60102
:10269000254A02EB0111182202FB0472885C012119
:1026A00000F068F8781CC7B2182FEFDB601CC4B2CA
:1026B000062CE3DB31E0B9F1240F2ED1302D05DB00
:1026C000392D03DCA5F13000C6B206E02E2D01D174
:1026D0000A2602E0412D00D10B2600241BE008EB66
:1026E0000400C1B25046FFF74DFF00270FE0C6EBD4
:1026F000061101EB41010D4A02EB4101122202FBDE
:102700000472885C012100F035F8781CC7B2122FE2
:10271000EDDB601CC4B2052CE1DBBDE8F0870000F6
:102720007E890008568700086E8F00082E960008E4
:102730002DE9F0410446884615461E46002714E060
:10274000EA5D334641462046FFF730FF304606EB50
:10275000D07104EB6101CCB2782C04DD002408F1C7
:10276000020000F0FF08781CC7B2E85D0028E7D13E
:10277000BDE8F08170B504460D461DB1E0B200F031
:102780006BF802E0E0B200F051F870BD00B52DED3D
:10279000068B83B00020019002901B48B0F9000026
:1027A00005F0CBFC41EC1A0B9FED180B53EC102BF2
:1027B00005F02AFD41EC190B9FED160B53EC102B85
:1027C00005F036FB41EC180B53EC182B13A101A8B4
:1027D000FDF728FE242301AA02210A20FFF7A8FF03
:1027E000242310A202216420FFF7A2FF0E480078E4
:1027F00030B90021AF20FFF7BDFF01200A49087062
:1028000003B0BDEC068B00BD0800002000000000F6
:102810000000F03F000000000000594025312E323A
:1028200066000000410000009C03002010B5044633
:1028300003F032F9782003F0F5F803F079F900207D
:1028400003F0F0F803F074F9204603F0EBF803F01E
:102850006FF903F047F910BD10B5044603F01CF9F9
:10286000782003F0DFF803F063F9402003F0DAF892
:1028700003F05EF9204603F0D5F803F059F903F0B0
:1028800031F910BDB0EE401A31EE600A294880EDF2
:10289000000A90ED000AD0ED011A30EE610AD0ED89
:1028A000031A20EE210AD0ED041A90ED002A01EE61
:1028B000820AD0ED001A90ED012AF0EE002A42EED5
:1028C000C21A90ED022A71EE821A90ED052A02EEEC
:1028D000210A80ED060A90ED070AD0ED061A30EEC7
:1028E000210A80ED070A90ED010A80ED020A90EDC1
:1028F000000A80ED010A90ED070AB5EEC00AF1EE7C
:1029000010FA04D29FED0C0A80ED070A0DE0094889
:1029100090ED070ADFED091AB4EEE10AF1EE10FAC4
:1029200003DD9FED060A80ED070A024890ED070AD5
:1029300070470000D0280020000000000000C842BE
:102940009FED100A104880ED000A9FED0E0A80ED01
:10295000010A9FED0C0A80ED020AB3EE040A80ED35
:10296000030AB0EE000A80ED040A9FED060A80ED2E
:10297000050A9FED040A80ED060A9FED020A80ED2C
:10298000070A704700000000D028002029B1064A3D
:1029900012680243044B1A6004E0034A126882433F
:1029A000014B1A60704700003038024029B1064AD6
:1029B00012680243044B1A6004E0034A126882431F
:1029C000014B1A60704700004038024029B1064AA6
:1029D00012680243044B1A6004E0034A12688243FF
:1029E000014B1A607047000044380240F0B50021E6
:1029F00000220024022500260223324F3F6807F000
:102A00000C0121B1042905D0082937D105E02E4F4A
:102A1000076036E02D4F076033E02A4F3F1F3F68C5
:102A2000C7F38056274F3F1F3F6807F03F036EB143
:102A3000264FB7FBF3F7DFF88CC0ACF1040CDCF8E1
:102A400000C0CCF3881C07FB0CF40CE01E4FB7FB56
:102A5000F3F7DFF870C0ACF1040CDCF800C0CCF385
:102A6000881C07FB0CF4174F3F1F3F68C7F3014753
:102A70007F1C7D00B4FBF5F7076002E0124F076092
:102A800000BF00BF0F4F3F6807F0F0010909104F6A
:102A90007A5C0768D74047600A4F3F6807F4E05107
:102AA000890A0B4F7A5C4768D7408760054F3F68BB
:102AB00007F46041490B064F7A5C4768D740C7600E
:102AC000F0BD0000083802400024F40000127A0033
:102AD0009D0300207047000030B500228B071C0FBB
:102AE0000F2303FA04F20B4B8C1053F8243093435A
:102AF000084C8D1044F8253023468C1053F82430B0
:102B00008C07240F00FA04F42343024C8D1044F880
:102B1000253030BD083801400CB5002001900090F0
:102B20003448006840F480303249086000BF3148C2
:102B3000006800F4003000900198401C019000985B
:102B400018B90198B0F5A04FF1D12A48006800F4F7
:102B5000003010B10120009001E0002000900098AA
:102B6000012846D123484030006840F08050214978
:102B7000403108602048006840F440401E49086029
:102B80001C48083000681B49083108600846006886
:102B900040F4004008600846006840F4A050086017
:102BA0001648091F0860081F006840F08070091F60
:102BB000086000BF0F48006800F000700028F9D0DE
:102BC00040F205700E4908600A480830006820F09D
:102BD00003000849083108600846006840F0020018
:102BE000086000BF03480830006800F00C000828A7
:102BF000F8D10CBD00380240007000400854400776
:102C0000003C024010B52DED028BB0EE408AB0EED4
:102C1000480A00F0E5FABDEC028B10BD10B5044681
:102C2000012C0BD141031A48FFF778FB00BF00BF0E
:102C30004FF400511648FFF773FB28E0022C0BD12C
:102C400061031348FFF76AFB00BF00BF4FF48041E8
:102C50000F48FFF765FB1AE0032C0CD14FF400413D
:102C60000B48FFF75BFB00BF00BF4FF40041084873
:102C7000FFF756FB0BE0042C09D14FF460400449E8
:102C8000488300BF00BF4FF460400149088310BD76
:102C90000010024010B503F099FD10BD70B5002082
:102CA0000022022300240221274D2D6805F00C008C
:102CB00020B1042806D0082834D107E0234D244E43
:102CC000356033E0234D224E35602FE01E4D2D1F21
:102CD0002D68C5F380541C4D2D1F2D6805F03F0154
:102CE00054B11C4DB5FBF1F5174E361F3668C6F3CF
:102CF000881605FB06F209E0144DB5FBF1F5124EFE
:102D0000361F3668C6F3881605FB06F20E4D2D1FDA
:102D10002D68C5F301456D1C6B00B2FBF3F50C4E3D
:102D2000356003E0094D0A4E356000BF00BF064D17
:102D30002D68C5F30315084E705D054D2D68C5401F
:102D4000034E356070BD0000083802400024F400D6
:102D5000B003002000127A00B403002010B515481B
:102D6000006840F47000134908601348006840F0A0
:102D700001001149086000200F49083108600E4821
:102D800000680E4908400C4908600D48091D08609C
:102D9000081F006820F48020091F086000200649F1
:102DA0000C310860FFF7B8FE4FF000600149803930
:102DB000086010BD88ED00E000380240FFFFF6FE1D
:102DC0001030002410B50748008A00F0010040B11F
:102DD000054803F0C5FD0348008A20F001000149C1
:102DE000088210BD00100040F828002021B10288A0
:102DF00042F08002028004E002884FF67F731A409E
:102E00000280704721B1028842F00102028004E092
:102E100002884FF6FE731A40028070471AB1838908
:102E20000B43838102E083898B43838170470000D9
:102E300070B5002400220023058C4FF6EF76354054
:102E40000584028C8388048B48F6FF752C404FF66E
:102E5000FF452C400D884FF6FF7606EA05252C43EA
:102E60004FF6DF752A408D8906EA05152A434D88FD
:102E700006EA05152A43154DA84202D0144DA84272
:102E80001DD14FF67F752A40CD894FF6FF7606EAB1
:102E900005152A434FF6BF752A408D8806EA0515A9
:102EA0002A434FF6FF352B404FF2FF752B400D8A1A
:102EB00006EA85052B434D8A06EA85052B43838068
:102EC00004838D688563028470BD000000000140AA
:102ED000000401400A460021018B4FF2FF731940A4
:102EE0004FF6FF7303EA0223194301837047000082
:102EF00070B5002400220023058C4FF6FF66354094
:102F00000584028C8388848B4FF68F752C404FF696
:102F1000FC752C400D882C434FF6FF552A408D89B7
:102F20004FF6FF7606EA05252A434D8806EA052571
:102F30002A43154DA84202D0144DA8421DD14FF28C
:102F4000FF752A40CD894FF6FF7606EA05252A430C
:102F50004FF6FF352A408D8806EA05252A434EF6AE
:102F6000FF752B404DF6FF752B400D8A06EA0515BF
:102F70002B434D8A06EA05152B43838084838D6895
:102F8000C563028470BD00000000014000040140E0
:102F90000A460021818B4FF6F77319401143818354
:102FA0007047C1637047000000220288184B9842A6
:102FB0000ED0184B98420BD0B0F1804F08D0164B72
:102FC000984205D0154B984202D0154B984204D137
:102FD0004FF68F731A404B881A43124B984207D012
:102FE000114B984204D04FF6FF431A400B891A4305
:102FF00002804B68C3620B880385054B984202D060
:10300000044B984201D18B7A038601238382704757
:10301000000001400004014000040040000800409E
:10302000000C0040001000400014004010B52DEDD1
:103030000C8B8AB0B0EE408A002008EE900A9FED1B
:103040004D0AB0EE409A01210846FFF79FFC01218E
:103050000846FFF7ABFC012202214748FFF732F98F
:103060000420089002208DF8240000208DF826000E
:1030700003208DF8250001208DF8270008A93E487F
:10308000FFF7D8F804213C48FFF748F99FED3B0AC9
:10309000B0EE409AB5EEC09AF1EE10FA03D8B7EE52
:1030A000000AB0EE409AB5EEC08AF1EE10FA03D2F3
:1030B0009FED300AB0EE408A9FED310AB4EEC08A2F
:1030C000F1EE10FA03DD9FED2B0AB0EE408A2D4899
:1030D00008EE900AF8EE680A80EE890AF7EE000A18
:1030E00030EE600ABCEEC00A8DED060A0020ADF895
:1030F0001400ADF81600ADF81C0005A94FF0804093
:10310000FFF752FF6020ADF800000120ADF802008B
:10311000F8EE680A80EE890AF7EE000A30EE600ADF
:1031200010EE104A204605F099FA41EC1B0B18EE00
:10313000100A05F093FA41EC1D0B9FED130B53ECB5
:10314000102B04F075FE41EC1C0B53EC1B2B05F00F
:103150005BF841EC1A0B04F0C3FF02900020ADF8BD
:103160000C0069464FF08040FFF7C2FE0AB0BDEC8C
:103170000C8B10BD00000000000002400050C34650
:103180000000C84200BD01050000000000005940D9
:103190001CB50420009002208DF8040000208DF85A
:1031A000060001208DF8070003208DF80500694610
:1031B0000A48FFF73FF8012202210848FFF782F88A
:1031C0000821C806FFF7E4FE01218807FFF70EFE7D
:1031D00001218807FFF716FE1CBD00000000024019
:1031E00070B52DED0C8BB0EE408A002008EE900AF1
:1031F0009FED200AB0EE409A9FED1F0AB0EE409A74
:10320000B5EEC09AF1EE10FA03D8B7EE000AB0EEB0
:10321000409A1A4808EE900AF8EE680A80EE890A89
:10322000F7EE000A30EE600A10EE105A284605F05C
:1032300015FA41EC1B0B18EE100A05F00FFA41ECE1
:103240001D0B9FED0F0B53EC102B04F0F1FD41EC27
:103250001C0B53EC1B2B04F0D7FF41EC1A0B04F0B2
:103260003FFF044621464FF08040FFF79AFEBDEC39
:103270000C8B70BD000000000050C34600BD01056E
:10328000000000000000594010B52DED0C8B8AB0F5
:10329000B0EE408A002008EE900A9FED4C0AB0EE96
:1032A000409A01210846FFF771FB01210820FFF732
:1032B0007DFB022201214648FFF704F80220089016
:1032C0008DF8240000208DF8260003208DF82500BD
:1032D00001208DF8270008A93D48FEF7ABFF022129
:1032E0003B48FFF71BF89FED3B0AB0EE409AB5EE66
:1032F000C09AF1EE10FA03D8B7EE000AB0EE409A89
:10330000B5EEC08AF1EE10FA03D29FED300AB0EEAE
:10331000408A9FED310AB4EEC08AF1EE10FA03DD67
:103320009FED2A0AB0EE408A2C4808EE900AF8EE8B
:10333000680A80EE890AF7EE000A30EE600ABCEEF9
:10334000C00A8DED060A0020ADF81400ADF8160095
:10335000ADF81C0005A92248FFF726FE6020ADF855
:1033600000000120ADF80200F8EE680A80EE890A3C
:10337000F7EE000A30EE600A10EE104A204605F023
:103380006DF941EC1B0B18EE100A05F067F941ECE2
:103390001D0B9FED140B53EC102B04F049FD41EC79
:1033A0001C0B53EC1B2B04F02FFF41EC1A0B04F009
:1033B00097FE02900020ADF80C0069460848FFF720
:1033C00037FD0AB0BDEC0C8B10BD00000000000002
:1033D000000002400050C3460000C84200BD010585
:1033E000000C004000000000000059401CB5022005
:1033F00000908DF8040000208DF8060001208DF863
:10340000070003208DF8050069460A48FEF712FF01
:10341000022201210748FEF755FF08210648FFF761
:1034200059FD01210448FFF7E1FC01210248FFF7A3
:10343000E9FC1CBD00000240000C00407FB50546C1
:103440000C4601211020FFF7B1FA36208DF800005C
:1034500001208DF8010002208DF8020001208DF876
:1034600003006846FEF79EFF0295ADF80440002079
:10347000ADF80600ADF80C0001A90648FFF794FD71
:10348000012211460348FFF7C9FC01210148FFF75B
:10349000B9FC7FBD0010004070B50025174C40F20C
:1034A0002551174800F05FF8D0B1154800F014F925
:1034B000C5B240F22551124800F02DF8D4E90001C0
:1034C000401AFF2806D8217804F1100045542068DE
:1034D000401C206020782179401AC0B2E0600BE0E7
:1034E00040F22441064800F03EF828B1102104487B
:1034F00000F011F80120207270BD0000202900208A
:103500000010014001F40072B2F5007F00D100BF4D
:10351000CA430280704710B50022002340F66A14A7
:10352000A14200D100BF0A1201249440A3B2DC439F
:10353000048010BD21B1828942F40052828104E0EE
:1035400082894DF6FF731A4082817047024600203F
:10355000B1F5007F00D100BF13880B400BB10120F3
:1035600000E00020704770B50246002400230025CB
:10357000002040F66A16B14200D100BFC1F34215E7
:1035800001F01F03012606FA03F3012D02D19689EB
:10359000334006E0022D02D1168A334001E0968ABC
:1035A00033400C12012606FA04F41688344013B195
:1035B0000CB1012000E0002070BDF0B503460024EE
:1035C00000260025002040F66A17B94200D100BF4E
:1035D0001846C1F3421401F01F06012707FA06F549
:1035E000012C01D10C3004E0022C01D1103000E09C
:1035F00014301AB107682F43076002E00768AF4331
:103600000760F0BD2DE9FF4705460E460024A146A0
:1036100000BFA046B08900B100BF2C8A24F44054FA
:10362000F08804432C82AC8941F20C608443B0885A
:1036300031890843718908430443AC81AC8A24F47E
:103640004074B0890443AC826846FFF7CFF9204844
:10365000854202D01F48854202D1DDF80C9001E07E
:10366000DDF80890A88900F4004040B109EBC900DA
:1036700000EB091031684900B0FBF1F707E009EBF6
:10368000C90000EB091031688900B0FBF1F7642034
:10369000B7FBF0F004012009642101FB1078A88930
:1036A00000F4004040B1322000EBC800B0FBF1F064
:1036B00000F00700044308E0322000EB081064210A
:1036C000B0FBF1F000F00F0004432C81BDE8FF8750
:1036D000001001400014014001468888C0F3080032
:1036E000704700BFFEE7000030B50146481EB0F14C
:1036F000807F01D3012030BD481E4FF0E022506191
:1037000050170F22002807DA13071D0E0B4B00F08D
:103710000F04241F1D5503E013071C0E084B1C54F7
:1037200000BFFF20054A0B32107000204FF0E0224E
:103730009061072010610020DDE7000018ED00E037
:1037400000E400E003B401984100009850EAC12071
:1037500018BF04204A0D18BF40F0010040F2FF726C
:10376000B2EB515F08BF40F00200012808BF0520FE
:1037700002B07047014609B900207047C8B220B1B5
:10378000C8B20E4A105C401CF7E701F47F4028B134
:103790000A48C1F30722805C0930EEE701F47F009C
:1037A00028B10648C1F30742805C1130E5E70348C1
:1037B00000EB116000781930DFE70000669A00081E
:1037C00030380A2801D201207047002070472DE9C7
:1037D000F04389B0064688469146002400E0641C08
:1037E000305D202804D0305D092801D04445F6D34F
:1037F00024B94FF0FF3009B0BDE8F08321463046D0
:1038000001F0E0FF054615B94FF0FF30F3E7202146
:1038100001A8FDF72DF801AA4146304602F042F812
:10382000074617B94FF0FF30E5E701A93846A8472A
:10383000C9F800000020DEE72DE9FC5F04468B4656
:1038400015461E46DDE90C9ADDE90E7804F11C00F0
:103850004060006000BF24346560A660C4F80C902E
:10386000C4F810A02321D4E9030202F0F8FED4E941
:10387000033C63441A1F0F4BD4E9010102F0F0FC32
:103880002060A77667760020E061C4F82080C4F845
:10389000248060612076E0652066243C0090234609
:1038A000054A2146019004F14C0003F05EFC002023
:1038B000BDE8FC9F056D0008456F00082DE9F04745
:1038C00004460E4617469846DDF8209084F811907D
:1038D000607C20F0010060746662A76200202063B3
:1038E000C4F82C80002506E004F11C0101EBC500A2
:1038F00002F082FD6D1C012DF6DBBDE8F08770B58E
:103900000546002406E005F11C0101EBC40002F0AD
:10391000C6FD641C012CF6DB70BD00BF704770B59E
:103920000446FCF7D9FC0546D4F8800018B12046BF
:10393000D4F8801088472846FCF7D2FC70BD000000
:10394000FEF766F8642003F075FA9FED140A144838
:1039500080ED000A9FED130A80ED010A9FED110A28
:1039600080ED020A9FED100A80ED030A9FED0F0A19
:1039700080ED040A9FED0B0A80ED050A00F022FE9F
:103980000A2003F057FA00F01DFE0A2003F052FA55
:1039900003E04FF4FA6003F04DFAFAE721777D3F38
:1039A000A028002055F99E402177FD3F555505413F
:1039B0002DED028BFEF754F9FEF784FA4FF44370B5
:1039C00003F038FA00F0A0FD642003F033FA23E09E
:1039D000FEF778FA4FF4437003F02CFA00F094FDF0
:1039E0000E4880ED000A006804F038FE41EC180B28
:1039F0009FED0B0B53EC102B04F004FD04D220219F
:103A00000948FEF78DFC03E020210748FEF786FCFD
:103A10004FF4FA6003F00EFADAE700000C00002021
:103A200000000000008046400010024010B520A0B9
:103A300002F0C0FC2148017821A002F0BBFC1F4825
:103A4000007800F0010010B123A002F0B3FC1B4885
:103A5000007800F0020010B122A002F0ABFC174881
:103A6000007800F0040010B121A002F0A3FC13487C
:103A7000007800F0080010B121A002F09BFC0F4874
:103A8000007800F0100010B120A002F093FC0B4869
:103A9000007800F0800030B108480F3001681DA0A8
:103AA00002F088FC02E01FA002F084FC10BD0000C0
:103AB000627573206661756C743A0A0029ED00E046
:103AC0005343425F434653525F424653523A307823
:103AD00025303258200000004942555345525220AB
:103AE0000000000050524543495345525220000007
:103AF000494D505245434953455252200000000061
:103B0000554E53544B4552522000000053544B45E0
:103B1000525220005343422D3E424641523A2530F4
:103B200038580A000A00000010B52DED048B394802
:103B30004168084604F092FD41EC190B9FED360BED
:103B400053EC102B04F074F941EC180B04F08AF8D4
:103B50003049486008460169084604F07FFD41ECA1
:103B6000190B9FED2D0B53EC102B04F061F941EC78
:103B7000180B04F077F827490861DFED292AB0EE29
:103B8000621ADFED272AB0EE620ADFED262AF0EE98
:103B9000621ADFED252A12EE900ADFED232AF0EEFD
:103BA000620AF0EE042AB0EE622A71EE002A80EE7C
:103BB000223A896802EE901AC2EE823A73EE632AC4
:103BC000F0EE620A60EEA12AB7EE003A33EE603AF8
:103BD000C2EE833A13EE900A0E49886071EE002A15
:103BE00080EE223A496902EE901AC2EE823A73EEF2
:103BF000632AF0EE620A60EEA12AB7EE003A33EED5
:103C0000603AC2EE833A13EE900A02494861BDEC75
:103C1000048B10BD700400209A9999999999A93F35
:103C200000401C4600409C460000000070B5044661
:103C30000D4601F0F1F8002070BD70B504460D4648
:103C400001F0C2F9002070BD0024002500231A46AF
:103C50002AA12D4802F071FEFDF7A6FF4CE00022DC
:103C60000121294802F04EFE4FF0FF31264802F0B4
:103C7000A0FE012003F0DEF84FF400712348FEF7A8
:103C800044FB04464FF480612048FEF73EFB0546A6
:103C90001FA0FCF7BBFBAC4215D01F480088401D9D
:103CA00000B21D4908800846B0F90000B0F5FA7F5F
:103CB00002DD4FF4FA700880184802F051FE18A097
:103CC000FCF7A4FB12E014480088401F00B2124920
:103CD00008800846B0F90000002801DA00200880BA
:103CE0000E4802F03DFE10A0FCF790FB0A48B0F928
:103CF00000100FA0FCF78AFBB1E70000636F64655A
:103D0000635F73656D00000078280020001002409A
:103D1000526F746174653A0008000020502800203A
:103D20002B2B0D0A000000002D2D0D0A00000000B5
:103D30004C45445F63757272656E743A25640D0A72
:103D40000000000000B587B001210846FEF71EFE06
:103D500001211020FEF73AFE072209212448FEF730
:103D6000B1FA07220A212248FEF7ACFA4FF4C060EC
:103D7000059002208DF8180003208DF8190000200E
:103D80008DF81A0001208DF81B0005A91848FEF7D0
:103D900051FA4FF4E13001900020ADF80800ADF881
:103DA0000A00ADF80C00ADF810000C20ADF80E00C4
:103DB00001A91048FFF726FC01210E48FFF7BAFBC6
:103DC000012240F225510B48FFF7F7FB47208DF801
:103DD000000001208DF8010003208DF80200012071
:103DE0008DF803006846FEF7DDFA07B000BD00005D
:103DF000000002400010014010B5024600200BE018
:103E0000135C074CA38000BF054B1B8803F04003E5
:103E1000002BF9D0431CD8B28842F1DB10BD000062
:103E20000010014010B51548006890F82900C0F353
:103E3000400020B9002012490870084610BD114802
:103E4000006840B14FF400720E4801680C48FCF75E
:103E500036FD0B48F2E701F023FD20B10AA1084826
:103E6000FCF718FC03E00AA10548FCF713FC0AA1C3
:103E70000348FCF79DFC0248E0E7000068040020CE
:103E8000E03F00206C0400206D73682000000000FB
:103E900066696E73682000003E00000010B502F0F5
:103EA0008FF810BD0549096891F8291060F34101A8
:103EB000024A126882F82910704700006804002046
:103EC000024A1060024A1160704700005804002046
:103ED0005C0400207CB5002517491848FFF7F0FF67
:103EE0008021012001F078FF15490860084600682C
:103EF00020B914A002F05EFA681E7CBD0A201521CC
:103F00004FF480630022CDE90010144914A002F0A0
:103F1000D0FE044600231A4613A10948006802F0A7
:103F20000CFD0120FFF7BEFF1CB115B9204602F0C1
:103F3000D1FF0020E1E70000D09F0008049F0008A7
:103F4000680400206E6F206D656D6F727920666F5A
:103F500072207368656C6C0A00000000713F0008F5
:103F6000747368656C6C0000736872780000000000
:103F7000E948006890F8290020F00100401CE6495B
:103F8000096881F82900FFF74DFF054602F012FA93
:103F9000C1E1FFF783FF0446002C00DABBE11B2CD4
:103FA00005D10120DC49096881F82800B3E1DA482D
:103FB000006890F8280001280DD15B2C05D1022063
:103FC000D549096881F82800A5E10020D24909688F
:103FD00081F8280045E0D048006890F828000228C1
:103FE0003FD10020CC49096881F82800412C00D13C
:103FF00091E1422C00D18EE1442C11D1C6480068D9
:10400000B0F87C0058B1C5A002F0D4F9C2480068ED
:10401000B0F87C00401EC0490968A1F87C007AE134
:10402000432C1ED1BC480068B0F87C00BA4909682E
:10403000B1F87A10884213DAB7480068B0F87C20EB
:10404000B54800682A30815CB5A002F0B3F9B248E7
:104050000068B0F87C00401CAF490968A1F87C00FA
:1040600059E10CB1FF2C00D155E1092C1FD10025DD
:1040700003E0AAA002F09EF96D1CA7480068B0F802
:104080007C00A842F5DCA44800682A3003F020FC3C
:10409000A14800682A30FCF721FB80B29E490968DC
:1040A000A1F87A009C490968A1F87C0033E17F2CD3
:1040B00001D0082C6ED198480068B0F87C0000B997
:1040C00029E195480068B0F87A00401E92490968D5
:1040D000A1F87A0090480068B0F87C00401E8E4934
:1040E0000968A1F87C008C480068B0F87A008A4919
:1040F0000968B1F87C1088423FDD874B1B68B3F834
:104100007A30854E3668B6F87C609A1B824B1B6805
:10411000B3F87C305B1C804E36682A3699197E4B8A
:104120001B68B3F87C607C4B1B682A33F01802F0E4
:1041300075FA002278480068B0F87A10764800686E
:104140002A30425474480068B0F87C2072480068F5
:104150002A30111873A002F02DF96F480068B0F8EA
:104160007C5003E06DA002F025F96D1C6A480068E0
:10417000B0F87A00A842F5DA0BE06CA002F01AF968
:10418000002165480068B0F87A20634800682A304A
:104190008154C0E00D2C01D00A2C2BD101F080FB02
:1041A000012812D15C48006890F8290000F0010055
:1041B00010B15FA002F0FEF857480068B0F87A101E
:1041C000554800682A3001F0C7FAFFF72BFE054674
:1041D00002F0F0F85021504800682A30FCF726FB26
:1041E00000204D490968A1F87A004B490968A1F8F7
:1041F0007C0090E048480068B0F87A00502804DB62
:10420000002045490968A1F87A0043480068B0F8E1
:104210007C0041490968B1F87A10884245DA3E4B82
:104220001B68B3F87A303C4E3668B6F87C609A1B4F
:10423000394B1B68B3F87C60374B1B682A33F11885
:10424000354B1B68B3F87C305B1C334E36682A361E
:10425000981902F0E3F930480068B0F87C202E4845
:1042600000682A3084542C48006890F8290000F037
:10427000010050B128480068B0F87C20264800684A
:104280002A3011182BA002F095F823480068B0F8E6
:104290007C5003E021A002F08DF86D1C1E480068E0
:1042A000B0F87A00A842F5DC12E01B480068B0F8CC
:1042B0007A20194800682A3084541748006890F81A
:1042C000290000F0010018B1214615A002F072F893
:1042D000002411480068B0F87A00401C0E490968B3
:1042E000A1F87A000C480068B0F87C00401C0A492C
:1042F0000968A1F87C0008480068B0F87A005028E6
:1043000008DB002004490968A1F87A00024909681D
:10431000A1F87C0000BF3CE6680400200800000013
:1043200025630000082573202008000008200800ED
:104330000A0000002573000000BF054A128802F041
:104340004002002AF9D0C2B2014B9A8070470000A7
:104350000010014010B5C2B0F02106A8FCF788FAA1
:1043600018216846FCF784FA002400BF33E000F00F
:1043700029F9634890ED000A06A800EB840080ED5F
:10438000000A5F4890ED010A10A800EB840080ED60
:10439000000A5B4890ED020A1AA800EB840080ED49
:1043A000000A574890ED030A24A800EB840080ED32
:1043B000000A534890ED040A2EA800EB840080ED1B
:1043C000000A4F4890ED050A38A800EB840080ED04
:1043D000000A601CC4B20A2CC9DB00240AE004EB0A
:1043E000840106AA02EBC10000220A21FDF782FB2C
:1043F000601CC4B2062CF2DB002445E09DED000AEF
:1044000006A9A01C01EB8000D0ED000A30EE200AC6
:104410008DED000A9DED010A10A8A11C00EB8100A2
:10442000D0ED000A30EE200A8DED010A9DED020A62
:104430001AA800EB8100D0ED000A30EE200A8DEDC5
:10444000020A9DED030A24A800EB8100D0ED000ACA
:1044500030EE200A8DED030A9DED040A2EA800EB34
:104460008100D0ED000A30EE200A8DED040A9DEDAA
:10447000050A38A800EB8100D0ED000A30EE200AD2
:104480008DED050A601CC4B2062CB7DBDDED000A19
:10449000B1EE081A80EE810A10EE100A1949086080
:1044A000DDED010AB1EE081A80EE810A10EE100A65
:1044B0004860DDED020AB1EE081A80EE810A10EEC6
:1044C000100A8860DDED030AB1EE081A80EE810A59
:1044D00010EE100AC860DDED040AB1EE081A80EE95
:1044E000810A10EE100A0861DDED050AB1EE081A26
:1044F00080EE810A10EE100A486142B010BD000043
:10450000B82800207004002070B52DED068B01F056
:1045100091FCFDF75BFC30B101F09CFC9FED250A9E
:10452000BDEC068B70BDCC20FDF7E6FCBE20FDF790
:10453000E3FCFDF7C9FB0546FDF7C6FB064601F0A7
:1045400089FC45EA062404F47840C8B1E043401CE5
:1045500084B2C4F30A0003F0F0FD41EC1A0B9FEDA6
:10456000160B53EC102B03F04FFE41EC190B03F02C
:1045700079FB08EE100A9FED120A70EE488A15E0EA
:10458000C4F30A0003F0D9FD41EC1A0B9FED0A0BAE
:1045900053EC102B03F038FE41EC190B03F062FBD7
:1045A00008EE100A18EE100A08EE900AB0EE680A3B
:1045B000B6E700000000AAC2000000000000B03F03
:1045C0000000000010B52DED088B84B00024002001
:1045D0000190029003904FF480514B48FDF7A0FEEC
:1045E0000420FEF71BFB00BF4FF400514648FDF7C7
:1045F0008CFE0028F8D100247FE04FF4805142481F
:10460000FDF78EFE00BF00BF4FF480513E48FDF71E
:1046100085FE00BF00BF3D48006801A921F81400D5
:1046200001A830F8140000F40040B0F5004F23D08A
:1046300001A830F8140000EE100AB8EE400A10EE9F
:10464000101A084604F00AF841EC1A0B9FED300BE3
:1046500053EC102B03F0D8FD41EC190B9FED2E0B02
:1046600053EC102B03F0E4FB41EC180B03F0FAFAC7
:104670002B4941F824002DE001A830F814004FF632
:10468000FF72101A00EE100AB8EEC00A10EE101AEF
:10469000084603F0E3FF41EC1B0B9FED1D0B53ECB1
:1046A000102B03F0B1FD41EC1A0B9FED1B0B53ECEB
:1046B000102B03F0BDFB41EC190B9FED1A0B53ECD3
:1046C000102B03F0D5FE41EC180B03F0CBFA144984
:1046D00041F82400124800EB840090ED000A1348D2
:1046E00000EB8400D0ED000A80EE201A0C4800EBAD
:1046F000840080ED001A601CC4B2062CFFF67DAF6A
:1047000004B0BDEC088B10BD00040240100C024048
:10471000000000000000244000000000C0FFDF4057
:10472000B82800200000000000000000A0280020A1
:1047300000B52DED048B85B001A8FEF757F901985F
:1047400003F012FD41EC190B9FED230B53EC102BE2
:1047500003F06EFB41EC180B53EC182B20A0FBF779
:1047600055FE029803F000FD41EC190B9FED1A0B6A
:1047700053EC102B03F05CFB41EC180B53EC182BA3
:104780001EA0FBF743FE039803F0EEFC41EC190B6F
:104790009FED110B53EC102B03F04AFB41EC180B6F
:1047A00053EC182B1CA0FBF731FE049803F0DCFC43
:1047B00041EC190B9FED080B53EC102B03F038FB69
:1047C00041EC180B53EC182B1AA0FBF71FFE05B099
:1047D000BDEC048B00BD00000000000080842E4171
:1047E000535953434C4B5F4672657175656E6379DF
:1047F0003A252E33664D487A0D0A000048434C4B4B
:104800005F4672657175656E63793A252E33664D24
:10481000487A0D0A0000000050434C4B315F46724D
:10482000657175656E63793A252E33664D487A0D4C
:104830000A00000050434C4B325F4672657175654B
:104840006E63793A252E33664D487A0D0A000000D2
:1048500010B51448006800F0020010B112A001F079
:10486000A9FD1048006800F0804088B10D48C01EC6
:10487000007808B1FFF7DAF80A48001F007808B19D
:1048800000F0BEFD0748801E008808B103F044F91F
:104890000448006800F0004010B109A001F08AFD52
:1048A00010BD00002CED00E06661696C6564207647
:1048B0006563746F722066657463680A00000000A7
:1048C0006465627567206576656E740A0000000095
:1048D00010B502A001F06EFD002010BD48656C6CA3
:1048E0006F2052542D546872656164210A000000E3
:1048F00010B54FF480601149088010481A380068DC
:1049000020F440100D491A3908600846006840F448
:1049100080000860C814094908800220FDF73FFBA9
:104920004FF480600549891E08800220FDF737FB9F
:104930004FF480600149088010BD00001A04024055
:104940001CB501210220FEF721F84FF440600090D1
:1049500001208DF8040000208DF8060003208DF85A
:10496000050001208DF8070069460548FDF762FC47
:104970004FF48060024918310880400008801CBD57
:104980000004024010B54FF48060114908801048BF
:104990001A38006820F440100D491A39086008469A
:1049A000006840F480000860C8140949891E088026
:1049B0000220FDF7F4FA4FF480600549891E088053
:1049C0000220FDF7ECFA4FF480600149088010BD29
:1049D0001A04024070B5054600241748006820F408
:1049E00040101549086000261BE04FF48060124912
:1049F0001A3108800220FDF7D2FA4FF480600E4988
:104A0000183108806006040E0B481030006800F46E
:104A1000006008B1601CC4B20220FDF7C0FA701C2F
:104A2000C6B2082EE1DB15B9FFF7ACFF01E0FFF7D6
:104A30005FFF204670BD00000004024070B50446D0
:104A40001B48006820F440101949086008460068B7
:104A500040F480000860081515491A3108800025C7
:104A600023E0E00928B14FF40060114918310880B3
:104A700004E04FF400600E491A3108806006040E0D
:104A80000220FDF78CFA4FF4806009491831088044
:104A90000220FDF784FA4FF4806005491A3108803E
:104AA0000220FDF77CFA681CC5B2082DD9DB70BD69
:104AB0000004024010B51148006820F440100F496E
:104AC00008600846006840F480000860C8140B497C
:104AD00018310880401008800420FDF760FA4FF478
:104AE000006006491A3108800420FDF758FA4FF497
:104AF000806002491A31088010BD000000040240A5
:104B000010B51148006820F440100F4908600846AD
:104B1000006840F48000086008150B491A310880CD
:104B2000400008800420FDF73AFA4FF480600649FF
:104B3000183108800420FDF732FA4FF40060024972
:104B40001831088010BD00000004024010B54FF479
:104B50008060064908800120FDF721FA4FF480604B
:104B60000249891C0880002010BD00001804024082
:104B700000BF10E0C82002F05DF91020064908804F
:104B800080210648FDF7CAFBC82002F053F9102027
:104B90000149891E0880EDE71A0802400000024022
:104BA00010B50DA001F006FC104804680DE00222CB
:104BB0000FA12068FBF7B1FD00B905E00DA0D4E915
:104BC000001201F0F7FB00BF0C340E48006884426D
:104BD000EDD3002010BD00002D2D46756E63746965
:104BE0006F6E204C6973743A0A000000580400206C
:104BF0005F5F0000252D313673202D2D2025730A8F
:104C0000000000005C0400202DE9F04704460D463A
:104C100016461F46284601F091FD814609F1040819
:104C2000C4F8008025726660E76000202061BDE85E
:104C3000F0872DE9F84F07460C464FF0000A002098
:104C40002061E06808B1207A10B90020BDE8F88F33
:104C5000D4F800801FB945464FF0010A00E03D46F8
:104C6000FBF73AFB0090BAF1000F0ED1A5F1140B3F
:104C70009BF8100020F08000217A884204D0009830
:104C8000FBF72EFB0020E1E700BF0026D4F80490DC
:104C90000BE02D68454501D1002507E0761C49F859
:104CA000045BE068B04200D100E0F2E700BF00988A
:104CB000FBF716FB26612846C8E700002DE9F04FF8
:104CC00091B000270FF2D409082304AA05210CA8EB
:104CD000FFF79AFF4FF010084A46414631A001F015
:104CE00069FB404600F056FE37A001F063FB00BFB1
:104CF0000CA93846FFF79DFF0746002545E004A8AC
:104D000050F82500A0F11406FBF7E6FA8346307C44
:104D100020F080009DF83810884203D05846FBF7F9
:104D2000DFFA31E05846FBF7DBFA344604F11C00A9
:104D300001F091FBB8B904F11C0001F094FB82462C
:104D4000208D618D23461022CDE9010A0091414654
:104D500024A001F02FFB04F11C0002F0D5FD27A0D8
:104D600001F028FB0FE004F11C0001F07CFB8246FF
:104D7000208D618D23461022CDE9010A0091414624
:104D80001FA001F017FB00BF6D1C1098A842B6DCF5
:104D9000002FADD1002011B0BDE8F08F6D61696CBE
:104DA000626F7800252D2A2E7320656E747279202B
:104DB00073697A652073757370656E6420746872A8
:104DC0006561640A00000000202D2D2D2D20202D6E
:104DD0002D2D2D202D2D2D2D2D2D2D2D2D2D2D2D10
:104DE0002D2D0A00252D2A2E2A73202530346420EB
:104DF00020253034642025643A0000000A000000B9
:104E0000252D2A2E2A732025303464202025303485
:104E1000642025640A00000010B50848016808A055
:104E200001F0C8FA0B4801680BA001F0C3FA0F4863
:104E300001680FA001F0BEFA10BD0000E8030020D9
:104E4000746F74616C206D656D6F72793A202564A2
:104E50000A000000EC03002075736564206D656D29
:104E60006F7279203A2025640A000000F0030020C8
:104E70006D6178696D756D20616C6C6F63617465CF
:104E800064206D656D6F72793A2025640A00000018
:104E90002DE9F04F8FB000270FF2CC09082302AAAA
:104EA00002210AA8FFF7B0FE4FF010084A4641461B
:104EB00030A001F07FFA404600F06CFD34A001F014
:104EC00079FA00BF0AA93846FFF7B3FE0746002566
:104ED00041E002A850F82500A0F11406FBF7FCF908
:104EE0008346307C20F080009DF83010884203D04B
:104EF0005846FBF7F5F92DE05846FBF7F1F9344633
:104F000004F11C0001F0A7FAA8B904F11C0001F09B
:104F1000AAFA8246A08C234610224146CDE9000A17
:104F200021A001F047FA04F11C0002F0EDFC17A0EB
:104F300001F040FA0DE004F11C0001F094FA824601
:104F4000A08C234610224146CDE9000A1AA001F0A8
:104F500031FA00BF6D1C0E98A842BADC002FB1D107
:104F600000200FB0BDE8F08F73656D6170686F72DF
:104F700065000000252D2A2E7320762020207375D1
:104F80007370656E64207468726561640A00000065
:104F9000202D2D2D202D2D2D2D2D2D2D2D2D2D2D5B
:104FA0002D2D2D0A00000000252D2A2E2A732025E4
:104FB0003033642025643A00252D2A2E2A732025BB
:104FC0003033642025640A002DE9F04FB3B04FF070
:104FD00000090FF21C1B082325AA01212DA8FFF7A9
:104FE00013FE4FF0100A5A465146434801F0E2F9C9
:104FF000504600F0CFFC41A001F0DCF900BF2DA924
:105000004846FFF716FE81464FF0000865E025A8E8
:1050100050F82800A0F11405FBF75EF93290287CC7
:1050200020F080009DF8BC10884203D03298FBF736
:1050300057F950E08822294603A8FBF7C5FB3298B0
:10504000FBF74EF92C4694F83D00234610225146BA
:1050500000903AA001F0AEF994F83C0000F00F0681
:10506000012E03D138A001F0A5F915E0022E03D1DD
:1050700038A001F09FF90FE01EB939A001F09AF9AC
:105080000AE0042E03D139A001F094F904E0032EC4
:1050900002D139A001F08EF9276B00E07F1C38782F
:1050A0002328FBD0D4E90C10791A401A6421484314
:1050B000616BB0FBF1F00290A16BA06CCDE9000137
:1050C000636A206BC01A636BC1181A462DA0029B3D
:1050D00001F070F900BF08F101083198404596DCF5
:1050E000B9F1000F8BD1002033B0BDE8F08F000084
:1050F0007468726561640000449C0008202D2D2DA9
:1051000020202D2D2D2D2D2D2D202D2D2D2D2D2DF6
:105110002D2D2D2D202D2D2D2D2D2D2D2D2D2D20D9
:10512000202D2D2D2D2D2D20202D2D2D2D2D2D2DD6
:105130002D2D2D202D2D2D0A00000000252D2A2E8D
:105140002A73202533642000207265616479202051
:10515000000000002073757370656E64000000002D
:1051600020696E69742020200000000020636C6FAD
:1051700073652020000000002072756E6E696E67F6
:105180000000000020307825303878203078253035
:10519000387820202020253032642525202020301A
:1051A000782530387820253033640A002DE9F0471F
:1051B00090B000270FF2B409082303AA0A210BA814
:1051C000FFF722FD4FF010084A46414629A001F0A2
:1051D000F1F8404600F0DEFB30A001F0EBF800BF34
:1051E0000BA93846FFF725FD074600262DE003A84A
:1051F00050F82600A0F11404FBF76EF88246207CDC
:1052000020F080009DF83410884203D05046FBF710
:1052100067F819E05046FBF763F82546D5E90B011E
:105220002B461022CDE90001414625A001F0C2F82D
:10523000687C00F0010018B127A001F0BBF802E083
:1052400028A001F0B7F800BF761C0F98B042CEDC62
:10525000002FC5D101F0D4FE0446214625A001F05F
:10526000A9F8002010B0BDE8F087000074696D65F2
:1052700072000000252D2A2E732020706572696F40
:1052800064696320202074696D656F757420202027
:1052900020202020666C61670A000000202D2D2D43
:1052A0002D2D2D2D2D2D2D202D2D2D2D2D2D2D2D3B
:1052B0002D2D202D2D2D2D2D2D2D2D2D2D2D0A007B
:1052C000252D2A2E2A732030782530387820307802
:1052D0002530387820000000616374697661746558
:1052E000640A000064656163746976617465640AC8
:1052F0000000000063757272656E74207469636BE0
:105300003A3078253038780A000000002DED028B05
:1053100000BFFDF70BF802F08BF9642001F08AFD65
:105320000120FCF757FE2B490870084601782AA097
:10533000FBF76CF855210120FCF773FE052001F006
:1053400079FD0020234908700120FCF743FE214924
:1053500008700846017820A0FBF758F80120FCF7F8
:1053600039FE1C490870084601781BA0FBF74EF86F
:1053700055210120FCF755FE052001F05BFD0020C2
:10538000144908700120FCF725FE124908700846F0
:10539000017811A0FBF73AF89FED120AB0EE408AAF
:1053A0009FED110AB0EE408AB0EE480AFDF73EFECE
:1053B000B0EE480AFDF768FFFDF7EAFEFEF716F8C3
:1053C00006E001210948FCF7ADFF642001F032FD41
:1053D000F7E7000004000020746573743A30782504
:1053E000780D0A00000000000000B44200080240EE
:1053F00010B5044600F010FDFFF788FF10BD000057
:1054000010B51CA000F0D6FF1F4801781FA000F0C7
:10541000D1FF1D48007800F0010010B121A000F07C
:10542000C9FF1948007800F0020010B120A000F078
:10543000C1FF1548007800F0080010B11FA000F06F
:10544000B9FF1148007800F0100010B11EA000F064
:10545000B1FF0D48007800F0800030B10A480C30F0
:1054600001681CA000F0A6FF02E01EA000F0A2FF51
:1054700010BD00006D656D206D616E616765206611
:1054800061756C743A0A000028ED00E05343425FF6
:10549000434653525F4D4653523A30782530325886
:1054A000200000004941434356494F4C2000000072
:1054B0004441434356494F4C200000004D554E5344
:1054C000544B4552522000004D53544B45525220EC
:1054D000000000005343422D3E4D4D41523A2530CD
:1054E00038580A000A0000002DED088B9FED610A74
:1054F000F0EE408A00BF9FED5F0AB0EE408A9FED5C
:105500005D0AB0EE409AFDF71BFA00231A465AA135
:105510005D4801F012FA532140F2E730FDF78EFFAB
:10552000A7E000220121584801F0ECF94FF0FF31CB
:10553000554801F03EFAFEF70DFFFEF7F5FA534825
:10554000007800287DD15248007810BB5148B0F94E
:10555000000002F0F2FD41EC1B0B9FED4F0B53ECF2
:10556000102B02F065FC41EC1A0B02F07BFB08EEFD
:10557000900A4848B0F9000002F0DFFD41EC1A0B38
:105580009FED450B53EC102B02F052FC41EC1B0B32
:1055900009E04048B0F9000000EE100AB8EEC00A79
:1055A000F0EE408A00BF3E48007801283ED118EE58
:1055B000900A03F053F841EC1A0B9FED3A0B53ECB1
:1055C000102B02F01FFF31D83848006900EE900A16
:1055D000B0EE680AFDF756F9B0EE408A38EE490A97
:1055E00010EE101A084603F039F841EC1A0B9FED43
:1055F000300B53EC102B02F005FF0FD339EE480AA5
:1056000010EE101A084603F029F841EC1A0B9FED32
:10561000280B53EC102B02F0F5FE2AD2B0EE489A7C
:10562000B0EE480AFDF7EEFA23E00AE0FDF788F94C
:105630009FED100AB0EE409A9FED0E0AFDF7E2FAD8
:1056400017E01A480168084603F008F841EC1A0B05
:105650009FED140B53EC102B02F09AFD04D29FED3A
:10566000050AF0EE408A04E01048006808EE900A4F
:1056700000BF56E70000000063616C5F6164637007
:1056800069645F73656D0000F82800200500002044
:105690000700002008000020000000000000594022
:1056A000060000207B14AE47E17A843F700400209E
:1056B000000000000000D03F2DE9F04781460026A1
:1056C000002799F8000028B90021084600F0A8F842
:1056D000BDE8F0871B48046827E006221AA120686D
:1056E000FBF71BF800B11FE0206800F106084846F0
:1056F000FAF7F4FF8246524641464846FBF70DF85A
:1057000088B926B947463846FAF7E8FF06464146C3
:10571000384602F024F90546B54200DA2E464146E5
:105720000BA000F047FE00BF0C340A48006884421A
:10573000D3D327B132463946484601F0D6F900BFE7
:10574000C6E70000580400205F5F636D645F0000DF
:1057500025730A005C04002038B504460D4601E0BC
:10576000641C6D1E2DB120782028F9D020780928DE
:10577000F6D00DB9002038BD6A4629462046FEF70E
:1057800026F808B90098F6E7204600E0401C0178AA
:10579000202902D001780029F8D10021017021468A
:1057A00002A000F007FE4FF0FF30E4E725733A2037
:1057B000636F6D6D616E64206E6F7420666F756EC1
:1057C000642E0A002DE9F04106460D4600271048D8
:1057D000046815E006220FA12068FAF79EFF00B1C9
:1057E0000DE02168881D2A463146FAF796FF28B950
:1057F000A81D2168085C08B9A76805E000BF0C3443
:10580000064800688442E5D300BF3846BDE8F08111
:10581000580400205F5F636D645F00005C0400203B
:1058200070B505460E460FA000F0C4FD144804688C
:105830000EE0062213A12068FAF76FFF00B106E020
:10584000D4E90002811D11A000F0B4FD00BF0C34AA
:10585000114800688442ECD310A000F0ABFD00209A
:1058600070BD000052542D546872656164207368E5
:10587000656C6C20636F6D6D616E64733A0A000035
:10588000580400205F5F636D645F0000252D313692
:1058900073202D2025730A005C0400200A000000FC
:1058A000012070472DE9F04782460E469046544647
:1058B0000025002755E003E000202070641C6D1CCB
:1058C0002078202802D02078092801D1B542F3D3CE
:1058D000082F12D326A000F06DFD4FF0000906E05E
:1058E00058F829102AA000F065FD09F10109B94511
:1058F000F6D326A000F05EFD35E0B54200D332E0DD
:10590000207822281CD1641C6D1C48F827407F1C7D
:1059100009E020785C2804D16078222801D1641C39
:105920006D1C641C6D1C2078222801D0B542F0D378
:10593000B54200D317E000202070641C6D1C10E0FD
:1059400048F827407F1C01E0641C6D1C207820284B
:1059500004D02078092801D0B542F5D3B54200D350
:1059600001E0B542A7D300BF3846BDE8F08700008C
:10597000546F6F206D616E792061726773202120F2
:105980005765206F6E6C79205573653A0A000000E8
:105990002573200010B5044602E004A000F00AFDC3
:1059A000201EA4F10104F8D110BD00002D0000005C
:1059B0001CB501210220FCF7E9FF01210420FCF7BE
:1059C000E5FF012000908DF8040000208DF806000E
:1059D00003208DF8050001208DF8070069460F4867
:1059E000FCF728FC2020009001208DF80400002006
:1059F0008DF8060003208DF8050001208DF80700C2
:105A000069460748FCF716FC012004491831088054
:105A100020200349183108801CBD0000000402400A
:105A20000008024070B504461948006820F4407030
:105A3000174908600846006840F48060086001204B
:105A400013491A31088000251EE0E00918B1202012
:105A50001049088003E020200E49891C0880600658
:105A6000040E0220FCF79BFA012009491831088036
:105A70000220FCF794FA012005491A31088002201F
:105A8000FCF78DFA681CC5B2082DDEDB70BD000086
:105A9000000402401808024010B51048006820F4C5
:105AA00040700E4908600846006840F48060086055
:105AB00020200B4908800120084918310880042063
:105AC000FCF76DFA20200649891C08800420FCF7A9
:105AD00066FA012001491A31088010BD0004024015
