:020000040800F2
:10000000486D0020A101000873110008A702000834
:1000100071110008B10C0008552200080000000012
:10002000000000000000000000000000731800083D
:10003000B10D000800000000F3010008B11900082C
:10004000BB010008BB010008BB010008BB010008A0
:10005000BB010008BB010008BB010008B50D00088A
:10006000E50D0008BB010008BB010008BB0100084A
:10007000BB010008BB010008BB010008BB01000870
:10008000BB010008BB010008BB010008BB01000860
:10009000BB010008BB010008BB010008BB01000850
:1000A000BB010008BB010008BB010008BB01000840
:1000B000BB010008BB010008BB010008BB01000830
:1000C000BB010008BB010008BB010008BB01000820
:1000D000BB010008BB010008BB010008BB01000810
:1000E000BB010008BB010008BB010008BB01000800
:1000F000BB010008BB010008BB010008BB010008F0
:10010000BB010008BB010008BB010008BB010008DF
:10011000BB010008BB0100088D1A0008BB010008E4
:10012000BB010008BB010008BB010008BB010008BF
:10013000BB010008BB010008BB010008BB010008AF
:10014000BB010008BB010008BB010008BB0100089F
:10015000BB010008BB010008BB010008BD2000086E
:10016000BB010008BB010008BB010008BB0100087F
:10017000BB010008BB010008BB010008BB0100086F
:10018000BB010008BB010008DFF810D000F060FCE4
:1001900000480047D10B0008AFF30080486D0020F5
:1001A0000648804706480047FEE7FEE7FEE7FEE711
:1001B000FEE7FEE7FEE7FEE7FEE7FEE7311A00088E
:1001C00089010008EFF3108072B6704780F3108841
:1001D0007047434A1368012B04D04FF001031360AA
:1001E000404A1060404A116040484FF08051016021
:1001F0007047EFF3108272B63948016851B34FF07F
:10020000000101603748016891B1EFF309811EF0E8
:10021000100F08BF21ED108B21E9F00F4FF0000403
:100220001EF0100F08BF012441F8044D0068016062
:100230002D490968096808C9B1E8F00F002B18BFFB
:10024000B1EC108B81F309884EF0100E002B18BF13
:100250002EF0100E82F310884EF0040E70472249E3
:100260000860EFF3148222F0040282F314881D491F
:100270004FF0000008601A494FF0010008601C4868
:100280004FF47F01D0F8002041EA020101601748D5
:100290004FF08051016017480068006880F30888BB
:1002A00061B662B670471EF0040F0CBFEFF3088012
:1002B000EFF3098020E9F00F40F804ED40F804ED79
:1002C0001EF0040F0CBF80F3088880F3098800B586
:1002D00005F048F95DF804EB4EF0040E704700009D
:1002E000E4030020DC030020E003002004ED00E034
:1002F00020ED00E008ED00E040EA01039B0703D099
:1003000009E008C9121F08C0042AFAD203E011F854
:10031000013B00F8013B521EF9D27047D2B201E016
:1003200000F8012B491EFBD270470022F6E710B5FA
:1003300013460A4604461946FFF7F0FF204610BD53
:10034000421E12F8013F002BFBD111F8013B02F8CD
:10035000013B002BF9D1704710B5044604E00B783F
:1003600000F8013B03B1491C521EF8D2204610BDD3
:10037000421C10F8011B0029FBD1801A704703466C
:1003800011F8012B00F8012B002AF9D1184670470B
:1003900030B505460020034600E05B1C934205D2C1
:1003A000EC5CC85C201A01D1002CF6D130BD70B5D0
:1003B000064601F089FF046805460A2200213046FE
:1003C00000F0B9F92C6070BD2DE9FE4F81EA0304FD
:1003D00004F0004421F0004100944FF0000B23F0A2
:1003E000004350EA01045ED052EA03045BD0C3F339
:1003F0000A54C1F30A552C44A4F2F3340194A0FB2F
:100400000254C1F3130141F48011C3F3130343F405
:10041000801301FB024400FB034E840A970A44EA5E
:10042000815447EA8357A4FB076802958D0A05FBB0
:1004300007854FEA932C04FB0C542705029D4FEAD5
:10044000065847EA1637B5EB08056EEB070C870E22
:10045000920E47EA811742EA8312A7FB0201B6EB2C
:100460000B0164EB00042B0D43EA0C335E1844EBE4
:100470001C50DA465146E7FB0201C5F313044FEA6C
:100480000B3343EA14534FEA0432019C43EA060358
:10049000A4F10C040294009CCDE900B400F0C9F969
:1004A00003B0BDE8F08F00200146F9E72DE9F04DDB
:1004B00081EA030404F0004B21F0004514464FF09C
:1004C000000A23F0004150EA050220D054EA01025C
:1004D0001DD0C5F30A570246C5F31303C1F3130039
:1004E000C1F30A5640F4801543F48013A7EB0608C5
:1004F000101BD64608F2FD3873EB050002D308F155
:10050000010801E092185B41B8F1000F03DA002006
:100510000146BDE8F08D00204FF480110646844668
:100520000EE0171B73EB050705D3121B63EB0503E6
:1005300006434CEA010C49084FEA300092185B412F
:1005400050EA0107EDD152EA030012D082EA04001A
:1005500083EA0501084305D0101BAB4106D20122F6
:10056000002306E000224FF0004302E06FF001029A
:1005700053101AEB06004CEB085110EB0A0041EB4C
:100580000B01BDE8F04D00F045B90EB5C10F80EA92
:10059000E0700844CA07002140F233438DE80E00A2
:1005A0000A460B4600F045F903B000BD0EB540F217
:1005B000334102910021CDE900110A460B4600F0BB
:1005C00038F903B000BDC1F30A5210B5C1F31301ED
:1005D00040F2FF3341F480119A4201DA002010BD4D
:1005E00040F233439A42A2F2334203DC524200F01B
:1005F00092F810BD904010BD00F0004230F0004075
:100600000AD0C10D01F56071C0F3160042EA015134
:10061000C2084007114370470020014670470000A0
:1006200030B5041E71F1000404DB4FF00044404279
:1006300064EB0101141E73F1000405DB1C464FF04E
:100640000043524263EB0403994208BF904230BD1D
:1006500001F0004330B421F0004150EA010206D01D
:100660000A0DA2F56072C1F31301002A02DC30BC4E
:1006700000207047440F44EAC104C100E01830BCB8
:1006800000EBC25000F08FB830B50B460146002099
:100690002022012409E021FA02F59D4205D303FA44
:1006A00002F5491B04FA02F52844151EA2F10102C5
:1006B000F1DC30BD2DE9F05F0546002092469B46F7
:1006C00088460646814640241BE028464146474668
:1006D000224600F020F853465A46C01A914110D3E2
:1006E00011461846224600F0C5F92D1A67EB01089D
:1006F0004F4622460120002100F0BCF917EB00090B
:100700004E41201EA4F10104DFDC484631462A4652
:100710004346BDE8F09F202A04DB203A21FA02F08C
:100720000021704721FA02F3D040C2F1200291402B
:100730000843194670472DE9F04791460F46804619
:100740000446002614F8015B2DB100F0B5F90068ED
:10075000405DC007F6D12B2D02D02D2D18D0641E80
:100760004A463946204600F0ABF927B13968A14224
:1007700001D1C7F8008071054FF002040BD540424B
:10078000002803DD01F0A0FD0460A007BDE8F087AC
:1007900046F48066E4E70028F8DA01F095FD04608D
:1007A0006FF00040F2E70029A8BF7047401C4900E5
:1007B00008BF20F00100704710B4B0FA80FC00FAC6
:1007C0000CF050EA010404BF10BC704749B1CCF1F1
:1007D000200421FA04F411FA0CF118BF012121437D
:1007E0000843A3EB0C01CB1D4FEA00614FEA102038
:1007F00042BF002010BC704700EBC35010440029DA
:10080000A4BF10BC7047401C490008BF20F0010085
:1008100010BC704710B5141E73F1000408DA401CB8
:1008200041F1000192185B411A4301D120F001000F
:1008300010BD2DE9F04D92469B4611B1B1FA81F2FF
:1008400002E0B0FA80F22032904600F013F904463C
:100850000F4640EA0A0041EA0B0153465A46084354
:1008600013D0114653EA010019D0C8F14002504696
:10087000FFF751FF05460E4650465946424600F0E6
:10088000F9F8084305D0012004E020463946BDE8C8
:10089000F08D0020054346EAE0762C4337430A9862
:1008A0006305E40AA0EB08000022FD0A44EA47546D
:1008B0000A3002D500200146E9E701051019694117
:1008C000DDE9084500196941BDE8F04DA2E72DE9D1
:1008D000FE4F804681EA0300C00F0C46009021F0D5
:1008E000004123F00045B8EB0200A94105D2404683
:1008F000214690461C460B46024623F0004010431A
:1009000047D0270DC7F30A00C3F30A510290401ADB
:10091000019040286BDAC3F3130040F4801B009869
:10092000924620B10023D2EB030A63EB0B0B019834
:100930005946C0F14002504600F09CF806460D466C
:1009400050465946019A00F0A4F810EB08006141A6
:10095000002487EA115284EAE7731A4340D0009AD0
:1009600062B3019A012A4FEA075215DC001B61EBC2
:1009700002014FF0004202EA0752CDE90042001C9A
:1009800041F5801132462B46FFF753FF03B0BDE817
:10099000F08F40462146F9E7001B61EB0201001C85
:1009A00041F5801300185B412018A2F5001747EBB2
:1009B000030140EAD570B6196D4111E06D084FEAA8
:1009C000360645EAC0754FEA0752001B61EB02018B
:1009D000001C41F5801149084FEA300000195141CF
:1009E00032462B4603B0BDE8F04FFFF713BF009827
:1009F000012240000023D0EB020263EBE073009879
:100A000021464FEAE074B8EB000061EB0401E9E72E
:100A100083F000435BE781F0004158E7C1F30A52DD
:100A2000C1F3130140F2FF3341F480119A4202DA1C
:100A300000200146704740F233439A42A2F233420B
:100A400002DC5242FFF767BE00F014B80020704786
:100A5000064C074D06E0E06840F0010394E807000B
:100A600098471034AC42F6D3FFF792FBD8870008C2
:100A7000F8870008202A04DB203A00FA02F100205F
:100A800070479140C2F1200320FA03F319439040CC
:100A90007047202A06DBCB17203A41FA02F043EADE
:100AA000E07306E041FA02F3D040C2F12002914027
:100AB0000843194670470000004870474884000802
:100AC0002DE9F05F82460078002715468B460AF133
:100AD0000104B946302801D09DB113E014F8010B90
:100AE0000127782803D0582801D045B10AE00DB17C
:100AF000102D07D10027102514F8010B02E008255E
:100B000000E00A250026B0460EE005FB080005FBC4
:100B100006F1012701EB10461FFA80F8B6F5803F79
:100B200000D3B94614F8010B294600F018F8002844
:100B3000EBDABBF1000F05D00FB1641E00E05446A4
:100B4000CBF80040B9F1000F06D001F0BDFB022147
:100B50000160C81EBDE8F09F48EA0640FAE73A285F
:100B600000D2303820F02002412A01D3A2F1370010
:100B7000884201D34FF0FF30704770B58C1810F8E1
:100B8000015B15F0070301D110F8013B2A1106D1D2
:100B900010F8012B03E010F8016B01F8016B5B1EEC
:100BA000F9D12B0705D40023521E0DD401F8013BC7
:100BB000FAE710F8013BCB1A921C03E013F8015B33
:100BC00001F8015B521EF9D5A142D8D3002070BDB7
:100BD00010B505F07BFE002010BD000070B50E4D75
:100BE0004FF400642146284600F070FA642005F0B6
:100BF000F9FA66003146284600F06AFA642005F0EA
:100C0000F1FA2146284600F061FA31462846BDE84F
:100C1000704000F05BBA0000001002407CB501217A
:100C2000022000F08DFD0121082000F089FD012146
:100C3000102000F085FD01248DF8044000254FF4BC
:100C400078408DF80650032600908DF805608DF8E9
:100C500007406946134800F0D1F98DF804408DF83B
:100C600006508DF8056020030F4E00908DF8074068
:100C70006946304600F0C2F94FF6FF7000908DF8DB
:100C800004508DF807406946084800F0B7F9600342
:100C900000908DF804508DF807406946304600F00A
:100CA000ADF97CBD0010024000040240000C02407F
:100CB000FEE700002DE9F041012186B0880300F035
:100CC00057FD0121102000F03BFD0025DFF86C806E
:100CD00004268DF80450012400968DF807406946DB
:100CE000404600F08BF908278DF8045000978DF8E6
:100CF00007406946404600F081F90221042000F0D7
:100D0000B9FD8DF80C5010208DF80D0002968DF86D
:100D10000E4002A800F094F88DF810708DF8114084
:100D200002208DF812008DF8134004A800F022FA7A
:100D3000042000F075F806B0BDE8F0810010024014
:100D400070B5012186B0880300F012FD0121022058
:100D500000F0F6FC002602258DF8106001240395B2
:100D60008DF8134003A9114800F048F90121084605
:100D700000F080FD8DF8046010208DF805000095CE
:100D80008DF80640684600F05BF807208DF80800F3
:100D90008DF809408DF80A508DF80B4002A800F03C
:100DA000E9F9022000F03CF806B070BD00040240F2
:100DB0007047000010B5022000F038F800280CD071
:100DC0000221064800F07BF9054900B101200870B6
:100DD000BDE81040022000F023B810BD000402401E
:100DE0000300002010B5042000F020F800280AD0ED
:100DF00005A001F031FA094804F077FFBDE8104082
:100E0000042000F00DB810BD45585449325F4952D6
:100E10005148616E646C65720D0A00004049002003
:100E20000149086070470000143C0140034A014634
:100E3000002012680A4200D001207047143C014093
:100E400030B51A498379026853B30B6893430B603A
:100E50000A1D13680468A343136002790A441368E7
:100E6000046823431360114A083213680468A343DB
:100E70001360131D1C680568AC431C604479102C7A
:100E800005D021440A68006802430A6030BD116839
:100E9000046821431160196800680143196030BD7E
:100EA0000079084401689143016030BD003C014075
:100EB0002DE9FC470121084600F042FC01210220F7
:100EC00000F03EFC0121042000F03AFC0121082042
:100ED00000F036FC0121102000F032FC01248DF8D6
:100EE000044000254FF400608DF806500326DFF81B
:100EF00000A100908DF805608DF8074069465046C6
:100F000000F07CF88DF8044020038DF80650009026
:100F10008DF805608DF807406946504600F06EF880
:100F20008DF804408DF80650DFF8C8808DF8056014
:100F300000948DF807406946404600F05FF88DF850
:100F4000044020028DF80650DFF8AC9000908DF838
:100F500005608DF807406946484600F04FF88DF867
:100F600004408DF8065067028DF8056000978DF8F3
:100F700007406946484600F041F88DF804400220D9
:100F80008DF8065000908DF805608DF80740694691
:100F9000404600F033F88DF8044080208DF806506C
:100FA00000908DF805608DF807406946404600F0D6
:100FB00025F88DF8045000948DF80740694648469E
:100FC00000F01CF88DF8045000978DF80740694632
:100FD000404600F013F8202000908DF804508DF862
:100FE00007406946504600F009F8BDE8FC8700005C
:100FF000000002400008024000040240F0B5002357
:10100000012403270D6804FA03F21540954242D1EA
:10101000D0F800C05E0007FA06F52CEA050CC0F80F
:1010200000C091F804C0D0F800E00CFA06FC4CEACD
:101030000E0CC0F800C091F804C0BCF1010F02D042
:10104000BCF1020F1FD1D0F808C02CEA050CC0F883
:1010500008C091F805C0D0F808E00CFA06FC4CEA8C
:101060000E0CC0F808C0D0F804C02CEA020CC0F87E
:1010700004C0426891F806C00CFA03FC1FFA8CFC0D
:1010800042EA0C024260C268AA43C260CA79C568DB
:10109000B2402A43C2605B1C102BB3D3F0BD4B0798
:1010A000DB0E9A40C90810B500EB8100016A0F24DD
:1010B0009C40A1430162016A1143016210BD0246D6
:1010C000002012690A4200D0012070474183704716
:1010D0000183704742694A404261704710B5002160
:1010E000902000F09BFB0011FFF74FFA9FED051BCE
:1010F00053EC112BFFF768F9FFF7AAFA00EE100A7C
:1011000010BD0000000000000000B03F10B54FF41B
:10111000C06000F061F800F00BF802F011FEFFF77C
:10112000C7FEFFF77BFDBDE8104002F0E3BE000004
:1011300070B50E484FF47A714FF0FF350068B0FB80
:10114000F1F1491EB1F1807F0AD24FF0E0246161D4
:101150000F21284600F04AF80020A06107202061F6
:101160002846BDE87040002100F040B8C0030020D0
:10117000FEE7704730B50F22C47801780123FCB137
:10118000144C246801F1E02104F4E064C4F5E06447
:10119000C4F30724C4F10405E2404478AC408578E8
:1011A000154025432A0181F80024007800F01F0132
:1011B0008B404009800000F1E020C0F8003130BDD4
:1011C00001F01F0083404809800000F1E020C0F8D2
:1011D000803130BD0CED00E002490843024908604F
:1011E000704700000000FA050CED00E00907090E49
:1011F000002806DA00F00F0000F1E02080F8141D4E
:10120000704700F1E02080F80014704770B50024AA
:10121000002104F1B00000F069F90021084600F057
:1012200065F90021102000F061F90025012100205E
:1012300000F05CF96D1CEDB2802DF7D3641CE4B2B4
:10124000082CE5D370BD10B503F078FDC82004F07C
:10125000C9FF0021AE2000F049F90021084600F046
:1012600045F90021102000F041F90021402000F054
:101270003DF90021B02000F039F90021812000F073
:1012800035F90021FF2000F031F90021A12000F004
:101290002DF90021A62000F029F90021A82000F056
:1012A00025F900213F2000F021F90021C82000F09D
:1012B0001DF90021D32000F019F90021084600F0A3
:1012C00015F90021D52000F011F90021802000F04F
:1012D0000DF90021D82000F009F90021052000F0C7
:1012E00005F90021D92000F001F90021F12000F0DA
:1012F000FDF80021DA2000F0F9F80021122000F0BA
:10130000F5F80021DB2000F0F1F80021302000F09A
:10131000EDF800218D2000F0E9F80021142000F004
:10132000E5F80021AF2000F0E1F8FFF76FFFBDE81E
:101330001040FFF76BBF10B50A460446002102F1CA
:10134000B00000F0D3F8102040EA1410002100F0A3
:10135000CDF804F00F00BDE81040002100F0C6B841
:101360002DE9F0478146A2F120000024C5B20E46C7
:101370004846B9F17F0F03D900208E1C8146F6B292
:10138000102B0BD00C2B2AD0A2F13000302B37D0F1
:10139000242B22D109285DD8C5B263E03146FFF77E
:1013A000CAFF404F04EB05100121385C00F09EF8A5
:1013B000641CE4B2082CF5D3761CF1B24846FFF762
:1013C000BAFF002404EB051038440121007A00F034
:1013D0008DF8641CE4B2082CF4D3BDE8F0873146E4
:1013E000FFF7A9FF304905EB450001EB400501215E
:1013F000285D00F07BF8641CE4B2062CF7D3ECE720
:10140000092801D8C5B207E02E2A02D0412A02D00D
:1014100002E00A2500E00B25244905EBC50001EB9D
:1014200000183019C1B24846FFF785FF002504EBCC
:10143000440700BF05EBC70118F80100012100F0C7
:1014400055F86D1CEDB2182DF4D3641CE4B2062CD3
:10145000E7D3C2E72E2A02D0412A02D002E00A25B1
:1014600000E00B25C5EB0510114900EB400001EB36
:1014700040083019C1B24846FFF75DFF002504EB74
:10148000C40700BF05EB470118F80100012100F077
:101490002DF86D1CEDB2122DF4D3641CE4B2052CB2
:1014A000E7D39AE77A700008526E00086A7600085F
:1014B0002A7D00082DE9F041984617460E4605465C
:1014C00000240EE0434631462846FFF749FF05EB6E
:1014D0005800C5B2782D02D90025B61CF6B2641C9E
:1014E000E4B23A5D002AEDD1BDE8F081C0B209B1A5
:1014F00000F055B800F03CB81CB5002000900190F9
:101500001448B0F90000FFF740F89FED131B53ECAF
:10151000112BFEF7CBFF41EC100B11A153EC102B5C
:10152000684600F0A9FE24236A4602210A20FFF73C
:10153000C1FF24230CA202216420FFF7BBFF0B4C48
:101540002078002805D10021AF20FFF7CFFF012030
:1015500020701CBD04000020000000000000594065
:1015600025312E3266000000410000002C000020D2
:1015700010B5044603F03EFC782003F00DFC03F0A8
:101580005BFC002003F008FC03F056FC204603F04F
:1015900003FC03F051FCBDE8104003F03FBC10B564
:1015A000044603F027FC782003F0F6FB03F044FC2C
:1015B000402003F0F1FB03F03FFC204603F0ECFB7E
:1015C00003F03AFCBDE8104003F028BC30EE600A9E
:1015D0001E48B0EE002A80ED000A90ED011AD0ED11
:1015E000031A70EE410A60EEA10AD0ED041A41EE32
:1015F000800AF0EE401A41EE421A90ED022A71EE96
:10160000821A90ED052A42EE210AC0ED060AD0EDBD
:10161000071A71EEA00AC0ED070AF5EEC00A80EDC8
:10162000021AF1EE10FA80ED010A02D29FED080ACB
:1016300009E010EE901A074A914202DC90ED070A89
:1016400070479FED050A80ED070A7047804900202A
:10165000000000000000C8420000C84230EE600AEE
:101660001E48B0EE002A80ED000A90ED011AD0ED80
:10167000031A70EE410A60EEA10AD0ED041A41EEA1
:10168000800AF0EE401A41EE421A90ED022A71EE05
:10169000821A90ED052A42EE210AC0ED060AD0ED2D
:1016A000071A71EEA00AC0ED070AF5EEC00A80ED38
:1016B000021AF1EE10FA80ED010A02D29FED080A3B
:1016C00009E010EE901A074A914202DC90ED070AF9
:1016D00070479FED050A80ED070A7047A849002072
:1016E000000000000000C8420000C84212489FED00
:1016F000110ADFED120A80ED000A80ED010A00F107
:101700000801B1EE041AF7EE001A81EC040A80ED2C
:10171000060A80ED070A283000F1080180ED000A72
:1017200080ED010A81EC040A80ED060A80ED070ACB
:10173000704700000000000080490020000048427F
:10174000044A0029116801D0014300E0814311607F
:101750007047000030380240044A0029116801D067
:10176000014300E0814311607047000040380240AF
:10177000044A0029116801D0014300E0814311604F
:10178000704700004438024070B5204A1168204C70
:1017900011F00C0104D01F4E042903D0082903D0F6
:1017A00004601BE0066019E01849091F0B68C3F3C9
:1017B00080550B6803F03F0315B1B6FBF3F301E06E
:1017C000B4FBF3F30C680968C4F388146343C1F3F2
:1017D0000141491C4900B3FBF1F1016011680F237D
:1017E00003EA11110C4B5C5C0168E1404160146834
:1017F000072505EA94241C5D21FA04F4846012682C
:1018000005EA52329A5CD140C16070BD083802408E
:101810000024F40040787D01AD03002070B50D4632
:10182000044603F0A1FD02F0DFFB204602F0B4FB0A
:1018300002F000FC284602F0AFFB02F0FBFB02F0D6
:10184000D3FB44F0010002F0A7FB02F0F3FB02F02F
:101850007FFB044602F0EEFB02F07AFB054602F045
:10186000E9FB02F0D7FB03F08DFD45EA042000B24E
:1018700070BD704710B58A0721F003040849130FA3
:1018800021440F22D1F808489A409443C1F80848EF
:10189000D1F8082898400243C1F8082810BD00007C
:1018A000003001400CB500202749019000900A68E3
:1018B00042F480320A604FF4A0430A6802F4003216
:1018C0000092019A521C0192009A12B9019A9A420E
:1018D000F3D10A68920334D5012000901A484030B1
:1018E000026842F0805202601848026842F44042A6
:1018F00002601548083002680260026842F4004243
:101900000260026842F4A0520260031F104A1A608B
:101910000A6842F080720A600A689201FCD50D4A9A
:1019200040F205711160016821F003010160016856
:1019300041F0020101600168C1F381010229FAD17D
:101940000CBD00900CBD000000380240007000404B
:1019500019544007003C024000F04EBA00F042BB70
:1019600070B5124C01280CD002280DD003280ED0DF
:10197000042805D14FF46040608300BF00BF20837E
:1019800070BD4FF4005504E04FF4804501E04FF482
:10199000004529462046FFF799FB00BF00BF2946B6
:1019A0002046BDE87040FFF793BB000000100240E6
:1019B00004F0F1B870B51A4C20681A4A10F00C0106
:1019C000194804D0194D042903D0082903D0026016
:1019D0001BE0056019E01249091F0B68C3F380562C
:1019E0000B6803F03F0316B1B5FBF3F201E0B2FB65
:1019F000F3F20B680968C3F388135A43C1F301413A
:101A0000491C4900B2FBF1F101602168064AC1F3AB
:101A10000311121D515C0268CA40026070BD0000D3
:101A2000083802400024F400C003002040787D0103
:101A3000124810B5016841F4700101601048016856
:101A400041F0010101600E4A002108321160026874
:101A50000C4B1A400260031D0B4A1A60026822F404
:101A60008022026006480C300160FFF71BFF03492B
:101A70004FF000608039086010BD000088ED00E084
:101A800000380240FFFFF6FE1030002410B5064C6F
:101A9000208AC00706D0054804F027F9208A20F0E4
:101AA0000100208210BD000000100040D04900203D
:101AB0000029018802D041F0800101E021F080017D
:101AC000018070470029018802D041F0010101E046
:101AD00021F0010101807047002A828901D00A4368
:101AE00000E08A438281704770B5028C22F01002B8
:101AF0000284028C8488038B0D8823F4E6464FF61B
:101B0000FF7303EA052535438E8922F0200203EA9C
:101B1000061616434A8803EA02123243104EB042B8
:101B200002D0104EB04215D122F08006CA8924F4AA
:101B3000406403EA0212324322F040068A8803EA34
:101B4000021232430E8A03EA860626434C8A03EACF
:101B5000840434438480058389688163028470BD72
:101B60000000014000040140028B4FF6FF7322F495
:101B7000006203EA012111430183704770B5028CB2
:101B800022F480720284028C8488838B0D8823F077
:101B900073031D4322F400738E894FF6FF7202EA2D
:101BA00006261E434B8802EA03233343104EB042FD
:101BB00002D0104EB04215D123F40066CB8924F434
:101BC000405402EA0323334323F480668B8802EAFD
:101BD000032333430E8A02EA061626434C8A02EA9E
:101BE00004143443848085838968C163038470BD91
:101BF0000000014000040140828B22F008020A43E9
:101C00008283704781637047C163704730B5028833
:101C1000164B174C98420DD0A0420BD0B0F1804F1C
:101C200008D0144DA84205D0134DA84202D0134D40
:101C3000A84203D122F070054A882A43104DA842D9
:101C400006D0104DA84203D022F440750A892A43D9
:101C500002804A68C2620A880285984201D0A04286
:101C600001D1897A01860121818230BD00000140C5
:101C7000000401400004004000080040000C004047
:101C8000001000400014004070B501212DED048BC0
:101C90008AB0B0EE408ADFED3C8A0846FFF750FD7F
:101CA00001210846FFF758FD384E01220221304637
:101CB000FFF7F5F90420059002208DF818000024A4
:101CC0008DF81A4003208DF8190001258DF81B505E
:101CD00005A93046FFF792F904213046FFF7F6F9DF
:101CE0009FED2B0AF7EE000AB5EEC00AF1EE10FAEE
:101CF00001D8B0EE600AB5EEC08A2649F1EE10FABE
:101D000003D318EE100A884201DDB0EE688A9FED19
:101D1000221A4FF0804607A9C1EE001A304671EE34
:101D2000E08ABCEEE80A8DED080AADF81C40ADF87B
:101D30001E40ADF82440FFF769FF6020ADF80000B9
:101D4000ADF8025018EE900AFEF756FC41EC190B64
:101D500018EE100AFEF750FC9FED101B53EC112BF0
:101D6000FEF7A4FB53EC192BFEF72EFBFEF72BFC22
:101D70000290ADF80C4069463046FFF7FFFE0AB00E
:101D8000BDEC048B70BD00000000000000000240AC
:101D900000409C460000C842A037A04C0000000054
:101DA000000059401CB50420009002208DF804006A
:101DB00000208DF8060001208DF8070003200D4C4F
:101DC0008DF8050069462046FFF718F90122022127
:101DD0002046FFF764F90821CC062046FFF70CFFE8
:101DE00001212046FFF764FE01212046FFF76AFE2D
:101DF0001CBD00000000024010B5DFED1A0A2DEDF9
:101E0000048BB0EE408AF5EEC00AB7EE000AF1EEA0
:101E100010FA01D8F0EE400A9FED131AC1EE201A15
:101E200031EEC00A10EE100AFEF7E6FB41EC190B8A
:101E300018EE100AFEF7E0FB9FED0C1B53EC112B84
:101E4000FEF734FB53EC192BFEF7BEFAFEF7BBFB93
:101E5000BDEC048B01464FF08040BDE81040FFF719
:101E6000D3BE000000409C46A037A04C00000000FC
:101E70000000594070B501212DED048B8AB0B0EE01
:101E8000408ADFED3B8A0846FFF75AFC0121082013
:101E9000FFF762FC374E022201213046FFF7FFF8C0
:101EA00002218DF8181000248DF81A4003208DF8B7
:101EB0001900059101258DF81B5005A93046FFF743
:101EC0009DF802213046FFF701F99FED2B0AF7EE4E
:101ED000000AB5EEC00AF1EE10FA01D8B0EE600AC1
:101EE000B5EEC08A2549F1EE10FA03D318EE100AB8
:101EF000884201DDB0EE688A9FED211A214E07A9C4
:101F0000C1EE001A304671EEE08ABCEEE80A8DEDB3
:101F1000080AADF81C40ADF81E40ADF82440FFF7AC
:101F200075FE6020ADF80000ADF8025018EE900A82
:101F3000FEF762FB41EC190B18EE100AFEF75CFB92
:101F40009FED111B53EC112BFEF7B0FA53EC192B3C
:101F5000FEF73AFAFEF737FB0290ADF80C406946FF
:101F60003046FFF7C1FD0AB0BDEC048B70BD000028
:101F7000000000000000024000409C460000C842F3
:101F8000A037A04C000C00400000000000005940A9
:101F90001CB5022000908DF8040000208DF806008A
:101FA00001208DF8070003200C4C8DF805006946D0
:101FB0002046FFF723F8022201212046FFF76FF8A1
:101FC000074C08212046FFF7CFFD01212046FFF7EF
:101FD0006FFD01212046FFF775FD1CBD000002408A
:101FE000000C004010B5DFED190A2DED048BB0EEAA
:101FF000408AF5EEC00AB7EE000AF1EE10FA01D8F9
:10200000F0EE400A9FED121AC1EE201A31EEC00A1E
:1020100010EE100AFEF7F0FA41EC190B18EE100A58
:10202000FEF7EAFA9FED0B1B53EC112BFEF73EFA7D
:1020300053EC192BFEF7C8F9FEF7C5FABDEC048B7B
:102040000146BDE810400548FFF7DCBD00409C4656
:10205000A037A04C0000000000005940000C0040D8
:102060007FB50C46054601211020FFF775FB362091
:102070008DF80C0001208DF80D0002218DF80E1056
:102080008DF80F0003A8FFF775F8ADF800400020A9
:10209000094CADF80200ADF80800019569462046EC
:1020A000FFF7B4FD012211462046FFF715FD01217F
:1020B0002046FFF707FD7FBD001000402DE9F041ED
:1020C000194D40F22556174C3146284600F048F885
:1020D000D0B12F46284600F0B9F8C5B2314638468F
:1020E00000F027F8D4E90001411AFF2905D854FA75
:1020F00080F005742068401C206020782179401A07
:10210000C0B2E060BDE8F08140F22441284600F012
:1021100027F80028F6D01021284600F00AF8012000
:102120002072EFE7F849002000140140C943018004
:1021300070470A0A01219140C94301807047002974
:10214000818902D041F4005101E021F400518181E4
:1021500070470246002012880A4200D001207047D2
:1021600030B501F01F0201240025C1F3421304FA27
:1021700002F2012B0FD0022B0FD0838A4FEA1121DC
:102180000088134204FA01F400EA040001D000B10F
:102190000125284630BD8389F0E7038AEEE7000079
:1021A0007FB50446008A0D4620F44051E888084374
:1021B0002082A08941F20C618843A9882A891143B1
:1021C0006A8902431143A181A08A20F44071A88941
:1021D0000843A0826846FFF7D7FA1A48844202D023
:1021E0001948844201D1039800E00298A1890904AA
:1021F00000EBC00101EB0010296801D5490000E0A7
:102200008900B0FBF1F26420B2FBF0F109010B0987
:102210006FF018056B4302EB8302A3891D044FF096
:10222000320306D503EBC202B2FBF0F000F0070068
:1022300005E003EB0212B2FBF0F000F00F000843E0
:1022400020817FBD00100140001401408088C0F350
:1022500008007047FEE700000FB4054B10B503A956
:10226000044A029800F0D4FC10BC5DF814FB000096
:10227000153B0008280000200FB4084B10B504A936
:1022800002AA039800F0C4FC044602A9002001F051
:1022900094F8204610BC5DF814FB0000BB33000826
:1022A0004100080218BF04200A0E18BF40F00100C8
:1022B0004FF07F4232EA010108BF40F002000128DE
:1022C00008BF0520704700000048704788040020C0
:1022D00010B510EE100A2DED068BB7EE001A10EEB9
:1022E000901AB0EE418A0022A0F5000CDFEDFE9AB4
:1022F0004FF00073BCF1FE4F4FF07F4403EB410CF5
:1023000080F0B481BCF1804FC0F02082F7490144D5
:102310009FEDF73AB1F5005F40F2D48200F58021DD
:10232000CB0C03F00F0101EE901AC3F307137F3BB0
:10233000A0EBC350B8EEE12A00EE100A1A44DFED1C
:10234000ED2AF0EE411A42EE221AF0EE613A70EEFA
:10235000232A30EE632A12EE900A00F500606FF334
:102360000B0001EE900A73EEE13A33EE804AC1EEC3
:10237000223A22EE230A10EE100A00F500606FF3F5
:102380000B0000EE100A00EE612A00EE442A62EE15
:10239000232A70EE221A21EEA12ADFEDD73A02EEAF
:1023A000233A23EE023A20EE012A22EE811A03EEAE
:1023B000211A32EE010A10EE100A00F500606FF3E8
:1023C0000B0000EE100A72EE401A31EE812A9FEDEA
:1023D000CB1A60EE011A9FEDCA1A20EE011A9FED8A
:1023E000C90A02EE001A31EE810A10EE100A00F559
:1023F00000606FF30B0000EE100AC34871EEC01AC4
:1024000031EE812A784400EBC10090ED003AD0ED26
:10241000011A100101EE100AF8EEC12A32EE211A5B
:1024200031EE001A31EE031A31EE221A11EE100AC3
:1024300000F500606FF30B0009EE100A39EE621A26
:1024400031EE431A31EE400A30EE610A32EE40AA14
:1024500010EE900A002100F500606FF30B0008EE0B
:10246000900A084670EEE8AAFEF7F0FA29EE280A6C
:1024700000F00C01F0EEC00A10EE900AB0F18B4FA4
:102480000DDD10EE900AB4EB400F08D310EE100AE9
:102490004FF08B4262F31E0008EE900A13E069EEE3
:1024A0002A0A38EEAA1A4AEE010A30EE201A11EE74
:1024B000100A00F500606FF30B0008EE900A30EE92
:1024C000680A70EE209A0C20FEF7C0FA38EEA90ACE
:1024D000B5EEC00AF1EE10FA34BFFEEE000AF6EED9
:1024E000000A30EE800ABDEEC00A10EE100A01119B
:1024F00000EE101AF8EEC00A00EE100AB8EEC00A9C
:1025000038EEC00A30EE290ADFED801A9FED801AFE
:1025100000EE211ADFED7F1A7F4900F00F0040EE38
:10252000011A21EE800A794401EB800191ED001A35
:102530007A49794401EB8001D1ED001A784901EE26
:10254000801A794401EB8000764990ED000A31EE63
:10255000001AB0EEE00A10EE100A884215DA10EE0A
:10256000100AB4EB400F10D39FED6F0A30EE800AD3
:10257000DFED6E0A20EE200A68EE010ABDEC068B44
:10258000BCEEC00A20EE200A10BD10EE100A684909
:10259000884243DA10EE100AB4EB400F3ED3BDEE92
:1025A000E00A68EE010A10EE100A00EBD07251103A
:1025B000C90501F17E5100EE101AA0EB6200C005C2
:1025C00060EE200A00F17E5000EE100A60EE808A74
:1025D00018EE900AB4EB400F0FD1022000F002FA7F
:1025E00000F0BEF910EE101A18EE100ABDEC068BC2
:1025F00061F31E0000EE100A10BD18EE900A4000B4
:1026000011D018EE900AFFF74BFE042808BF00F027
:10261000AFF9B0EE680ABDEC068B10BDF5EEC00A4E
:10262000F1EE10FA0FD2022000F0DCF900F0A0F970
:1026300010EE101A18EE100ABDEC068B61F31E00A6
:1026400000EE100A10BD022000F0CCF900F088F96D
:1026500010EE101AB0EE480A10EE100ABDEC068B10
:1026600061F31E0000EE100A10BD00BFBCF1804FE8
:102670006CD300BF00F1FF43B3F1FE4F24D200BF83
:10268000B0EEC00A10EE100AC1F3C7537F2B0DDB6A
:10269000972BBFF63BAEC3F196034FF0010C0CFA3B
:1026A00003F3A3F1010C1CEA010F08D0012000F094
:1026B00099F9BDEC068BBDE8104000F049B90B421A
:1026C00018BFBFEE008A21E643001CBF4FF08073A5
:1026D000B3EB400F34D96FF01A02DFED161A20EE7B
:1026E000210A10EE100A27E000000000001080C050
:1026F000ABAAAA3E0000803D7EE24C3E00B03842CC
:10270000D49AB8BB3BAA38427C5E0000FC596337C0
:10271000C9FF753A1872313D1A5E00004E5E000026
:10272000BE5D00000000FC420000FE420000004BC5
:10273000000040430000004D10F0004FA0D1E5E53F
:10274000A0F50003B3F1FE4F21D2DFE503EB410317
:10275000B3F1007F11D3F5EEC00AF1EE10FA05D106
:10276000430018BFB4EB400F76D883E701F0004177
:1027700041F0FC5100EE901A7CE7B3F1807F06D265
:1027800010EE903AA3F5000300EE903A72E720F0C5
:1027900000426FF0FF4C604C02EB0C03A34210D3DD
:1027A00021F000439C44A4450BD3B0F17E5F18BFD9
:1027B0005FEA410C50D0B2F1FF4F98BFB3F1FF4F29
:1027C00005D9BDEC068BBDE8104000F0BDB8B0F1F6
:1027D000FF4F0FD0C1F3C7527F2A09DB972A11DAC6
:1027E000C2F19602012303FA02F2531E0B4205D0F6
:1027F000002208E011F0004F55D128E00A4218BF2E
:10280000012200D1022210F5000F13D028B3B0F13D
:10281000004F26D010F1814F4FD04FF0FE42B2EB67
:10282000400F94BF01200020012202EBE171884299
:1028300039D10CE011F0004F02D0012A38D032E03B
:10284000012A02BF9FED350ABDEC068B10BD9FED3E
:10285000340ABDEC068B10BD2FE011F0004F0CD1F7
:1028600021E0B1F1FF4F1ED011F5000F05D011F09E
:10287000004F15D00AB1012A08D0022000F0B2F8AA
:10288000BDEC068BBDE8104000F054B8022000F00B
:10289000A9F800F04FF8BDEC068BB1EE400A10BD70
:1028A0000AB1012A04D0B0EE690ABDEC068B10BD56
:1028B000BDEC068B9FED1B0A10BDBDEC068BB7EE81
:1028C000000A10BD30EE410AB5EE001A9FED172A3E
:1028D00000EE413AB6EE001A60EE001A00EE431A1E
:1028E00061EEC11A9FED101A20EE011A20EE020AC5
:1028F0009FED0F2A01EE820A71EE001A11EE900A86
:1029000000F500606FF30B0009EE100A31EE491A72
:1029100031EE00AA9CE50000FFFF3F00000080FFB1
:102920000000807F0000008000B0B841D49A38BB1E
:102930003BAAB841DFED030AB7EE001A81EE200A88
:10294000704700000000000030EE200A70470000D1
:10295000DFED020A80EEA00A7047000000000000D0
:102960009FED020A20EE000A704700000000007090
:102970009FED020A20EE000A7047000000000010E0
:10298000002807D00E4910F0FF0F04D051FA80F054
:102990000078401C704710F47F4F04D0C0F307202C
:1029A000085C0930704710F47F0F04D0C0F3074073
:1029B000085C1130704701EB1060007819307047E7
:1029C0006281000802E008C8121F08C1002AFAD17B
:1029D00070477047002001E001C1121F002AFBD19F
:1029E000704700000149086070470000880400201B
:1029F0002DE9FF5F82B00021DDE90430020DDDF832
:102A000040B0034318D044F61050A2F2FF324243C4
:102A10001514119801281FD0A5EB0B00401C5FEA8C
:102A2000000A4FF000064E4FDFF83891B04650468E
:102A300015D5CAF1000413E0119801244AA3012816
:102A400001D16FEA0B010298119AC0E90031C0E987
:102A5000024206B0BDE8F09FCBF10000DFE704467C
:102A60000021404A491842EB0450CDE9001012E021
:102A7000E00707D032463B4640464946FDF7A4FCF6
:102A80008046894632463B4610461946FDF79CFC77
:102A900006460F466410002CEAD1DDE90401DDE9A9
:102AA0000023BAF1000F06DAFDF78EFC42464B46D2
:102AB000FDF78AFC05E0FDF7F9FC42464B46FDF7C1
:102AC000F5FC04460E460022284BFDF7A9FD03D86D
:102AD0004FF0FF30014607E00022254B20463146EB
:102AE000FDF7F5FEFDF79AFF102409E0002C0ADB44
:102AF0000A220023FDF7DEFD039B30321A55641EC7
:102B000050EA0102F2D1641C039AC4F11103144487
:102B1000119A012A03D0012208430DD10AE008438B
:102B200004D000204FF0110B119072E7A3EB0B05BE
:102B30006D1E0DE05B4504DD4FF0000205F101055F
:102B400004E003DA4FF00002A5F10105002AECD001
:102B500002981199C0E90231C0E9004579E7000007
:102B6000000014400000F03F300000000000F0437F
:102B70000000E03F2DE9F04F89B092468B460646B3
:102B8000002400E0641C305D202803D0092801D017
:102B90005C45F7D34FF0FF387CB3194804F10609C0
:102BA000184F056811E0062217A12868FDF7F0FB11
:102BB00050B9286822463146801DFDF7E9FB18B957
:102BC000296811F8090020B10C3538688542EAD32C
:102BD00014E0AC688CB120216846FDF7A6FB6A467C
:102BE0005946304602F036F838B16946A047CAF86F
:102BF0000000002009B0BDE8F08FFFE74046F9E78C
:102C000070040020740400205F5F636D645F000047
:102C10002DE9FF4F95B09A46884606460025EEE11D
:102C2000252877D100242746F94A0121039400E0A2
:102C3000044316F8013F203B01FA03F01042F7D19C
:102C400030782A2811D06FF02F033078A0F13002AD
:102C5000092A16D8039A44F0020402EB820203EB1D
:102C600042021044761C0390EFE758F8042B0392BD
:102C7000002A03DA504244F40054039044F0020462
:102C8000761C30782E2816D116F8010F44F0040473
:102C90002A280DD06FF02F023078A0F13003092BD5
:102CA00009D807EB870302EB4303C718761CF3E749
:102CB00058F8047B761C30786C280FD006DC4C2842
:102CC00017D068280DD06A2814D104E0742810D0D9
:102CD0007A280FD10DE044F400140AE044F4801483
:102CE00001E044F440147278824202D104F5801469
:102CF000761C761C307866280BD013DC582877D0E9
:102D000009DC002875D04528F6D04628F4D047289D
:102D10001AD193E118E0632835D0642879D065286A
:102D200012D18BE1702873D008DC6728F1D06928B4
:102D30006FD06E280DD06F2806D1ACE073282CD050
:102D4000752874D0782853D05246179990476D1C37
:102D500054E1C4F30250022809D003280DD0D8F85A
:102D6000001004280DD00D6008F1040846E1D8F8E1
:102D70000010EA17C1E90052F6E7D8F800100D80FC
:102D8000F2E70D70F0E718F8041B8DF80010002032
:102D90008DF80100EB46012003E058F804BB4FF02A
:102DA000FF3061074FF0000102D40DE009F101018D
:102DB0008946B9420FDA8145F8DB1BF80910002972
:102DC000F4D108E009F1010189468142FADB1BF8E0
:102DD00009100029F6D103985346A0EB09072146B4
:102DE0003846179A00F080FA284400EB090507E0FE
:102DF00044E008E10DE01BF8010B5246179990479B
:102E0000B9F10109F7D2534621463846179AF2E044
:102E100039E00A21C4F302524FF0000B0091022A5C
:102E200006D058F8040BC117032A09D00AE023E0A2
:102E300008F1070020F00702F2E80201904605E0E1
:102E400000B2C117042A01D140B2C117002906DA25
:102E50000A460021404261EB02012D2202E02205D8
:102E600004D52B228DF80420012203E0E20701D0D3
:102E70002022F7E7914657E00A2100E010214FF0A9
:102E8000000B00910BE010214FF0000B44F0040404
:102E90000827009103E008204FF0000B0090C4F3D6
:102EA0000252022A05D058F8040B0021032A08D048
:102EB00008E008F1070020F00702F2E8020190465E
:102EC00003E080B2042A00D1C0B24FF0000922070B
:102ED0002AD53278702A07D0DDF800C08CF0100CAB
:102EE0005CEA0B0C05D00EE040228DF80420012294
:102EF00008E050EA010306D030238DF804308DF845
:102F0000052002229146009B83F0080353EA0B033D
:102F10000AD150EA010201D1620705D530228DF8AD
:102F200004204FF001097F1E3278582A04D039A2BC
:102F30000C920CAA02920BE03BA2F9E75B46009AC6
:102F4000FDF7B8FB0C9B9B5C029A521E0292137019
:102F500050EA0102F2D1029804A9081A00F1200BEC
:102F6000600702D524F4803400E001275F4502DDCC
:102F7000A7EB0B0000E0002000EB0B010090039892
:102F80004944401A0390E00306D453462146179A59
:102F9000039800F0A9F90544002706E001A852466D
:102FA000C05D179990476D1C7F1C4F45F6DBE00311
:102FB0000CD553462146179A039800F095F905441D
:102FC00004E030205246179990476D1C0099481E26
:102FD00000900029F5DC08E002980299524600783A
:102FE000491C0291179990476D1CBBF10001ABF190
:102FF000010BF1DC5BE100F065F90544761C3078EB
:1030000000287FF40DAE19B02846BDE8F08F00000F
:1030100009280100303132333435363738396162AE
:103020006364656600000000303132333435363772
:10303000383941424344454600000000600700D44F
:10304000062708F1070020F00700F0E80223804679
:1030500003F0004C5FEA0C0001D097A009E02005C6
:1030600001D596A005E0E00701D095A001E0AFF200
:103070004C001390307823F0004365280CD006DC18
:10308000452809D046281DD047287FD13BE0662837
:1030900018D067287AD136E00021112F01DB1120EA
:1030A00000E0781CCDE9000104A90CA8FFF7A0FC02
:1030B000DDE90D010C9A4FF0000B07F101091092A8
:1030C00000914EE04FF000400097CDE9011004A9B7
:1030D0000CA8FFF78DFCDDE90D020C9B0F994FF05A
:1030E000000B91461093009211B9791C00EB010975
:1030F000B7EB090003D4C0F1FF3B07F10109A9EBCD
:103100000700019042E0012F00DA01270021112F72
:1031100001DD112000E03846CDE9000104A90CA82A
:10312000FFF766FCDDE90D010C9A00914FF0000BF2
:10313000B946109221070FD4009A4A4503DA914606
:1031400001E0A9F10109B9F1010F05DD109AA9F11A
:103150000101515C3029F4D0B84202DA10F1040FB9
:1031600003DA0121CDE9011010E0002803DC8344DB
:10317000A9EB000102E0411C494500DD8946A0EBB6
:103180000B00401C01904FF000400290200705D436
:103190000198484502DB4FF0FF30019000208DF888
:1031A0004B0002980DF14B07B0F1004F25D00220E3
:1031B0000C902B200D90029800280CDA40420290CF
:1031C0002D200D9007E00A210298FDF75DFA3031BD
:1031D000029007F8011D0C99481E0C900029F2DCA2
:1031E00002980028EFD1791E0D980870307800F011
:1031F000200040F0450007F8020D11A8C01BC01DBB
:1032000002901398007800B1012000EB09010198A9
:1032100001EBE071029801440398401A401E0390AC
:10322000E00306D453462146179A039800F05CF851
:1032300005441398007818B15246179990476D1CB1
:10324000E00323D553462146179A039800F04CF823
:1032500005441BE0BBF1000F07DB0098584504DD77
:103260001098179910F80B0001E01799302052467A
:10327000904701980BF1010B401E05F101050190EB
:1032800004D12E205246179990476D1CB9F10001C8
:10329000A9F10109DEDC05E017F8010B5246179988
:1032A00090476D1C0299481E02900029F4DC534699
:1032B0002146179A03989EE62D0000002B0000007F
:1032C000200000002DE9F041044600251E46174667
:1032D000880404D405E039462020B0476D1C641EE4
:1032E000F9D52846BDE8F0812DE9F04104460025D6
:1032F0001E469046C80301D5302700E020278804E9
:1033000004D505E041463846B0476D1C641EF9D52A
:103310002846BDE8F08100002DE9FC411F46044627
:10332000DDE90831DDE90A651C3040600060C4E970
:103330000A27C4E90C310A4623211846243402F036
:103340007BFBD4E903014218D4E90101104B121FA1
:1033500002F014FA44F81A0B002004F801690D4A2F
:1033600004F8036BE4E8020544F8105901C404F8BA
:10337000440B01C444F88409009023460190194687
:1033800004F14C0003F0C2F80020BDE8FC8100000D
:10339000CD600008EB62000810B5029C24F0010427
:1033A0004474C0E909120021C0E90B311C304060AF
:1033B000006010BD1C3002F0A4BA0A68531C0B60F8
:1033C0001070704770B50546FCF7FCFED5F880100C
:1033D000044609B1284688472046BDE87040FCF7FE
:1033E000F5BEFDF71BFC322002F0FCFEFDF7F6FBFC
:1033F000322002F0F7FE00F035FC0A2002F0F2FE67
:1034000000F030FC0A2002F0EDFE4FF4FA64204692
:1034100002F0E8FEFBE700001CB50026642002F085
:10342000E1FEDFF89490DFF894A04FF4E16B902078
:10343000FDF754FE10EE104A642002F0D3FE9220F5
:10344000FDF74CFE10EE105A642002F0CBFE761C05
:103450000A2E11D300262846FDF7CEF807468846E7
:103460002046FDF7C9F841EC100BCDE9007853EC8C
:10347000102B13A0FEF7F0FE4C4501DC4D4512DD8C
:1034800080215046FDF724FE41F28834204602F0A8
:10349000A9FE204602F0A6FE204602F0A3FE20462A
:1034A00002F0A0FE03E080215046FDF70FFE5846D3
:1034B00002F098FEBBE70000000034420008024022
:1034C000626F6172645F74656D70413A2566202099
:1034D00020626F6172645F74656D70423A25660D9B
:1034E0000A00000010B51BA002F0C2F91C4C2178A4
:1034F0001CA002F0BDF92078C00702D01FA002F086
:10350000B7F92078800702D51FA002F0B1F9207822
:10351000400702D51FA002F0ABF92078000702D5C2
:1035200020A002F0A5F92078C00602D520A002F064
:103530009FF92078000607D509480F300168BDE8DB
:1035400010401DA002F094B9BDE810401EA002F08A
:103550008FB90000627573206661756C743A0A0059
:1035600029ED00E05343425F434653525F424653C6
:10357000523A3078253032582000000049425553E5
:1035800045525220000000005052454349534552D5
:1035900052200000494D5052454349534552522054
:1035A00000000000554E53544B455252200000007D
:1035B00053544B45525220005343422D3E42464104
:1035C000523A253038580A000A00000010B500F0C1
:1035D0007BFE002010BD10B500F03AFF002010BDAA
:1035E00000231A4623A1264802F06DFBFDF762FB7B
:1035F000244E254C4FF0FF394FF4FA780022012178
:103600001F4802F049FB49461D4802F093FB012088
:1036100002F0E8FD04213046FDF751FD0546082182
:103620003046FDF74CFD074618A0FEF715FE208832
:10363000BD420BD0401D00B22080404501DDA4F802
:103640000080144802F051FB13A00AE0401F00B2B2
:103650002080002801DA002020800E4802F045FB7F
:103660000FA0FEF7F9FDB4F900100FA0FEF7F4FD6E
:10367000C4E70000636F6465635F73656D000000FD
:10368000404900200010024004000020526F746185
:1036900074653A00184900202B2B0D0A0000000029
:1036A0002D2D0D0A000000004C45445F63757272B9
:1036B000656E743A25640D0A0000000030B587B0CD
:1036C00001214020FEF73CF801212020FEF750F8B0
:1036D0001D4D082209212846FDF7E1FC08220E2194
:1036E0002846FDF7DCFC4FF48440049002208DF85E
:1036F000140003208DF8150000248DF816400120D9
:103700008DF8170004A92846FDF778FC4FF46130C6
:10371000ADF804400090ADF80640ADF80840ADF8B3
:103720000C400C20094CADF80A0069462046FEF713
:1037300037FD01212046FEF702FD40212046FEF71D
:10374000F8FC07B030BD0000001802400014014032
:1037500030B5074C0022231F06E0855C25801D88BC
:103760006D06FCD5521CD2B28A42F6D330BD0000A1
:1037700004140140104810B5416991F829108907D7
:1037800003D40E490020087014E0016929B14FF4F8
:1037900000720A48FCF7E0FD0CE001F059FA08B1AC
:1037A00007A100E008A10548FCF7E9FD08A10348CE
:1037B000FCF7C6FD014810BD7004002040630020E6
:1037C0006D7368200000000066696E736820000059
:1037D0003E0000000349496911F8292F60F34102B6
:1037E0000A70704770040020014AC2E90001704766
:1037F000700400207CB516491648FFF7F5FF8021BC
:10380000012001F087FD144C6061D0B10A21152020
:10381000CDE900014FF480630022104910A002F0AE
:103820002FFC054600231A460FA1606902F04BFAEF
:103830000120FFF7CFFF15B1284602F01FFD002041
:103840007CBD0BA002F014F84FF0FF307CBD0000EF
:10385000D88700080C870008700400208938000809
:10386000747368656C6C0000736872780000000007
:103870006E6F206D656D6F727920666F7220736850
:10388000656C6C0A00000000984D686910F8291FEB
:1038900041F001010170FFF76DFF01F0E9FF002623
:1038A00001F026FE0400FBD41B2C07D0686990F8B9
:1038B0002810012907D002290ED017E069690120DC
:1038C00081F82800ECE75B2C02D080F828600DE03E
:1038D000022180F82810E3E780F82860412CDFD02F
:1038E000422CDDD0442C38D0432C43D0002CD7D0F0
:1038F000FF2CD5D0092C4ED07F2C75D0082C73D03E
:103900000D2C70D00A2CFCD0B0F87A10502901D3BD
:10391000A0F87A60B0F87C30B0F87A108B427DD293
:10392000CA1A00F12A012B301944184402F06AF82F
:103930006869B0F87C102A300C54686990F8291036
:10394000C90706D0B0F87C102A30014468A001F005
:103950008FFF6869B0F87C40A5E0B0F87C000028D3
:103960009ED064A001F084FF686930F87C1F491E76
:10397000018095E7B0F87C10B0F87A2091428FD2A0
:103980002A30095C5CA001F073FF696931F87C0F93
:10399000401C088084E7002403E056A001F068FF83
:1039A000641C6869B0F87C00A042F6DC6C6953A026
:1039B0002A3401F05DFF01F04BF9012802D12046C5
:1039C00001F082F8FFF7D6FE014622464CA001F036
:1039D0004FFF68692A30FCF7CBFC696921F87A0F40
:1039E00048805DE700E03DE0B0F87C20002AC0D0D0
:1039F000B0F87A10521E491E89B293B2A0F87A101C
:103A0000A0F87C30994224D9CA1A00F12B012A303F
:103A10001944184401F0F6FF686900E049E0B0F885
:103A20007A102A300E546869B0F87C102A300144AC
:103A300035A001F01DFF6869B0F87C4003E02DA0BF
:103A400001F016FF641C6869B0F87A00A04290DBB0
:103A5000F5E72FA001F00CFF6869B0F87A102A3062
:103A60000E541DE701F0F4F801280DD1686990F8B3
:103A70002900C00702D021A001F0FAFE6869B0F861
:103A80007A102A3001F076F8FFF774FE01F0F0FEAC
:103A9000686950212A30FCF748FC686922E015A0CB
:103AA00001F0E6FE641C6869B0F87A00A042F6DC1A
:103AB0000AE02A300C54686990F82900C00703D046
:103AC00021460DA001F0D4FE6869B0F87A10491CB7
:103AD00089B2A0F87A10B0F87C20521CA0F87C20A3
:103AE0005029BED320F87A6F4680D9E670040020B2
:103AF0002573000008000000256300000A00000094
:103B0000257325730000000008257320200800009D
:103B10000820080004490A885206FCD5024AC1B2AE
:103B2000121D118070470000001401402DE9F0477C
:103B30002DED048B00F096F8414A424ED2E9001078
:103B40008046D2E90279D2E9045030600846FCF799
:103B500053FD9FED3D9B53EC192BFCF7A7FCFCF7A5
:103B600077FD04463846FCF747FD53EC192BFCF76C
:103B70009DFCFCF76DFD08EE900A2846FCF73CFD25
:103B80009FED331B53EC112BFCF790FCFCF760FD11
:103B9000F0604046FCF730FD53EC192BFCF786FC37
:103BA000FCF756FD05464846FCF726FD53EC192B5D
:103BB000FCF77CFCFCF74CFD08EE100A2046FCF7F5
:103BC0001BFD9FED259B53EC192BFCF76FFCFCF7BD
:103BD0003FFD70602846FCF70FFD53EC192BFCF7F6
:103BE00065FCFCF735FD30611D48B6EE002AF7EEA6
:103BF000001A90ED031AD0ED000A88EE810A32EE29
:103C0000400A60EE202A31EEC03A82EE830A10EEBE
:103C1000101A88EE010AB16032EE400A80ED020A05
:103C200060EE200A31EEC01A80EE810A80ED010AB2
:103C300010EE100A7061BDEC048BBDE8F087000047
:103C4000684900208C040020EA5A7B9FAAAA2040E1
:103C500079AC1919E4AEFF3F0AD7A3703D0AA73F1C
:103C6000080000202DE9F04300202DED028B83B0E9
:103C70002A4D009001904FF480560290314628461C
:103C8000FDF726FA0420FDF76BFE74002146284656
:103C9000FDF715FA0028F9D1DFF884909FED218B0C
:103CA000224F0024E84631462846FDF711FA00BFAE
:103CB00000BF31462846FDF709FA00BF00BFD9F81A
:103CC000000080B228F81400010406D4FCF76EFC52
:103CD00041EC100B9FED161B08E04FF6FF71081A20
:103CE000FCF764FC41EC100B9FED131B51EC100B27
:103CF00053EC112BFCF768FB53EC182BFCF7D6FBAD
:103D0000FCF7A6FC47F82400641CE4B2062CCAD3D6
:103D100003B0BDEC028BBDE8F0830000000402405C
:103D2000100C024000000000C0FFDF406849002086
:103D3000000000000000244000000000000024C03B
:103D400000B52DED028B85B06846FDF71DFD00988E
:103D5000FCF72CFC9FED1D8B53EC182BFCF7A6FBFE
:103D600041EC100B1BA053EC102BFEF775FA0198D9
:103D7000FCF71CFC53EC182BFCF798FB41EC100BE8
:103D80001BA053EC102BFEF767FA0298FCF70EFC11
:103D900053EC182BFCF78AFB41EC100B1BA053ECE7
:103DA000102BFEF759FA0398FCF700FC53EC182B84
:103DB000FCF77CFB41EC100B1BA053EC102BFEF727
:103DC0004BFA05B0BDEC028B00BD00000000000006
:103DD00080842E41535953434C4B5F467265717535
:103DE000656E63793A252E33664D487A0D0A0000D8
:103DF00048434C4B5F4672657175656E63793A2531
:103E00002E33664D487A0D0A0000000050434C4B9B
:103E1000315F4672657175656E63793A252E33663A
:103E20004D487A0D0A00000050434C4B325F4672F9
:103E3000657175656E63793A252E33664D487A0D46
:103E40000A00000010B5124C2068800702D511A0AE
:103E500001F00EFD2068400011D50D48C01E00780D
:103E600008B1FFF73FFB0A48001F007808B100F0D7
:103E700097FC0748801E008808B102F07DFF20688B
:103E8000002804DABDE8104008A001F0F1BC10BD24
:103E90002CED00E06661696C656420766563746F83
:103EA000722066657463680A0000000064656275CC
:103EB00067206576656E740A0000000010B502A0E8
:103EC00001F0D6FC002010BD48656C6C6F20525488
:103ED0002D546872656164210A0000000020401CB6
:103EE00080B21C28FBD370470020401C80B21C28E5
:103EF000FBD370477CB501210220FDF721FC012195
:103F00000220FDF71DFC01248DF804404FF4806071
:103F10008DF8064003250D4E00908DF805508DF864
:103F2000074069463046FDF769F88DF80440E00225
:103F30008DF8064000908DF805508DF807406946D1
:103F40003046FDF75BF800F065F87CBD00040240E8
:103F50002DE9F0470F4F0025DFF838802C46A8F1F7
:103F600008083E1507F102093E80FFF7BDFF600615
:103F7000040ED8F80000000501D5641CE4B2A9F8CD
:103F80000060FFF7B1FF6D1CEDB2082DECD32046A9
:103F9000BDE8F087180402402DE9F04706461148B5
:103FA0004FF48065058000244FF400698046871E29
:103FB0003006484601D5388001E0A8F800007006B8
:103FC000060EFFF791FF3D80FFF78EFFA8F8005027
:103FD000FFF78AFF641CE4B2082CE9D3A7F800902D
:103FE000BDE8F0871A04024070B509484FF4006537
:103FF000058004150480FFF777FF054EB61C358059
:10400000FFF772FF3480BDE87040FFF76DBF00001E
:104010001804024070B506484FF400640480044D53
:104020000015AD1E2880FFF75FFF2C8070BD0000DB
:104030001A04024070B50C4D4FF400600024288033
:10404000FFF752FF2E152E80FFF74EFF0648083867
:104050000068000500D501240348801C0680FFF796
:1040600043FF204670BD000018040240084C4FF486
:104070008075C82002F0B6F829462046FDF726F8DC
:10408000C82002F0AFF829462046FDF721F8F0E7F6
:104090000004024070B50CA001F0EAFB0F48104D7F
:1040A00004680BE002220FA12068FCF771F920B12F
:1040B000D4E900120CA001F0DBFB0C342868844228
:1040C000F0D3002070BD00002D2D46756E6374691D
:1040D0006F6E204C6973743A0A000000700400206F
:1040E000740400205F5F0000252D313673202D2DD4
:1040F0002025730A000000002DE9F04104461E4609
:1041000017460D46084601F005FD001D206025728A
:1041100000206760C4E90360BDE8F0812DE9F0414B
:104120000D4600212961E96891B1297A81B12E6893
:1041300088B10446FCF746F80146A4F114002A7A37
:10414000007C20F08000904209D00846FCF73EF841
:104150000020BDE8F0813446FCF734F80146686879
:1041600000272468B44201D1002404E010C0EA68AA
:104170007F1CBA42F5D10846FCF728F820462F618B
:10418000E7E700002DE9F04196B000262FA40823B0
:104190000CAA052106A8FFF7AFFF102080460146B4
:1041A00022462CA001F064FB404600F0BBFD32A08B
:1041B00001F05EFB06A93046FFF7B0FF064600257A
:1041C0003BE00CA850F82540143CFBF7FBFF0146F0
:1041D000207C9DF8202020F080009042084602D0EC
:1041E000FBF7F4FF28E0FBF7F1FFE06904F11C079F
:1041F000B842384613D001F069FB228D618D0091E1
:10420000CDE9012023461022414622A001F030FBD7
:10421000384602F0B3FC25A001F02AFB0CE001F0C7
:1042200055FB218D628DCDE900210290234610229D
:1042300041461FA001F01CFB6D1C0A98A842C0DC7F
:10424000002EB7D116B00020BDE8F0816D61696C19
:10425000626F7800252D2A2E7320656E7472792086
:1042600073697A652073757370656E642074687203
:104270006561640A00000000202D2D2D2D20202DC9
:104280002D2D2D202D2D2D2D2D2D2D2D2D2D2D2D6B
:104290002D2D0A00252D2A2E2A7320253034642046
:1042A00020253034642025643A0000000A00000014
:1042B000252D2A2E2A7320253034642020253034E1
:1042C000642025640A00000010B5074C07A0E168CF
:1042D00001F0CEFA0AA0216901F0CAFA6169BDE8CD
:1042E00010400CA001F0C4BAEC030020746F74619C
:1042F0006C206D656D6F72793A2025640A000000AC
:1043000075736564206D656D6F7279203A20256440
:104310000A0000006D6178696D756D20616C6C6FCD
:104320006361746564206D656D6F72793A202564F0
:104330000A0000002DE9F04194B000262CA40823C7
:104340000BAA022105A8FFF7D7FE102080460146E0
:1043500022462AA001F08CFA404600F0E3FC2EA091
:1043600001F086FA05A93046FFF7D8FE064600257B
:1043700035E00BA850F82540143CFBF723FF217CC7
:104380009DF81C2021F08001914202D0FBF71EFF16
:1043900024E0FBF71BFFE06904F11C07B842384634
:1043A00011D001F093FAA18CCDE900102346102220
:1043B00041461FA001F05CFA384602F0DFFB15A071
:1043C00001F056FA0AE001F081FAA18CCDE9001063
:1043D0002346102241461AA001F04AFA6D1C0998A2
:1043E000A842C6DC002EBDD114B00020BDE8F0818B
:1043F00073656D6170686F7265000000252D2A2E4F
:1044000073207620202073757370656E6420746845
:10441000726561640A000000202D2D2D202D2D2DA8
:104420002D2D2D2D2D2D2D2D2D2D2D0A0000000093
:10443000252D2A2E2A7320253033642025643A0046
:10444000252D2A2E2A7320253033642025640A0066
:104450002DE9F041B8B000263CA4082330AA012180
:104460002AA8FFF749FE1020804601462246394817
:1044700001F0FEF9404600F055FC37A001F0F8F9D4
:104480002AA93046FFF74AFE0646002554E030A828
:1044900050F82540143CFBF795FE0746207C9DF81C
:1044A000B01020F08000884203D03846FBF78EFE23
:1044B00041E08822214604A8FBF71EFF3846FBF79F
:1044C00085FE94F83D00009023461022414632A01C
:1044D00001F0CEF994F83C0000F00F00012807D05D
:1044E000022807D040B1042808D0032808D00AE0E9
:1044F0002CA006E02EA004E030A002E032A000E0F4
:1045000034A001F0B5F9206B014600E0401C0278B0
:10451000232AFBD0626B401A101A64235843B0FB65
:10452000F2F3A76BA06CCDE90007606A081A811846
:104530002BA001F09DF96D1C2E98A842A7DC002E3F
:104540009ED138B00020BDE8F0810000746872652B
:10455000616400004C840008202D2D2D20202D2D7D
:104560002D2D2D2D2D202D2D2D2D2D2D2D2D2D2D88
:10457000202D2D2D2D2D2D2D2D2D2D20202D2D2D92
:104580002D2D2D20202D2D2D2D2D2D2D2D2D2D2082
:104590002D2D2D0A00000000252D2A2E2A732025FE
:1045A00033642000207265616479202000000000DF
:1045B0002073757370656E640000000020696E6979
:1045C000742020200000000020636C6F73652020A1
:1045D000000000002072756E6E696E6700000000BA
:1045E00020307825303878203078253038782020F1
:1045F00020202530326425252020203078253038B1
:104600007820253033640A00F0B593B0002626A444
:1046100008230BAA0A2104A8FFF76EFD10272246E3
:10462000394623A001F024F9384600F07BFB2AA08C
:1046300001F01EF904A93046FFF770FD064600257B
:1046400024E00BA850F82540143CFBF7BBFD217C6F
:104650009DF8182021F08001914202D0FBF7B6FDB1
:1046600013E0FBF7B3FDD4E90B01CDE900012346CC
:104670001022394621A001F0FBF8607CC00701D070
:1046800024A000E026A001F0F3F86D1C0898A842D1
:10469000D7DC002ECED101F09FFE014624A001F010
:1046A000E7F813B00020F0BD74696D65720000007A
:1046B000252D2A2E732020706572696F646963202E
:1046C000202074696D656F757420202020202020C3
:1046D000666C61670A000000202D2D2D2D2D2D2DDB
:1046E0002D2D2D202D2D2D2D2D2D2D2D2D2D202D14
:1046F0002D2D2D2D2D2D2D2D2D2D0A00252D2A2E44
:104700002A73203078253038782030782530387872
:10471000200000006163746976617465640A0000BA
:1047200064656163746976617465640A0000000001
:1047300063757272656E74207469636B3A307825A4
:104740003038780A0000000090B040216846FBF73E
:10475000ECFDFCF7DBFC02F0CFF80B4E0B4DF41434
:1047600001213046FCF7B6FC21462846FCF7AEFC9A
:10477000642001F037FD21462846FCF7A9FC64209F
:1047800001F030FDECE700000008024000000240AC
:1047900010B500F0DBFDBDE81040FFF7D5BF00000D
:1047A00010B518A001F064F81B4C21781BA001F093
:1047B0005FF82078C00702D01EA001F059F82078D9
:1047C000800702D51EA001F053F82078000702D51B
:1047D0001EA001F04DF82078C00602D51EA001F001
:1047E00047F82078000607D50B480C300168BDE873
:1047F00010401CA001F03CB8BDE810401D4801F07D
:1048000037B800006D656D206D616E61676520666B
:1048100061756C743A0A000028ED00E05343425F72
:10482000434653525F4D4653523A30782530325802
:10483000200000004941434356494F4C20000000EE
:104840004441434356494F4C200000004D554E53C0
:10485000544B4552522000004D53544B4552522068
:10486000000000005343422D3E4D4D41523A253049
:1048700038580A00E86D00082DED088B82B09FEDD6
:104880007E8A4FF49670F0EE488AB0EE489A01F0B6
:10489000A9FCB0EE480AFDF7F7F9B0EE480AFDF7BB
:1048A000E9FAFDF77FFAFDF773FBFCF71FFFFCF752
:1048B00047FA00231A4671A1744801F004FA4FF434
:1048C000C87001F08FFC142140F2E730FDF7C8FBFF
:1048D00002216F48FCF7F3FBDFF8B881012508B12E
:1048E00088F80050FFF722F9DFF8ACA1DFF8ACB18F
:1048F00000279FED6BABDFF8B0916C4C6C4EF1EE86
:1049000004BA00220121614801F0C6F94FF0FF31DD
:104910005E4801F00FFAFFF709F96069504501DAC6
:10492000357000E03770A068504501DA757000E01E
:104930007770357075709BF80000002899F80000BA
:104940000ED00028206800EE100A66D0F0EE400A73
:1049500010EE101A5748814262DCB0EE480A66E059
:104960005548B0F90000FBF710FECDE9000153EC0B
:104970001A2BFBF79BFDFBF76BFE09EE900ADDE9B6
:10498000000153EC1A2BFBF791FDFBF761FE0BEED8
:10499000100A4A48007801282FD119EE901A45488C
:1049A000814203DC1BEE101A814226DD2069B0EE45
:1049B000690A00EE900AFCF709FEFCF7CDFF70785B
:1049C00000289ED06068B0EE4B0A00EE900AFCF71B
:1049D00045FEF0EE408A30EE490A394810EE101AD2
:1049E000814205DA39EE680A10EE101A814288DB3E
:1049F000B0EE689AB0EE680A0CE04FF400712448FB
:104A0000FCF764FBFCF772FEB0EE480AFCF7A4FF6B
:104A1000B0EE480AFCF7A2FF73E700EE900A97E7B2
:104A200010EE101A274A914201DDB0EE6B0A10EE2B
:104A3000901A814202DCF0EE480A06E010EE901A6D
:104A4000204A914201DDF0EE6B0A98F8001001292E
:104A5000D3D110EE101A814203DC10EE901A81427D
:104A6000CBDD206900EE900AFCF7B0FDFCF774FF87
:104A700070780028D0D0BBE70000000063616C5F55
:104A80006164637069645F73656D0000D0490020E4
:104A900000040240030000200050C3480000002032
:104AA0000000000000005940020000208C0400209B
:104AB000180000200AD7233C040000200100002039
:104AC0009A99193E0000A0402DE9F0478046002544
:104AD00000782C4618B12248224F066831E0BDE824
:104AE000F0470021084600F077B806221EA1306882
:104AF000FBF74EFC20BB306800F106094046FBF78F
:104B000037FC024649464046FBF742FCC0B925B98E
:104B10004C464846FBF72CFC05464946204601E03A
:104B2000401C491C02781AB10B780BB19A42F7D09D
:104B3000001BA84200DA054649460DA000F098FE89
:104B40000C3638688642D0D3002C06D02A4621463F
:104B50004046BDE8F04701F0D3B9BDE8F08700005A
:104B600070040020740400205F5F636D645F0000C8
:104B700025730A0038B5044601E0491E641C59B18A
:104B800020782028F9D00928F7D06A462046FDF77A
:104B9000F1FF18B1204604E0002038BD009838BD70
:104BA000401C0178202901D00029F9D10021017091
:104BB000214603A000F05CFE4FF0FF3038BD00003E
:104BC00025733A20636F6D6D616E64206E6F742083
:104BD000666F756E642E0A0070B50EA000F048FE78
:104BE0001348144D04680CE0062213A12068FBF75B
:104BF000CFFB28B9D4E9001211A0891D00F038FEBE
:104C00000C3428688442EFD310A000F031FE00205D
:104C100070BD000052542D54687265616420736841
:104C2000656C6C20636F6D6D616E64733A0A000091
:104C300070040020740400205F5F636D645F0000F7
:104C4000252D313673202D2025730A000A0000001F
:104C50000120704770B5002315461C461A464BE0EC
:104C600000F8012B5B1C0678202E01D0092E01D103
:104C70008B42F5D3082C11D321A000F0F9FD0026BA
:104C800006E000BF55F8261025A000F0F1FD761CC7
:104C9000A642F7D321A000F0EBFD2FE08B422DD2EE
:104CA000F6B2222E03D045F82400641C1BE0401C01
:104CB00045F824005B1C641C08E05C2E04D1467897
:104CC000222E01D1401C5B1C401C5B1C0678222E4E
:104CD00001D08B42F1D38B4210D200F8012B5B1C28
:104CE0000AE0401C5B1C0678202E03D0092E01D060
:104CF0008B42F6D38B4201D28B42B4D3204670BD97
:104D0000546F6F206D616E7920617267732021206E
:104D10005765206F6E6C79205573653A0A00000064
:104D20002573200010B5044602E003A000F0A0FDAA
:104D3000641EFAD210BD00002D0000007CB50121D8
:104D40000220FCF7FDFC01210220FCF7F9FC012404
:104D50008DF8044080208DF8064003250D4E00900C
:104D60008DF805508DF8074069463046FCF746F946
:104D70008DF8044040208DF8064000908DF80550D5
:104D80008DF8074069463046FCF738F900F046F8E0
:104D90007CBD0000000402402DE9F047DFF8509090
:104DA000002406464FF040088027A9F102054FF481
:104DB000006A3006404601D5288001E0A9F80000CD
:104DC000FFF78CF82F80FFF789F8A9F80070072CFF
:104DD00001D1A5F800A07006060EFFF77FF8641C4D
:104DE000E4B2082CE5D3A5F80080BDE8F087000008
:104DF0001A04024070B508484025058080240480CC
:104E0000FFF76CF8044EB61C3580FFF767F8348066
:104E1000BDE87040FFF762B81804024070B505485D
:104E200040240480034D8020AD1E2880FFF756F8F3
:104E30002C8070BD1A04024070B50A4C40202080BE
:104E4000FFF74CF880252580FFF748F8054808381B
:104E50000068400601D5012000E000200149891CBE
:104E60000D8070BD18040240FCF7EDF9FCF744FB1F
:104E700000231A460DA1124800F025FF01F05CFF47
:104E80004FF0FF35002201210D4800F005FF2946B3
:104E90000B4800F04FFF0024FCF72EFB4B2001F0E5
:104EA000A1F9641CA4B2062CF6D3EBE76F6C656421
:104EB0005F726566726573685F73656D0000000000
:104EC000184900202DED0C8B82B04FF47A7001F060
:104ED00089F99FED8DAADFF83482DFF834929FEDD7
:104EE0008DCB8E4C9FED8E8B8F4DDFF840B24FF403
:104EF000007A6069266900EE100AA068676880EE93
:104F00000A1A00EE900A80EE8A9AD5ED020AB0EEF7
:104F1000410AFDF7DDF9D5ED020AB0EE490AFDF7C9
:104F2000D7F998F8000020B181480078012872D0A4
:104F3000E2E0804800780128FAD1B9F900000128A0
:104F4000F6DBFBF722FB53EC182BFBF73DFAB0EE38
:104F50004C9AF0EE6C9A53EC192BFBF7A7FA41EC44
:104F60001B0B3046FBF748FB53EC1B2BFBF758FBA6
:104F700001D22878E0B9B9F90000FBF706FBB0EEE2
:104F8000481AF0EE681A53EC112BFBF71DFA53EC9C
:104F9000192BFBF78BFA41EC1B0B3846FBF72CFB6C
:104FA00053EC1B2BFBF73CFBC2D268780028BFD028
:104FB000642001F017F927696668B9F90000FBF76A
:104FC000E4FAB0EE48BAF0EE68BA53EC1B2BFBF7EC
:104FD000FBF953EC192BFBF769FA41EC1D0B384632
:104FE000FBF70AFB53EC1D2BFBF71AFB02D22878C8
:104FF00000285BD1B9F90000FBF7C7FA53EC1B2B73
:10500000FBF7E2F953EC192BFBF750FA6AE002E0E8
:105010006878E0BB70E02068474988426CDDFBF7A8
:10502000EBFA53EC182BFBF7CFF941EC190B304698
:10503000FBF7E2FA53EC192BFBF7F2FA01D22878CE
:10504000B0B92068FBF7D8FAB0EE481AF0EE681A4B
:1050500053EC112BFBF7B8F941EC190B3846FBF771
:10506000CBFA53EC192BFBF7DBFA45D2687888B3FF
:10507000642001F0B7F8276966682068FBF7BCFA7E
:10508000B0EE48BAF0EE68BA53EC1B2B00E00DE02E
:10509000FBF79AF941EC190B3846FBF7ADFA53ECE4
:1050A000192BFBF7BDFA16D22878A0B15146584605
:1050B000FCF70EF83046FBF79FFACDE900013846C1
:1050C000FBF79AFA41EC100B1CA053EC102BFDF7E8
:1050D000C3F815E010E02068FBF78EFA53EC1B2BA9
:1050E000FBF772F941EC190B3046FBF785FA53ECEC
:1050F000192BFBF795FA8BD351465846FBF7E6FF81
:10510000322001F06FF8F4E600007A44000000203D
:105110000400002000000000000059408C04002022
:10512000333333333333F33F18000020000402409D
:1051300003000020010000200AD7233C4C454431E5
:105140005F495F43757272656E743A25662C4C45F3
:1051500044325F495F43757272656E743A25660D1D
:105160000A00000030B5134943680A68134402F18D
:10517000080498420DD05D885DB94D68AB4208D0F7
:105180008D689D4200D188605D6845605B68851AC6
:105190001D518368134483420BD05D88002D08D1D4
:1051A0008D68854200D18B60416859604068991ACA
:1051B000015130BDEC0300202DE9F04F85B0994638
:1051C000DDE90EA5109CAB46630602D5DFF814C1DD
:1051D00003E0DFF810C1ACF1110CE30601D524F0B7
:1051E0000104E30701D0302300E0202300260493CC
:1051F000A3070BD5002A02DA2D26524206E06307E8
:1052000001D52B2602E0230700D520260023EE46F9
:1052100022B930228DF8002001230CE0B9F10A0FE9
:1052200014D002F00F0812091CF808800EF8038051
:105230005B1C002AF2D1AB4200DD1D46AAEB050241
:1052400014F0110F4FF0200708D015E00A27B2FB29
:10525000F7F807FB1828B2FBF7F2E5E73EB1002AA2
:1052600005DD521E03E0884200D20770401CB2F1F7
:10527000000CA2F10102F6DC26B1884200D20670D1
:10528000401C521EE40605D508E0884201D2049C69
:105290000470401C141EA2F10102F6DC30242E46DC
:1052A0006D1E9E420ADD884200D20470401CF6E763
:1052B000884201D2E55C0570401C00E074461D1E6A
:1052C000A3F1010307DDBBF1000FF1D103E0884238
:1052D00000D20770401C131EA2F10102F7DC05B0DA
:1052E000BDE8F08F738200081CB514210A20CDE9B7
:1052F00000014FF400630022034904A000F0C0FE47
:10530000BDE81C4000F0BABF914700086D61696EAE
:105310000000000070B54843044600F0FBFA0500A9
:1053200003D02246002100F087FB284670BD000014
:1053300070B5044C044D02E020688047241DAC4247
:10534000FAD370BDF88600080087000870B5044CD9
:10535000044D02E020688047241DAC42FAD370BDA2
:10536000008700080887000810B5FAF72BFF044AE9
:105370005188491C5180BDE81040FAF727BF000052
:105380004404002010B5FAF71DFF0B4C6188491E3C
:1053900009B2618000290ADC00216180FAF716FF5A
:1053A0006068002807D0BDE8104000F0FDBBBDE8F4
:1053B0001040FAF70BBF10BD4404002070B5002860
:1053C00033D01A4D296888422FD3696888422CD27D
:1053D000A0F10C044FF0FF31154800F0ABFC6088E1
:1053E0004FF4F55610B12088B04208D011A000F05B
:1053F0003FFA23886288214615A000F039FA002080
:1054000060802680A868844200D2AC602968606809
:10541000611A401A2969081A28612046FFF7A2FE7E
:10542000BDE87040024800F060BC70BDEC03002095
:10543000905F0020746F2066726565206120626154
:1054400064206461746120626C6F636B3A0A0000CF
:105450006D656D3A203078253038782C207573656D
:105460006420666C61673A2025642C206D61676951
:105470006320636F64653A203078253034780A0001
:1054800000487047084C002000487047085C002026
:1054900010B5FCF78FFA13484FF47A710068B0FB2F
:1054A000F1F0401EB0F1807F0DD24FF0E0210E4AA6
:1054B0004861F02082F8140D0C4AFF201070002083
:1054C000886107200861FFF733FFFFF7DDFF04461F
:1054D000FFF7D6FF214600F027FDBDE81040FEF79C
:1054E000EDB80000C00300200FE000E023ED00E075
:1054F00070B50E4D4FF0FF3440F225512846FCF7B1
:105500002FFE20B12846FCF7A1FE04460BE008213F
:105510002846FCF71EFE18B108212846FCF706FEB7
:10552000052000F05FFEE0B270BD000000140140F5
:10553000F8B506460D208DF800000024304600F036
:10554000D7FC05460BE0305D0A2803D101216846EF
:10555000FEF7FEF830190121FEF7FAF8641CAC42A0
:10556000F1D3F8BD70B531490546283009682C1DC6
:1055700011B18847002857D02DA0216C00F078F990
:105580002FA0616A00F074F931A0A16A00F070F9EF
:1055900033A0E16A00F06CF935A0216B00F068F9E6
:1055A00037A0616800F064F939A0A16800F060F9E3
:1055B0003BA0E16800F05CF93DA0216900F058F9DA
:1055C0003FA0616900F054F941A0A16900F050F9D1
:1055D00043A0E16900F04CF945A0216A00F048F9C8
:1055E00047A0616B00F044F949A0A16B00F040F9BD
:1055F0004BA0E16B00F03CF92878400708D500F09B
:1056000017FE01464AA000F033F9FEF721FF02E041
:105610004FA000F02DF92878C00602D453A000F066
:1056200027F9FEF70FFCFEE770BD0000D80300204D
:105630007073723A203078253038780A0000000004
:105640007230303A203078253038780A0000000077
:105650007230313A203078253038780A0000000066
:105660007230323A203078253038780A0000000055
:105670007230333A203078253038780A0000000044
:105680007230343A203078253038780A0000000033
:105690007230353A203078253038780A0000000022
:1056A0007230363A203078253038780A0000000011
:1056B0007230373A203078253038780A0000000000
:1056C0007230383A203078253038780A00000000EF
:1056D0007230393A203078253038780A00000000DE
:1056E0007231303A203078253038780A00000000D6
:1056F0007231313A203078253038780A00000000C5
:105700007231323A203078253038780A00000000B3
:10571000206C723A203078253038780A000000007A
:105720002070633A203078253038780A0000000075
:1057300068617264206661756C74206F6E20746895
:10574000726561643A2025730D0A0D0A000000009D
:1057500068617264206661756C74206F6E20686188
:105760006E646C65720D0A0D0A00000046505520EB
:10577000616374697665210D0A00000070B5044606
:10578000121D22F0070000220A4D443840F8225032
:10579000521C112AFAD3416200218162C16200F1D8
:1057A0003402016382E81A004FF0807303640160E1
:1057B00070BD0000EFBEADDE10B5FAF703FD044A80
:1057C0001178491C1170BDE81040FAF7FFBC0000C9
:1057D000E803002010B5FAF7F5FC044A1178491ED9
:1057E0001170BDE81040FAF7F1BC0000E80300209A
:1057F00070B504464FF0FF360BE000BFFAF7E2FC4D
:1058000005462068C6611C3800F0F3FC2846FAF70C
:10581000DDFC2068A042F1D1002070BD2DE9F041EF
:10582000064614460D46084600F03EFD05F11C07ED
:10583000B4B1012C18D134680EE000BF95F83D10CA
:1058400094F82120A4F11C00914204D239461C3066
:1058500000F035F802E02468B442EFD1B44203D13D
:105860003946304600F02BF80020BDE8F0810000FA
:105870000FB440F2FF1110B503AB0548029A00F0D7
:10588000DBFE0348FFF754FE10BC5DF814FB00007C
:10589000905D00200268516002680A600160486003
:1058A00070470268516002680A6001604860704792
:1058B0000268516002680A6001604860704742688F
:1058C000116042684A6041600860704702460021EA
:1058D00000E0491C00689042FBD108467047D0E9BF
:1058E00000124A60D0E90012116040600060704709
:1058F000D0E900124A60D0E90012116040600060F7
:105900007047D0E900124A60D0E90012116040608F
:10591000006070472DE9F047002807D0374CC01CC5
:1059200020F00306E068864202D90020BDE8F08737
:105930000C2E00D20C264FF0FF31314800F0FAF95E
:10594000D4F808C02168E768ACEB0100BA1B4FE04F
:105950000D186B88E3BB6B681B1A0C3BB34246D334
:105960006A6806F11803121A0C3A4FF001094FF455
:10597000F55A9A422DD383190C33CA184FF00008F8
:10598000A2F800A0A2F80280D5F80480C2E9018044
:105990006B60A5F8029050680C37B84202D001F154
:1059A00008028350206930440C30206162698242D1
:1059B00000D26061A5F800A0654512D1A0684288B8
:1059C0007AB1626890420CD040680844A060F6E763
:1059D0000DE0A5F8029068686A1A801A22691044DE
:1059E000E3E7074800F081F905F10C009EE76868DD
:1059F0008242ADD8024800F078F996E7EC03002027
:105A0000905F002010B50346994211D28C189C4239
:105A10000ED9811804E000BF14F8013D01F8013DE2
:105A2000521EF9D210BD00BF11F8014B03F8014B13
:105A3000521EF9D210BD000010B50346CCB2042AA4
:105A40001AD3810718D1194644EA042343EA0343D1
:105A500006E008C1103A08C141F8083B41F8043C8F
:105A6000102AF6D201E008C1121F042AFBD20B460D
:105A700002E000BF03F8014B521EFBD210BD2DE91E
:105A8000F0410F46064600F045F80546C068FFF7AE
:105A900041FF040019D00021EA68FFF7CDFF26740A
:105AA0000020607410223946204600F029FAFAF7E7
:105AB00089FB064604F11401281DFFF7EBFE304672
:105AC000FAF784FB2046BDE8F0810020FBE770B5C3
:105AD000044600202074FAF775FB054604F1140013
